{
  "_format": "hh-sol-artifact-1",
  "contractName": "ArbitratorManager",
  "sourceName": "contracts/core/ArbitratorManager.sol",
  "abi": [
    {
      "inputs": [],
      "stateMutability": "nonpayable",
      "type": "constructor"
    },
    {
      "inputs": [],
      "name": "InvalidInitialization",
      "type": "error"
    },
    {
      "inputs": [],
      "name": "NotInitializing",
      "type": "error"
    },
    {
      "inputs": [
        {
          "internalType": "address",
          "name": "owner",
          "type": "address"
        }
      ],
      "name": "OwnableInvalidOwner",
      "type": "error"
    },
    {
      "inputs": [
        {
          "internalType": "address",
          "name": "account",
          "type": "address"
        }
      ],
      "name": "OwnableUnauthorizedAccount",
      "type": "error"
    },
    {
      "inputs": [],
      "name": "ReentrancyGuardReentrantCall",
      "type": "error"
    },
    {
      "anonymous": false,
      "inputs": [
        {
          "indexed": true,
          "internalType": "address",
          "name": "arbitrator",
          "type": "address"
        },
        {
          "indexed": false,
          "internalType": "uint256",
          "name": "deadline",
          "type": "uint256"
        }
      ],
      "name": "ArbitratorDeadlineUpdated",
      "type": "event"
    },
    {
      "anonymous": false,
      "inputs": [
        {
          "indexed": true,
          "internalType": "address",
          "name": "arbitrator",
          "type": "address"
        },
        {
          "indexed": false,
          "internalType": "uint256",
          "name": "ethFeeRate",
          "type": "uint256"
        },
        {
          "indexed": false,
          "internalType": "uint256",
          "name": "btcFeeRate",
          "type": "uint256"
        }
      ],
      "name": "ArbitratorFeeRateUpdated",
      "type": "event"
    },
    {
      "anonymous": false,
      "inputs": [
        {
          "indexed": true,
          "internalType": "address",
          "name": "arbitrator",
          "type": "address"
        }
      ],
      "name": "ArbitratorFrozen",
      "type": "event"
    },
    {
      "anonymous": false,
      "inputs": [
        {
          "indexed": true,
          "internalType": "address",
          "name": "arbitrator",
          "type": "address"
        }
      ],
      "name": "ArbitratorPaused",
      "type": "event"
    },
    {
      "anonymous": false,
      "inputs": [
        {
          "indexed": true,
          "internalType": "address",
          "name": "arbitrator",
          "type": "address"
        },
        {
          "indexed": true,
          "internalType": "address",
          "name": "operator",
          "type": "address"
        },
        {
          "indexed": false,
          "internalType": "address",
          "name": "revenueAddress",
          "type": "address"
        },
        {
          "indexed": false,
          "internalType": "string",
          "name": "btcAddress",
          "type": "string"
        },
        {
          "indexed": false,
          "internalType": "bytes",
          "name": "btcPubKey",
          "type": "bytes"
        },
        {
          "indexed": false,
          "internalType": "uint256",
          "name": "feeRate",
          "type": "uint256"
        },
        {
          "indexed": false,
          "internalType": "uint256",
          "name": "btcFeeRate",
          "type": "uint256"
        },
        {
          "indexed": false,
          "internalType": "uint256",
          "name": "deadline",
          "type": "uint256"
        }
      ],
      "name": "ArbitratorRegistered",
      "type": "event"
    },
    {
      "anonymous": false,
      "inputs": [
        {
          "indexed": true,
          "internalType": "address",
          "name": "arbitrator",
          "type": "address"
        },
        {
          "indexed": true,
          "internalType": "bytes32",
          "name": "transactionId",
          "type": "bytes32"
        }
      ],
      "name": "ArbitratorReleased",
      "type": "event"
    },
    {
      "anonymous": false,
      "inputs": [
        {
          "indexed": true,
          "internalType": "address",
          "name": "arbitrator",
          "type": "address"
        }
      ],
      "name": "ArbitratorTerminatedWithSlash",
      "type": "event"
    },
    {
      "anonymous": false,
      "inputs": [
        {
          "indexed": true,
          "internalType": "address",
          "name": "arbitrator",
          "type": "address"
        }
      ],
      "name": "ArbitratorUnpaused",
      "type": "event"
    },
    {
      "anonymous": false,
      "inputs": [
        {
          "indexed": true,
          "internalType": "address",
          "name": "newArbitratorWhitelist",
          "type": "address"
        }
      ],
      "name": "ArbitratorWhitelistUpdated",
      "type": "event"
    },
    {
      "anonymous": false,
      "inputs": [
        {
          "indexed": true,
          "internalType": "address",
          "name": "arbitrator",
          "type": "address"
        },
        {
          "indexed": true,
          "internalType": "bytes32",
          "name": "transactionId",
          "type": "bytes32"
        }
      ],
      "name": "ArbitratorWorking",
      "type": "event"
    },
    {
      "anonymous": false,
      "inputs": [
        {
          "indexed": true,
          "internalType": "address",
          "name": "assetManager",
          "type": "address"
        }
      ],
      "name": "AssetManagerUpdated",
      "type": "event"
    },
    {
      "anonymous": false,
      "inputs": [
        {
          "indexed": true,
          "internalType": "address",
          "name": "oldManager",
          "type": "address"
        },
        {
          "indexed": true,
          "internalType": "address",
          "name": "newManager",
          "type": "address"
        }
      ],
      "name": "CompensationManagerUpdated",
      "type": "event"
    },
    {
      "anonymous": false,
      "inputs": [
        {
          "indexed": true,
          "internalType": "address",
          "name": "newConfigManager",
          "type": "address"
        }
      ],
      "name": "ConfigManagerUpdated",
      "type": "event"
    },
    {
      "anonymous": false,
      "inputs": [
        {
          "indexed": false,
          "internalType": "uint64",
          "name": "version",
          "type": "uint64"
        }
      ],
      "name": "Initialized",
      "type": "event"
    },
    {
      "anonymous": false,
      "inputs": [
        {
          "indexed": true,
          "internalType": "address",
          "name": "arbitrator",
          "type": "address"
        },
        {
          "indexed": true,
          "internalType": "address",
          "name": "operator",
          "type": "address"
        },
        {
          "indexed": false,
          "internalType": "bytes",
          "name": "btcPubKey",
          "type": "bytes"
        },
        {
          "indexed": false,
          "internalType": "string",
          "name": "btcAddress",
          "type": "string"
        }
      ],
      "name": "OperatorSet",
      "type": "event"
    },
    {
      "anonymous": false,
      "inputs": [
        {
          "indexed": true,
          "internalType": "address",
          "name": "previousOwner",
          "type": "address"
        },
        {
          "indexed": true,
          "internalType": "address",
          "name": "newOwner",
          "type": "address"
        }
      ],
      "name": "OwnershipTransferred",
      "type": "event"
    },
    {
      "anonymous": false,
      "inputs": [
        {
          "indexed": true,
          "internalType": "address",
          "name": "arbitrator",
          "type": "address"
        },
        {
          "indexed": false,
          "internalType": "address",
          "name": "ethAddress",
          "type": "address"
        },
        {
          "indexed": false,
          "internalType": "bytes",
          "name": "btcPubKey",
          "type": "bytes"
        },
        {
          "indexed": false,
          "internalType": "string",
          "name": "btcAddress",
          "type": "string"
        }
      ],
      "name": "RevenueAddressesSet",
      "type": "event"
    },
    {
      "anonymous": false,
      "inputs": [
        {
          "indexed": true,
          "internalType": "address",
          "name": "arbitrator",
          "type": "address"
        },
        {
          "indexed": true,
          "internalType": "address",
          "name": "assetAddress",
          "type": "address"
        },
        {
          "indexed": false,
          "internalType": "uint256",
          "name": "amount",
          "type": "uint256"
        },
        {
          "indexed": false,
          "internalType": "uint256[]",
          "name": "nftTokenIds",
          "type": "uint256[]"
        }
      ],
      "name": "StakeAdded",
      "type": "event"
    },
    {
      "anonymous": false,
      "inputs": [
        {
          "indexed": true,
          "internalType": "address",
          "name": "arbitrator",
          "type": "address"
        },
        {
          "indexed": false,
          "internalType": "uint256",
          "name": "ethAmount",
          "type": "uint256"
        },
        {
          "indexed": true,
          "internalType": "address",
          "name": "erc20Address",
          "type": "address"
        },
        {
          "indexed": false,
          "internalType": "uint256",
          "name": "erc20Amount",
          "type": "uint256"
        },
        {
          "indexed": true,
          "internalType": "address",
          "name": "nftAddress",
          "type": "address"
        },
        {
          "indexed": false,
          "internalType": "uint256[]",
          "name": "nftTokenIds",
          "type": "uint256[]"
        }
      ],
      "name": "StakeWithdrawn",
      "type": "event"
    },
    {
      "anonymous": false,
      "inputs": [
        {
          "indexed": true,
          "internalType": "address",
          "name": "oldManager",
          "type": "address"
        },
        {
          "indexed": true,
          "internalType": "address",
          "name": "newManager",
          "type": "address"
        }
      ],
      "name": "TransactionManagerUpdated",
      "type": "event"
    },
    {
      "inputs": [],
      "name": "arbitratorWhitelist",
      "outputs": [
        {
          "internalType": "contract IArbitratorWhitelist",
          "name": "",
          "type": "address"
        }
      ],
      "stateMutability": "view",
      "type": "function"
    },
    {
      "inputs": [],
      "name": "assetManager",
      "outputs": [
        {
          "internalType": "contract AssetManager",
          "name": "",
          "type": "address"
        }
      ],
      "stateMutability": "view",
      "type": "function"
    },
    {
      "inputs": [],
      "name": "compensationManager",
      "outputs": [
        {
          "internalType": "address",
          "name": "",
          "type": "address"
        }
      ],
      "stateMutability": "view",
      "type": "function"
    },
    {
      "inputs": [],
      "name": "configManager",
      "outputs": [
        {
          "internalType": "contract ConfigManager",
          "name": "",
          "type": "address"
        }
      ],
      "stateMutability": "view",
      "type": "function"
    },
    {
      "inputs": [
        {
          "internalType": "address",
          "name": "arbitrator",
          "type": "address"
        }
      ],
      "name": "frozenArbitrator",
      "outputs": [],
      "stateMutability": "nonpayable",
      "type": "function"
    },
    {
      "inputs": [
        {
          "internalType": "address",
          "name": "arbitrator",
          "type": "address"
        }
      ],
      "name": "getArbitratorAssets",
      "outputs": [
        {
          "components": [
            {
              "internalType": "uint256",
              "name": "ethAmount",
              "type": "uint256"
            },
            {
              "internalType": "address",
              "name": "erc20Token",
              "type": "address"
            },
            {
              "internalType": "uint256",
              "name": "erc20Amount",
              "type": "uint256"
            },
            {
              "internalType": "address",
              "name": "nftContract",
              "type": "address"
            },
            {
              "internalType": "uint256[]",
              "name": "nftTokenIds",
              "type": "uint256[]"
            }
          ],
          "internalType": "struct DataTypes.ArbitratorAssets",
          "name": "",
          "type": "tuple"
        }
      ],
      "stateMutability": "view",
      "type": "function"
    },
    {
      "inputs": [
        {
          "internalType": "address",
          "name": "arbitrator",
          "type": "address"
        }
      ],
      "name": "getArbitratorBasicInfo",
      "outputs": [
        {
          "components": [
            {
              "internalType": "address",
              "name": "arbitrator",
              "type": "address"
            },
            {
              "internalType": "bool",
              "name": "paused",
              "type": "bool"
            },
            {
              "internalType": "uint256",
              "name": "registerTime",
              "type": "uint256"
            },
            {
              "internalType": "uint256",
              "name": "deadline",
              "type": "uint256"
            }
          ],
          "internalType": "struct DataTypes.ArbitratorBasicInfo",
          "name": "",
          "type": "tuple"
        }
      ],
      "stateMutability": "view",
      "type": "function"
    },
    {
      "inputs": [
        {
          "internalType": "address",
          "name": "arbitrator",
          "type": "address"
        }
      ],
      "name": "getArbitratorOperationInfo",
      "outputs": [
        {
          "components": [
            {
              "internalType": "address",
              "name": "operator",
              "type": "address"
            },
            {
              "internalType": "bytes",
              "name": "operatorBtcPubKey",
              "type": "bytes"
            },
            {
              "internalType": "string",
              "name": "operatorBtcAddress",
              "type": "string"
            },
            {
              "internalType": "bytes32",
              "name": "activeTransactionId",
              "type": "bytes32"
            },
            {
              "internalType": "uint256",
              "name": "lastSubmittedWorkTime",
              "type": "uint256"
            }
          ],
          "internalType": "struct DataTypes.ArbitratorOperationInfo",
          "name": "",
          "type": "tuple"
        }
      ],
      "stateMutability": "view",
      "type": "function"
    },
    {
      "inputs": [
        {
          "internalType": "address",
          "name": "arbitrator",
          "type": "address"
        }
      ],
      "name": "getArbitratorRevenueInfo",
      "outputs": [
        {
          "components": [
            {
              "internalType": "uint256",
              "name": "currentFeeRate",
              "type": "uint256"
            },
            {
              "internalType": "uint256",
              "name": "currentBTCFeeRate",
              "type": "uint256"
            },
            {
              "internalType": "bytes",
              "name": "revenueBtcPubKey",
              "type": "bytes"
            },
            {
              "internalType": "string",
              "name": "revenueBtcAddress",
              "type": "string"
            },
            {
              "internalType": "address",
              "name": "revenueETHAddress",
              "type": "address"
            }
          ],
          "internalType": "struct DataTypes.ArbitratorRevenueInfo",
          "name": "",
          "type": "tuple"
        }
      ],
      "stateMutability": "view",
      "type": "function"
    },
    {
      "inputs": [
        {
          "internalType": "address",
          "name": "arbitrator",
          "type": "address"
        }
      ],
      "name": "getAvailableStake",
      "outputs": [
        {
          "internalType": "uint256",
          "name": "",
          "type": "uint256"
        }
      ],
      "stateMutability": "view",
      "type": "function"
    },
    {
      "inputs": [
        {
          "internalType": "uint256",
          "name": "duration",
          "type": "uint256"
        },
        {
          "internalType": "address",
          "name": "arbitrator",
          "type": "address"
        }
      ],
      "name": "getBtcFee",
      "outputs": [
        {
          "internalType": "uint256",
          "name": "fee",
          "type": "uint256"
        }
      ],
      "stateMutability": "view",
      "type": "function"
    },
    {
      "inputs": [
        {
          "internalType": "uint256",
          "name": "duration",
          "type": "uint256"
        },
        {
          "internalType": "address",
          "name": "arbitrator",
          "type": "address"
        }
      ],
      "name": "getFee",
      "outputs": [
        {
          "internalType": "uint256",
          "name": "fee",
          "type": "uint256"
        }
      ],
      "stateMutability": "view",
      "type": "function"
    },
    {
      "inputs": [
        {
          "internalType": "address",
          "name": "_configManager",
          "type": "address"
        }
      ],
      "name": "initialize",
      "outputs": [],
      "stateMutability": "nonpayable",
      "type": "function"
    },
    {
      "inputs": [
        {
          "internalType": "address",
          "name": "arbitratorAddress",
          "type": "address"
        }
      ],
      "name": "isActiveArbitrator",
      "outputs": [
        {
          "internalType": "bool",
          "name": "",
          "type": "bool"
        }
      ],
      "stateMutability": "view",
      "type": "function"
    },
    {
      "inputs": [
        {
          "internalType": "address",
          "name": "arbitrator",
          "type": "address"
        }
      ],
      "name": "isConfigModifiable",
      "outputs": [
        {
          "internalType": "bool",
          "name": "",
          "type": "bool"
        }
      ],
      "stateMutability": "view",
      "type": "function"
    },
    {
      "inputs": [
        {
          "internalType": "address",
          "name": "arbitrator",
          "type": "address"
        }
      ],
      "name": "isFrozenStatus",
      "outputs": [
        {
          "internalType": "bool",
          "name": "",
          "type": "bool"
        }
      ],
      "stateMutability": "view",
      "type": "function"
    },
    {
      "inputs": [
        {
          "internalType": "address",
          "name": "arbitrator",
          "type": "address"
        },
        {
          "internalType": "address",
          "name": "operator",
          "type": "address"
        }
      ],
      "name": "isOperatorOf",
      "outputs": [
        {
          "internalType": "bool",
          "name": "",
          "type": "bool"
        }
      ],
      "stateMutability": "view",
      "type": "function"
    },
    {
      "inputs": [
        {
          "internalType": "address",
          "name": "arbitrator",
          "type": "address"
        }
      ],
      "name": "isPaused",
      "outputs": [
        {
          "internalType": "bool",
          "name": "",
          "type": "bool"
        }
      ],
      "stateMutability": "view",
      "type": "function"
    },
    {
      "inputs": [],
      "name": "owner",
      "outputs": [
        {
          "internalType": "address",
          "name": "",
          "type": "address"
        }
      ],
      "stateMutability": "view",
      "type": "function"
    },
    {
      "inputs": [],
      "name": "pause",
      "outputs": [],
      "stateMutability": "nonpayable",
      "type": "function"
    },
    {
      "inputs": [
        {
          "internalType": "address",
          "name": "token",
          "type": "address"
        },
        {
          "internalType": "uint256",
          "name": "amount",
          "type": "uint256"
        },
        {
          "internalType": "string",
          "name": "defaultBtcAddress",
          "type": "string"
        },
        {
          "internalType": "bytes",
          "name": "defaultBtcPubKey",
          "type": "bytes"
        },
        {
          "internalType": "uint256",
          "name": "feeRate",
          "type": "uint256"
        },
        {
          "internalType": "uint256",
          "name": "btcFeeRate",
          "type": "uint256"
        },
        {
          "internalType": "uint256",
          "name": "deadline",
          "type": "uint256"
        }
      ],
      "name": "registerArbitratorByStakeERC20",
      "outputs": [],
      "stateMutability": "nonpayable",
      "type": "function"
    },
    {
      "inputs": [
        {
          "internalType": "string",
          "name": "defaultBtcAddress",
          "type": "string"
        },
        {
          "internalType": "bytes",
          "name": "defaultBtcPubKey",
          "type": "bytes"
        },
        {
          "internalType": "uint256",
          "name": "feeRate",
          "type": "uint256"
        },
        {
          "internalType": "uint256",
          "name": "btcFeeRate",
          "type": "uint256"
        },
        {
          "internalType": "uint256",
          "name": "deadline",
          "type": "uint256"
        }
      ],
      "name": "registerArbitratorByStakeETH",
      "outputs": [],
      "stateMutability": "payable",
      "type": "function"
    },
    {
      "inputs": [
        {
          "internalType": "uint256[]",
          "name": "tokenIds",
          "type": "uint256[]"
        },
        {
          "internalType": "string",
          "name": "defaultBtcAddress",
          "type": "string"
        },
        {
          "internalType": "bytes",
          "name": "defaultBtcPubKey",
          "type": "bytes"
        },
        {
          "internalType": "uint256",
          "name": "feeRate",
          "type": "uint256"
        },
        {
          "internalType": "uint256",
          "name": "btcFeeRate",
          "type": "uint256"
        },
        {
          "internalType": "uint256",
          "name": "deadline",
          "type": "uint256"
        }
      ],
      "name": "registerArbitratorByStakeNFT",
      "outputs": [],
      "stateMutability": "nonpayable",
      "type": "function"
    },
    {
      "inputs": [
        {
          "internalType": "address",
          "name": "arbitrator",
          "type": "address"
        },
        {
          "internalType": "bytes32",
          "name": "transactionId",
          "type": "bytes32"
        }
      ],
      "name": "releaseArbitrator",
      "outputs": [],
      "stateMutability": "nonpayable",
      "type": "function"
    },
    {
      "inputs": [],
      "name": "renounceOwnership",
      "outputs": [],
      "stateMutability": "nonpayable",
      "type": "function"
    },
    {
      "inputs": [
        {
          "internalType": "uint256",
          "name": "deadline",
          "type": "uint256"
        }
      ],
      "name": "setArbitratorDeadline",
      "outputs": [],
      "stateMutability": "nonpayable",
      "type": "function"
    },
    {
      "inputs": [
        {
          "internalType": "address",
          "name": "_arbitratorWhitelist",
          "type": "address"
        }
      ],
      "name": "setArbitratorWhitelist",
      "outputs": [],
      "stateMutability": "nonpayable",
      "type": "function"
    },
    {
      "inputs": [
        {
          "internalType": "address",
          "name": "arbitrator",
          "type": "address"
        },
        {
          "internalType": "bytes32",
          "name": "transactionId",
          "type": "bytes32"
        }
      ],
      "name": "setArbitratorWorking",
      "outputs": [],
      "stateMutability": "nonpayable",
      "type": "function"
    },
    {
      "inputs": [
        {
          "internalType": "address",
          "name": "_assetManager",
          "type": "address"
        }
      ],
      "name": "setAssetManager",
      "outputs": [],
      "stateMutability": "nonpayable",
      "type": "function"
    },
    {
      "inputs": [
        {
          "internalType": "address",
          "name": "_compensationManager",
          "type": "address"
        }
      ],
      "name": "setCompensationManager",
      "outputs": [],
      "stateMutability": "nonpayable",
      "type": "function"
    },
    {
      "inputs": [
        {
          "internalType": "address",
          "name": "_configManager",
          "type": "address"
        }
      ],
      "name": "setConfigManager",
      "outputs": [],
      "stateMutability": "nonpayable",
      "type": "function"
    },
    {
      "inputs": [
        {
          "internalType": "uint256",
          "name": "ethFeeRate",
          "type": "uint256"
        },
        {
          "internalType": "uint256",
          "name": "btcFeeRate",
          "type": "uint256"
        }
      ],
      "name": "setFeeRates",
      "outputs": [],
      "stateMutability": "nonpayable",
      "type": "function"
    },
    {
      "inputs": [
        {
          "internalType": "address",
          "name": "operator",
          "type": "address"
        },
        {
          "internalType": "bytes",
          "name": "btcPubKey",
          "type": "bytes"
        },
        {
          "internalType": "string",
          "name": "btcAddress",
          "type": "string"
        }
      ],
      "name": "setOperator",
      "outputs": [],
      "stateMutability": "nonpayable",
      "type": "function"
    },
    {
      "inputs": [
        {
          "internalType": "address",
          "name": "ethAddress",
          "type": "address"
        },
        {
          "internalType": "bytes",
          "name": "btcPubKey",
          "type": "bytes"
        },
        {
          "internalType": "string",
          "name": "btcAddress",
          "type": "string"
        }
      ],
      "name": "setRevenueAddresses",
      "outputs": [],
      "stateMutability": "nonpayable",
      "type": "function"
    },
    {
      "inputs": [
        {
          "internalType": "address",
          "name": "_transactionManager",
          "type": "address"
        }
      ],
      "name": "setTransactionManager",
      "outputs": [],
      "stateMutability": "nonpayable",
      "type": "function"
    },
    {
      "inputs": [
        {
          "internalType": "address",
          "name": "token",
          "type": "address"
        },
        {
          "internalType": "uint256",
          "name": "amount",
          "type": "uint256"
        }
      ],
      "name": "stakeERC20",
      "outputs": [],
      "stateMutability": "nonpayable",
      "type": "function"
    },
    {
      "inputs": [],
      "name": "stakeETH",
      "outputs": [],
      "stateMutability": "payable",
      "type": "function"
    },
    {
      "inputs": [
        {
          "internalType": "uint256[]",
          "name": "tokenIds",
          "type": "uint256[]"
        }
      ],
      "name": "stakeNFT",
      "outputs": [],
      "stateMutability": "nonpayable",
      "type": "function"
    },
    {
      "inputs": [
        {
          "internalType": "address",
          "name": "arbitrator",
          "type": "address"
        }
      ],
      "name": "terminateArbitratorWithSlash",
      "outputs": [],
      "stateMutability": "nonpayable",
      "type": "function"
    },
    {
      "inputs": [],
      "name": "transactionManager",
      "outputs": [
        {
          "internalType": "address",
          "name": "",
          "type": "address"
        }
      ],
      "stateMutability": "view",
      "type": "function"
    },
    {
      "inputs": [
        {
          "internalType": "address",
          "name": "newOwner",
          "type": "address"
        }
      ],
      "name": "transferOwnership",
      "outputs": [],
      "stateMutability": "nonpayable",
      "type": "function"
    },
    {
      "inputs": [],
      "name": "unpause",
      "outputs": [],
      "stateMutability": "nonpayable",
      "type": "function"
    },
    {
      "inputs": [],
      "name": "unstake",
      "outputs": [],
      "stateMutability": "nonpayable",
      "type": "function"
    }
  ],
  "bytecode": "0x60806040523480156200001157600080fd5b506200001c62000022565b620000d6565b7ff0c57e16840df040f15088dc2f81fe391c3923bec73e23a9662efc9c229c6a00805468010000000000000000900460ff1615620000735760405163f92ee8a960e01b815260040160405180910390fd5b80546001600160401b0390811614620000d35780546001600160401b0319166001600160401b0390811782556040519081527fc7f505b2f371ae2175ee4913f4499e1f2633a7b5936321eed1cdaeb6115181d29060200160405180910390a15b50565b614a2e80620000e66000396000f3fe60806040526004361061025a5760003560e01c8063715018a611610144578063ca0ab075116100b6578063dfcf048d1161007a578063dfcf048d14610815578063e2b4efb814610835578063e46f4ead14610855578063f2fde38b14610875578063feaca58314610895578063fef2a6f0146108b557600080fd5b8063ca0ab07514610780578063cea57af6146107a0578063cedb588b146107cd578063d3f414e0146107ed578063dceb986d1461080d57600080fd5b8063998b2fd811610108578063998b2fd8146106cd5780639b8b780f146106ed5780639f7ca8dd14610700578063b4e25e8014610720578063b6ca3e0714610740578063c4d66de81461076057600080fd5b8063715018a61461062657806378c96d731461063b5780638456cb591461065b5780638da5cb5b1461067057806394217ad1146106ad57600080fd5b80632def6620116101dd57806343060237116101a1578063430602371461049057806344019f7e146104b05780634476a660146104d05780634c5eece4146104f05780635b14f183146105c6578063654b4e831461060657600080fd5b80632def6620146103e957806339c25e2c146103fe5780633b7164521461043b5780633c12d8791461045b5780633f4ba83a1461047b57600080fd5b80631e57b875116102245780631e57b8751461032c578063226f953b1461034c578063291112511461037957806329a3f203146103a95780632b2d37da146103c957600080fd5b8061ae8e1461025f5780630559b877146102815780630b1fa61c146102be57806314f6b190146102de578063182c57441461030c575b600080fd5b34801561026b57600080fd5b5061027f61027a366004613e1d565b6108e2565b005b34801561028d57600080fd5b506002546102a1906001600160a01b031681565b6040516001600160a01b0390911681526020015b60405180910390f35b3480156102ca57600080fd5b5061027f6102d9366004613e1d565b61097b565b3480156102ea57600080fd5b506102fe6102f9366004613e1d565b610a13565b6040519081526020016102b5565b34801561031857600080fd5b5061027f610327366004613e85565b610a88565b34801561033857600080fd5b5061027f610347366004613f07565b610c89565b34801561035857600080fd5b5061036c610367366004613e1d565b610e79565b6040516102b59190613fb8565b34801561038557600080fd5b50610399610394366004613e1d565b610f2f565b60405190151581526020016102b5565b3480156103b557600080fd5b5061027f6103c4366004614040565b6110b1565b3480156103d557600080fd5b5061027f6103e43660046140c2565b61118b565b3480156103f557600080fd5b5061027f611264565b34801561040a57600080fd5b506103996104193660046140ee565b6001600160a01b03918216600090815260056020526040902054821691161490565b34801561044757600080fd5b506001546102a1906001600160a01b031681565b34801561046757600080fd5b506007546102a1906001600160a01b031681565b34801561048757600080fd5b5061027f611404565b34801561049c57600080fd5b5061027f6104ab366004613e1d565b6114cb565b3480156104bc57600080fd5b5061027f6104cb366004614127565b61155b565b3480156104dc57600080fd5b5061027f6104eb366004613e1d565b61166d565b3480156104fc57600080fd5b5061058861050b366004613e1d565b604080516080810182526000808252602082018190529181018290526060810191909152506001600160a01b03908116600090815260046020908152604091829020825160808101845281549485168152600160a01b90940460ff1615159184019190915260018101549183019190915260020154606082015290565b6040516102b5919081516001600160a01b03168152602080830151151590820152604080830151908201526060918201519181019190915260800190565b3480156105d257600080fd5b506103996105e1366004613e1d565b6001600160a01b0316600090815260046020526040902054600160a01b900460ff1690565b34801561061257600080fd5b5061027f610621366004614040565b611705565b34801561063257600080fd5b5061027f611821565b34801561064757600080fd5b5061027f610656366004614140565b611833565b34801561066757600080fd5b5061027f611abe565b34801561067c57600080fd5b507f9016d09d72d40fdae2fd8ceac6b6234c7706214fd39c1cd1e609a0528c199300546001600160a01b03166102a1565b3480156106b957600080fd5b506003546102a1906001600160a01b031681565b3480156106d957600080fd5b5061027f6106e8366004613e1d565b611b8c565b61027f6106fb3660046141e3565b611d1b565b34801561070c57600080fd5b5061039961071b366004613e1d565b611e1e565b34801561072c57600080fd5b5061027f61073b366004613e1d565b612010565b34801561074c57600080fd5b506102fe61075b366004614269565b61209e565b34801561076c57600080fd5b5061027f61077b366004613e1d565b61214d565b34801561078c57600080fd5b506000546102a1906001600160a01b031681565b3480156107ac57600080fd5b506107c06107bb366004613e1d565b6122a8565b6040516102b591906142d4565b3480156107d957600080fd5b5061027f6107e83660046140c2565b612458565b3480156107f957600080fd5b5061027f610808366004613e1d565b61252f565b61027f612644565b34801561082157600080fd5b506102fe610830366004614269565b61275a565b34801561084157600080fd5b50610399610850366004613e1d565b612786565b34801561086157600080fd5b5061027f6108703660046140c2565b612aac565b34801561088157600080fd5b5061027f610890366004613e1d565b612c9c565b3480156108a157600080fd5b5061027f6108b0366004614340565b612cda565b3480156108c157600080fd5b506108d56108d0366004613e1d565b612f5b565b6040516102b59190614362565b6108ea613119565b6001600160a01b03811661093157604080518082018252600281526105a360f41b6020820152905162461bcd60e51b815261092891906004016143d1565b60405180910390fd5b600780546001600160a01b0319166001600160a01b0383169081179091556040517fbbf71b2004c9440ef9807ad2523dcaa45fd8dbd86a3dd2ec3944527080712ce390600090a250565b610983613119565b6001600160a01b0381166109c157604080518082018252600281526105a360f41b6020820152905162461bcd60e51b815261092891906004016143d1565b600180546001600160a01b038381166001600160a01b0319831681179093556040519116919082907f960d9803c7ca631d3232d16e9971c7fd8e82d5f7ff7c2824c7b29dcab8a37d2e90600090a35050565b6003546040516368aa42f760e01b81526001600160a01b03838116600483015260009216906368aa42f790602401602060405180830381865afa158015610a5e573d6000803e3d6000fd5b505050506040513d601f19601f82011682018060405250810190610a8291906143e4565b92915050565b6000819003610ac1576040805180820182526002815261453560f01b6020820152905162461bcd60e51b815261092891906004016143d1565b610aca33611e1e565b610afe576040805180820182526002815261043360f41b6020820152905162461bcd60e51b815261092891906004016143d1565b60035460405163e157d91d60e01b81526001600160a01b039091169063e157d91d90610b329033908690869060040161442f565b600060405180830381600087803b158015610b4c57600080fd5b505af1158015610b60573d6000803e3d6000fd5b50505050610b6d33613174565b600360009054906101000a90046001600160a01b03166001600160a01b031663d56d229d6040518163ffffffff1660e01b8152600401602060405180830381865afa158015610bc0573d6000803e3d6000fd5b505050506040513d601f19601f82011682018060405250810190610be49190614454565b60035460405163040bf08960e51b81526001600160a01b039283169233926000805160206149b98339815191529291169063817e112090610c2b9088908890600401614471565b602060405180830381865afa158015610c48573d6000803e3d6000fd5b505050506040513d601f19601f82011682018060405250810190610c6c91906143e4565b8585604051610c7d93929190614485565b60405180910390a35050565b610c916132c8565b6000889003610cca576040805180820182526002815261453560f01b6020820152905162461bcd60e51b815261092891906004016143d1565b610cda3388888888888888613300565b60035460405163040bf08960e51b81526000916001600160a01b03169063817e112090610d0d908d908d90600401614471565b602060405180830381865afa158015610d2a573d6000803e3d6000fd5b505050506040513d601f19601f82011682018060405250810190610d4e91906143e4565b9050610d5981613779565b600360009054906101000a90046001600160a01b03166001600160a01b031663d56d229d6040518163ffffffff1660e01b8152600401602060405180830381865afa158015610dac573d6000803e3d6000fd5b505050506040513d601f19601f82011682018060405250810190610dd09190614454565b6001600160a01b0316336001600160a01b03166000805160206149b9833981519152838d8d604051610e0493929190614485565b60405180910390a3604051339081907fb777acd33e9d270e9f2aaa3d16747edaa24e855e497eaf95f981f2dfff4c9d8290610e4e9083908d908d908d908d908d908d908d906144c8565b60405180910390a350610e6e60016000805160206149d983398151915255565b505050505050505050565b610ebd6040518060a001604052806000815260200160006001600160a01b031681526020016000815260200160006001600160a01b03168152602001606081525090565b60035460405163226f953b60e01b81526001600160a01b0384811660048301529091169063226f953b90602401600060405180830381865afa158015610f07573d6000803e3d6000fd5b505050506040513d6000823e601f3d908101601f19168201604052610a82919081019061458f565b6001600160a01b038082166000908152600560209081526040808320815160a081019092528054909416815260018401805493948594929390929084019190610f779061469b565b80601f0160208091040260200160405190810160405280929190818152602001828054610fa39061469b565b8015610ff05780601f10610fc557610100808354040283529160200191610ff0565b820191906000526020600020905b815481529060010190602001808311610fd357829003601f168201915b505050505081526020016002820180546110099061469b565b80601f01602080910402602001604051908101604052809291908181526020018280546110359061469b565b80156110825780601f1061105757610100808354040283529160200191611082565b820191906000526020600020905b81548152906001019060200180831161106557829003601f168201915b505050505081526020016003820154815260200160048201548152505090506110aa81613a74565b9392505050565b6110ba33611e1e565b6110ee576040805180820182526002815261043360f41b6020820152905162461bcd60e51b815261092891906004016143d1565b3360009081526006602052604090206004810180546001600160a01b0319166001600160a01b0388161790556002810161112985878361471b565b506003810161113983858361471b565b50336001600160a01b03167f8e68353cf53df77c6b6993341bb1d784fab04f2f38b2c51654b51de6ce32274e878787878760405161117b9594939291906147db565b60405180910390a2505050505050565b6001546001600160a01b031633146111cd5760408051808201825260028152614e3160f01b6020820152905162461bcd60e51b815261092891906004016143d1565b6001600160a01b03821660009081526005602052604090206111ee83612786565b611222576040805180820182526002815261413360f01b6020820152905162461bcd60e51b815261092891906004016143d1565b6003810182905560405182906001600160a01b038516907f43b9442ba3328a37dad0041120b36563dafcdbdb7b200665d8cbb0c44982720c90600090a3505050565b61126c6132c8565b61127533611e1e565b6112a9576040805180820182526002815261533160f01b6020820152905162461bcd60e51b815261092891906004016143d1565b60035460405163226f953b60e01b81523360048201526000916001600160a01b03169063226f953b90602401600060405180830381865afa1580156112f2573d6000803e3d6000fd5b505050506040513d6000823e601f3d908101601f1916820160405261131a919081019061458f565b805190915015801561132f5750608081015151155b801561133d57506040810151155b1561137257604080518082018252600281526109c760f31b6020820152905162461bcd60e51b815261092891906004016143d1565b61137d338233613b22565b80606001516001600160a01b031681602001516001600160a01b0316336001600160a01b03167f4259143be553e0a755ce2bb5960655df41897d99053167c515521b56d0b71ff48460000151856040015186608001516040516113e29392919061485a565b60405180910390a45061140260016000805160206149d983398151915255565b565b33600090815260046020526040902080546001600160a01b0316611452576040805180820182526002815261209960f11b6020820152905162461bcd60e51b815261092891906004016143d1565b8054600160a01b900460ff16611492576040805180820182526002815261082760f31b6020820152905162461bcd60e51b815261092891906004016143d1565b805460ff60a01b1916815560405133907f9f71f687820b75e4208e6fdd2091be151d94465fe4bafd2506bed2b9a430437d90600090a250565b6114d3613119565b6001600160a01b03811661151157604080518082018252600281526105a360f41b6020820152905162461bcd60e51b815261092891906004016143d1565b600380546001600160a01b0319166001600160a01b0383169081179091556040517f7b80a79e47a0a35fd39fdba918041e2277cbc226b6e77e71839d84615a8bb3b290600090a250565b428111611592576040805180820182526002815261543360f01b6020820152905162461bcd60e51b815261092891906004016143d1565b33600090815260046020526040902080546001600160a01b03166115e0576040805180820182526002815261209960f11b6020820152905162461bcd60e51b815261092891906004016143d1565b600081600201541180156115f8575080600201548211155b1561162d576040805180820182526002815261543360f01b6020820152905162461bcd60e51b815261092891906004016143d1565b6002810182905560405182815233907fff191d17033fc90a7dae896652cf93df6f261bc4176c000d0e5e21345b139ccb9060200160405180910390a25050565b611675613119565b6001600160a01b0381166116b357604080518082018252600281526105a360f41b6020820152905162461bcd60e51b815261092891906004016143d1565b600280546001600160a01b038381166001600160a01b0319831681179093556040519116919082907fb2de57cf284062a9a3402f8683281c49d5a6747b1f369d0eec883b83503f3c8d90600090a35050565b6001600160a01b038516611743576040805180820182526002815261124d60f21b6020820152905162461bcd60e51b815261092891906004016143d1565b61174c33611e1e565b611780576040805180820182526002815261043360f41b6020820152905162461bcd60e51b815261092891906004016143d1565b33600090815260056020526040902080546001600160a01b0319166001600160a01b038716178155600181016117b785878361471b565b50600281016117c783858361471b565b50856001600160a01b0316336001600160a01b03167ff920b7832d3774e2ac2efb86fccb411bc92e19a8ea66687764dea93140bdad4a878787876040516118119493929190614879565b60405180910390a3505050505050565b611829613119565b6114026000613cb8565b61183b6132c8565b6001600160a01b038916158061184f575087155b15611884576040805180820182526002815261049360f41b6020820152905162461bcd60e51b815261092891906004016143d1565b60035460405163246ac69160e11b81526001600160a01b038b81166004830152909116906348d58d2290602401602060405180830381865afa1580156118ce573d6000803e3d6000fd5b505050506040513d601f19601f820116820180604052508101906118f291906148ab565b611926576040805180820182526002815261057360f41b6020820152905162461bcd60e51b815261092891906004016143d1565b6119363388888888888888613300565b60035460405163b7f1ff1d60e01b81526001600160a01b038b81166004830152602482018b90526119b292169063b7f1ff1d90604401602060405180830381865afa158015611989573d6000803e3d6000fd5b505050506040513d601f19601f820116820180604052508101906119ad91906143e4565b613779565b6003546040516272b56960e61b81523360048201526001600160a01b038b81166024830152604482018b905290911690631cad5a4090606401600060405180830381600087803b158015611a0557600080fd5b505af1158015611a19573d6000803e3d6000fd5b5050604080516000815260208101918290526001600160a01b038d1693503392506000805160206149b983398151915291611a55918d916148cd565b60405180910390a3604051339081907fb777acd33e9d270e9f2aaa3d16747edaa24e855e497eaf95f981f2dfff4c9d8290611a9f9083908c908c908c908c908c908c908c906144c8565b60405180910390a3610e6e60016000805160206149d983398151915255565b33600090815260046020526040902080546001600160a01b0316611b0c576040805180820182526002815261209960f11b6020820152905162461bcd60e51b815261092891906004016143d1565b8054600160a01b900460ff1615611b4d576040805180820182526002815261413760f01b6020820152905162461bcd60e51b815261092891906004016143d1565b805460ff60a01b1916600160a01b17815560405133907ff8f74f9bb1ed360c36a0bd59e0d8aa5cbdd15bb6e8e86af871f343daf432be2290600090a250565b6002546001600160a01b03163314611bce5760408051808201825260028152614e3760f01b6020820152905162461bcd60e51b815261092891906004016143d1565b6001600160a01b0381811660009081526004602090815260409182902082516080810184528154948516808252600160a01b90950460ff16151592810192909252600181015492820192909252600290910154606082015290611c5b576040805180820182526002815261209960f11b6020820152905162461bcd60e51b815261092891906004016143d1565b60035460405163226f953b60e01b81526001600160a01b038085166004830152611ce392859291169063226f953b90602401600060405180830381865afa158015611caa573d6000803e3d6000fd5b505050506040513d6000823e601f3d908101601f19168201604052611cd2919081019061458f565b6002546001600160a01b0316613b22565b6040516001600160a01b038316907fc0c6efb1c6f315e6721ba44dc1a435e4ca9a730d45f3caf4a67c43b22ca008a290600090a25050565b611d2b3388888888888888613300565b611d3434613779565b600354604051631696d40360e11b81523360048201526001600160a01b0390911690632d2da8069034906024016000604051808303818588803b158015611d7a57600080fd5b505af1158015611d8e573d6000803e3d6000fd5b5050604080516000808252602082019283905294503393506000805160206149b98339815191529250611dc3913491906148cd565b60405180910390a3604051339081907fb777acd33e9d270e9f2aaa3d16747edaa24e855e497eaf95f981f2dfff4c9d8290611e0d9083908c908c908c908c908c908c908c906144c8565b60405180910390a350505050505050565b6001600160a01b038181166000818152600460209081526040808320815160808101835281548088168252600160a01b900460ff1615158185015260018083015482850152600290920154606082015294845260058352818420825160a08101909352805490961682528501805493958694929390929084019190611ea29061469b565b80601f0160208091040260200160405190810160405280929190818152602001828054611ece9061469b565b8015611f1b5780601f10611ef057610100808354040283529160200191611f1b565b820191906000526020600020905b815481529060010190602001808311611efe57829003601f168201915b50505050508152602001600282018054611f349061469b565b80601f0160208091040260200160405190810160405280929190818152602001828054611f609061469b565b8015611fad5780601f10611f8257610100808354040283529160200191611fad565b820191906000526020600020905b815481529060010190602001808311611f9057829003601f168201915b50505091835250506003820154602082015260049091015460409091015282519091506001600160a01b03161580611fe85750606081015115155b80611ff75750611ff781613a74565b15612006575060009392505050565b5060019392505050565b612018613119565b6001600160a01b038116612056576040805180820182526002815261049360f41b6020820152905162461bcd60e51b815261092891906004016143d1565b600080546001600160a01b0319166001600160a01b038316908117825560405190917f6a801685c5950e3d8ece256f75ca0ff31ed0ae02aeae73f8180ff32e978a2f6b91a250565b6001600160a01b03811660009081526006602052604081206001015480156121435760006120cd848387613d29565b6003546040516271c9d960e21b8152600481018390529192506001600160a01b0316906301c7276490602401602060405180830381865afa158015612116573d6000803e3d6000fd5b505050506040513d601f19601f8201168201806040525081019061213a91906143e4565b92505050610a82565b5060009392505050565b6000612157613d6f565b805490915060ff600160401b82041615906001600160401b031660008115801561217e5750825b90506000826001600160401b0316600114801561219a5750303b155b9050811580156121a8575080155b156121c65760405163f92ee8a960e01b815260040160405180910390fd5b845467ffffffffffffffff1916600117855583156121f057845460ff60401b1916600160401b1785555b6121f8613d98565b61220133613da8565b6001600160a01b03861661223f57604080518082018252600281526105a360f41b6020820152905162461bcd60e51b815261092891906004016143d1565b600080546001600160a01b0319166001600160a01b03881617905583156122a057845460ff60401b19168555604051600181527fc7f505b2f371ae2175ee4913f4499e1f2633a7b5936321eed1cdaeb6115181d29060200160405180910390a15b505050505050565b6122e66040518060a0016040528060006001600160a01b03168152602001606081526020016060815260200160008019168152602001600081525090565b6001600160a01b03808316600090815260056020908152604091829020825160a0810190935280549093168252600183018054929392918401916123299061469b565b80601f01602080910402602001604051908101604052809291908181526020018280546123559061469b565b80156123a25780601f10612377576101008083540402835291602001916123a2565b820191906000526020600020905b81548152906001019060200180831161238557829003601f168201915b505050505081526020016002820180546123bb9061469b565b80601f01602080910402602001604051908101604052809291908181526020018280546123e79061469b565b80156124345780601f1061240957610100808354040283529160200191612434565b820191906000526020600020905b81548152906001019060200180831161241757829003601f168201915b50505050508152602001600382015481526020016004820154815250509050919050565b6001546001600160a01b0316331461249a5760408051808201825260028152614e3160f01b6020820152905162461bcd60e51b815261092891906004016143d1565b6001600160a01b0382166000908152600560205260409020600381015482146124ed5760408051808201825260028152612a1b60f11b6020820152905162461bcd60e51b815261092891906004016143d1565b60006003820181905560405183916001600160a01b038616917fec0516e78db51665510a6ab319cb07cbb5b1e66d1de10f9abd1994eaaa555b309190a3505050565b6001546001600160a01b031633146125715760408051808201825260028152614e3160f01b6020820152905162461bcd60e51b815261092891906004016143d1565b6001600160a01b0380821660009081526005602090815260408083206004909252909120549091166125cd576040805180820182526002815261209960f11b6020820152905162461bcd60e51b815261092891906004016143d1565b6003810154612606576040805180820182526002815261413560f01b6020820152905162461bcd60e51b815261092891906004016143d1565b4260048201556040516001600160a01b038316907fb5c433aa54e775c63ae22f75b359af0e25c57eddd9bb55eb71445b74b523bfa890600090a25050565b3460000361267c576040805180820182526002815261049360f41b6020820152905162461bcd60e51b815261092891906004016143d1565b61268533611e1e565b6126b9576040805180820182526002815261043360f41b6020820152905162461bcd60e51b815261092891906004016143d1565b600354604051631696d40360e11b81523360048201526001600160a01b0390911690632d2da8069034906024016000604051808303818588803b1580156126ff57600080fd5b505af1158015612713573d6000803e3d6000fd5b505050505061272133613174565b60408051600080825260208201928390529133916000805160206149b9833981519152916127509134916148cd565b60405180910390a3565b6001600160a01b03811660009081526006602052604081205461277e838286613d29565b949350505050565b6001600160a01b038181166000908152600460209081526040808320815160808101835281549586168152600160a01b90950460ff161515928501929092526001820154908401526002015460608301819052909190158015906127ee575042816060015111155b156127fc5750600092915050565b600061280784610a13565b600054604080516332c70ad760e21b815290519293506001600160a01b0390911691636dd5b69d91839163cb1c2b5c916004808201926020929091908290030181865afa15801561285c573d6000803e3d6000fd5b505050506040513d601f19601f8201168201806040525081019061288091906143e4565b6040518263ffffffff1660e01b815260040161289e91815260200190565b602060405180830381865afa1580156128bb573d6000803e3d6000fd5b505050506040513d601f19601f820116820180604052508101906128df91906143e4565b8110156128f0575060009392505050565b6001600160a01b038085166000908152600560209081526040808320815160a08101909252805490941681526001840180549394919391928401916129349061469b565b80601f01602080910402602001604051908101604052809291908181526020018280546129609061469b565b80156129ad5780601f10612982576101008083540402835291602001916129ad565b820191906000526020600020905b81548152906001019060200180831161299057829003601f168201915b505050505081526020016002820180546129c69061469b565b80601f01602080910402602001604051908101604052809291908181526020018280546129f29061469b565b8015612a3f5780601f10612a1457610100808354040283529160200191612a3f565b820191906000526020600020905b815481529060010190602001808311612a2257829003601f168201915b50505050508152602001600382015481526020016004820154815250509050612a6781613a74565b15612a7757506000949350505050565b606081015115612a8c57506000949350505050565b826020015115612aa157506000949350505050565b506001949350505050565b612ab46132c8565b801580612ac857506001600160a01b038216155b80612b3e575060035460405163246ac69160e11b81526001600160a01b038481166004830152909116906348d58d2290602401602060405180830381865afa158015612b18573d6000803e3d6000fd5b505050506040513d601f19601f82011682018060405250810190612b3c91906148ab565b155b15612b73576040805180820182526002815261049360f41b6020820152905162461bcd60e51b815261092891906004016143d1565b612b7c33611e1e565b612bb0576040805180820182526002815261043360f41b6020820152905162461bcd60e51b815261092891906004016143d1565b6003546040516272b56960e61b81523360048201526001600160a01b0384811660248301526044820184905290911690631cad5a4090606401600060405180830381600087803b158015612c0357600080fd5b505af1158015612c17573d6000803e3d6000fd5b50505050612c2433613174565b6001600160a01b038216336000805160206149b9833981519152836000604051908082528060200260200182016040528015612c6a578160200160208202803683370190505b50604051612c799291906148cd565b60405180910390a3612c9860016000805160206149d983398151915255565b5050565b612ca4613119565b6001600160a01b038116612cce57604051631e4fbdf760e01b815260006004820152602401610928565b612cd781613cb8565b50565b600054604080516325ba6ce560e11b815290516001600160a01b0390921691636dd5b69d918391634b74d9ca916004808201926020929091908290030181865afa158015612d2c573d6000803e3d6000fd5b505050506040513d601f19601f82011682018060405250810190612d5091906143e4565b6040518263ffffffff1660e01b8152600401612d6e91815260200190565b602060405180830381865afa158015612d8b573d6000803e3d6000fd5b505050506040513d601f19601f82011682018060405250810190612daf91906143e4565b821080612e8f57506000546040805163c1df30e760e01b815290516001600160a01b0390921691636dd5b69d91839163c1df30e7916004808201926020929091908290030181865afa158015612e09573d6000803e3d6000fd5b505050506040513d601f19601f82011682018060405250810190612e2d91906143e4565b6040518263ffffffff1660e01b8152600401612e4b91815260200190565b602060405180830381865afa158015612e68573d6000803e3d6000fd5b505050506040513d601f19601f82011682018060405250810190612e8c91906143e4565b81105b15612ec4576040805180820182526002815261046360f41b6020820152905162461bcd60e51b815261092891906004016143d1565b612ecd33611e1e565b612f01576040805180820182526002815261043360f41b6020820152905162461bcd60e51b815261092891906004016143d1565b3360008181526006602090815260409182902085815560018101859055825186815291820185905292917f3deb80fb64bacb0d572a957b16a7420b1799df648df6a6370c8cc197ad0446a4910160405180910390a2505050565b612f966040518060a001604052806000815260200160008152602001606081526020016060815260200160006001600160a01b031681525090565b60066000836001600160a01b03166001600160a01b031681526020019081526020016000206040518060a00160405290816000820154815260200160018201548152602001600282018054612fea9061469b565b80601f01602080910402602001604051908101604052809291908181526020018280546130169061469b565b80156130635780601f1061303857610100808354040283529160200191613063565b820191906000526020600020905b81548152906001019060200180831161304657829003601f168201915b5050505050815260200160038201805461307c9061469b565b80601f01602080910402602001604051908101604052809291908181526020018280546130a89061469b565b80156130f55780601f106130ca576101008083540402835291602001916130f5565b820191906000526020600020905b8154815290600101906020018083116130d857829003601f168201915b5050509183525050600491909101546001600160a01b031660209091015292915050565b3361314b7f9016d09d72d40fdae2fd8ceac6b6234c7706214fd39c1cd1e609a0528c199300546001600160a01b031690565b6001600160a01b0316146114025760405163118cdaa760e01b8152336004820152602401610928565b6001600160a01b038181166000908152600460205260409020541661324e576007546001600160a01b031615801590613218575060075460405163020d8dad60e41b81526001600160a01b038381166004830152909116906320d8dad090602401602060405180830381865afa1580156131f2573d6000803e3d6000fd5b505050506040513d601f19601f8201168201806040525081019061321691906148ab565b155b1561324e57604080518082018252600381526204131360ec1b6020820152905162461bcd60e51b815261092891906004016143d1565b6003546040516368aa42f760e01b81526001600160a01b03838116600483015260009216906368aa42f790602401602060405180830381865afa158015613299573d6000803e3d6000fd5b505050506040513d601f19601f820116820180604052508101906132bd91906143e4565b9050612c9881613779565b6000805160206149d98339815191528054600119016132fa57604051633ee5aeb560e01b815260040160405180910390fd5b60029055565b6007546001600160a01b031615801590613385575060075460405163020d8dad60e41b81526001600160a01b038a81166004830152909116906320d8dad090602401602060405180830381865afa15801561335f573d6000803e3d6000fd5b505050506040513d601f19601f8201168201806040525081019061338391906148ab565b155b156133bb57604080518082018252600381526204131360ec1b6020820152905162461bcd60e51b815261092891906004016143d1565b8515806133c6575083155b156133fb576040805180820182526002815261049360f41b6020820152905162461bcd60e51b815261092891906004016143d1565b60008054604080516325ba6ce560e11b815290516001600160a01b0390921691636dd5b69d918391634b74d9ca916004808201926020929091908290030181865afa15801561344e573d6000803e3d6000fd5b505050506040513d601f19601f8201168201806040525081019061347291906143e4565b6040518263ffffffff1660e01b815260040161349091815260200190565b602060405180830381865afa1580156134ad573d6000803e3d6000fd5b505050506040513d601f19601f820116820180604052508101906134d191906143e4565b90508084101561350b576040805180820182526002815261046360f41b6020820152905162461bcd60e51b815261092891906004016143d1565b600080546040805163c1df30e760e01b815290516001600160a01b0390921691636dd5b69d91839163c1df30e7916004808201926020929091908290030181865afa15801561355e573d6000803e3d6000fd5b505050506040513d601f19601f8201168201806040525081019061358291906143e4565b6040518263ffffffff1660e01b81526004016135a091815260200190565b602060405180830381865afa1580156135bd573d6000803e3d6000fd5b505050506040513d601f19601f820116820180604052508101906135e191906143e4565b90508084101561361b576040805180820182526002815261231960f11b6020820152905162461bcd60e51b815261092891906004016143d1565b821580159061362a5750428311155b1561365f576040805180820182526002815261543360f01b6020820152905162461bcd60e51b815261092891906004016143d1565b6001600160a01b03808b1660009081526004602052604090208054909116156136b2576040805180820182526002815261413160f01b6020820152905162461bcd60e51b815261092891906004016143d1565b80546001600160a01b038c166001600160a01b031991821681178355426001840155600280840187905560008281526005602052604090208054909316909117825581016137018b8d8361471b565b5060018101613711898b8361471b565b506001600160a01b038c166000818152600660205260409020888155600181018890556004810180546001600160a01b031916909217909155600381016137598c8e8361471b565b50600281016137698a8c8361471b565b5050505050505050505050505050565b60008054604080516332c70ad760e21b815290516001600160a01b0390921691636dd5b69d91839163cb1c2b5c916004808201926020929091908290030181865afa1580156137cc573d6000803e3d6000fd5b505050506040513d601f19601f820116820180604052508101906137f091906143e4565b6040518263ffffffff1660e01b815260040161380e91815260200190565b602060405180830381865afa15801561382b573d6000803e3d6000fd5b505050506040513d601f19601f8201168201806040525081019061384f91906143e4565b600080546040805163c98517c560e01b8152905193945091926001600160a01b0390911691636dd5b69d91839163c98517c59160048083019260209291908290030181865afa1580156138a6573d6000803e3d6000fd5b505050506040513d601f19601f820116820180604052508101906138ca91906143e4565b6040518263ffffffff1660e01b81526004016138e891815260200190565b602060405180830381865afa158015613905573d6000803e3d6000fd5b505050506040513d601f19601f8201168201806040525081019061392991906143e4565b905081831015613963576040805180820182526002815261299960f11b6020820152905162461bcd60e51b815261092891906004016143d1565b8083111561399b576040805180820182526002815261533360f01b6020820152905162461bcd60e51b815261092891906004016143d1565b600754604051631817f6bf60e31b81523360048201526000916001600160a01b03169063c0bfb5f890602401606060405180830381865afa1580156139e4573d6000803e3d6000fd5b505050506040513d601f19601f82011682018060405250810190613a0891906148e6565b9050806020015160ff16600014158015613a255750806040015184115b15613a5a5760408051808201825260028152610a6760f31b6020820152905162461bcd60e51b815261092891906004016143d1565b50505050565b60016000805160206149d983398151915255565b6000805460408051632f672f1960e11b8152905183926001600160a01b031691635ece5e329160048083019260209291908290030181865afa158015613abe573d6000803e3d6000fd5b505050506040513d601f19601f82011682018060405250810190613ae291906143e4565b90508260800151600003613af95750600092915050565b42818460800151613b0a919061496c565b1115613b195750600192915050565b50600092915050565b815115613b9a57600354825160405163e7137dbf60e01b81526001600160a01b0386811660048301528481166024830152604482019290925291169063e7137dbf90606401600060405180830381600087803b158015613b8157600080fd5b505af1158015613b95573d6000803e3d6000fd5b505050505b60208201516001600160a01b031615801590613bba575060008260400151115b15613c40576003546020830151604080850151905163d23061db60e01b81526001600160a01b03878116600483015292831660248201528483166044820152606481019190915291169063d23061db90608401600060405180830381600087803b158015613c2757600080fd5b505af1158015613c3b573d6000803e3d6000fd5b505050505b60808201515115613cb35760035460405163d49eb32d60e01b81526001600160a01b03858116600483015283811660248301529091169063d49eb32d90604401600060405180830381600087803b158015613c9a57600080fd5b505af1158015613cae573d6000803e3d6000fd5b505050505b505050565b7f9016d09d72d40fdae2fd8ceac6b6234c7706214fd39c1cd1e609a0528c19930080546001600160a01b031981166001600160a01b03848116918217845560405192169182907f8be0079c531659141344cd1fd0a4f28419497f9722a3daafe3b4186f6b6457e090600090a3505050565b600080613d3585610a13565b9050613d476127106301e1338061497f565b84613d52858461497f565b613d5c919061497f565b613d669190614996565b95945050505050565b6000807ff0c57e16840df040f15088dc2f81fe391c3923bec73e23a9662efc9c229c6a00610a82565b613da0613db9565b611402613dde565b613db0613db9565b612cd781613de6565b613dc1613dee565b61140257604051631afcd79f60e31b815260040160405180910390fd5b613a60613db9565b612ca4613db9565b6000613df8613d6f565b54600160401b900460ff16919050565b6001600160a01b0381168114612cd757600080fd5b600060208284031215613e2f57600080fd5b81356110aa81613e08565b60008083601f840112613e4c57600080fd5b5081356001600160401b03811115613e6357600080fd5b6020830191508360208260051b8501011115613e7e57600080fd5b9250929050565b60008060208385031215613e9857600080fd5b82356001600160401b03811115613eae57600080fd5b613eba85828601613e3a565b90969095509350505050565b60008083601f840112613ed857600080fd5b5081356001600160401b03811115613eef57600080fd5b602083019150836020828501011115613e7e57600080fd5b600080600080600080600080600060c08a8c031215613f2557600080fd5b89356001600160401b0380821115613f3c57600080fd5b613f488d838e01613e3a565b909b50995060208c0135915080821115613f6157600080fd5b613f6d8d838e01613ec6565b909950975060408c0135915080821115613f8657600080fd5b50613f938c828d01613ec6565b9a9d999c50979a969997986060880135976080810135975060a0013595509350505050565b6020808252825182820152828101516001600160a01b039081166040808501919091528401516060808501919091528401511660808084019190915283015160a080840152805160c0840181905260009291820190839060e08601905b808310156140355783518252928401926001929092019190840190614015565b509695505050505050565b60008060008060006060868803121561405857600080fd5b853561406381613e08565b945060208601356001600160401b038082111561407f57600080fd5b61408b89838a01613ec6565b909650945060408801359150808211156140a457600080fd5b506140b188828901613ec6565b969995985093965092949392505050565b600080604083850312156140d557600080fd5b82356140e081613e08565b946020939093013593505050565b6000806040838503121561410157600080fd5b823561410c81613e08565b9150602083013561411c81613e08565b809150509250929050565b60006020828403121561413957600080fd5b5035919050565b600080600080600080600080600060e08a8c03121561415e57600080fd5b893561416981613e08565b985060208a0135975060408a01356001600160401b038082111561418c57600080fd5b6141988d838e01613ec6565b909950975060608c01359150808211156141b157600080fd5b506141be8c828d01613ec6565b9a9d999c50979a9699979860808801359760a0810135975060c0013595509350505050565b600080600080600080600060a0888a0312156141fe57600080fd5b87356001600160401b038082111561421557600080fd5b6142218b838c01613ec6565b909950975060208a013591508082111561423a57600080fd5b506142478a828b01613ec6565b989b979a50986040810135976060820135975060809091013595509350505050565b6000806040838503121561427c57600080fd5b82359150602083013561411c81613e08565b6000815180845260005b818110156142b457602081850181015186830182015201614298565b506000602082860101526020601f19601f83011685010191505092915050565b602080825282516001600160a01b03168282015282015160a0604083015260009061430260c084018261428e565b90506040840151601f1984830301606085015261431f828261428e565b91505060608401516080840152608084015160a08401528091505092915050565b6000806040838503121561435357600080fd5b50508035926020909101359150565b6020815281516020820152602082015160408201526000604083015160a0606084015261439260c084018261428e565b90506060840151601f198483030160808501526143af828261428e565b608095909501516001600160a01b031660a09490940193909352509192915050565b6020815260006110aa602083018461428e565b6000602082840312156143f657600080fd5b5051919050565b81835260006001600160fb1b0383111561441657600080fd5b8260051b80836020870137939093016020019392505050565b6001600160a01b0384168152604060208201819052600090613d6690830184866143fd565b60006020828403121561446657600080fd5b81516110aa81613e08565b60208152600061277e6020830184866143fd565b838152604060208201526000613d666040830184866143fd565b81835281816020850137506000828201602090810191909152601f909101601f19169091010190565b6001600160a01b038916815260c0602082018190526000906144ed908301898b61449f565b828103604084015261450081888a61449f565b60608401969096525050608081019290925260a09091015295945050505050565b634e487b7160e01b600052604160045260246000fd5b60405160a081016001600160401b038111828210171561455957614559614521565b60405290565b604051601f8201601f191681016001600160401b038111828210171561458757614587614521565b604052919050565b600060208083850312156145a257600080fd5b82516001600160401b03808211156145b957600080fd5b9084019060a082870312156145cd57600080fd5b6145d5614537565b82518152838301516145e681613e08565b8185015260408381015190820152606083015161460281613e08565b606082015260808301518281111561461957600080fd5b80840193505086601f84011261462e57600080fd5b82518281111561464057614640614521565b8060051b925061465185840161455f565b818152928401850192858101908985111561466b57600080fd5b948601945b8486101561468957855182529486019490860190614670565b60808401525090979650505050505050565b600181811c908216806146af57607f821691505b6020821081036146cf57634e487b7160e01b600052602260045260246000fd5b50919050565b601f821115613cb357600081815260208120601f850160051c810160208610156146fc5750805b601f850160051c820191505b818110156122a057828155600101614708565b6001600160401b0383111561473257614732614521565b61474683614740835461469b565b836146d5565b6000601f84116001811461477a57600085156147625750838201355b600019600387901b1c1916600186901b1783556147d4565b600083815260209020601f19861690835b828110156147ab578685013582556020948501946001909201910161478b565b50868210156147c85760001960f88860031b161c19848701351681555b505060018560011b0183555b5050505050565b6001600160a01b0386168152606060208201819052600090614800908301868861449f565b828103604084015261481381858761449f565b98975050505050505050565b600081518084526020808501945080840160005b8381101561484f57815187529582019590820190600101614833565b509495945050505050565b838152826020820152606060408201526000613d66606083018461481f565b60408152600061488d60408301868861449f565b82810360208401526148a081858761449f565b979650505050505050565b6000602082840312156148bd57600080fd5b815180151581146110aa57600080fd5b82815260406020820152600061277e604083018461481f565b6000606082840312156148f857600080fd5b604051606081018181106001600160401b038211171561491a5761491a614521565b604052825161492881613e08565b8152602083015160ff8116811461493e57600080fd5b60208201526040928301519281019290925250919050565b634e487b7160e01b600052601160045260246000fd5b80820180821115610a8257610a82614956565b8082028115828204841417610a8257610a82614956565b6000826149b357634e487b7160e01b600052601260045260246000fd5b50049056fe03666b063f075e29b3926eb82a4d1f7746231db3395483f453e477b56531038e9b779b17422d0df92223018b32b4d1fa46e071723d6817e2486d003becc55f00a26469706673582212207faae4ea98e4072340a234dc023479cd333c4599adbe9cacbfc0e16880a9ae1c64736f6c63430008140033",
  "linkReferences": {},
  "deployedLinkReferences": {}
}