{
  "_format": "hh-sol-artifact-1",
  "contractName": "Issuer",
  "sourceName": "contracts/issuer/Issuer.sol",
  "abi": [
    {
      "inputs": [],
      "stateMutability": "nonpayable",
      "type": "constructor"
    },
    {
      "inputs": [
        {
          "internalType": "address",
          "name": "target",
          "type": "address"
        }
      ],
      "name": "AddressEmptyCode",
      "type": "error"
    },
    {
      "inputs": [
        {
          "internalType": "address",
          "name": "account",
          "type": "address"
        }
      ],
      "name": "AddressInsufficientBalance",
      "type": "error"
    },
    {
      "inputs": [],
      "name": "FailedInnerCall",
      "type": "error"
    },
    {
      "inputs": [],
      "name": "InvalidInitialization",
      "type": "error"
    },
    {
      "inputs": [],
      "name": "NotInitializing",
      "type": "error"
    },
    {
      "inputs": [
        {
          "internalType": "address",
          "name": "owner",
          "type": "address"
        }
      ],
      "name": "OwnableInvalidOwner",
      "type": "error"
    },
    {
      "inputs": [
        {
          "internalType": "address",
          "name": "account",
          "type": "address"
        }
      ],
      "name": "OwnableUnauthorizedAccount",
      "type": "error"
    },
    {
      "inputs": [],
      "name": "ReentrancyGuardReentrantCall",
      "type": "error"
    },
    {
      "inputs": [
        {
          "internalType": "address",
          "name": "token",
          "type": "address"
        }
      ],
      "name": "SafeERC20FailedOperation",
      "type": "error"
    },
    {
      "anonymous": false,
      "inputs": [
        {
          "indexed": false,
          "internalType": "bytes",
          "name": "newPublicKey",
          "type": "bytes"
        },
        {
          "indexed": false,
          "internalType": "string",
          "name": "newBtcAddress",
          "type": "string"
        }
      ],
      "name": "BtcInfoUpdated",
      "type": "event"
    },
    {
      "anonymous": false,
      "inputs": [
        {
          "indexed": true,
          "internalType": "address",
          "name": "account",
          "type": "address"
        },
        {
          "indexed": false,
          "internalType": "uint256",
          "name": "amount",
          "type": "uint256"
        }
      ],
      "name": "ETHWithdrawn",
      "type": "event"
    },
    {
      "anonymous": false,
      "inputs": [
        {
          "indexed": false,
          "internalType": "uint64",
          "name": "version",
          "type": "uint64"
        }
      ],
      "name": "Initialized",
      "type": "event"
    },
    {
      "anonymous": false,
      "inputs": [
        {
          "indexed": true,
          "internalType": "address",
          "name": "account",
          "type": "address"
        },
        {
          "indexed": false,
          "internalType": "uint256",
          "name": "amount",
          "type": "uint256"
        }
      ],
      "name": "InterestWithdrawn",
      "type": "event"
    },
    {
      "anonymous": false,
      "inputs": [
        {
          "indexed": true,
          "internalType": "address",
          "name": "oldLoanContract",
          "type": "address"
        },
        {
          "indexed": true,
          "internalType": "address",
          "name": "newLoanContract",
          "type": "address"
        }
      ],
      "name": "LoanContractUpdated",
      "type": "event"
    },
    {
      "anonymous": false,
      "inputs": [
        {
          "indexed": true,
          "internalType": "address",
          "name": "oldOperator",
          "type": "address"
        },
        {
          "indexed": true,
          "internalType": "address",
          "name": "newOperator",
          "type": "address"
        }
      ],
      "name": "OperatorUpdated",
      "type": "event"
    },
    {
      "anonymous": false,
      "inputs": [
        {
          "indexed": true,
          "internalType": "address",
          "name": "previousOwner",
          "type": "address"
        },
        {
          "indexed": true,
          "internalType": "address",
          "name": "newOwner",
          "type": "address"
        }
      ],
      "name": "OwnershipTransferred",
      "type": "event"
    },
    {
      "anonymous": false,
      "inputs": [
        {
          "indexed": true,
          "internalType": "address",
          "name": "oldStablecoin",
          "type": "address"
        },
        {
          "indexed": true,
          "internalType": "address",
          "name": "newStablecoin",
          "type": "address"
        }
      ],
      "name": "StableCoinUpdated",
      "type": "event"
    },
    {
      "anonymous": false,
      "inputs": [
        {
          "indexed": true,
          "internalType": "address",
          "name": "token",
          "type": "address"
        },
        {
          "indexed": true,
          "internalType": "address",
          "name": "account",
          "type": "address"
        },
        {
          "indexed": false,
          "internalType": "uint256",
          "name": "amount",
          "type": "uint256"
        }
      ],
      "name": "TokenWithdrawn",
      "type": "event"
    },
    {
      "inputs": [],
      "name": "btcAddress",
      "outputs": [
        {
          "internalType": "string",
          "name": "",
          "type": "string"
        }
      ],
      "stateMutability": "view",
      "type": "function"
    },
    {
      "inputs": [],
      "name": "btcPublicKey",
      "outputs": [
        {
          "internalType": "bytes",
          "name": "",
          "type": "bytes"
        }
      ],
      "stateMutability": "view",
      "type": "function"
    },
    {
      "inputs": [
        {
          "internalType": "contract IOrder",
          "name": "order",
          "type": "address"
        }
      ],
      "name": "closeOrder",
      "outputs": [],
      "stateMutability": "nonpayable",
      "type": "function"
    },
    {
      "inputs": [
        {
          "internalType": "uint256",
          "name": "amount",
          "type": "uint256"
        },
        {
          "internalType": "uint256",
          "name": "durationDays",
          "type": "uint256"
        }
      ],
      "name": "createOrder",
      "outputs": [],
      "stateMutability": "nonpayable",
      "type": "function"
    },
    {
      "inputs": [],
      "name": "getTotalInterest",
      "outputs": [
        {
          "internalType": "uint256",
          "name": "",
          "type": "uint256"
        }
      ],
      "stateMutability": "view",
      "type": "function"
    },
    {
      "inputs": [
        {
          "internalType": "contract IStableCoin",
          "name": "_token",
          "type": "address"
        },
        {
          "internalType": "bytes",
          "name": "_btcPublicKey",
          "type": "bytes"
        },
        {
          "internalType": "string",
          "name": "_btcAddress",
          "type": "string"
        },
        {
          "internalType": "address",
          "name": "_operator",
          "type": "address"
        },
        {
          "internalType": "address",
          "name": "_loanContract",
          "type": "address"
        }
      ],
      "name": "initialize",
      "outputs": [],
      "stateMutability": "nonpayable",
      "type": "function"
    },
    {
      "inputs": [],
      "name": "loanContract",
      "outputs": [
        {
          "internalType": "address",
          "name": "",
          "type": "address"
        }
      ],
      "stateMutability": "view",
      "type": "function"
    },
    {
      "inputs": [],
      "name": "operator",
      "outputs": [
        {
          "internalType": "address",
          "name": "",
          "type": "address"
        }
      ],
      "stateMutability": "view",
      "type": "function"
    },
    {
      "inputs": [],
      "name": "owner",
      "outputs": [
        {
          "internalType": "address",
          "name": "",
          "type": "address"
        }
      ],
      "stateMutability": "view",
      "type": "function"
    },
    {
      "inputs": [],
      "name": "renounceOwnership",
      "outputs": [],
      "stateMutability": "nonpayable",
      "type": "function"
    },
    {
      "inputs": [
        {
          "internalType": "bytes",
          "name": "_btcPublicKey",
          "type": "bytes"
        },
        {
          "internalType": "string",
          "name": "_btcAddress",
          "type": "string"
        }
      ],
      "name": "setBtcPublicKeyAndAddress",
      "outputs": [],
      "stateMutability": "nonpayable",
      "type": "function"
    },
    {
      "inputs": [
        {
          "internalType": "address",
          "name": "_operator",
          "type": "address"
        }
      ],
      "name": "setOperator",
      "outputs": [],
      "stateMutability": "nonpayable",
      "type": "function"
    },
    {
      "inputs": [
        {
          "internalType": "contract IOrder",
          "name": "order",
          "type": "address"
        },
        {
          "internalType": "bytes",
          "name": "txData",
          "type": "bytes"
        },
        {
          "internalType": "uint32",
          "name": "blockHeight",
          "type": "uint32"
        },
        {
          "components": [
            {
              "internalType": "bytes32[]",
              "name": "proof",
              "type": "bytes32[]"
            },
            {
              "internalType": "bytes32",
              "name": "root",
              "type": "bytes32"
            },
            {
              "internalType": "bytes32",
              "name": "leaf",
              "type": "bytes32"
            },
            {
              "internalType": "bool[]",
              "name": "flags",
              "type": "bool[]"
            }
          ],
          "internalType": "struct MerkleProofData",
          "name": "merkleProof",
          "type": "tuple"
        }
      ],
      "name": "submitRegularUnlockTransferProof",
      "outputs": [],
      "stateMutability": "nonpayable",
      "type": "function"
    },
    {
      "inputs": [],
      "name": "token",
      "outputs": [
        {
          "internalType": "contract IStableCoin",
          "name": "",
          "type": "address"
        }
      ],
      "stateMutability": "view",
      "type": "function"
    },
    {
      "inputs": [
        {
          "internalType": "address",
          "name": "newOwner",
          "type": "address"
        }
      ],
      "name": "transferOwnership",
      "outputs": [],
      "stateMutability": "nonpayable",
      "type": "function"
    },
    {
      "inputs": [
        {
          "internalType": "address payable",
          "name": "recipient",
          "type": "address"
        }
      ],
      "name": "withdrawETH",
      "outputs": [],
      "stateMutability": "nonpayable",
      "type": "function"
    },
    {
      "inputs": [
        {
          "internalType": "address",
          "name": "account",
          "type": "address"
        }
      ],
      "name": "withdrawInterest",
      "outputs": [],
      "stateMutability": "nonpayable",
      "type": "function"
    },
    {
      "inputs": [
        {
          "internalType": "address",
          "name": "_token",
          "type": "address"
        },
        {
          "internalType": "address",
          "name": "recipient",
          "type": "address"
        }
      ],
      "name": "withdrawToken",
      "outputs": [],
      "stateMutability": "nonpayable",
      "type": "function"
    },
    {
      "stateMutability": "payable",
      "type": "receive"
    }
  ],
  "bytecode": "0x608060405234801561001057600080fd5b5061001961001e565b6100d0565b7ff0c57e16840df040f15088dc2f81fe391c3923bec73e23a9662efc9c229c6a00805468010000000000000000900460ff161561006e5760405163f92ee8a960e01b815260040160405180910390fd5b80546001600160401b03908116146100cd5780546001600160401b0319166001600160401b0390811782556040519081527fc7f505b2f371ae2175ee4913f4499e1f2633a7b5936321eed1cdaeb6115181d29060200160405180910390a15b50565b61220380620000e06000396000f3fe60806040526004361061010d5760003560e01c806379109baa11610095578063af45f32211610064578063af45f322146102f3578063b3ab15fb14610313578063f2fde38b14610333578063f7d76ae514610353578063fc0c546a1461036857600080fd5b806379109baa146102565780638da5cb5b1461027657806390e72127146102b3578063929de493146102d357600080fd5b80633aeac4e1116100dc5780633aeac4e1146101c1578063468c9185146101e1578063570ca73514610201578063690d832014610221578063715018a61461024157600080fd5b806309f47e5e146101195780630b60365c14610144578063165b92c814610167578063253f284b1461018957600080fd5b3661011457005b600080fd5b34801561012557600080fd5b5061012e610388565b60405161013b9190611a83565b60405180910390f35b34801561015057600080fd5b50610159610416565b60405190815260200161013b565b34801561017357600080fd5b50610187610182366004611b39565b6104a7565b005b34801561019557600080fd5b506004546101a9906001600160a01b031681565b6040516001600160a01b03909116815260200161013b565b3480156101cd57600080fd5b506101876101dc366004611bb2565b610506565b3480156101ed57600080fd5b506101876101fc366004611beb565b6106b3565b34801561020d57600080fd5b506003546101a9906001600160a01b031681565b34801561022d57600080fd5b5061018761023c366004611c89565b6108d2565b34801561024d57600080fd5b50610187610998565b34801561026257600080fd5b50610187610271366004611ca6565b6109ac565b34801561028257600080fd5b507f9016d09d72d40fdae2fd8ceac6b6234c7706214fd39c1cd1e609a0528c199300546001600160a01b03166101a9565b3480156102bf57600080fd5b506101876102ce366004611c89565b610bab565b3480156102df57600080fd5b506101876102ee366004611cc8565b6111b3565b3480156102ff57600080fd5b5061018761030e366004611c89565b611343565b34801561031f57600080fd5b5061018761032e366004611c89565b61154d565b34801561033f57600080fd5b5061018761034e366004611c89565b6115cd565b34801561035f57600080fd5b5061012e611608565b34801561037457600080fd5b506000546101a9906001600160a01b031681565b6001805461039590611d61565b80601f01602080910402602001604051908101604052809291908181526020018280546103c190611d61565b801561040e5780601f106103e35761010080835404028352916020019161040e565b820191906000526020600020905b8154815290600101906020018083116103f157829003601f168201915b505050505081565b600080546040516370a0823160e01b8152306004820152829182916001600160a01b03909116906370a0823190602401602060405180830381865afa158015610463573d6000803e3d6000fd5b505050506040513d601f19601f820116820180604052508101906104879190611d95565b905060055481101561049b578091506104a1565b60055491505b50919050565b6104af611615565b60016104bb8382611dfc565b5060026104c88282611dfc565b507fe1278b084174d7bf265df68c7c4399f4ef52a1226b851d8f2cf4304e6254a12582826040516104fa929190611ebc565b60405180910390a15050565b61050e611615565b610516611670565b6000546001600160a01b03908116908316036105795760405162461bcd60e51b815260206004820152601760248201527f4973737565723a2063616e6e6f7420776974686472617700000000000000000060448201526064015b60405180910390fd5b6040516370a0823160e01b81523060048201526000906001600160a01b038416906370a0823190602401602060405180830381865afa1580156105c0573d6000803e3d6000fd5b505050506040513d601f19601f820116820180604052508101906105e49190611d95565b9050600081116106365760405162461bcd60e51b815260206004820152601d60248201527f4973737565723a206e6f20746f6b656e7320746f2077697468647261770000006044820152606401610570565b61064a6001600160a01b03841683836116a8565b816001600160a01b0316836001600160a01b03167f8210728e7c071f615b840ee026032693858fbcd5e5359e67e438c890f59e56208360405161068f91815260200190565b60405180910390a3506106af60016000805160206121ae83398151915255565b5050565b7ff0c57e16840df040f15088dc2f81fe391c3923bec73e23a9662efc9c229c6a008054600160401b810460ff16159067ffffffffffffffff166000811580156106f95750825b905060008267ffffffffffffffff1660011480156107165750303b155b905081158015610724575080155b156107425760405163f92ee8a960e01b815260040160405180910390fd5b845467ffffffffffffffff19166001178555831561076c57845460ff60401b1916600160401b1785555b61077533611713565b61077d611724565b6001600160a01b038a161580159061079d57506001600160a01b03871615155b80156107b157506001600160a01b03861615155b6107cd5760405162461bcd60e51b815260040161057090611eea565b600089511180156107df575060008851115b61081b5760405162461bcd60e51b815260206004820152600d60248201526c4973737565723a20656d70747960981b6044820152606401610570565b600080546001600160a01b0319166001600160a01b038c1617905560016108428a82611dfc565b50600261084f8982611dfc565b50600380546001600160a01b03808a166001600160a01b031992831617909255600480549289169290911691909117905583156108c657845460ff60401b19168555604051600181527fc7f505b2f371ae2175ee4913f4499e1f2633a7b5936321eed1cdaeb6115181d29060200160405180910390a15b50505050505050505050565b6108da611615565b6108e2611670565b47806109305760405162461bcd60e51b815260206004820152601a60248201527f4973737565723a206e6f2045544820746f2077697468647261770000000000006044820152606401610570565b61093a8282611734565b816001600160a01b03167f94b2de810873337ed265c5f8cf98c9cffefa06b8607f9a2f1fbaebdfbcfbef1c8260405161097591815260200190565b60405180910390a25061099560016000805160206121ae83398151915255565b50565b6109a0611615565b6109aa60006117cb565b565b6109b4611670565b6000546040516340c10f1960e01b8152306004820152602481018490526001600160a01b03909116906340c10f1990604401600060405180830381600087803b158015610a0057600080fd5b505af1158015610a14573d6000803e3d6000fd5b50506000546004805460405163095ea7b360e01b81526001600160a01b039182169281019290925260248201879052909116925063095ea7b391506044016020604051808303816000875af1158015610a71573d6000803e3d6000fd5b505050506040513d601f19601f82011682018060405250810190610a959190611f26565b506004805460008054604051633b90278760e01b815291936001600160a01b0393841693633b90278793610ad793909116918891889160029160019101611fc0565b6020604051808303816000875af1158015610af6573d6000803e3d6000fd5b505050506040513d601f19601f82011682018060405250810190610b1a919061200b565b9050806001600160a01b031663ce7f50186040518163ffffffff1660e01b8152600401602060405180830381865afa158015610b5a573d6000803e3d6000fd5b505050506040513d601f19601f82011682018060405250810190610b7e9190611d95565b60056000828254610b8f919061203e565b909155505060016000805160206121ae83398151915255505050565b6003546001600160a01b03163314610c105760405162461bcd60e51b815260206004820152602260248201527f4973737565723a2063616c6c6572206973206e6f7420746865206f706572617460448201526137b960f11b6064820152608401610570565b610c18611670565b6001600160a01b038116610c3e5760405162461bcd60e51b815260040161057090611eea565b600080546040516370a0823160e01b81523060048201526001600160a01b03909116906370a0823190602401602060405180830381865afa158015610c87573d6000803e3d6000fd5b505050506040513d601f19601f82011682018060405250810190610cab9190611d95565b9050816001600160a01b0316632d8dcef16040518163ffffffff1660e01b8152600401600060405180830381600087803b158015610ce857600080fd5b505af1158015610cfc573d6000803e3d6000fd5b5050600080546040516370a0823160e01b81523060048201529193506001600160a01b031691506370a0823190602401602060405180830381865afa158015610d49573d6000803e3d6000fd5b505050506040513d601f19601f82011682018060405250810190610d6d9190611d95565b90506000610d7b8383612051565b905080600003610e6d57836001600160a01b031663ce7f50186040518163ffffffff1660e01b8152600401602060405180830381865afa158015610dc3573d6000803e3d6000fd5b505050506040513d601f19601f82011682018060405250810190610de79190611d95565b60055410610e6857836001600160a01b031663ce7f50186040518163ffffffff1660e01b8152600401602060405180830381865afa158015610e2d573d6000803e3d6000fd5b505050506040513d601f19601f82011682018060405250810190610e519190611d95565b60056000828254610e629190612051565b90915550505b611199565b836001600160a01b031663eec7faa16040518163ffffffff1660e01b8152600401602060405180830381865afa158015610eab573d6000803e3d6000fd5b505050506040513d601f19601f82011682018060405250810190610ecf9190611d95565b8103610ff65760008054906101000a90046001600160a01b03166001600160a01b0316639dc29fac30866001600160a01b031663eec7faa16040518163ffffffff1660e01b8152600401602060405180830381865afa158015610f36573d6000803e3d6000fd5b505050506040513d601f19601f82011682018060405250810190610f5a9190611d95565b6040516001600160e01b031960e085901b1681526001600160a01b0390921660048301526024820152604401600060405180830381600087803b158015610fa057600080fd5b505af1158015610fb4573d6000803e3d6000fd5b50505050836001600160a01b031663ce7f50186040518163ffffffff1660e01b8152600401602060405180830381865afa158015610dc3573d6000803e3d6000fd5b836001600160a01b031663eec7faa16040518163ffffffff1660e01b8152600401602060405180830381865afa158015611034573d6000803e3d6000fd5b505050506040513d601f19601f820116820180604052508101906110589190611d95565b8111156111515760008054906101000a90046001600160a01b03166001600160a01b0316639dc29fac30866001600160a01b031663ce7f50186040518163ffffffff1660e01b8152600401602060405180830381865afa1580156110c0573d6000803e3d6000fd5b505050506040513d601f19601f820116820180604052508101906110e49190611d95565b6110ee9085612051565b6040516001600160e01b031960e085901b1681526001600160a01b0390921660048301526024820152604401600060405180830381600087803b15801561113457600080fd5b505af1158015611148573d6000803e3d6000fd5b50505050611199565b60405162461bcd60e51b815260206004820152601a60248201527f4973737565723a20696e76616c696420646966666572656e63650000000000006044820152606401610570565b50505061099560016000805160206121ae83398151915255565b6111bb611670565b6001600160a01b0384166111e15760405162461bcd60e51b815260040161057090611eea565b604051632f0a2e5360e11b81526001600160a01b03851690635e145ca690611211908690869086906004016120b4565b600060405180830381600087803b15801561122b57600080fd5b505af115801561123f573d6000803e3d6000fd5b5050505060008054906101000a90046001600160a01b03166001600160a01b0316639dc29fac30866001600160a01b031663eec7faa16040518163ffffffff1660e01b8152600401602060405180830381865afa1580156112a4573d6000803e3d6000fd5b505050506040513d601f19601f820116820180604052508101906112c89190611d95565b6040516001600160e01b031960e085901b1681526001600160a01b0390921660048301526024820152604401600060405180830381600087803b15801561130e57600080fd5b505af1158015611322573d6000803e3d6000fd5b5050505061133d60016000805160206121ae83398151915255565b50505050565b61134b611615565b611353611670565b6000600554116113a55760405162461bcd60e51b815260206004820152601f60248201527f4973737565723a206e6f20696e74657265737420746f207769746864726177006044820152606401610570565b600080546040516370a0823160e01b81523060048201526001600160a01b03909116906370a0823190602401602060405180830381865afa1580156113ee573d6000803e3d6000fd5b505050506040513d601f19601f820116820180604052508101906114129190611d95565b60055490915060008183101561144e5761142c8383612051565b600555506000548290611449906001600160a01b031685836116a8565b61146d565b506000600581905554819061146d906001600160a01b031685836116a8565b818311156114f0576000546001600160a01b0316639dc29fac306114918587612051565b6040516001600160e01b031960e085901b1681526001600160a01b0390921660048301526024820152604401600060405180830381600087803b1580156114d757600080fd5b505af11580156114eb573d6000803e3d6000fd5b505050505b836001600160a01b03167f0fb2ffd41401cdebe76e1a7cdcaed20ad31cf8d215f8209b73ec00525cb8d6868260405161152b91815260200190565b60405180910390a250505061099560016000805160206121ae83398151915255565b611555611615565b6001600160a01b03811661157b5760405162461bcd60e51b815260040161057090611eea565b600380546001600160a01b038381166001600160a01b0319831681179093556040519116919082907ffbe5b6cbafb274f445d7fed869dc77a838d8243a22c460de156560e8857cad0390600090a35050565b6115d5611615565b6001600160a01b0381166115ff57604051631e4fbdf760e01b815260006004820152602401610570565b610995816117cb565b6002805461039590611d61565b336116477f9016d09d72d40fdae2fd8ceac6b6234c7706214fd39c1cd1e609a0528c199300546001600160a01b031690565b6001600160a01b0316146109aa5760405163118cdaa760e01b8152336004820152602401610570565b6000805160206121ae8339815191528054600119016116a257604051633ee5aeb560e01b815260040160405180910390fd5b60029055565b604080516001600160a01b038416602482015260448082018490528251808303909101815260649091019091526020810180516001600160e01b031663a9059cbb60e01b1790526116fa90849061183c565b505050565b60016000805160206121ae83398151915255565b61171b61189f565b610995816118e8565b61172c61189f565b6109aa6118f0565b804710156117575760405163cd78605960e01b8152306004820152602401610570565b6000826001600160a01b03168260405160006040518083038185875af1925050503d80600081146117a4576040519150601f19603f3d011682016040523d82523d6000602084013e6117a9565b606091505b50509050806116fa57604051630a12f52160e11b815260040160405180910390fd5b7f9016d09d72d40fdae2fd8ceac6b6234c7706214fd39c1cd1e609a0528c19930080546001600160a01b031981166001600160a01b03848116918217845560405192169182907f8be0079c531659141344cd1fd0a4f28419497f9722a3daafe3b4186f6b6457e090600090a3505050565b60006118516001600160a01b038416836118f8565b905080516000141580156118765750808060200190518101906118749190611f26565b155b156116fa57604051635274afe760e01b81526001600160a01b0384166004820152602401610570565b7ff0c57e16840df040f15088dc2f81fe391c3923bec73e23a9662efc9c229c6a0054600160401b900460ff166109aa57604051631afcd79f60e31b815260040160405180910390fd5b6115d561189f565b6116ff61189f565b60606119068383600061190f565b90505b92915050565b6060814710156119345760405163cd78605960e01b8152306004820152602401610570565b600080856001600160a01b031684866040516119509190612191565b60006040518083038185875af1925050503d806000811461198d576040519150601f19603f3d011682016040523d82523d6000602084013e611992565b606091505b50915091506119a28683836119ae565b925050505b9392505050565b6060826119c3576119be82611a0a565b6119a7565b81511580156119da57506001600160a01b0384163b155b15611a0357604051639996b31560e01b81526001600160a01b0385166004820152602401610570565b50806119a7565b805115611a1a5780518082602001fd5b604051630a12f52160e11b815260040160405180910390fd5b60005b83811015611a4e578181015183820152602001611a36565b50506000910152565b60008151808452611a6f816020860160208601611a33565b601f01601f19169290920160200192915050565b6020815260006119066020830184611a57565b634e487b7160e01b600052604160045260246000fd5b600082601f830112611abd57600080fd5b813567ffffffffffffffff80821115611ad857611ad8611a96565b604051601f8301601f19908116603f01168101908282118183101715611b0057611b00611a96565b81604052838152866020858801011115611b1957600080fd5b836020870160208301376000602085830101528094505050505092915050565b60008060408385031215611b4c57600080fd5b823567ffffffffffffffff80821115611b6457600080fd5b611b7086838701611aac565b93506020850135915080821115611b8657600080fd5b50611b9385828601611aac565b9150509250929050565b6001600160a01b038116811461099557600080fd5b60008060408385031215611bc557600080fd5b8235611bd081611b9d565b91506020830135611be081611b9d565b809150509250929050565b600080600080600060a08688031215611c0357600080fd5b8535611c0e81611b9d565b9450602086013567ffffffffffffffff80821115611c2b57600080fd5b611c3789838a01611aac565b95506040880135915080821115611c4d57600080fd5b50611c5a88828901611aac565b9350506060860135611c6b81611b9d565b91506080860135611c7b81611b9d565b809150509295509295909350565b600060208284031215611c9b57600080fd5b81356119a781611b9d565b60008060408385031215611cb957600080fd5b50508035926020909101359150565b60008060008060808587031215611cde57600080fd5b8435611ce981611b9d565b9350602085013567ffffffffffffffff80821115611d0657600080fd5b611d1288838901611aac565b94506040870135915063ffffffff82168214611d2d57600080fd5b90925060608601359080821115611d4357600080fd5b50850160808188031215611d5657600080fd5b939692955090935050565b600181811c90821680611d7557607f821691505b6020821081036104a157634e487b7160e01b600052602260045260246000fd5b600060208284031215611da757600080fd5b5051919050565b601f8211156116fa57600081815260208120601f850160051c81016020861015611dd55750805b601f850160051c820191505b81811015611df457828155600101611de1565b505050505050565b815167ffffffffffffffff811115611e1657611e16611a96565b611e2a81611e248454611d61565b84611dae565b602080601f831160018114611e5f5760008415611e475750858301515b600019600386901b1c1916600185901b178555611df4565b600085815260208120601f198616915b82811015611e8e57888601518255948401946001909101908401611e6f565b5085821015611eac5787850151600019600388901b60f8161c191681555b5050505050600190811b01905550565b604081526000611ecf6040830185611a57565b8281036020840152611ee18185611a57565b95945050505050565b6020808252601490820152734973737565723a207a65726f206164647265737360601b604082015260600190565b801515811461099557600080fd5b600060208284031215611f3857600080fd5b81516119a781611f18565b60008154611f5081611d61565b808552602060018381168015611f6d5760018114611f8757611fb5565b60ff1985168884015283151560051b880183019550611fb5565b866000528260002060005b85811015611fad5781548a8201860152908301908401611f92565b890184019650505b505050505092915050565b60018060a01b038616815284602082015283604082015260a060608201526000611fed60a0830185611f43565b8281036080840152611fff8185611f43565b98975050505050505050565b60006020828403121561201d57600080fd5b81516119a781611b9d565b634e487b7160e01b600052601160045260246000fd5b8082018082111561190957611909612028565b8181038181111561190957611909612028565b6000808335601e1984360301811261207b57600080fd5b830160208101925035905067ffffffffffffffff81111561209b57600080fd5b8060051b36038213156120ad57600080fd5b9250929050565b6060815260006120c76060830186611a57565b602063ffffffff86168185015283820360408501526120e68586612064565b608080855284018190526001600160fb1b0381111561210457600080fd5b60051b808260a08601378683013583850152604080880135908501528301905060a081016121356060880188612064565b60a086850301606087015282955080835260c084019550819350600092505b80831015612182578335915061216982611f18565b8115158652948401949284019260019290920191612154565b50939998505050505050505050565b600082516121a3818460208701611a33565b919091019291505056fe9b779b17422d0df92223018b32b4d1fa46e071723d6817e2486d003becc55f00a2646970667358221220e4d670c709ac7a66378261f75388d4b4cfe6db77b013cff2238b135e921f108964736f6c63430008140033",
  "linkReferences": {},
  "deployedLinkReferences": {}
}