{
  "_format": "hh-sol-artifact-1",
  "contractName": "LoanContract",
  "sourceName": "contracts/LoanContract.sol",
  "abi": [
    {
      "inputs": [],
      "stateMutability": "nonpayable",
      "type": "constructor"
    },
    {
      "inputs": [
        {
          "internalType": "address",
          "name": "target",
          "type": "address"
        }
      ],
      "name": "AddressEmptyCode",
      "type": "error"
    },
    {
      "inputs": [
        {
          "internalType": "address",
          "name": "account",
          "type": "address"
        }
      ],
      "name": "AddressInsufficientBalance",
      "type": "error"
    },
    {
      "inputs": [],
      "name": "FailedInnerCall",
      "type": "error"
    },
    {
      "inputs": [],
      "name": "InvalidInitialization",
      "type": "error"
    },
    {
      "inputs": [],
      "name": "NotInitializing",
      "type": "error"
    },
    {
      "inputs": [
        {
          "internalType": "address",
          "name": "owner",
          "type": "address"
        }
      ],
      "name": "OwnableInvalidOwner",
      "type": "error"
    },
    {
      "inputs": [
        {
          "internalType": "address",
          "name": "account",
          "type": "address"
        }
      ],
      "name": "OwnableUnauthorizedAccount",
      "type": "error"
    },
    {
      "inputs": [
        {
          "internalType": "address",
          "name": "token",
          "type": "address"
        }
      ],
      "name": "SafeERC20FailedOperation",
      "type": "error"
    },
    {
      "anonymous": false,
      "inputs": [
        {
          "indexed": false,
          "internalType": "uint256",
          "name": "value",
          "type": "uint256"
        }
      ],
      "name": "DelayBlockChanged",
      "type": "event"
    },
    {
      "anonymous": false,
      "inputs": [
        {
          "indexed": true,
          "internalType": "address",
          "name": "newGetLoanTools",
          "type": "address"
        }
      ],
      "name": "GetLoanToolsUpdated",
      "type": "event"
    },
    {
      "anonymous": false,
      "inputs": [
        {
          "indexed": false,
          "internalType": "uint64",
          "name": "version",
          "type": "uint64"
        }
      ],
      "name": "Initialized",
      "type": "event"
    },
    {
      "anonymous": false,
      "inputs": [
        {
          "indexed": true,
          "internalType": "address",
          "name": "newInteretAddress",
          "type": "address"
        }
      ],
      "name": "InterestAddressUpdated",
      "type": "event"
    },
    {
      "anonymous": false,
      "inputs": [
        {
          "indexed": true,
          "internalType": "address",
          "name": "newIssuer",
          "type": "address"
        },
        {
          "indexed": true,
          "internalType": "bool",
          "name": "enable",
          "type": "bool"
        }
      ],
      "name": "IssuerEnableUpdated",
      "type": "event"
    },
    {
      "anonymous": false,
      "inputs": [
        {
          "indexed": true,
          "internalType": "address",
          "name": "tools",
          "type": "address"
        }
      ],
      "name": "LoanToolsChanged",
      "type": "event"
    },
    {
      "anonymous": false,
      "inputs": [
        {
          "indexed": false,
          "internalType": "uint256",
          "name": "lockTime1",
          "type": "uint256"
        },
        {
          "indexed": false,
          "internalType": "uint256",
          "name": "lockTime2",
          "type": "uint256"
        }
      ],
      "name": "LockTimeChanged",
      "type": "event"
    },
    {
      "anonymous": false,
      "inputs": [
        {
          "indexed": true,
          "internalType": "address",
          "name": "newOptionWallet",
          "type": "address"
        }
      ],
      "name": "OptionWalletUpdated",
      "type": "event"
    },
    {
      "anonymous": false,
      "inputs": [
        {
          "indexed": true,
          "internalType": "address",
          "name": "orderId",
          "type": "address"
        },
        {
          "indexed": true,
          "internalType": "enum OrderType",
          "name": "orderType",
          "type": "uint8"
        },
        {
          "indexed": false,
          "internalType": "uint256",
          "name": "collateral",
          "type": "uint256"
        },
        {
          "indexed": false,
          "internalType": "address",
          "name": "token",
          "type": "address"
        },
        {
          "indexed": false,
          "internalType": "uint256",
          "name": "tokenAmount",
          "type": "uint256"
        }
      ],
      "name": "OrderCreated",
      "type": "event"
    },
    {
      "anonymous": false,
      "inputs": [
        {
          "indexed": true,
          "internalType": "address",
          "name": "factory",
          "type": "address"
        }
      ],
      "name": "OrderFactoryChanged",
      "type": "event"
    },
    {
      "anonymous": false,
      "inputs": [
        {
          "indexed": true,
          "internalType": "address",
          "name": "previousOwner",
          "type": "address"
        },
        {
          "indexed": true,
          "internalType": "address",
          "name": "newOwner",
          "type": "address"
        }
      ],
      "name": "OwnershipTransferred",
      "type": "event"
    },
    {
      "anonymous": false,
      "inputs": [
        {
          "indexed": false,
          "internalType": "uint256",
          "name": "time",
          "type": "uint256"
        }
      ],
      "name": "RepaidExpireTimeChanged",
      "type": "event"
    },
    {
      "anonymous": false,
      "inputs": [
        {
          "indexed": false,
          "internalType": "uint256",
          "name": "time",
          "type": "uint256"
        }
      ],
      "name": "SubmitProofExpireTimeChanged",
      "type": "event"
    },
    {
      "anonymous": false,
      "inputs": [
        {
          "indexed": false,
          "internalType": "uint256",
          "name": "time",
          "type": "uint256"
        }
      ],
      "name": "TakenExpireTimeChanged",
      "type": "event"
    },
    {
      "inputs": [
        {
          "internalType": "address",
          "name": "tools",
          "type": "address"
        }
      ],
      "name": "SetLoanToolsAddress",
      "outputs": [],
      "stateMutability": "nonpayable",
      "type": "function"
    },
    {
      "inputs": [
        {
          "internalType": "uint256",
          "name": "num",
          "type": "uint256"
        }
      ],
      "name": "changeProofedDelayBlock",
      "outputs": [],
      "stateMutability": "nonpayable",
      "type": "function"
    },
    {
      "inputs": [
        {
          "internalType": "uint256",
          "name": "time",
          "type": "uint256"
        }
      ],
      "name": "changeRepaidExpireTime",
      "outputs": [],
      "stateMutability": "nonpayable",
      "type": "function"
    },
    {
      "inputs": [
        {
          "internalType": "uint256",
          "name": "time",
          "type": "uint256"
        }
      ],
      "name": "changeSubmitProofExpireTime",
      "outputs": [],
      "stateMutability": "nonpayable",
      "type": "function"
    },
    {
      "inputs": [
        {
          "internalType": "uint256",
          "name": "time",
          "type": "uint256"
        }
      ],
      "name": "changeTakenExpireTime",
      "outputs": [],
      "stateMutability": "nonpayable",
      "type": "function"
    },
    {
      "inputs": [
        {
          "internalType": "address",
          "name": "_token",
          "type": "address"
        },
        {
          "internalType": "uint256",
          "name": "_amount",
          "type": "uint256"
        },
        {
          "internalType": "uint256",
          "name": "_durationDays",
          "type": "uint256"
        },
        {
          "internalType": "string",
          "name": "_btcAddress",
          "type": "string"
        },
        {
          "internalType": "bytes",
          "name": "_publicKey",
          "type": "bytes"
        }
      ],
      "name": "createLendingOrder",
      "outputs": [
        {
          "internalType": "address",
          "name": "",
          "type": "address"
        }
      ],
      "stateMutability": "nonpayable",
      "type": "function"
    },
    {
      "inputs": [
        {
          "internalType": "address",
          "name": "tokenAddress",
          "type": "address"
        }
      ],
      "name": "getAssetPrice",
      "outputs": [
        {
          "internalType": "uint256",
          "name": "",
          "type": "uint256"
        }
      ],
      "stateMutability": "view",
      "type": "function"
    },
    {
      "inputs": [],
      "name": "getLockTime1",
      "outputs": [
        {
          "internalType": "uint256",
          "name": "",
          "type": "uint256"
        }
      ],
      "stateMutability": "view",
      "type": "function"
    },
    {
      "inputs": [],
      "name": "getLockTime2",
      "outputs": [
        {
          "internalType": "uint256",
          "name": "",
          "type": "uint256"
        }
      ],
      "stateMutability": "view",
      "type": "function"
    },
    {
      "inputs": [
        {
          "internalType": "address",
          "name": "_loanTools",
          "type": "address"
        },
        {
          "internalType": "address",
          "name": "_orderFactory",
          "type": "address"
        }
      ],
      "name": "initialize",
      "outputs": [],
      "stateMutability": "nonpayable",
      "type": "function"
    },
    {
      "inputs": [
        {
          "internalType": "address",
          "name": "_loanTools",
          "type": "address"
        },
        {
          "internalType": "address",
          "name": "_orderFactory",
          "type": "address"
        },
        {
          "internalType": "address",
          "name": "_getLoanTools",
          "type": "address"
        },
        {
          "internalType": "address",
          "name": "_interestReceiver",
          "type": "address"
        },
        {
          "internalType": "address",
          "name": "_optionInterestReceiver",
          "type": "address"
        }
      ],
      "name": "initializeData",
      "outputs": [],
      "stateMutability": "nonpayable",
      "type": "function"
    },
    {
      "inputs": [],
      "name": "owner",
      "outputs": [
        {
          "internalType": "address",
          "name": "",
          "type": "address"
        }
      ],
      "stateMutability": "view",
      "type": "function"
    },
    {
      "inputs": [],
      "name": "renounceOwnership",
      "outputs": [],
      "stateMutability": "nonpayable",
      "type": "function"
    },
    {
      "inputs": [
        {
          "internalType": "address",
          "name": "_getLoanTools",
          "type": "address"
        }
      ],
      "name": "setGetLoanTools",
      "outputs": [],
      "stateMutability": "nonpayable",
      "type": "function"
    },
    {
      "inputs": [
        {
          "internalType": "address",
          "name": "_interestReceivers",
          "type": "address"
        }
      ],
      "name": "setInterestReceivers",
      "outputs": [],
      "stateMutability": "nonpayable",
      "type": "function"
    },
    {
      "inputs": [
        {
          "internalType": "address",
          "name": "_issuer",
          "type": "address"
        },
        {
          "internalType": "bool",
          "name": "_enable",
          "type": "bool"
        }
      ],
      "name": "setIssuerEnable",
      "outputs": [],
      "stateMutability": "nonpayable",
      "type": "function"
    },
    {
      "inputs": [
        {
          "internalType": "uint256",
          "name": "lockTime1Seconds",
          "type": "uint256"
        },
        {
          "internalType": "uint256",
          "name": "lockTime2Seconds",
          "type": "uint256"
        }
      ],
      "name": "setLockTime",
      "outputs": [],
      "stateMutability": "nonpayable",
      "type": "function"
    },
    {
      "inputs": [
        {
          "internalType": "address",
          "name": "_optionInterestReceiver",
          "type": "address"
        }
      ],
      "name": "setOptionInterestReceiver",
      "outputs": [],
      "stateMutability": "nonpayable",
      "type": "function"
    },
    {
      "inputs": [
        {
          "internalType": "address",
          "name": "factory",
          "type": "address"
        }
      ],
      "name": "setOrderFactory",
      "outputs": [],
      "stateMutability": "nonpayable",
      "type": "function"
    },
    {
      "inputs": [
        {
          "internalType": "address",
          "name": "newOwner",
          "type": "address"
        }
      ],
      "name": "transferOwnership",
      "outputs": [],
      "stateMutability": "nonpayable",
      "type": "function"
    }
  ],
  "bytecode": "0x608060405234801561001057600080fd5b50610019610026565b610021610026565b6100d8565b7ff0c57e16840df040f15088dc2f81fe391c3923bec73e23a9662efc9c229c6a00805468010000000000000000900460ff16156100765760405163f92ee8a960e01b815260040160405180910390fd5b80546001600160401b03908116146100d55780546001600160401b0319166001600160401b0390811782556040519081527fc7f505b2f371ae2175ee4913f4499e1f2633a7b5936321eed1cdaeb6115181d29060200160405180910390a15b50565b611686806100e76000396000f3fe608060405234801561001057600080fd5b506004361061012c5760003560e01c806387eb31f4116100ad578063b2037cc711610071578063b2037cc71461024b578063b3596f071461025e578063cd93dd8814610271578063eb6e4b1f14610284578063f2fde38b1461029757600080fd5b806387eb31f41461020257806389838a4a146102155780638da5cb5b1461021d5780638db5501d14610225578063917a52441461023857600080fd5b80635934c67c116100f45780635934c67c146101af578063638edc7d146101c2578063715018a6146101d45780637752a6b7146101dc57806386cecff4146101ef57600080fd5b80630aa8c8f2146101315780632c00a15b146101465780633b90278714610159578063485cc955146101895780634979933c1461019c575b600080fd5b61014461013f366004611248565b6102aa565b005b6101446101543660046112b9565b6103fc565b61016c61016736600461135e565b610440565b6040516001600160a01b0390911681526020015b60405180910390f35b610144610197366004611413565b610870565b6101446101aa3660046112b9565b6108d3565b6101446101bd3660046112b9565b610910565b6006545b604051908152602001610180565b61014461094d565b6101446101ea36600461144c565b610961565b6101446101fd366004611477565b6109d9565b6101446102103660046114a5565b610a5b565b6007546101c6565b61016c610be8565b61014461023336600461144c565b610c16565b61014461024636600461144c565b610c8e565b6101446102593660046112b9565b610d06565b6101c661026c36600461144c565b610d8e565b61014461027f36600461144c565b610e03565b61014461029236600461144c565b610e7b565b6101446102a536600461144c565b610ef1565b7ff0c57e16840df040f15088dc2f81fe391c3923bec73e23a9662efc9c229c6a008054600160401b810460ff16159067ffffffffffffffff166000811580156102f05750825b905060008267ffffffffffffffff16600114801561030d5750303b155b90508115801561031b575080155b156103395760405163f92ee8a960e01b815260040160405180910390fd5b845467ffffffffffffffff19166001178555831561036357845460ff60401b1916600160401b1785555b61036d8a8a610870565b600980546001600160a01b03808b166001600160a01b031992831617909255600a80548a8416908316179055600b80549289169290911691909117905583156103f057845460ff60401b19168555604051600181527fc7f505b2f371ae2175ee4913f4499e1f2633a7b5936321eed1cdaeb6115181d29060200160405180910390a15b50505050505050505050565b610404610f2f565b60058190556040518181527fafb010627dc7806ccaec720768f4574d27a36722d55ddbbf31d687b1a32e8317906020015b60405180910390a150565b336000908152600c6020908152604080832054815180830190925260028252614f4960f01b928201929092529060ff16151560011461049b5760405162461bcd60e51b81526004016104929190611517565b60405180910390fd5b50600085116104dc5760405162461bcd60e51b815260206004820152600d60248201526c185b5bdd5b9d151bd4db585b1b609a1b6044820152606401610492565b6104f16001600160a01b038716333088610f61565b604080516080808201835260025482526003546020808401829052600454848601526060808501929092528451808601865260065481526007548183015285519384018652600080546001600160a01b039081168652600954811693860193909352600a54831696850196909652600b5482169284019290925260015460055494959294911690633d7d689e908490879061058a610be8565b6040805160e087901b6001600160e01b031916815285516001600160a01b03908116600483015260208088015182166024840152878401518216604484015260609788015182166064840152865160848401528681015160a48401529286015160c4830152949095015160e48601526101048501929092529091166101248301528651610144830152860151610164820152336101848201526101a4016020604051808303816000875af1158015610646573d6000803e3d6000fd5b505050506040513d601f19601f8201168201806040525081019061066a919061152a565b60405163095ea7b360e01b81526001600160a01b038083166004830152602482018c9052919250908b169063095ea7b3906044016020604051808303816000875af11580156106bd573d6000803e3d6000fd5b505050506040513d601f19601f820116820180604052508101906106e19190611547565b50604051635566783760e11b81526001600160a01b0382169063aaccf06e90610716908d908d908d908d908d90600401611564565b600060405180830381600087803b15801561073057600080fd5b505af1158015610744573d6000803e3d6000fd5b5050600054604051631e8e205560e11b81526001600160a01b0385811660048301529091169250633d1c40aa9150602401600060405180830381600087803b15801561078f57600080fd5b505af11580156107a3573d6000803e3d6000fd5b50600192506107b0915050565b816001600160a01b03167fc1e13d67c14981e08358982ed2a8013dd3ab85cb0d23ee196d96cb4a39312784836001600160a01b03166392d09ceb6040518163ffffffff1660e01b8152600401602060405180830381865afa158015610819573d6000803e3d6000fd5b505050506040513d601f19601f8201168201806040525081019061083d91906115af565b604080519182526001600160a01b038f16602083015281018d905260600160405180910390a39998505050505050505050565b610878610fc1565b6108813361100a565b600080546001600160a01b039384166001600160a01b031991821617909155600180549290931691161781556202a30060028190556003556203f480600455600555620a8c006006556213c680600755565b6108db610f2f565b60038190556040518181527fd72d6c0bb2c9ee6d3c4937793e84b1c384ad474d2c8d1e617170334c8f71bb9d90602001610435565b610918610f2f565b60028190556040518181527fabd05095e59051bbc870be9cdbbb436fc9760af8ae268875829220e485df08ad90602001610435565b610955610f2f565b61095f600061101b565b565b610969610f2f565b6001600160a01b03811661098f5760405162461bcd60e51b8152600401610492906115c8565b600b80546001600160a01b0319166001600160a01b0383169081179091556040517f5ef4a787aef4f9184ac3681fee26408f358f7e3b5174df511d23574f75b8059790600090a250565b6109e1610f2f565b6001600160a01b038216610a075760405162461bcd60e51b8152600401610492906115c8565b6001600160a01b0382166000818152600c6020526040808220805460ff191685151590811790915590519092917f3563a634b285b1a2ad0459b6804011e70f7057d64292a42db22fa0e6ac1c84e391a35050565b610a63610f2f565b610a7060026000196115f1565b8210610ab45760405162461bcd60e51b81526020600482015260136024820152726c6f636b54696d653120746f6f206c6172676560681b6044820152606401610492565b610ac160026000196115f1565b8110610b055760405162461bcd60e51b81526020600482015260136024820152726c6f636b54696d653220746f6f206c6172676560681b6044820152606401610492565b6203f480610b138383611613565b1015610b565760405162461bcd60e51b8152602060048201526012602482015271496e76616c696420706172616d657465727360701b6044820152606401610492565b6203f48060045483610b689190611613565b1015610ba15760405162461bcd60e51b81526020600482015260086024820152671d1bdbd4db585b1b60c21b6044820152606401610492565b6006829055600781905560408051838152602081018390527f3dda0257c2dd400eb1edae8815f5516b5aa39797d44f3a2afe18d6e217cefa12910160405180910390a15050565b7f9016d09d72d40fdae2fd8ceac6b6234c7706214fd39c1cd1e609a0528c199300546001600160a01b031690565b610c1e610f2f565b6001600160a01b038116610c445760405162461bcd60e51b8152600401610492906115c8565b600a80546001600160a01b0319166001600160a01b0383169081179091556040517f57d4fd094a1e0a50dd5a75f673bc71cce9972b64b50a4814d372e201cd1d898f90600090a250565b610c96610f2f565b6001600160a01b038116610cbc5760405162461bcd60e51b8152600401610492906115c8565b600180546001600160a01b0319166001600160a01b0383169081179091556040517f508d490a9c3f5b7709930d84a5b6a714d7a44e5a0e50d87ab88dd6b671a0041790600090a250565b610d0e610f2f565b6203f48081600654610d209190611613565b1015610d595760405162461bcd60e51b8152602060048201526008602482015267746f6f4c6172676560c01b6044820152606401610492565b60048190556040518181527f8f2dfa8b6d28ee0d8333f564f6159a91db6622765699a2276b07351da9f892b290602001610435565b6000805460405163b3596f0760e01b81526001600160a01b0384811660048301529091169063b3596f0790602401602060405180830381865afa158015610dd9573d6000803e3d6000fd5b505050506040513d601f19601f82011682018060405250810190610dfd91906115af565b92915050565b610e0b610f2f565b6001600160a01b038116610e315760405162461bcd60e51b8152600401610492906115c8565b600980546001600160a01b0319166001600160a01b0383169081179091556040517f71bdd92f599c0aca159ff1b7d1f73989da551261b218ad3071dadd9c34152bc990600090a250565b610e83610f2f565b6001600160a01b038116610ea95760405162461bcd60e51b8152600401610492906115c8565b600080546001600160a01b0319166001600160a01b038316908117825560405190917fc90c4a44f259f85bf9df0ce1f6cc50a9a2c49ef24a4a42f66863d1fb5788691191a250565b610ef9610f2f565b6001600160a01b038116610f2357604051631e4fbdf760e01b815260006004820152602401610492565b610f2c8161101b565b50565b33610f38610be8565b6001600160a01b03161461095f5760405163118cdaa760e01b8152336004820152602401610492565b604080516001600160a01b0385811660248301528416604482015260648082018490528251808303909101815260849091019091526020810180516001600160e01b03166323b872dd60e01b179052610fbb90859061108c565b50505050565b7ff0c57e16840df040f15088dc2f81fe391c3923bec73e23a9662efc9c229c6a0054600160401b900460ff1661095f57604051631afcd79f60e31b815260040160405180910390fd5b611012610fc1565b610f2c816110f4565b7f9016d09d72d40fdae2fd8ceac6b6234c7706214fd39c1cd1e609a0528c19930080546001600160a01b031981166001600160a01b03848116918217845560405192169182907f8be0079c531659141344cd1fd0a4f28419497f9722a3daafe3b4186f6b6457e090600090a3505050565b60006110a16001600160a01b038416836110fc565b905080516000141580156110c65750808060200190518101906110c49190611547565b155b156110ef57604051635274afe760e01b81526001600160a01b0384166004820152602401610492565b505050565b610ef9610fc1565b606061110a83836000611111565b9392505050565b6060814710156111365760405163cd78605960e01b8152306004820152602401610492565b600080856001600160a01b031684866040516111529190611634565b60006040518083038185875af1925050503d806000811461118f576040519150601f19603f3d011682016040523d82523d6000602084013e611194565b606091505b50915091506111a48683836111ae565b9695505050505050565b6060826111c3576111be8261120a565b61110a565b81511580156111da57506001600160a01b0384163b155b1561120357604051639996b31560e01b81526001600160a01b0385166004820152602401610492565b508061110a565b80511561121a5780518082602001fd5b604051630a12f52160e11b815260040160405180910390fd5b6001600160a01b0381168114610f2c57600080fd5b600080600080600060a0868803121561126057600080fd5b853561126b81611233565b9450602086013561127b81611233565b9350604086013561128b81611233565b9250606086013561129b81611233565b915060808601356112ab81611233565b809150509295509295909350565b6000602082840312156112cb57600080fd5b5035919050565b634e487b7160e01b600052604160045260246000fd5b600067ffffffffffffffff80841115611303576113036112d2565b604051601f8501601f19908116603f0116810190828211818310171561132b5761132b6112d2565b8160405280935085815286868601111561134457600080fd5b858560208301376000602087830101525050509392505050565b600080600080600060a0868803121561137657600080fd5b853561138181611233565b94506020860135935060408601359250606086013567ffffffffffffffff808211156113ac57600080fd5b818801915088601f8301126113c057600080fd5b6113cf898335602085016112e8565b935060808801359150808211156113e557600080fd5b508601601f810188136113f757600080fd5b611406888235602084016112e8565b9150509295509295909350565b6000806040838503121561142657600080fd5b823561143181611233565b9150602083013561144181611233565b809150509250929050565b60006020828403121561145e57600080fd5b813561110a81611233565b8015158114610f2c57600080fd5b6000806040838503121561148a57600080fd5b823561149581611233565b9150602083013561144181611469565b600080604083850312156114b857600080fd5b50508035926020909101359150565b60005b838110156114e25781810151838201526020016114ca565b50506000910152565b600081518084526115038160208601602086016114c7565b601f01601f19169290920160200192915050565b60208152600061110a60208301846114eb565b60006020828403121561153c57600080fd5b815161110a81611233565b60006020828403121561155957600080fd5b815161110a81611469565b60018060a01b038616815284602082015283604082015260a06060820152600061159160a08301856114eb565b82810360808401526115a381856114eb565b98975050505050505050565b6000602082840312156115c157600080fd5b5051919050565b6020808252600f908201526e496e76616c6964206164647265737360881b604082015260600190565b60008261160e57634e487b7160e01b600052601260045260246000fd5b500490565b81810381811115610dfd57634e487b7160e01b600052601160045260246000fd5b600082516116468184602087016114c7565b919091019291505056fea2646970667358221220637677118bec0e07f5fa6c4d2b64de8a9d4336b6f404aeaf72e999c8b18c614a64736f6c63430008140033",
  "linkReferences": {},
  "deployedLinkReferences": {}
}