{
  "_format": "hh-sol-artifact-1",
  "contractName": "Order",
  "sourceName": "contracts/order/Order.sol",
  "abi": [
    {
      "inputs": [],
      "stateMutability": "nonpayable",
      "type": "constructor"
    },
    {
      "inputs": [
        {
          "internalType": "address",
          "name": "target",
          "type": "address"
        }
      ],
      "name": "AddressEmptyCode",
      "type": "error"
    },
    {
      "inputs": [
        {
          "internalType": "address",
          "name": "account",
          "type": "address"
        }
      ],
      "name": "AddressInsufficientBalance",
      "type": "error"
    },
    {
      "inputs": [],
      "name": "AllowanceTooLow",
      "type": "error"
    },
    {
      "inputs": [],
      "name": "AlreadyCreated",
      "type": "error"
    },
    {
      "inputs": [],
      "name": "ArbitrationUnavailable",
      "type": "error"
    },
    {
      "inputs": [],
      "name": "ArbitratorDeadlineNotPassed",
      "type": "error"
    },
    {
      "inputs": [],
      "name": "ArbitratorOnly",
      "type": "error"
    },
    {
      "inputs": [],
      "name": "EmptyBtcAddress",
      "type": "error"
    },
    {
      "inputs": [],
      "name": "ErrorStatus",
      "type": "error"
    },
    {
      "inputs": [],
      "name": "FailedInnerCall",
      "type": "error"
    },
    {
      "inputs": [],
      "name": "InvalidBtcData",
      "type": "error"
    },
    {
      "inputs": [],
      "name": "InvalidInitialization",
      "type": "error"
    },
    {
      "inputs": [],
      "name": "InvalidLender",
      "type": "error"
    },
    {
      "inputs": [],
      "name": "InvalidParameters",
      "type": "error"
    },
    {
      "inputs": [],
      "name": "InvalidPreimage",
      "type": "error"
    },
    {
      "inputs": [],
      "name": "InvalidProofLeaf",
      "type": "error"
    },
    {
      "inputs": [],
      "name": "InvalidRepaidExpireWindow",
      "type": "error"
    },
    {
      "inputs": [],
      "name": "InvalidScriptTimelock",
      "type": "error"
    },
    {
      "inputs": [],
      "name": "InvalidSignature",
      "type": "error"
    },
    {
      "inputs": [],
      "name": "InvalidTaprootLeaves",
      "type": "error"
    },
    {
      "inputs": [],
      "name": "InvalidTimelock",
      "type": "error"
    },
    {
      "inputs": [],
      "name": "InvalidV2TaprootLeaves",
      "type": "error"
    },
    {
      "inputs": [],
      "name": "InvalidVersion",
      "type": "error"
    },
    {
      "inputs": [],
      "name": "LenderOnly",
      "type": "error"
    },
    {
      "inputs": [],
      "name": "NoOpen",
      "type": "error"
    },
    {
      "inputs": [],
      "name": "NoPermission",
      "type": "error"
    },
    {
      "inputs": [],
      "name": "NoSubmitPledgeProof",
      "type": "error"
    },
    {
      "inputs": [],
      "name": "NotCloseable",
      "type": "error"
    },
    {
      "inputs": [],
      "name": "NotInitializing",
      "type": "error"
    },
    {
      "inputs": [],
      "name": "NotReady",
      "type": "error"
    },
    {
      "inputs": [],
      "name": "OnlyBorrower",
      "type": "error"
    },
    {
      "inputs": [],
      "name": "OnlyV2",
      "type": "error"
    },
    {
      "inputs": [],
      "name": "OrderClosedAlready",
      "type": "error"
    },
    {
      "inputs": [],
      "name": "OrderTimedOut",
      "type": "error"
    },
    {
      "inputs": [
        {
          "internalType": "address",
          "name": "owner",
          "type": "address"
        }
      ],
      "name": "OwnableInvalidOwner",
      "type": "error"
    },
    {
      "inputs": [
        {
          "internalType": "address",
          "name": "account",
          "type": "address"
        }
      ],
      "name": "OwnableUnauthorizedAccount",
      "type": "error"
    },
    {
      "inputs": [],
      "name": "ReentrancyGuardReentrantCall",
      "type": "error"
    },
    {
      "inputs": [
        {
          "internalType": "address",
          "name": "token",
          "type": "address"
        }
      ],
      "name": "SafeERC20FailedOperation",
      "type": "error"
    },
    {
      "inputs": [],
      "name": "TimelockOverflow",
      "type": "error"
    },
    {
      "anonymous": false,
      "inputs": [
        {
          "indexed": true,
          "internalType": "bytes32",
          "name": "txId",
          "type": "bytes32"
        },
        {
          "indexed": false,
          "internalType": "address",
          "name": "compensationReceiver",
          "type": "address"
        },
        {
          "indexed": false,
          "internalType": "address",
          "name": "timeOutCompensationReceiver",
          "type": "address"
        }
      ],
      "name": "ArbitrationRegistered",
      "type": "event"
    },
    {
      "anonymous": false,
      "inputs": [
        {
          "indexed": true,
          "internalType": "bytes32",
          "name": "txId",
          "type": "bytes32"
        },
        {
          "indexed": false,
          "internalType": "bytes",
          "name": "signature",
          "type": "bytes"
        },
        {
          "indexed": false,
          "internalType": "address",
          "name": "compensationReceiver",
          "type": "address"
        },
        {
          "indexed": false,
          "internalType": "address",
          "name": "timeOutCompensationReceiver",
          "type": "address"
        }
      ],
      "name": "ArbitrationRequested",
      "type": "event"
    },
    {
      "anonymous": false,
      "inputs": [],
      "name": "ArbitratorBTCTransferManuallyConfirmed",
      "type": "event"
    },
    {
      "anonymous": false,
      "inputs": [],
      "name": "BorrowSuccessful",
      "type": "event"
    },
    {
      "anonymous": false,
      "inputs": [],
      "name": "BorrowerBTCTransferArbitratorFeeSubmitted",
      "type": "event"
    },
    {
      "anonymous": false,
      "inputs": [
        {
          "indexed": false,
          "internalType": "uint256",
          "name": "acutalAmount",
          "type": "uint256"
        },
        {
          "indexed": false,
          "internalType": "enum OrderStatus",
          "name": "status",
          "type": "uint8"
        }
      ],
      "name": "BorrowerBTCTransferProofSubmitted",
      "type": "event"
    },
    {
      "anonymous": false,
      "inputs": [
        {
          "indexed": false,
          "internalType": "uint64",
          "name": "version",
          "type": "uint64"
        }
      ],
      "name": "Initialized",
      "type": "event"
    },
    {
      "anonymous": false,
      "inputs": [],
      "name": "LenderBTCTransferManuallyConfirmed",
      "type": "event"
    },
    {
      "anonymous": false,
      "inputs": [
        {
          "indexed": false,
          "internalType": "bytes32",
          "name": "zkTxHash",
          "type": "bytes32"
        },
        {
          "indexed": false,
          "internalType": "enum OrderStatus",
          "name": "status",
          "type": "uint8"
        }
      ],
      "name": "LenderBTCTransferProofSubmitted",
      "type": "event"
    },
    {
      "anonymous": false,
      "inputs": [],
      "name": "OrderClosed",
      "type": "event"
    },
    {
      "anonymous": false,
      "inputs": [
        {
          "indexed": true,
          "internalType": "enum OrderType",
          "name": "orderType",
          "type": "uint8"
        },
        {
          "indexed": false,
          "internalType": "uint256",
          "name": "collateral",
          "type": "uint256"
        },
        {
          "indexed": false,
          "internalType": "address",
          "name": "token",
          "type": "address"
        },
        {
          "indexed": false,
          "internalType": "uint256",
          "name": "tokenAmount",
          "type": "uint256"
        }
      ],
      "name": "OrderCreated",
      "type": "event"
    },
    {
      "anonymous": false,
      "inputs": [
        {
          "indexed": true,
          "internalType": "bytes32",
          "name": "newBtcTxId",
          "type": "bytes32"
        }
      ],
      "name": "OrderDelayed",
      "type": "event"
    },
    {
      "anonymous": false,
      "inputs": [
        {
          "indexed": false,
          "internalType": "string",
          "name": "takerBtcAddress",
          "type": "string"
        },
        {
          "indexed": false,
          "internalType": "string",
          "name": "arbitratorFeeBtcAddress",
          "type": "string"
        },
        {
          "indexed": false,
          "internalType": "uint256",
          "name": "ethFee",
          "type": "uint256"
        },
        {
          "indexed": false,
          "internalType": "uint256",
          "name": "btcFee",
          "type": "uint256"
        }
      ],
      "name": "OrderTaken",
      "type": "event"
    },
    {
      "anonymous": false,
      "inputs": [
        {
          "indexed": true,
          "internalType": "address",
          "name": "previousOwner",
          "type": "address"
        },
        {
          "indexed": true,
          "internalType": "address",
          "name": "newOwner",
          "type": "address"
        }
      ],
      "name": "OwnershipTransferred",
      "type": "event"
    },
    {
      "anonymous": false,
      "inputs": [
        {
          "indexed": true,
          "internalType": "address",
          "name": "borrower",
          "type": "address"
        },
        {
          "indexed": false,
          "internalType": "uint256",
          "name": "additionalBTCRequired",
          "type": "uint256"
        }
      ],
      "name": "RenewalOrderRequested",
      "type": "event"
    },
    {
      "anonymous": false,
      "inputs": [
        {
          "indexed": false,
          "internalType": "bytes",
          "name": "btcRawData",
          "type": "bytes"
        },
        {
          "indexed": false,
          "internalType": "bytes",
          "name": "signature",
          "type": "bytes"
        }
      ],
      "name": "RenewalSignatureSubmitted",
      "type": "event"
    },
    {
      "anonymous": false,
      "inputs": [
        {
          "indexed": false,
          "internalType": "uint256",
          "name": "interest",
          "type": "uint256"
        },
        {
          "indexed": false,
          "internalType": "uint256",
          "name": "principal",
          "type": "uint256"
        },
        {
          "indexed": false,
          "internalType": "bytes",
          "name": "btcTxData",
          "type": "bytes"
        },
        {
          "indexed": false,
          "internalType": "bytes",
          "name": "signature",
          "type": "bytes"
        }
      ],
      "name": "RepaymentMade",
      "type": "event"
    },
    {
      "anonymous": false,
      "inputs": [
        {
          "indexed": true,
          "internalType": "address",
          "name": "repayer",
          "type": "address"
        },
        {
          "indexed": true,
          "internalType": "address",
          "name": "arbitrator",
          "type": "address"
        },
        {
          "indexed": false,
          "internalType": "string",
          "name": "repayerBtcAddress",
          "type": "string"
        }
      ],
      "name": "TimeoutRepaymentMade",
      "type": "event"
    },
    {
      "inputs": [],
      "name": "arbitratorBtcFeeAddress",
      "outputs": [
        {
          "internalType": "string",
          "name": "",
          "type": "string"
        }
      ],
      "stateMutability": "view",
      "type": "function"
    },
    {
      "inputs": [],
      "name": "averageDownPayment",
      "outputs": [
        {
          "internalType": "uint256",
          "name": "",
          "type": "uint256"
        }
      ],
      "stateMutability": "view",
      "type": "function"
    },
    {
      "inputs": [
        {
          "internalType": "bytes",
          "name": "preimage",
          "type": "bytes"
        }
      ],
      "name": "borrow",
      "outputs": [],
      "stateMutability": "nonpayable",
      "type": "function"
    },
    {
      "inputs": [],
      "name": "borrowExpirationTime",
      "outputs": [
        {
          "internalType": "uint256",
          "name": "",
          "type": "uint256"
        }
      ],
      "stateMutability": "view",
      "type": "function"
    },
    {
      "inputs": [],
      "name": "borrowedTime",
      "outputs": [
        {
          "internalType": "uint256",
          "name": "",
          "type": "uint256"
        }
      ],
      "stateMutability": "view",
      "type": "function"
    },
    {
      "inputs": [],
      "name": "borrower",
      "outputs": [
        {
          "internalType": "address",
          "name": "",
          "type": "address"
        }
      ],
      "stateMutability": "view",
      "type": "function"
    },
    {
      "inputs": [],
      "name": "borrowerBtcAddress",
      "outputs": [
        {
          "internalType": "string",
          "name": "",
          "type": "string"
        }
      ],
      "stateMutability": "view",
      "type": "function"
    },
    {
      "inputs": [],
      "name": "borrowerPublicKey",
      "outputs": [
        {
          "internalType": "bytes",
          "name": "",
          "type": "bytes"
        }
      ],
      "stateMutability": "view",
      "type": "function"
    },
    {
      "inputs": [],
      "name": "borrowerRepaidTime",
      "outputs": [
        {
          "internalType": "uint256",
          "name": "",
          "type": "uint256"
        }
      ],
      "stateMutability": "view",
      "type": "function"
    },
    {
      "inputs": [
        {
          "internalType": "bytes",
          "name": "rawTx",
          "type": "bytes"
        },
        {
          "internalType": "bytes",
          "name": "signature",
          "type": "bytes"
        }
      ],
      "name": "borrowerSignLockTimeAUnlockTx",
      "outputs": [
        {
          "internalType": "bytes",
          "name": "",
          "type": "bytes"
        }
      ],
      "stateMutability": "view",
      "type": "function"
    },
    {
      "inputs": [],
      "name": "closeOrder",
      "outputs": [],
      "stateMutability": "nonpayable",
      "type": "function"
    },
    {
      "inputs": [],
      "name": "collateralAmount",
      "outputs": [
        {
          "internalType": "uint256",
          "name": "",
          "type": "uint256"
        }
      ],
      "stateMutability": "view",
      "type": "function"
    },
    {
      "inputs": [
        {
          "internalType": "address",
          "name": "_token",
          "type": "address"
        },
        {
          "internalType": "uint256",
          "name": "_amount",
          "type": "uint256"
        },
        {
          "internalType": "uint256",
          "name": "_duration",
          "type": "uint256"
        },
        {
          "internalType": "string",
          "name": "_btcAddress",
          "type": "string"
        },
        {
          "internalType": "bytes",
          "name": "_publicKey",
          "type": "bytes"
        }
      ],
      "name": "createLendOrder",
      "outputs": [],
      "stateMutability": "nonpayable",
      "type": "function"
    },
    {
      "inputs": [],
      "name": "createTime",
      "outputs": [
        {
          "internalType": "uint256",
          "name": "",
          "type": "uint256"
        }
      ],
      "stateMutability": "view",
      "type": "function"
    },
    {
      "inputs": [],
      "name": "currentSelectedArbitrator",
      "outputs": [
        {
          "internalType": "address",
          "name": "",
          "type": "address"
        }
      ],
      "stateMutability": "view",
      "type": "function"
    },
    {
      "inputs": [],
      "name": "deadLinesData",
      "outputs": [
        {
          "internalType": "uint256",
          "name": "orderDeadLine",
          "type": "uint256"
        },
        {
          "internalType": "uint256",
          "name": "submitPledgeProofDeadLine",
          "type": "uint256"
        },
        {
          "internalType": "uint256",
          "name": "borrowDeadLine",
          "type": "uint256"
        },
        {
          "internalType": "uint256",
          "name": "repayDeadLine",
          "type": "uint256"
        },
        {
          "internalType": "uint256",
          "name": "submitRegularProofDeadLine",
          "type": "uint256"
        }
      ],
      "stateMutability": "view",
      "type": "function"
    },
    {
      "inputs": [],
      "name": "getArbiterUnlockTransferZkpStatus",
      "outputs": [
        {
          "internalType": "enum DataTypes.TransactionStatus",
          "name": "",
          "type": "uint8"
        }
      ],
      "stateMutability": "view",
      "type": "function"
    },
    {
      "inputs": [],
      "name": "getArbitrationBtcNoWitnessTx",
      "outputs": [
        {
          "internalType": "bytes",
          "name": "",
          "type": "bytes"
        }
      ],
      "stateMutability": "view",
      "type": "function"
    },
    {
      "inputs": [],
      "name": "getArbitrationBtcTx",
      "outputs": [
        {
          "internalType": "bytes",
          "name": "",
          "type": "bytes"
        }
      ],
      "stateMutability": "view",
      "type": "function"
    },
    {
      "inputs": [],
      "name": "getLockTimeAUnlockTx",
      "outputs": [
        {
          "internalType": "bytes",
          "name": "",
          "type": "bytes"
        }
      ],
      "stateMutability": "view",
      "type": "function"
    },
    {
      "inputs": [],
      "name": "getLockTimeBUnlockTx",
      "outputs": [
        {
          "internalType": "bytes",
          "name": "",
          "type": "bytes"
        }
      ],
      "stateMutability": "view",
      "type": "function"
    },
    {
      "inputs": [],
      "name": "getRenewalCollateralAmount",
      "outputs": [
        {
          "internalType": "uint256",
          "name": "paymentAmount",
          "type": "uint256"
        },
        {
          "internalType": "uint256",
          "name": "collateral",
          "type": "uint256"
        }
      ],
      "stateMutability": "view",
      "type": "function"
    },
    {
      "inputs": [],
      "name": "getRepayBtcNoWitnessTx",
      "outputs": [
        {
          "internalType": "bytes",
          "name": "",
          "type": "bytes"
        }
      ],
      "stateMutability": "view",
      "type": "function"
    },
    {
      "inputs": [
        {
          "internalType": "bytes",
          "name": "lenderSignature",
          "type": "bytes"
        }
      ],
      "name": "getRepayBtcWitnessTx",
      "outputs": [
        {
          "internalType": "bytes",
          "name": "",
          "type": "bytes"
        }
      ],
      "stateMutability": "view",
      "type": "function"
    },
    {
      "inputs": [
        {
          "internalType": "bytes",
          "name": "keeperSignature",
          "type": "bytes"
        }
      ],
      "name": "getRepayBtcWitnessTxV2",
      "outputs": [
        {
          "internalType": "bytes",
          "name": "",
          "type": "bytes"
        }
      ],
      "stateMutability": "view",
      "type": "function"
    },
    {
      "inputs": [
        {
          "internalType": "address",
          "name": "selectedArbitrator",
          "type": "address"
        }
      ],
      "name": "getSelectedArbitratorFees",
      "outputs": [
        {
          "internalType": "uint256",
          "name": "ethFee",
          "type": "uint256"
        },
        {
          "internalType": "uint256",
          "name": "btcFee",
          "type": "uint256"
        }
      ],
      "stateMutability": "view",
      "type": "function"
    },
    {
      "inputs": [],
      "name": "getTimeoutRepayBtcNoWitnessTx",
      "outputs": [
        {
          "internalType": "bytes",
          "name": "",
          "type": "bytes"
        }
      ],
      "stateMutability": "view",
      "type": "function"
    },
    {
      "inputs": [
        {
          "internalType": "bytes",
          "name": "keeperSignature",
          "type": "bytes"
        }
      ],
      "name": "getTimeoutRepayBtcWitnessTxV2",
      "outputs": [
        {
          "internalType": "bytes",
          "name": "",
          "type": "bytes"
        }
      ],
      "stateMutability": "view",
      "type": "function"
    },
    {
      "inputs": [
        {
          "components": [
            {
              "internalType": "address",
              "name": "loanTools",
              "type": "address"
            },
            {
              "internalType": "address",
              "name": "taprootTools",
              "type": "address"
            },
            {
              "internalType": "address",
              "name": "getLoanTools",
              "type": "address"
            },
            {
              "internalType": "address",
              "name": "interestReceiver",
              "type": "address"
            },
            {
              "internalType": "address",
              "name": "optionInterestReceiver",
              "type": "address"
            }
          ],
          "internalType": "struct SetAddress",
          "name": "_setAddress",
          "type": "tuple"
        },
        {
          "components": [
            {
              "internalType": "uint256",
              "name": "takenExpireTime",
              "type": "uint256"
            },
            {
              "internalType": "uint256",
              "name": "submitProofExpireTime",
              "type": "uint256"
            },
            {
              "internalType": "uint256",
              "name": "repaidExpireTime",
              "type": "uint256"
            },
            {
              "internalType": "uint256",
              "name": "borrowExpirationTime",
              "type": "uint256"
            }
          ],
          "internalType": "struct ExpiredTime",
          "name": "_expiredTime",
          "type": "tuple"
        },
        {
          "internalType": "uint256",
          "name": "_proofedDelayBlock",
          "type": "uint256"
        },
        {
          "internalType": "address",
          "name": "_owner",
          "type": "address"
        },
        {
          "components": [
            {
              "internalType": "uint256",
              "name": "lockTime1",
              "type": "uint256"
            },
            {
              "internalType": "uint256",
              "name": "lockTime2",
              "type": "uint256"
            }
          ],
          "internalType": "struct LockTime",
          "name": "_lockTime",
          "type": "tuple"
        },
        {
          "internalType": "address",
          "name": "_lender",
          "type": "address"
        },
        {
          "internalType": "uint8",
          "name": "_orderVersion",
          "type": "uint8"
        }
      ],
      "name": "initialize",
      "outputs": [],
      "stateMutability": "nonpayable",
      "type": "function"
    },
    {
      "inputs": [],
      "name": "interestRate",
      "outputs": [
        {
          "internalType": "uint256",
          "name": "",
          "type": "uint256"
        }
      ],
      "stateMutability": "view",
      "type": "function"
    },
    {
      "inputs": [],
      "name": "interestReceiver",
      "outputs": [
        {
          "internalType": "address",
          "name": "",
          "type": "address"
        }
      ],
      "stateMutability": "view",
      "type": "function"
    },
    {
      "inputs": [],
      "name": "interestValue",
      "outputs": [
        {
          "internalType": "uint256",
          "name": "",
          "type": "uint256"
        }
      ],
      "stateMutability": "view",
      "type": "function"
    },
    {
      "inputs": [],
      "name": "lender",
      "outputs": [
        {
          "internalType": "address",
          "name": "",
          "type": "address"
        }
      ],
      "stateMutability": "view",
      "type": "function"
    },
    {
      "inputs": [],
      "name": "lenderBtcAddress",
      "outputs": [
        {
          "internalType": "string",
          "name": "",
          "type": "string"
        }
      ],
      "stateMutability": "view",
      "type": "function"
    },
    {
      "inputs": [],
      "name": "lenderInterestValue",
      "outputs": [
        {
          "internalType": "uint256",
          "name": "",
          "type": "uint256"
        }
      ],
      "stateMutability": "view",
      "type": "function"
    },
    {
      "inputs": [],
      "name": "lenderPublicKey",
      "outputs": [
        {
          "internalType": "bytes",
          "name": "",
          "type": "bytes"
        }
      ],
      "stateMutability": "view",
      "type": "function"
    },
    {
      "inputs": [],
      "name": "lenderReceiveAddress",
      "outputs": [
        {
          "internalType": "string",
          "name": "",
          "type": "string"
        }
      ],
      "stateMutability": "view",
      "type": "function"
    },
    {
      "inputs": [
        {
          "internalType": "bytes",
          "name": "rawTx",
          "type": "bytes"
        },
        {
          "internalType": "bytes",
          "name": "signature",
          "type": "bytes"
        }
      ],
      "name": "lenderSignLockTimeBUnlockTx",
      "outputs": [
        {
          "internalType": "bytes",
          "name": "",
          "type": "bytes"
        }
      ],
      "stateMutability": "view",
      "type": "function"
    },
    {
      "inputs": [],
      "name": "limitedDays",
      "outputs": [
        {
          "internalType": "uint256",
          "name": "",
          "type": "uint256"
        }
      ],
      "stateMutability": "view",
      "type": "function"
    },
    {
      "inputs": [],
      "name": "loanScript",
      "outputs": [
        {
          "internalType": "bytes",
          "name": "",
          "type": "bytes"
        }
      ],
      "stateMutability": "view",
      "type": "function"
    },
    {
      "inputs": [],
      "name": "lockTime1",
      "outputs": [
        {
          "internalType": "uint256",
          "name": "",
          "type": "uint256"
        }
      ],
      "stateMutability": "view",
      "type": "function"
    },
    {
      "inputs": [],
      "name": "lockTime2",
      "outputs": [
        {
          "internalType": "uint256",
          "name": "",
          "type": "uint256"
        }
      ],
      "stateMutability": "view",
      "type": "function"
    },
    {
      "inputs": [],
      "name": "optionInterestReceiver",
      "outputs": [
        {
          "internalType": "address",
          "name": "",
          "type": "address"
        }
      ],
      "stateMutability": "view",
      "type": "function"
    },
    {
      "inputs": [],
      "name": "orderType",
      "outputs": [
        {
          "internalType": "enum OrderType",
          "name": "",
          "type": "uint8"
        }
      ],
      "stateMutability": "view",
      "type": "function"
    },
    {
      "inputs": [],
      "name": "orderVersion",
      "outputs": [
        {
          "internalType": "uint8",
          "name": "",
          "type": "uint8"
        }
      ],
      "stateMutability": "view",
      "type": "function"
    },
    {
      "inputs": [],
      "name": "owner",
      "outputs": [
        {
          "internalType": "address",
          "name": "",
          "type": "address"
        }
      ],
      "stateMutability": "view",
      "type": "function"
    },
    {
      "inputs": [],
      "name": "preImage",
      "outputs": [
        {
          "internalType": "bytes",
          "name": "",
          "type": "bytes"
        }
      ],
      "stateMutability": "view",
      "type": "function"
    },
    {
      "inputs": [],
      "name": "preImageHash",
      "outputs": [
        {
          "internalType": "bytes32",
          "name": "",
          "type": "bytes32"
        }
      ],
      "stateMutability": "view",
      "type": "function"
    },
    {
      "inputs": [],
      "name": "proofedDelayBlock",
      "outputs": [
        {
          "internalType": "uint256",
          "name": "",
          "type": "uint256"
        }
      ],
      "stateMutability": "view",
      "type": "function"
    },
    {
      "inputs": [],
      "name": "renewalBtcRawData",
      "outputs": [
        {
          "internalType": "bytes",
          "name": "",
          "type": "bytes"
        }
      ],
      "stateMutability": "view",
      "type": "function"
    },
    {
      "inputs": [
        {
          "internalType": "bytes",
          "name": "btcRawData",
          "type": "bytes"
        },
        {
          "internalType": "bytes",
          "name": "signature",
          "type": "bytes"
        }
      ],
      "name": "renewalOrderRequest",
      "outputs": [],
      "stateMutability": "payable",
      "type": "function"
    },
    {
      "inputs": [],
      "name": "renewalSignature",
      "outputs": [
        {
          "internalType": "bytes",
          "name": "",
          "type": "bytes"
        }
      ],
      "stateMutability": "view",
      "type": "function"
    },
    {
      "inputs": [],
      "name": "renounceOwnership",
      "outputs": [],
      "stateMutability": "nonpayable",
      "type": "function"
    },
    {
      "inputs": [],
      "name": "renwalRequestTime",
      "outputs": [
        {
          "internalType": "uint256",
          "name": "",
          "type": "uint256"
        }
      ],
      "stateMutability": "view",
      "type": "function"
    },
    {
      "inputs": [],
      "name": "repaidExpireTime",
      "outputs": [
        {
          "internalType": "uint256",
          "name": "",
          "type": "uint256"
        }
      ],
      "stateMutability": "view",
      "type": "function"
    },
    {
      "inputs": [
        {
          "internalType": "bytes",
          "name": "btcRawData",
          "type": "bytes"
        },
        {
          "internalType": "bytes",
          "name": "signature",
          "type": "bytes"
        }
      ],
      "name": "repay",
      "outputs": [],
      "stateMutability": "nonpayable",
      "type": "function"
    },
    {
      "inputs": [],
      "name": "repayBtcRawData",
      "outputs": [
        {
          "internalType": "bytes",
          "name": "",
          "type": "bytes"
        }
      ],
      "stateMutability": "view",
      "type": "function"
    },
    {
      "inputs": [],
      "name": "repaySignature",
      "outputs": [
        {
          "internalType": "bytes",
          "name": "",
          "type": "bytes"
        }
      ],
      "stateMutability": "view",
      "type": "function"
    },
    {
      "inputs": [
        {
          "internalType": "bytes",
          "name": "unLockSignature",
          "type": "bytes"
        }
      ],
      "name": "requestArbitration",
      "outputs": [],
      "stateMutability": "nonpayable",
      "type": "function"
    },
    {
      "inputs": [],
      "name": "requestArbitrationTxId",
      "outputs": [
        {
          "internalType": "bytes32",
          "name": "",
          "type": "bytes32"
        }
      ],
      "stateMutability": "view",
      "type": "function"
    },
    {
      "inputs": [],
      "name": "status",
      "outputs": [
        {
          "internalType": "enum OrderStatus",
          "name": "",
          "type": "uint8"
        }
      ],
      "stateMutability": "view",
      "type": "function"
    },
    {
      "inputs": [],
      "name": "submitProofExpirationTime",
      "outputs": [
        {
          "internalType": "uint256",
          "name": "",
          "type": "uint256"
        }
      ],
      "stateMutability": "view",
      "type": "function"
    },
    {
      "inputs": [
        {
          "internalType": "bytes",
          "name": "txData",
          "type": "bytes"
        },
        {
          "internalType": "uint32",
          "name": "blockHeight",
          "type": "uint32"
        },
        {
          "components": [
            {
              "internalType": "bytes32[]",
              "name": "proof",
              "type": "bytes32[]"
            },
            {
              "internalType": "bytes32",
              "name": "root",
              "type": "bytes32"
            },
            {
              "internalType": "bytes32",
              "name": "leaf",
              "type": "bytes32"
            },
            {
              "internalType": "bool[]",
              "name": "flags",
              "type": "bool[]"
            }
          ],
          "internalType": "struct MerkleProofData",
          "name": "merkleProof",
          "type": "tuple"
        }
      ],
      "name": "submitRegularUnlockTransferProof",
      "outputs": [],
      "stateMutability": "nonpayable",
      "type": "function"
    },
    {
      "inputs": [
        {
          "internalType": "bytes",
          "name": "rawData",
          "type": "bytes"
        },
        {
          "internalType": "uint32",
          "name": "blockHeight",
          "type": "uint32"
        },
        {
          "components": [
            {
              "internalType": "bytes32[]",
              "name": "proof",
              "type": "bytes32[]"
            },
            {
              "internalType": "bytes32",
              "name": "root",
              "type": "bytes32"
            },
            {
              "internalType": "bytes32",
              "name": "leaf",
              "type": "bytes32"
            },
            {
              "internalType": "bool[]",
              "name": "flags",
              "type": "bool[]"
            }
          ],
          "internalType": "struct MerkleProofData",
          "name": "merkleProof",
          "type": "tuple"
        }
      ],
      "name": "submitRenewalOrderProof",
      "outputs": [],
      "stateMutability": "nonpayable",
      "type": "function"
    },
    {
      "inputs": [
        {
          "internalType": "bytes",
          "name": "rawData",
          "type": "bytes"
        },
        {
          "internalType": "uint32",
          "name": "blockHeight",
          "type": "uint32"
        },
        {
          "components": [
            {
              "internalType": "bytes32[]",
              "name": "proof",
              "type": "bytes32[]"
            },
            {
              "internalType": "bytes32",
              "name": "root",
              "type": "bytes32"
            },
            {
              "internalType": "bytes32",
              "name": "leaf",
              "type": "bytes32"
            },
            {
              "internalType": "bool[]",
              "name": "flags",
              "type": "bool[]"
            }
          ],
          "internalType": "struct MerkleProofData",
          "name": "merkleProof",
          "type": "tuple"
        },
        {
          "internalType": "uint32",
          "name": "txIndex",
          "type": "uint32"
        }
      ],
      "name": "submitToArbitratorTransferProof",
      "outputs": [],
      "stateMutability": "nonpayable",
      "type": "function"
    },
    {
      "inputs": [
        {
          "internalType": "bytes",
          "name": "rawData",
          "type": "bytes"
        },
        {
          "internalType": "uint32",
          "name": "blockHeight",
          "type": "uint32"
        },
        {
          "components": [
            {
              "internalType": "bytes32[]",
              "name": "proof",
              "type": "bytes32[]"
            },
            {
              "internalType": "bytes32",
              "name": "root",
              "type": "bytes32"
            },
            {
              "internalType": "bytes32",
              "name": "leaf",
              "type": "bytes32"
            },
            {
              "internalType": "bool[]",
              "name": "flags",
              "type": "bool[]"
            }
          ],
          "internalType": "struct MerkleProofData",
          "name": "merkleProof",
          "type": "tuple"
        },
        {
          "internalType": "uint32",
          "name": "toLenderTxIndex",
          "type": "uint32"
        }
      ],
      "name": "submitToLenderTransferProof",
      "outputs": [],
      "stateMutability": "nonpayable",
      "type": "function"
    },
    {
      "inputs": [],
      "name": "systemInterestValue",
      "outputs": [
        {
          "internalType": "uint256",
          "name": "",
          "type": "uint256"
        }
      ],
      "stateMutability": "view",
      "type": "function"
    },
    {
      "inputs": [
        {
          "internalType": "string",
          "name": "btcAddress",
          "type": "string"
        },
        {
          "internalType": "bytes",
          "name": "publicKey",
          "type": "bytes"
        },
        {
          "internalType": "bytes32",
          "name": "preimageHash",
          "type": "bytes32"
        },
        {
          "internalType": "address",
          "name": "selectedArbitrator",
          "type": "address"
        },
        {
          "internalType": "string",
          "name": "net",
          "type": "string"
        }
      ],
      "name": "takeOrder",
      "outputs": [],
      "stateMutability": "payable",
      "type": "function"
    },
    {
      "inputs": [],
      "name": "takenExpireTime",
      "outputs": [
        {
          "internalType": "uint256",
          "name": "",
          "type": "uint256"
        }
      ],
      "stateMutability": "view",
      "type": "function"
    },
    {
      "inputs": [],
      "name": "takenTime",
      "outputs": [
        {
          "internalType": "uint256",
          "name": "",
          "type": "uint256"
        }
      ],
      "stateMutability": "view",
      "type": "function"
    },
    {
      "inputs": [
        {
          "internalType": "uint256",
          "name": "",
          "type": "uint256"
        }
      ],
      "name": "taprootLeaves",
      "outputs": [
        {
          "internalType": "bytes",
          "name": "",
          "type": "bytes"
        }
      ],
      "stateMutability": "view",
      "type": "function"
    },
    {
      "inputs": [
        {
          "internalType": "string",
          "name": "payerBtcAddress",
          "type": "string"
        }
      ],
      "name": "timeoutRepay",
      "outputs": [],
      "stateMutability": "nonpayable",
      "type": "function"
    },
    {
      "inputs": [],
      "name": "timeoutRepayTime",
      "outputs": [
        {
          "internalType": "uint256",
          "name": "",
          "type": "uint256"
        }
      ],
      "stateMutability": "view",
      "type": "function"
    },
    {
      "inputs": [],
      "name": "timeoutRepayer",
      "outputs": [
        {
          "internalType": "address",
          "name": "",
          "type": "address"
        }
      ],
      "stateMutability": "view",
      "type": "function"
    },
    {
      "inputs": [],
      "name": "timeoutRepayerBtcAddress",
      "outputs": [
        {
          "internalType": "string",
          "name": "",
          "type": "string"
        }
      ],
      "stateMutability": "view",
      "type": "function"
    },
    {
      "inputs": [],
      "name": "toArbitratorBtcTx",
      "outputs": [
        {
          "internalType": "bytes32",
          "name": "wTxId",
          "type": "bytes32"
        },
        {
          "internalType": "bytes32",
          "name": "txId",
          "type": "bytes32"
        },
        {
          "internalType": "uint32",
          "name": "txIndex",
          "type": "uint32"
        },
        {
          "internalType": "uint256",
          "name": "proofTimestamp",
          "type": "uint256"
        },
        {
          "internalType": "uint256",
          "name": "blockHeight",
          "type": "uint256"
        },
        {
          "internalType": "uint256",
          "name": "amount",
          "type": "uint256"
        }
      ],
      "stateMutability": "view",
      "type": "function"
    },
    {
      "inputs": [],
      "name": "toBorrowerBtcTx",
      "outputs": [
        {
          "internalType": "bytes32",
          "name": "wTxId",
          "type": "bytes32"
        },
        {
          "internalType": "bytes32",
          "name": "txId",
          "type": "bytes32"
        },
        {
          "internalType": "uint32",
          "name": "txIndex",
          "type": "uint32"
        },
        {
          "internalType": "uint256",
          "name": "proofTimestamp",
          "type": "uint256"
        },
        {
          "internalType": "uint256",
          "name": "blockHeight",
          "type": "uint256"
        },
        {
          "internalType": "uint256",
          "name": "amount",
          "type": "uint256"
        }
      ],
      "stateMutability": "view",
      "type": "function"
    },
    {
      "inputs": [],
      "name": "toLenderBtcTx",
      "outputs": [
        {
          "internalType": "bytes32",
          "name": "wTxId",
          "type": "bytes32"
        },
        {
          "internalType": "bytes32",
          "name": "txId",
          "type": "bytes32"
        },
        {
          "internalType": "uint32",
          "name": "txIndex",
          "type": "uint32"
        },
        {
          "internalType": "uint256",
          "name": "proofTimestamp",
          "type": "uint256"
        },
        {
          "internalType": "uint256",
          "name": "blockHeight",
          "type": "uint256"
        },
        {
          "internalType": "uint256",
          "name": "amount",
          "type": "uint256"
        }
      ],
      "stateMutability": "view",
      "type": "function"
    },
    {
      "inputs": [],
      "name": "token",
      "outputs": [
        {
          "internalType": "address",
          "name": "",
          "type": "address"
        }
      ],
      "stateMutability": "view",
      "type": "function"
    },
    {
      "inputs": [],
      "name": "tokenAmount",
      "outputs": [
        {
          "internalType": "uint256",
          "name": "",
          "type": "uint256"
        }
      ],
      "stateMutability": "view",
      "type": "function"
    },
    {
      "inputs": [
        {
          "internalType": "address",
          "name": "newOwner",
          "type": "address"
        }
      ],
      "name": "transferOwnership",
      "outputs": [],
      "stateMutability": "nonpayable",
      "type": "function"
    }
  ],
  "bytecode": "0x60806040523480156200001157600080fd5b507ff0c57e16840df040f15088dc2f81fe391c3923bec73e23a9662efc9c229c6a00805468010000000000000000810460ff1615906001600160401b03166000811580156200005d5750825b90506000826001600160401b031660011480156200007a5750303b155b90508115801562000089575080155b15620000a85760405163f92ee8a960e01b815260040160405180910390fd5b84546001600160401b03191660011785558315620000d757845460ff60401b1916680100000000000000001785555b83156200011e57845460ff60401b19168555604051600181527fc7f505b2f371ae2175ee4913f4499e1f2633a7b5936321eed1cdaeb6115181d29060200160405180910390a15b505050505061576480620001336000396000f3fe60806040526004361061047e5760003560e01c80637c3a00fd11610255578063c3c6764811610144578063e3baf57c116100c1578063f2fde38b11610085578063f2fde38b14610d31578063f4ce653214610d51578063f8063a9514610d66578063fc0c546a14610d86578063fd7f0e2a14610da6578063fdf0f7ac14610dc657600080fd5b8063e3baf57c14610cb1578063eec7faa114610cd1578063f007ca5414610ce7578063f0452b7414610cfc578063f0d267d314610d1157600080fd5b8063cfe8059211610108578063cfe8059214610c1f578063d0b97d4814610c35578063d25c993f14610c55578063db2561d414610c6a578063dd10689014610c8057600080fd5b8063c3c6764814610b6f578063c6f6c0b714610b85578063c752c3de14610b9b578063c77cf61514610bea578063ce7f501814610c0a57600080fd5b8063a6d8e767116101d2578063b2c7f87811610196578063b2c7f87814610ad3578063b4683b8a14610af3578063bb10b0e714610b09578063bcead63e14610b3a578063c309a53514610b5a57600080fd5b8063a6d8e76714610a3e578063aa58f8cf14610a53578063aaccf06e14610a69578063afacfbdf14610a89578063b005e27114610ab357600080fd5b80638da5cb5b116102195780638da5cb5b146109a057806392d09ceb146109dd57806395aa5581146109f35780639f1b472014610a09578063a412ad1114610a2957600080fd5b80637c3a00fd146109295780637df1f1b91461093f578063838d75131461095f57806387a9796b146109745780638b3bf7201461098a57600080fd5b8063572a15a2116103715780636ae5d110116102ee57806370a6ad41116102b257806370a6ad411461085f578063715018a6146108c85780637243ca8e146108dd57806379ddeee1146108fd5780637b29dab81461091357600080fd5b80636ae5d110146107c55780636b553eb1146107da5780636d0392f1146107ef5780636f17591f146108115780636f5c9e581461083f57600080fd5b80636332c5de116103355780636332c5de1461075257806367125e1c1461076757806368a8da1c1461077d5780636985636b146107925780636a467ef6146107a557600080fd5b8063572a15a2146106dc5780635e145ca6146106f2578063609d67331461071257806361dcd7ab1461072757806362b1480e1461073d57600080fd5b806327588c82116103ff578063437a265f116103c3578063437a265f1461064457806349bbd6901461067c5780634d43e8c31461069c5780634f35014a146106b1578063554730fd146106c657600080fd5b806327588c82146105bc57806327e11aec146105cf5780632d8dcef1146105ef57806330845bd814610604578063433466ef1461062457600080fd5b8063124520bd11610446578063124520bd1461052657806314719e7b1461054a57806317ff940d1461056a5780631fd47bd414610580578063200d2ed21461059557600080fd5b8063012e204e1461048357806301e2abd5146104ae57806307dbd942146104da57806309a5084b146104fc5780631159042c14610511575b600080fd5b34801561048f57600080fd5b50610498610ddc565b6040516104a59190614381565b60405180910390f35b3480156104ba57600080fd5b506047546104c89060ff1681565b60405160ff90911681526020016104a5565b3480156104e657600080fd5b506104fa6104f5366004614488565b610e58565b005b34801561050857600080fd5b50610498610e91565b34801561051d57600080fd5b50610498610f1f565b34801561053257600080fd5b5061053c60085481565b6040519081526020016104a5565b34801561055657600080fd5b506104fa61056536600461454d565b610f2c565b34801561057657600080fd5b5061053c60125481565b34801561058c57600080fd5b506104986111b5565b3480156105a157600080fd5b506033546105af9060ff1681565b6040516104a591906145b8565b6104fa6105ca3660046145dd565b6111c2565b3480156105db57600080fd5b506104986105ea366004614693565b611683565b3480156105fb57600080fd5b506104fa6116ae565b34801561061057600080fd5b506104fa61061f3660046146ac565b611709565b34801561063057600080fd5b506104fa61063f366004614728565b6119d3565b34801561065057600080fd5b50603854610664906001600160a01b031681565b6040516001600160a01b0390911681526020016104a5565b34801561068857600080fd5b5061049861069736600461454d565b611c97565b3480156106a857600080fd5b50610498611d1b565b3480156106bd57600080fd5b50610498611d53565b3480156106d257600080fd5b5061053c60155481565b3480156106e857600080fd5b5061053c60165481565b3480156106fe57600080fd5b506104fa61070d3660046147cb565b611d60565b34801561071e57600080fd5b50610498611ef7565b34801561073357600080fd5b5061053c60105481565b34801561074957600080fd5b50610498611f04565b34801561075e57600080fd5b50610498611f11565b34801561077357600080fd5b5061053c60345481565b34801561078957600080fd5b50610498611f1e565b6104fa6107a036600461483e565b611f2b565b3480156107b157600080fd5b50603d54610664906001600160a01b031681565b3480156107d157600080fd5b506104986120dc565b3480156107e657600080fd5b506104986120e9565b3480156107fb57600080fd5b506108046120f3565b6040516104a591906148a9565b34801561081d57600080fd5b5060025461083290600160a01b900460ff1681565b6040516104a591906148d3565b34801561084b57600080fd5b5061049861085a36600461483e565b612165565b34801561086b57600080fd5b50602954602a54602b54602c54602d54602e5461089095949363ffffffff1692919086565b60408051968752602087019590955263ffffffff909316938501939093526060840152608083019190915260a082015260c0016104a5565b3480156108d457600080fd5b506104fa6121ea565b3480156108e957600080fd5b506104986108f836600461454d565b6121fc565b34801561090957600080fd5b5061053c600b5481565b34801561091f57600080fd5b5061053c60145481565b34801561093557600080fd5b5061053c600a5481565b34801561094b57600080fd5b50600354610664906001600160a01b031681565b34801561096b57600080fd5b50610498612238565b34801561098057600080fd5b5061053c60175481565b34801561099657600080fd5b5061053c602f5481565b3480156109ac57600080fd5b507f9016d09d72d40fdae2fd8ceac6b6234c7706214fd39c1cd1e609a0528c199300546001600160a01b0316610664565b3480156109e957600080fd5b5061053c600f5481565b3480156109ff57600080fd5b5061053c60375481565b348015610a1557600080fd5b506104fa610a243660046148e1565b612245565b348015610a3557600080fd5b50610498612433565b348015610a4a57600080fd5b5061049861243d565b348015610a5f57600080fd5b5061053c60395481565b348015610a7557600080fd5b506104fa610a8436600461491d565b612473565b348015610a9557600080fd5b50610a9e6126d0565b604080519283526020830191909152016104a5565b348015610abf57600080fd5b50604454610664906001600160a01b031681565b348015610adf57600080fd5b506104fa610aee3660046148e1565b612771565b348015610aff57600080fd5b5061053c60425481565b348015610b1557600080fd5b50601d54601e54601f5460205460215460225461089095949363ffffffff1692919086565b348015610b4657600080fd5b50600954610664906001600160a01b031681565b348015610b6657600080fd5b506104986128c8565b348015610b7b57600080fd5b5061053c60435481565b348015610b9157600080fd5b5061053c60465481565b348015610ba757600080fd5b50601854601954601a54601b54601c54610bc2949392919085565b604080519586526020860194909452928401919091526060830152608082015260a0016104a5565b348015610bf657600080fd5b50603c54610664906001600160a01b031681565b348015610c1657600080fd5b5061053c6128d5565b348015610c2b57600080fd5b5061053c60115481565b348015610c4157600080fd5b50610a9e610c503660046149b0565b6128ec565b348015610c6157600080fd5b5061053c612909565b348015610c7657600080fd5b5061053c60355481565b348015610c8c57600080fd5b5060235460245460255460265460275460285461089095949363ffffffff1692919086565b348015610cbd57600080fd5b506104fa610ccc3660046149cb565b612927565b348015610cdd57600080fd5b5061053c60075481565b348015610cf357600080fd5b50610498612a96565b348015610d0857600080fd5b50610498612aa3565b348015610d1d57600080fd5b50610498610d2c36600461483e565b612ab0565b348015610d3d57600080fd5b506104fa610d4c3660046149b0565b612ae7565b348015610d5d57600080fd5b50610498612b22565b348015610d7257600080fd5b506104fa610d8136600461483e565b612b58565b348015610d9257600080fd5b50600654610664906001600160a01b031681565b348015610db257600080fd5b50610498610dc136600461454d565b612e06565b348015610dd257600080fd5b5061053c60135481565b600154601e54604051635a26893d60e01b815260048101919091526060916001600160a01b031690635a26893d906024015b600060405180830381865afa158015610e2b573d6000803e3d6000fd5b505050506040513d6000823e601f3d908101601f19168201604052610e539190810190614a9d565b905090565b610e60612e3c565b600354610e75906001600160a01b0316612e86565b610e83848484600f54612f36565b610e8b6130f4565b50505050565b600c8054610e9e90614ad1565b80601f0160208091040260200160405190810160405280929190818152602001828054610eca90614ad1565b8015610f175780601f10610eec57610100808354040283529160200191610f17565b820191906000526020600020905b815481529060010190602001808311610efa57829003601f168201915b505050505081565b600e8054610e9e90614ad1565b610f34612e3c565b60475460ff16600214610f5a57604051633a96f1e960e21b815260040160405180910390fd5b6000819003610f7c576040516371189f3b60e11b815260040160405180910390fd5b600460335460ff16600b811115610f9557610f9561458e565b14610fb357604051636a36b1a560e01b815260040160405180910390fd5b601b54421015610ff35760405162461bcd60e51b81526020600482015260066024820152652737a7b832b760d11b60448201526064015b60405180910390fd5b600061103883838080601f01602080910402602001604051908101604052809392919081815260200183838082843760009201919091525050603454915061311a9050565b600154604051632eda59cb60e01b81529192506001600160a01b031690632eda59cb9061106f908490603e90603090600401614c66565b600060405180830381600087803b15801561108957600080fd5b505af115801561109d573d6000803e3d6000fd5b505050506110aa336131a8565b604480546001600160a01b0319163317905560456110c9838583614ced565b50426046556033805460ff1916600a17905560006110e56131c9565b60005460385460405163b60264a560e01b81529293506001600160a01b039182169263b60264a59261112a9230923392909116908a908a906036908a90600401614dd5565b600060405180830381600087803b15801561114457600080fd5b505af1158015611158573d6000803e3d6000fd5b50506038546040516001600160a01b0390911692503391507ff51a16e1c5dbce18f7929e2557aa1c5fbbfd99c3c6e7474e896d0acbed9bd8529061119f9088908890614e3e565b60405180910390a350506111b16130f4565b5050565b60308054610e9e90614ad1565b6111ca612e3c565b60008790036111ec576040516371189f3b60e11b815260040160405180910390fd5b600060335460ff16600b8111156112055761120561458e565b1461122357604051636a36b1a560e01b815260040160405180910390fd5b336000600254600160a01b900460ff1660018111156112445761124461458e565b0361129657600754600654611268916001600160a01b0390911690839030906131ff565b600c611275878983614ced565b50600980546001600160a01b0319166001600160a01b0383161790556112f3565b6001600254600160a01b900460ff1660018111156112b6576112b661458e565b036112f35760046112c8898b83614ced565b50600380546001600160a01b0319166001600160a01b03831617905560056112f1878983614ced565b505b602f859055603880546001600160a01b0319166001600160a01b0386811691821790925560025460405163338ac66960e11b815260048101929092529091169063fea14dd59060059083906367158cd290602401600060405180830381865afa158015611364573d6000803e3d6000fd5b505050506040513d6000823e601f3d908101601f1916820160405261138c9190810190614a9d565b603454602f546040518563ffffffff1660e01b81526004016113b19493929190614e52565b600060405180830381865afa1580156113ce573d6000803e3d6000fd5b505050506040513d6000823e601f3d908101601f191682016040526113f69190810190614e8b565b805161140a91603e91602090910190614274565b50603e5460021461142e5760405163686c42ff60e01b815260040160405180910390fd5b603e60008154811061144257611442614f4d565b90600052602060002001603e60018154811061146057611460614f4d565b9060005260206000200160405160200161147b929190614fd6565b604051602081830303815290604052603690816114989190614feb565b50600154604051630532507f60e01b81526001600160a01b0390911690630532507f906114ca90603e906004016150aa565b606060405180830381865afa1580156114e7573d6000803e3d6000fd5b505050506040513d601f19601f8201168201806040525081019061150b91906150cb565b603f8190556002546040516364cd234f60e11b81526001600160a01b03909116935063c99a469e9250611545919087908790600401615104565b600060405180830381865afa158015611562573d6000803e3d6000fd5b505050506040513d6000823e601f3d908101601f1916820160405261158a9190810190614a9d565b600e906115979082614feb565b50426011556033805460ff191660011790556115b1613266565b6115b9613293565b600080546039546040516312a87c6960e01b8152600481019190915282916001600160a01b0316906312a87c69906024016040805180830381865afa158015611606573d6000803e3d6000fd5b505050506040513d601f19601f8201168201806040525081019061162a919061511e565b915091507fb91029edb2e47843f9ff141ad9adb1a06a28307cb8d49876a7fced9e24ece38c8b8b603b8585604051611666959493929190615142565b60405180910390a15050506116796130f4565b5050505050505050565b603e818154811061169357600080fd5b906000526020600020016000915090508054610e9e90614ad1565b6116b6612e3c565b60125415806116c757506000601354115b156116f7576009546001600160a01b031633146116f757604051633415a7ed60e21b815260040160405180910390fd5b6116ff613396565b6117076130f4565b565b611711612e3c565b6003546001600160a01b031633146117b6576002546038546040516304a5d7c560e01b81523360048201526001600160a01b0391821660248201529116906304a5d7c590604401602060405180830381865afa158015611775573d6000803e3d6000fd5b505050506040513d601f19601f82011682018060405250810190611799919061517d565b6117b657604051630955f84760e31b815260040160405180910390fd5b60408101356117d857604051631d08bf9f60e31b815260040160405180910390fd5b600b60335460ff16600b8111156117f1576117f161458e565b1461180f57604051636a36b1a560e01b815260040160405180910390fd5b60118054429091556033805460ff1916600117905561182c613266565b600080546039546040516303f0efcd60e11b8152600481019190915260248101929092526001600160a01b0316906307e1df9a90604401600060405180830381600087803b15801561187d57600080fd5b505af1158015611891573d6000803e3d6000fd5b5050505061189d613293565b6040805160c08101825260008082526020808301829052828401829052606083018290526080830182905260a0909201819052601d819055601e819055601f805463ffffffff19169055808255602181905560228190558251918201909252908152603a9061190c9082614feb565b506040805160208101909152600081526031906119299082614feb565b506040805160208101909152600081526032906119469082614feb565b5061198c85858080601f01602080910402602001604051908101604052809392919081815260200183838082843760009201919091525050600f54879250869150612f36565b6040805190830135907fa7ab7cf9b27c0c1d6f3d181a70c03758aef08ba63ce3c83d712185fd6c9b298f90600090a26011556033805460ff19166004179055610e8b6130f4565b7ff0c57e16840df040f15088dc2f81fe391c3923bec73e23a9662efc9c229c6a008054600160401b810460ff1615906001600160401b0316600081158015611a185750825b90506000826001600160401b03166001148015611a345750303b155b905081158015611a42575080155b15611a605760405163f92ee8a960e01b815260040160405180910390fd5b845467ffffffffffffffff191660011785558315611a8a57845460ff60401b1916600160401b1785555b8735602089013511611aaf57604051637c68874160e11b815260040160405180910390fd5b6001600160a01b038716611ad5576040516221eeab60e81b815260040160405180910390fd5b8560ff16600003611af95760405163a9146eeb60e01b815260040160405180910390fd5b611b02896134ae565b611b0a6134bf565b611b1760208d018d6149b0565b600080546001600160a01b0319166001600160a01b0392909216919091179055611b4760408d0160208e016149b0565b600180546001600160a01b0319166001600160a01b0392909216919091179055611b7760608d0160408e016149b0565b600280546001600160a01b0319166001600160a01b0392909216919091179055611ba760808d0160608e016149b0565b603c80546001600160a01b0319166001600160a01b0392909216919091179055611bd760a08d0160808e016149b0565b603d80546001600160a01b03199081166001600160a01b03938416179091558c356015556020808e013560165560408e013560175560608e013560375560148d90558a356034558a0135603555600980549091169189169190911790556047805460ff191660ff88161790558315611c8957845460ff60401b19168555604051600181527fc7f505b2f371ae2175ee4913f4499e1f2633a7b5936321eed1cdaeb6115181d29060200160405180910390a15b505050505050505050505050565b60015460405163270a77a360e01b81526060916001600160a01b03169063270a77a390611ccd906032908790879060040161519a565b600060405180830381865afa158015611cea573d6000803e3d6000fd5b505050506040513d6000823e601f3d908101601f19168201604052611d129190810190614a9d565b90505b92915050565b600154601e546039546040516383c6ec9f60e01b81526060936001600160a01b0316926383c6ec9f92610e0e92603a906004016151c0565b60058054610e9e90614ad1565b611d68612e3c565b600954611d7d906001600160a01b0316612e86565b600560335460ff16600b811115611d9657611d9661458e565b1480611db85750600a60335460ff16600b811115611db657611db661458e565b145b611de95760405162461bcd60e51b8152602060048201526002602482015261455360f01b6044820152606401610fea565b6000611df36134cf565b6033805460ff1916600617905560008054601e54604051631e1f6f1b60e11b815293945091926001600160a01b0390911691633c3ede3691611e409189918791908a908a906004016152d7565b602060405180830381865afa158015611e5d573d6000803e3d6000fd5b505050506040513d601f19601f82011682018060405250810190611e819190615322565b4260265563ffffffff8516602755602381905560408085013560245560335490519192507f09500c0538cf810aa5932e18765c3383ff1f747afc5c6b72e6ae1bc9737c2db991611ed891849160ff9091169061533b565b60405180910390a1611ee8613396565b5050611ef26130f4565b505050565b60328054610e9e90614ad1565b600d8054610e9e90614ad1565b603b8054610e9e90614ad1565b60458054610e9e90614ad1565b611f33612e3c565b6003546001600160a01b03163314611f5e57604051630ac9915d60e01b815260040160405180910390fd5b600460335460ff16600b811115611f7757611f7761458e565b14611f9557604051636a36b1a560e01b815260040160405180910390fd5b601b544210611fce57604080518082018252600281526113d560f21b6020820152905162461bcd60e51b8152610fea9190600401614381565b6000546039546008546040516369cab61760e11b81526001600160a01b039093169263d3956c2e92612010929091899189916036918a918a919060040161534f565b600060405180830381600087803b15801561202a57600080fd5b505af115801561203e573d6000803e3d6000fd5b50505050604354600003612062576120546126d0565b600f5560435561206261358c565b6033805460ff1916600b179055426042556041612080848683614ced565b50604061208e828483614ced565b506003546043546040519081526001600160a01b03909116907f961677491955ee3163cc60b7a26aeadb28bfdac6da2db92bce8b05ee866353239060200160405180910390a2610e8b6130f4565b60048054610e9e90614ad1565b6060610e536131c9565b60025460395460405163d531b60f60e01b815260048101919091526000916001600160a01b03169063d531b60f90602401602060405180830381865afa158015612141573d6000803e3d6000fd5b505050506040513d601f19601f82011682018060405250810190610e5391906153a5565b6001546040516305c5a52560e31b81526060916001600160a01b031690632e2d29289061219c9088908890889088906004016153c6565b600060405180830381865afa1580156121b9573d6000803e3d6000fd5b505050506040513d6000823e601f3d908101601f191682016040526121e19190810190614a9d565b95945050505050565b6121f261372e565b6117076000613789565b6001546060906001600160a01b0316632fe32c086122186131c9565b85856040518463ffffffff1660e01b8152600401611ccd939291906153f8565b60368054610e9e90614ad1565b61224d612e3c565b600080546039546040516312a87c6960e01b81526001600160a01b03909216916312a87c69916122839160040190815260200190565b6040805180830381865afa15801561229f573d6000803e3d6000fd5b505050506040513d601f19601f820116820180604052508101906122c3919061511e565b915050801561230857600360335460ff16600b8111156122e5576122e561458e565b1461230357604051636a36b1a560e01b815260040160405180910390fd5b61233f565b600260335460ff16600b8111156123215761232161458e565b1461233f57604051636a36b1a560e01b815260040160405180910390fd5b601a54421061236157604051632eaa785b60e01b815260040160405180910390fd5b6000600283604051612373919061540b565b602060405180830381855afa158015612390573d6000803e3d6000fd5b5050506040513d601f19601f820116820180604052508101906123b39190615322565b9050602f5481146123d757604051630cb4548160e11b815260040160405180910390fd5b60306123e38482614feb565b50426012556033805460ff191660041790556123fd6137fa565b6040517fef5b63c9066d00c840194ed045ca94a0b7f736f9b7439f7eb2d90efe7a482ccc90600090a150506124306130f4565b50565b6060610e5361386b565b600154601e546040516303466e0560e41b815260048101919091526060916001600160a01b031690633466e05090602401610e0e565b61247b612e3c565b6001600160a01b038716158061248f575085155b80612498575084155b806124a1575080155b156124bf57604051630e52390960e41b815260040160405180910390fd5b6006546001600160a01b0316156124e957604051631ac1050b60e21b815260040160405180910390fd5b60008054604051635903513760e11b8152600481018890526001600160a01b038a81166024830152604482018a90528392839291169063b206a26e90606401606060405180830381865afa158015612545573d6000803e3d6000fd5b505050506040513d601f19601f820116820180604052508101906125699190615427565b600054604051630a60aebf60e11b81526004810183905293965091945092506001600160a01b0316906314c15d7e9060240160006040518083038186803b1580156125b357600080fd5b505afa1580156125c7573d6000803e3d6000fd5b5050600680546001600160a01b0319166001600160a01b038e169081179091556002805460ff60a01b1916600160a01b1790556126099250905033308c6131ff565b60078990556008889055600c612620858783614ced565b50600d61262e878983614ced565b50600a839055600b829055600f819055426010556008546126509060006138e7565b60345560085460355461266391906138e7565b6035556033805460ff19169055604080518281526001600160a01b038c1660208201529081018a90526001907f4cca9f8b5bfe3be61cada803dab2ecaf9621004497e0e4f8542fd72332fa148d9060600160405180910390a25050506126c76130f4565b50505050505050565b600154600f54600754600654604051633a35338b60e11b8152600481019390935260248301919091526001600160a01b039081166044830152600092839291169063746a671690606401602060405180830381865afa158015612737573d6000803e3d6000fd5b505050506040513d601f19601f8201168201806040525081019061275b9190615322565b915081600f5461276b919061546b565b90509091565b612779612e3c565b6003546001600160a01b031633146127a457604051630ac9915d60e01b815260040160405180910390fd5b6039546127c457604051634a44555360e11b815260040160405180910390fd5b6000806127cf61394a565b91509150816127f157604051631078179560e21b815260040160405180910390fd5b600054603954604051631c269c0f60e21b81526001600160a01b039092169163709a703c9161282791859060369060040161547e565b600060405180830381600087803b15801561284157600080fd5b505af1158015612855573d6000803e3d6000fd5b50506033805460ff1916600817905550603a90506128738482614feb565b506039546003546040517f6b1ebb326a67837db53283e32a5f1fbc720ceb52a49ebd91118c4bdf5aef6881916128b69187916001600160a01b03169086906154a8565b60405180910390a250506124306130f4565b60408054610e9e90614ad1565b60006128df612909565b600b54610e5391906154db565b6000806129006128fa613a04565b84613a57565b91509150915091565b6000806064600b54601e61291d91906154ee565b611d159190615505565b61292f612e3c565b600354612944906001600160a01b0316612e86565b600260335460ff16600b81111561295d5761295d61458e565b1461297b57604051636a36b1a560e01b815260040160405180910390fd5b601954421061299d57604051632eaa785b60e01b815260040160405180910390fd5b600080546039546040516338bcc40760e21b81526001600160a01b039092169163e2f3101c916129d9918a918a918a908a908a90600401615527565b6020604051808303816000875af11580156129f8573d6000803e3d6000fd5b505050506040513d601f19601f82011682018060405250810190612a1c9190615322565b604084810135602a55602982905542602c5563ffffffff868116602d55602b805491861663ffffffff199092169190911790556033805460ff19166003179055519091507fe8e67090b795872c2f2eb03b7b4d7649ed274119542d217f30abcf95349d693d90600090a150612a8f6130f4565b5050505050565b60318054610e9e90614ad1565b60418054610e9e90614ad1565b6001546040516351236d9560e11b81526060916001600160a01b03169063a246db2a9061219c9088908890889088906004016153c6565b612aef61372e565b6001600160a01b038116612b1957604051631e4fbdf760e01b815260006004820152602401610fea565b61243081613789565b600154601e54604051633648e0f960e11b815260048101919091526060916001600160a01b031690636c91c1f290602401610e0e565b612b60612e3c565b6000839003612b82576040516392708cd560e01b815260040160405180910390fd5b6000819003612ba457604051638baa579f60e01b815260040160405180910390fd5b6003546001600160a01b03163314612bcf57604051630ac9915d60e01b815260040160405180910390fd5b600460335460ff16600b811115612be857612be861458e565b14612c0657604051636a36b1a560e01b815260040160405180910390fd5b601b544210612c2857604051632eaa785b60e01b815260040160405180910390fd5b6000612c3261386b565b9050612c778186868080601f0160208091040260200160405190810160405280939291908181526020018383808284376000920191909152509293925050613b229050565b612c9457604051634a44555360e11b815260040160405180910390fd5b426013556033805460ff19166005179055612cae336131a8565b6001546040516303a61e0160e31b81526001600160a01b0390911690631d30f00890612ce49088908890889088906004016153c6565b600060405180830381865afa158015612d01573d6000803e3d6000fd5b505050506040513d6000823e601f3d908101601f19168201604052612d299190810190614a9d565b603290612d369082614feb565b506031612d44838583614ced565b5060005460385460405163afa2943b60e01b81526001600160a01b039283169263afa2943b92612d87923092909116908a908a906036908b908b90600401615577565b600060405180830381600087803b158015612da157600080fd5b505af1158015612db5573d6000803e3d6000fd5b5050600b546007546040517f6d35bc2de41396ad0cbb7da31c6830eeafb04da7878d362d324c6ba15233ba989450612df5935089908990899089906155cb565b60405180910390a150610e8b6130f4565b6001546040516388d4eea960e01b81526060916001600160a01b0316906388d4eea990611ccd906032908790879060040161519a565b7f9b779b17422d0df92223018b32b4d1fa46e071723d6817e2486d003becc55f00805460011901612e8057604051633ee5aeb560e01b815260040160405180910390fd5b60029055565b6001600160a01b0381163303612e995750565b600254604051632a49bf6f60e21b81523360048201526001600160a01b039091169063a926fdbc90602401602060405180830381865afa158015612ee1573d6000803e3d6000fd5b505050506040513d601f19601f82011682018060405250810190612f05919061517d565b6124305760405162461bcd60e51b815260206004820152600260248201526104e560f41b6044820152606401610fea565b600160335460ff16600b811115612f4f57612f4f61458e565b14612f6d57604051636a36b1a560e01b815260040160405180910390fd5b6019544210612f8f57604051632eaa785b60e01b815260040160405180910390fd5b600154603f5460405163ba7ecf9560e01b81526000926001600160a01b03169163ba7ecf9591612fc991899187908a908a906004016155fe565b6040805180830381865afa158015612fe5573d6000803e3d6000fd5b505050506040513d601f19601f82011682018060405250810190613009919061511e565b6022919091556033805460ff191660021790554260205563ffffffff8516602155905061303c6000604085013583613b4c565b600054601e54604051633326ff0d60e11b81523060048201526024810191909152604481018390526001600160a01b039091169063664dfe1a90606401600060405180830381600087803b15801561309357600080fd5b505af11580156130a7573d6000803e3d6000fd5b50506022546033546040517f5739b04fe1a57fa18d64b66dc2dfeedf3f42e80b1f6513a1abc0254fee2b44d194506130e5935060ff9091169061533b565b60405180910390a15050505050565b60017f9b779b17422d0df92223018b32b4d1fa46e071723d6817e2486d003becc55f0055565b6040805160e081018252606060a08201819052600060c0830152601e548252601f5463ffffffff166020808401919091528284018690526022546001600160401b0316918301919091526038546001600160a01b03166080830152603f5483519182015290910160408051601f1981840301815291905260a082015263ffffffff90911660c0820152919050565b61243081306131b5613d4d565b6006546001600160a01b03169291906131ff565b600154601e5460405163afe1549360e01b815260048101919091526060916001600160a01b03169063afe1549390602401610e0e565b6040516001600160a01b038481166024830152838116604483015260648201839052610e8b9186918216906323b872dd906084015b604051602081830303815290604052915060e01b6020820180516001600160e01b038381831617835250505050613d5f565b61326e613a04565b6018819055601b8190556019819055601a81905560175461328e9161546b565b601c55565b600054603854600f54601854600954600354604051620b0bbf60ea1b81526001600160a01b039586166004820152602481019490945260448401929092528316606483015282166084820152911690632c2efc0090349060a40160006040518083038185885af115801561330b573d6000803e3d6000fd5b50505050506040513d6000823e601f3d908101601f19168201604052613334919081019061563b565b60396000603b6133448482614feb565b50509190915550603954600354604080516001600160a01b039092168252600060208301527fd0f0ccc77cd8661c1dd0e4ff6204a2741fa3947f600109bd88f777c6c0afeaa7910160405180910390a2565b600960335460ff16600b8111156133af576133af61458e565b036133cd57604051639008e5eb60e01b815260040160405180910390fd5b6133d5613dc2565b6134065760405162461bcd60e51b81526020600482015260026024820152614e4360f01b6044820152606401610fea565b6000546039546040516355f401af60e01b81526001600160a01b03909216916355f401af9161343b9160040190815260200190565b600060405180830381600087803b15801561345557600080fd5b505af1158015613469573d6000803e3d6000fd5b50506033805460ff19166009179055506134839050613f9c565b6040517f2fec94b9646181c186efa814578384c5b668c18e19a11094e5bcf60f7cc75e0190600090a1565b6134b6614090565b612430816140d9565b6134c7614090565b6117076140e1565b6060600a60335460ff16600b8111156134ea576134ea61458e565b0361357f57604580546134fc90614ad1565b80601f016020809104026020016040519081016040528092919081815260200182805461352890614ad1565b80156135755780601f1061354a57610100808354040283529160200191613575565b820191906000526020600020905b81548152906001019060200180831161355857829003601f168201915b5050505050905090565b600480546134fc90614ad1565b600b5460000361359857565b600080600b54826135a9919061546b565b600654604051636eb1769f60e11b81523360048201523060248201529192506000916001600160a01b039091169063dd62ed3e90604401602060405180830381865afa1580156135fd573d6000803e3d6000fd5b505050506040513d601f19601f820116820180604052508101906136219190615322565b90508181101561365b57604080518082018252600281526104e560f41b6020820152905162461bcd60e51b8152610fea9190600401614381565b600654613673906001600160a01b03163330856131ff565b600061367d612909565b600b54909150811580159061369c5750603c546001600160a01b031615155b156136cf5781600b546136af91906154db565b603c546006549192506136cf916001600160a01b039081169116846140e9565b80156136f2576009546006546136f2916001600160a01b039182169116836140e9565b603d546001600160a01b03161580159061370c5750600085115b15612a8f57603d54600654612a8f916001600160a01b039182169116876140e9565b336137607f9016d09d72d40fdae2fd8ceac6b6234c7706214fd39c1cd1e609a0528c199300546001600160a01b031690565b6001600160a01b0316146117075760405163118cdaa760e01b8152336004820152602401610fea565b7f9016d09d72d40fdae2fd8ceac6b6234c7706214fd39c1cd1e609a0528c19930080546001600160a01b031981166001600160a01b03848116918217845560405192169182907f8be0079c531659141344cd1fd0a4f28419497f9722a3daafe3b4186f6b6457e090600090a3505050565b603d546000906001600160a01b0316158015906138175750600081115b1561383957603d54600654613839916001600160a01b039182169116836140e9565b600354600754612430916001600160a01b0316906138589084906154db565b6006546001600160a01b031691906140e9565b604754606090600260ff909116106138b257600154601e546040516317cc08f160e31b81526001600160a01b039092169163be60478891610e0e9160040190815260200190565b600154601e54604051630f2911d360e31b81526001600160a01b03909216916379488e9891610e0e9160040190815260200190565b600080610200836138fa86610e106154ee565b6139059060186154ee565b61390f919061546b565b6139199190615505565b905062010000811061393e5760405163dbf20b4b60e01b815260040160405180910390fd5b62400000179392505050565b600080600260335460ff16600b8111156139665761396661458e565b03613987575050601a546003544291909111916001600160a01b0390911690565b600360335460ff16600b8111156139a0576139a061458e565b036139c1575050601a546003544291909111916001600160a01b0390911690565b600560335460ff16600b8111156139da576139da61458e565b036139fb575050601c546003544291909111916001600160a01b0390911690565b50600091829150565b601154600090819015613a3557601154613a1f60345461411a565b613a29919061546b565b611d1590610ed861546b565b42613a4160345461411a565b613a4b919061546b565b611d159061138861546b565b603954600090819015613ae2576000546039546040516312a87c6960e01b81526001600160a01b03909216916312a87c6991613a999160040190815260200190565b6040805180830381865afa158015613ab5573d6000803e3d6000fd5b505050506040513d601f19601f82011682018060405250810190613ad9919061511e565b91509150613b1b565b600254604051630a71571960e41b8152600481018690526001600160a01b0385811660248301529091169063a715719090604401613a99565b9250929050565b60008151835114613b3557506000611d15565b508151602091820181902091909201919091201490565b601d839055601e829055601f805463ffffffff191663ffffffff831617905560048054600091613c0591613b7f90614ad1565b80601f0160208091040260200160405190810160405280929190818152602001828054613bab90614ad1565b8015613bf85780601f10613bcd57610100808354040283529160200191613bf8565b820191906000526020600020905b815481529060010190602001808311613bdb57829003601f168201915b505050505060345461311a565b83815263ffffffff8316602082015260015460405163f3e13c4560e01b81529192506001600160a01b03169063f3e13c4590613c48908490603e90600401615681565b600060405180830381600087803b158015613c6257600080fd5b505af1158015613c76573d6000803e3d6000fd5b5050505060006040518060800160405280601d600101548152602001836020015163ffffffff168152602001603f54604051602001613cb791815260200190565b60408051808303601f1901815291815290825260608501516001600160401b031660209092019190915260005460395491516320fe595760e21b81529293506001600160a01b0316916383f9655c91613d149185906004016156a6565b600060405180830381600087803b158015613d2e57600080fd5b505af1158015613d42573d6000803e3d6000fd5b505050505050505050565b6000600b54600754610e53919061546b565b6000613d746001600160a01b0384168361416d565b90508051600014158015613d99575080806020019051810190613d97919061517d565b155b15611ef257604051635274afe760e01b81526001600160a01b0384166004820152602401610fea565b6000600160335460ff16600b811115613ddd57613ddd61458e565b03613deb5750601954421190565b600260335460ff16600b811115613e0457613e0461458e565b03613e125750601a54421190565b600360335460ff16600b811115613e2b57613e2b61458e565b03613e395750601a54421190565b600660335460ff16600b811115613e5257613e5261458e565b03613e5d5750600190565b600460335460ff16600b811115613e7657613e7661458e565b03613e9957604754600260ff90911610613e905750600090565b50601b54421190565b600860335460ff16600b811115613eb257613eb261458e565b03613f2d57600254603954604051637eda4dfb60e11b81526001600160a01b039092169163fdb49bf691613eec9160040190815260200190565b602060405180830381865afa158015613f09573d6000803e3d6000fd5b505050506040513d601f19601f82011682018060405250810190610e53919061517d565b600060335460ff16600b811115613f4657613f4661458e565b03613f96576002546003546009546040516391516f3b60e01b81526001600160a01b03808516946391516f3b94613eec94600160a01b90920460ff169333939182169291909116906004016156f8565b50600090565b6006546040516370a0823160e01b81523060048201526000916001600160a01b0316906370a0823190602401602060405180830381865afa158015613fe5573d6000803e3d6000fd5b505050506040513d601f19601f820116820180604052508101906140099190615322565b9050806000036140165750565b6000600b54600754614028919061546b565b821061407357603c546001600160a01b03161561407357614047612909565b905061405381836154db565b603c54600654919350614073916001600160a01b039081169116836140e9565b6009546006546111b1916001600160a01b039182169116846140e9565b7ff0c57e16840df040f15088dc2f81fe391c3923bec73e23a9662efc9c229c6a0054600160401b900460ff1661170757604051631afcd79f60e31b815260040160405180910390fd5b612aef614090565b6130f4614090565b6040516001600160a01b03838116602483015260448201839052611ef291859182169063a9059cbb90606401613234565b60006240000082811682036141565760405162461bcd60e51b8152602060048201526002602482015261495360f01b6044820152606401610fea565b61416661ffff84166102006154ee565b9392505050565b6060611d128383600084600080856001600160a01b03168486604051614193919061540b565b60006040518083038185875af1925050503d80600081146141d0576040519150601f19603f3d011682016040523d82523d6000602084013e6141d5565b606091505b50915091506141e58683836141ef565b9695505050505050565b606082614204576141ff8261424b565b614166565b815115801561421b57506001600160a01b0384163b155b1561424457604051639996b31560e01b81526001600160a01b0385166004820152602401610fea565b5080614166565b80511561425b5780518082602001fd5b604051630a12f52160e11b815260040160405180910390fd5b8280548282559060005260206000209081019282156142ba579160200282015b828111156142ba57825182906142aa9082614feb565b5091602001919060010190614294565b506142c69291506142ca565b5090565b808211156142c65760006142de82826142e7565b506001016142ca565b5080546142f390614ad1565b6000825580601f10614303575050565b601f01602090049060005260206000209081019061243091905b808211156142c6576000815560010161431d565b60005b8381101561434c578181015183820152602001614334565b50506000910152565b6000815180845261436d816020860160208601614331565b601f01601f19169290920160200192915050565b602081526000611d126020830184614355565b634e487b7160e01b600052604160045260246000fd5b604051601f8201601f191681016001600160401b03811182821017156143d2576143d2614394565b604052919050565b60006001600160401b038211156143f3576143f3614394565b50601f01601f191660200190565b600082601f83011261441257600080fd5b8135614425614420826143da565b6143aa565b81815284602083860101111561443a57600080fd5b816020850160208301376000918101602001919091529392505050565b803563ffffffff8116811461446b57600080fd5b919050565b60006080828403121561448257600080fd5b50919050565b6000806000806080858703121561449e57600080fd5b84356001600160401b03808211156144b557600080fd5b6144c188838901614401565b95506144cf60208801614457565b945060408701359150808211156144e557600080fd5b506144f287828801614470565b92505061450160608601614457565b905092959194509250565b60008083601f84011261451e57600080fd5b5081356001600160401b0381111561453557600080fd5b602083019150836020828501011115613b1b57600080fd5b6000806020838503121561456057600080fd5b82356001600160401b0381111561457657600080fd5b6145828582860161450c565b90969095509350505050565b634e487b7160e01b600052602160045260246000fd5b600c81106145b4576145b461458e565b9052565b60208101611d1582846145a4565b80356001600160a01b038116811461446b57600080fd5b60008060008060008060008060a0898b0312156145f957600080fd5b88356001600160401b038082111561461057600080fd5b61461c8c838d0161450c565b909a50985060208b013591508082111561463557600080fd5b6146418c838d0161450c565b909850965060408b0135955086915061465c60608c016145c6565b945060808b013591508082111561467257600080fd5b5061467f8b828c0161450c565b999c989b5096995094979396929594505050565b6000602082840312156146a557600080fd5b5035919050565b600080600080606085870312156146c257600080fd5b84356001600160401b03808211156146d957600080fd5b6146e58883890161450c565b90965094508491506146f960208801614457565b9350604087013591508082111561470f57600080fd5b5061471c87828801614470565b91505092959194509250565b60008060008060008060008789036101e081121561474557600080fd5b60a081121561475357600080fd5b8897506147638a60a08b01614470565b9650610120890135955061477a6101408a016145c6565b9450604061015f198201121561478f57600080fd5b50610160880192506147a46101a089016145c6565b91506101c088013560ff811681146147bb57600080fd5b8091505092959891949750929550565b6000806000606084860312156147e057600080fd5b83356001600160401b03808211156147f757600080fd5b61480387838801614401565b945061481160208701614457565b9350604086013591508082111561482757600080fd5b5061483486828701614470565b9150509250925092565b6000806000806040858703121561485457600080fd5b84356001600160401b038082111561486b57600080fd5b6148778883890161450c565b9096509450602087013591508082111561489057600080fd5b5061489d8782880161450c565b95989497509550505050565b60208101600783106148bd576148bd61458e565b91905290565b600281106145b4576145b461458e565b60208101611d1582846148c3565b6000602082840312156148f357600080fd5b81356001600160401b0381111561490957600080fd5b61491584828501614401565b949350505050565b600080600080600080600060a0888a03121561493857600080fd5b614941886145c6565b9650602088013595506040880135945060608801356001600160401b038082111561496b57600080fd5b6149778b838c0161450c565b909650945060808a013591508082111561499057600080fd5b5061499d8a828b0161450c565b989b979a50959850939692959293505050565b6000602082840312156149c257600080fd5b611d12826145c6565b6000806000806000608086880312156149e357600080fd5b85356001600160401b03808211156149fa57600080fd5b614a0689838a0161450c565b9097509550859150614a1a60208901614457565b94506040880135915080821115614a3057600080fd5b50614a3d88828901614470565b925050614a4c60608701614457565b90509295509295909350565b600082601f830112614a6957600080fd5b8151614a77614420826143da565b818152846020838601011115614a8c57600080fd5b614915826020830160208701614331565b600060208284031215614aaf57600080fd5b81516001600160401b03811115614ac557600080fd5b61491584828501614a58565b600181811c90821680614ae557607f821691505b60208210810361448257634e487b7160e01b600052602260045260246000fd5b805182526000602082015163ffffffff80821660208601526040840151915060e06040860152614b3860e0860183614355565b91506001600160401b03606085015116606086015260018060a01b03608085015116608086015260a084015185830360a0870152614b768382614355565b9250508060c08501511660c0860152508091505092915050565b60008154614b9d81614ad1565b808552602060018381168015614bba5760018114614bd457614c02565b60ff1985168884015283151560051b880183019550614c02565b866000528260002060005b85811015614bfa5781548a8201860152908301908401614bdf565b890184019650505b505050505092915050565b600081548084526020808501808196508360051b81019150856000528260002060005b85811015614c59578284038952614c478483614b90565b98850198935060019182019101614c30565b5091979650505050505050565b606081526000614c796060830186614b05565b8281036020840152614c8b8186614c0d565b905082810360408401526141e58185614b90565b601f821115611ef257600081815260208120601f850160051c81016020861015614cc65750805b601f850160051c820191505b81811015614ce557828155600101614cd2565b505050505050565b6001600160401b03831115614d0457614d04614394565b614d1883614d128354614ad1565b83614c9f565b6000601f841160018114614d4c5760008515614d345750838201355b600019600387901b1c1916600186901b178355612a8f565b600083815260209020601f19861690835b82811015614d7d5786850135825560209485019460019092019101614d5d565b5086821015614d9a5760001960f88860031b161c19848701351681555b505060018560011b0183555050505050565b81835281816020850137506000828201602090810191909152601f909101601f19169091010190565b6001600160a01b03888116825287811660208301528616604082015260c060608201819052600090614e0a9083018688614dac565b8281036080840152614e1c8186614b90565b905082810360a0840152614e308185614355565b9a9950505050505050505050565b602081526000614915602083018486614dac565b608081526000614e656080830187614b90565b8281036020840152614e778187614355565b604084019590955250506060015292915050565b60006020808385031215614e9e57600080fd5b82516001600160401b0380821115614eb557600080fd5b818501915085601f830112614ec957600080fd5b815181811115614edb57614edb614394565b8060051b614eea8582016143aa565b9182528381018501918581019089841115614f0457600080fd5b86860192505b83831015614f4057825185811115614f225760008081fd5b614f308b89838a0101614a58565b8352509186019190860190614f0a565b9998505050505050505050565b634e487b7160e01b600052603260045260246000fd5b60008154614f7081614ad1565b60018281168015614f885760018114614f9d57614fcc565b60ff1984168752821515830287019450614fcc565b8560005260208060002060005b85811015614fc35781548a820152908401908201614faa565b50505082870194505b5050505092915050565b6000614915614fe58386614f63565b84614f63565b81516001600160401b0381111561500457615004614394565b615018816150128454614ad1565b84614c9f565b602080601f83116001811461504d57600084156150355750858301515b600019600386901b1c1916600185901b178555614ce5565b600085815260208120601f198616915b8281101561507c5788860151825594840194600190910190840161505d565b508582101561509a5787850151600019600388901b60f8161c191681555b5050505050600190811b01905550565b602081526000611d126020830184614c0d565b801515811461243057600080fd5b6000806000606084860312156150e057600080fd5b8351925060208401516150f2816150bd565b80925050604084015190509250925092565b8381526040602082015260006121e1604083018486614dac565b6000806040838503121561513157600080fd5b505080516020909101519092909150565b608081526000615156608083018789614dac565b82810360208401526151688187614b90565b60408401959095525050606001529392505050565b60006020828403121561518f57600080fd5b8151614166816150bd565b6040815260006151ad6040830186614b90565b82810360208401526141e5818587614dac565b8381528260208201526060604082015260006121e16060830184614b90565b6000808335601e198436030181126151f657600080fd5b83016020810192503590506001600160401b0381111561521557600080fd5b8060051b3603821315613b1b57600080fd5b600061523382836151df565b608080865285018190526001600160fb1b0381111561525157600080fd5b60051b808260a087013780850191505060a08101602080850135818701526040850135604087015261528660608601866151df565b87850360a00160608901529283905292600092849160c0015b818510156152cb57853592506152b4836150bd565b82151581529483019460019490940193830161529f565b98975050505050505050565b60a0815260006152ea60a0830188614355565b82810360208401526152fc8188614355565b905085604084015263ffffffff8516606084015282810360808401526152cb8185615227565b60006020828403121561533457600080fd5b5051919050565b8281526040810161416660208301846145a4565b87815260a06020820152600061536960a08301888a614dac565b828103604084015261537b8188614b90565b90508281036060840152615390818688614dac565b91505082608083015298975050505050505050565b6000602082840312156153b757600080fd5b81516007811061416657600080fd5b6040815260006153da604083018688614dac565b82810360208401526153ed818587614dac565b979650505050505050565b6040815260006151ad6040830186614355565b6000825161541d818460208701614331565b9190910192915050565b60008060006060848603121561543c57600080fd5b8351925060208401519150604084015190509250925092565b634e487b7160e01b600052601160045260246000fd5b80820180821115611d1557611d15615455565b8381526001600160a01b03831660208201526060604082018190526000906121e190830184614b90565b6060815260006154bb6060830186614355565b6001600160a01b0394851660208401529290931660409091015292915050565b81810381811115611d1557611d15615455565b8082028115828204841417611d1557611d15615455565b60008261552257634e487b7160e01b600052601260045260246000fd5b500490565b60a08152600061553b60a08301888a614dac565b86602084015263ffffffff808716604085015283820360608501526155608287615227565b925080851660808501525050979650505050505050565b6001600160a01b0388811682528716602082015260a0604082018190526000906155a49083018789614dac565b82810360608401526155b68187614b90565b90508281036080840152614e30818587614dac565b8681528560208201526080604082015260006155eb608083018688614dac565b8281036060840152614f40818587614dac565b60a08152600061561160a0830188614355565b86602084015285604084015263ffffffff8516606084015282810360808401526152cb8185615227565b6000806040838503121561564e57600080fd5b8251915060208301516001600160401b0381111561566b57600080fd5b61567785828601614a58565b9150509250929050565b6040815260006156946040830185614b05565b82810360208401526121e18185614c0d565b828152604060208201528151604082015263ffffffff6020830151166060820152600060408301516080808401526156e160c0840182614355565b9050606084015160a0840152809150509392505050565b6080810161570682876148c3565b6001600160a01b0394851660208301529284166040820152921660609092019190915291905056fea264697066735822122035a5de3b12a5026ee7a1b3342419cd7b89124c97b143dc58213c1097b78b9edb64736f6c63430008140033",
  "linkReferences": {},
  "deployedLinkReferences": {}
}