{
  "_format": "hh-sol-artifact-1",
  "contractName": "Order",
  "sourceName": "contracts/order/Order.sol",
  "abi": [
    {
      "inputs": [],
      "stateMutability": "nonpayable",
      "type": "constructor"
    },
    {
      "inputs": [
        {
          "internalType": "address",
          "name": "target",
          "type": "address"
        }
      ],
      "name": "AddressEmptyCode",
      "type": "error"
    },
    {
      "inputs": [
        {
          "internalType": "address",
          "name": "account",
          "type": "address"
        }
      ],
      "name": "AddressInsufficientBalance",
      "type": "error"
    },
    {
      "inputs": [],
      "name": "AllowanceTooLow",
      "type": "error"
    },
    {
      "inputs": [],
      "name": "AlreadyCreated",
      "type": "error"
    },
    {
      "inputs": [],
      "name": "ArbitrationUnavailable",
      "type": "error"
    },
    {
      "inputs": [],
      "name": "ArbitratorDeadlineNotPassed",
      "type": "error"
    },
    {
      "inputs": [],
      "name": "ArbitratorOnly",
      "type": "error"
    },
    {
      "inputs": [],
      "name": "EmptyBtcAddress",
      "type": "error"
    },
    {
      "inputs": [],
      "name": "ErrorStatus",
      "type": "error"
    },
    {
      "inputs": [],
      "name": "FailedInnerCall",
      "type": "error"
    },
    {
      "inputs": [],
      "name": "InvalidBtcData",
      "type": "error"
    },
    {
      "inputs": [],
      "name": "InvalidInitialization",
      "type": "error"
    },
    {
      "inputs": [],
      "name": "InvalidLender",
      "type": "error"
    },
    {
      "inputs": [],
      "name": "InvalidParameters",
      "type": "error"
    },
    {
      "inputs": [],
      "name": "InvalidPreimage",
      "type": "error"
    },
    {
      "inputs": [],
      "name": "InvalidProofLeaf",
      "type": "error"
    },
    {
      "inputs": [],
      "name": "InvalidRepaidExpireWindow",
      "type": "error"
    },
    {
      "inputs": [],
      "name": "InvalidScriptTimelock",
      "type": "error"
    },
    {
      "inputs": [],
      "name": "InvalidSignature",
      "type": "error"
    },
    {
      "inputs": [],
      "name": "InvalidTaprootLeaves",
      "type": "error"
    },
    {
      "inputs": [],
      "name": "InvalidTimelock",
      "type": "error"
    },
    {
      "inputs": [],
      "name": "InvalidV2TaprootLeaves",
      "type": "error"
    },
    {
      "inputs": [],
      "name": "InvalidVersion",
      "type": "error"
    },
    {
      "inputs": [],
      "name": "LenderOnly",
      "type": "error"
    },
    {
      "inputs": [],
      "name": "NoOpen",
      "type": "error"
    },
    {
      "inputs": [],
      "name": "NoPermission",
      "type": "error"
    },
    {
      "inputs": [],
      "name": "NoSubmitPledgeProof",
      "type": "error"
    },
    {
      "inputs": [],
      "name": "NotCloseable",
      "type": "error"
    },
    {
      "inputs": [],
      "name": "NotInitializing",
      "type": "error"
    },
    {
      "inputs": [],
      "name": "NotReady",
      "type": "error"
    },
    {
      "inputs": [],
      "name": "OnlyBorrower",
      "type": "error"
    },
    {
      "inputs": [],
      "name": "OnlyV2",
      "type": "error"
    },
    {
      "inputs": [],
      "name": "OrderClosedAlready",
      "type": "error"
    },
    {
      "inputs": [],
      "name": "OrderTimedOut",
      "type": "error"
    },
    {
      "inputs": [
        {
          "internalType": "address",
          "name": "owner",
          "type": "address"
        }
      ],
      "name": "OwnableInvalidOwner",
      "type": "error"
    },
    {
      "inputs": [
        {
          "internalType": "address",
          "name": "account",
          "type": "address"
        }
      ],
      "name": "OwnableUnauthorizedAccount",
      "type": "error"
    },
    {
      "inputs": [],
      "name": "ReentrancyGuardReentrantCall",
      "type": "error"
    },
    {
      "inputs": [
        {
          "internalType": "address",
          "name": "token",
          "type": "address"
        }
      ],
      "name": "SafeERC20FailedOperation",
      "type": "error"
    },
    {
      "inputs": [],
      "name": "TimelockOverflow",
      "type": "error"
    },
    {
      "anonymous": false,
      "inputs": [
        {
          "indexed": true,
          "internalType": "bytes32",
          "name": "txId",
          "type": "bytes32"
        },
        {
          "indexed": false,
          "internalType": "address",
          "name": "compensationReceiver",
          "type": "address"
        },
        {
          "indexed": false,
          "internalType": "address",
          "name": "timeOutCompensationReceiver",
          "type": "address"
        }
      ],
      "name": "ArbitrationRegistered",
      "type": "event"
    },
    {
      "anonymous": false,
      "inputs": [
        {
          "indexed": true,
          "internalType": "bytes32",
          "name": "txId",
          "type": "bytes32"
        },
        {
          "indexed": false,
          "internalType": "bytes",
          "name": "signature",
          "type": "bytes"
        },
        {
          "indexed": false,
          "internalType": "address",
          "name": "compensationReceiver",
          "type": "address"
        },
        {
          "indexed": false,
          "internalType": "address",
          "name": "timeOutCompensationReceiver",
          "type": "address"
        }
      ],
      "name": "ArbitrationRequested",
      "type": "event"
    },
    {
      "anonymous": false,
      "inputs": [],
      "name": "ArbitratorBTCTransferManuallyConfirmed",
      "type": "event"
    },
    {
      "anonymous": false,
      "inputs": [],
      "name": "BorrowSuccessful",
      "type": "event"
    },
    {
      "anonymous": false,
      "inputs": [],
      "name": "BorrowerBTCTransferArbitratorFeeSubmitted",
      "type": "event"
    },
    {
      "anonymous": false,
      "inputs": [
        {
          "indexed": false,
          "internalType": "uint256",
          "name": "acutalAmount",
          "type": "uint256"
        },
        {
          "indexed": false,
          "internalType": "enum OrderStatus",
          "name": "status",
          "type": "uint8"
        }
      ],
      "name": "BorrowerBTCTransferProofSubmitted",
      "type": "event"
    },
    {
      "anonymous": false,
      "inputs": [
        {
          "indexed": false,
          "internalType": "uint64",
          "name": "version",
          "type": "uint64"
        }
      ],
      "name": "Initialized",
      "type": "event"
    },
    {
      "anonymous": false,
      "inputs": [],
      "name": "LenderBTCTransferManuallyConfirmed",
      "type": "event"
    },
    {
      "anonymous": false,
      "inputs": [
        {
          "indexed": false,
          "internalType": "bytes32",
          "name": "zkTxHash",
          "type": "bytes32"
        },
        {
          "indexed": false,
          "internalType": "enum OrderStatus",
          "name": "status",
          "type": "uint8"
        }
      ],
      "name": "LenderBTCTransferProofSubmitted",
      "type": "event"
    },
    {
      "anonymous": false,
      "inputs": [],
      "name": "OrderClosed",
      "type": "event"
    },
    {
      "anonymous": false,
      "inputs": [
        {
          "indexed": true,
          "internalType": "enum OrderType",
          "name": "orderType",
          "type": "uint8"
        },
        {
          "indexed": false,
          "internalType": "uint256",
          "name": "collateral",
          "type": "uint256"
        },
        {
          "indexed": false,
          "internalType": "address",
          "name": "token",
          "type": "address"
        },
        {
          "indexed": false,
          "internalType": "uint256",
          "name": "tokenAmount",
          "type": "uint256"
        }
      ],
      "name": "OrderCreated",
      "type": "event"
    },
    {
      "anonymous": false,
      "inputs": [
        {
          "indexed": true,
          "internalType": "bytes32",
          "name": "newBtcTxId",
          "type": "bytes32"
        }
      ],
      "name": "OrderDelayed",
      "type": "event"
    },
    {
      "anonymous": false,
      "inputs": [
        {
          "indexed": false,
          "internalType": "string",
          "name": "takerBtcAddress",
          "type": "string"
        },
        {
          "indexed": false,
          "internalType": "string",
          "name": "arbitratorFeeBtcAddress",
          "type": "string"
        },
        {
          "indexed": false,
          "internalType": "uint256",
          "name": "ethFee",
          "type": "uint256"
        },
        {
          "indexed": false,
          "internalType": "uint256",
          "name": "btcFee",
          "type": "uint256"
        }
      ],
      "name": "OrderTaken",
      "type": "event"
    },
    {
      "anonymous": false,
      "inputs": [
        {
          "indexed": true,
          "internalType": "address",
          "name": "previousOwner",
          "type": "address"
        },
        {
          "indexed": true,
          "internalType": "address",
          "name": "newOwner",
          "type": "address"
        }
      ],
      "name": "OwnershipTransferred",
      "type": "event"
    },
    {
      "anonymous": false,
      "inputs": [
        {
          "indexed": true,
          "internalType": "address",
          "name": "borrower",
          "type": "address"
        },
        {
          "indexed": false,
          "internalType": "uint256",
          "name": "additionalBTCRequired",
          "type": "uint256"
        }
      ],
      "name": "RenewalOrderRequested",
      "type": "event"
    },
    {
      "anonymous": false,
      "inputs": [
        {
          "indexed": false,
          "internalType": "bytes",
          "name": "btcRawData",
          "type": "bytes"
        },
        {
          "indexed": false,
          "internalType": "bytes",
          "name": "signature",
          "type": "bytes"
        }
      ],
      "name": "RenewalSignatureSubmitted",
      "type": "event"
    },
    {
      "anonymous": false,
      "inputs": [
        {
          "indexed": false,
          "internalType": "uint256",
          "name": "interest",
          "type": "uint256"
        },
        {
          "indexed": false,
          "internalType": "uint256",
          "name": "principal",
          "type": "uint256"
        },
        {
          "indexed": false,
          "internalType": "bytes",
          "name": "btcTxData",
          "type": "bytes"
        },
        {
          "indexed": false,
          "internalType": "bytes",
          "name": "signature",
          "type": "bytes"
        }
      ],
      "name": "RepaymentMade",
      "type": "event"
    },
    {
      "anonymous": false,
      "inputs": [
        {
          "indexed": true,
          "internalType": "address",
          "name": "repayer",
          "type": "address"
        },
        {
          "indexed": true,
          "internalType": "address",
          "name": "arbitrator",
          "type": "address"
        },
        {
          "indexed": false,
          "internalType": "string",
          "name": "repayerBtcAddress",
          "type": "string"
        }
      ],
      "name": "TimeoutRepaymentMade",
      "type": "event"
    },
    {
      "inputs": [],
      "name": "arbitratorBtcFeeAddress",
      "outputs": [
        {
          "internalType": "string",
          "name": "",
          "type": "string"
        }
      ],
      "stateMutability": "view",
      "type": "function"
    },
    {
      "inputs": [],
      "name": "averageDownPayment",
      "outputs": [
        {
          "internalType": "uint256",
          "name": "",
          "type": "uint256"
        }
      ],
      "stateMutability": "view",
      "type": "function"
    },
    {
      "inputs": [
        {
          "internalType": "bytes",
          "name": "preimage",
          "type": "bytes"
        }
      ],
      "name": "borrow",
      "outputs": [],
      "stateMutability": "nonpayable",
      "type": "function"
    },
    {
      "inputs": [],
      "name": "borrowExpirationTime",
      "outputs": [
        {
          "internalType": "uint256",
          "name": "",
          "type": "uint256"
        }
      ],
      "stateMutability": "view",
      "type": "function"
    },
    {
      "inputs": [],
      "name": "borrowedTime",
      "outputs": [
        {
          "internalType": "uint256",
          "name": "",
          "type": "uint256"
        }
      ],
      "stateMutability": "view",
      "type": "function"
    },
    {
      "inputs": [],
      "name": "borrower",
      "outputs": [
        {
          "internalType": "address",
          "name": "",
          "type": "address"
        }
      ],
      "stateMutability": "view",
      "type": "function"
    },
    {
      "inputs": [],
      "name": "borrowerBtcAddress",
      "outputs": [
        {
          "internalType": "string",
          "name": "",
          "type": "string"
        }
      ],
      "stateMutability": "view",
      "type": "function"
    },
    {
      "inputs": [],
      "name": "borrowerPublicKey",
      "outputs": [
        {
          "internalType": "bytes",
          "name": "",
          "type": "bytes"
        }
      ],
      "stateMutability": "view",
      "type": "function"
    },
    {
      "inputs": [],
      "name": "borrowerRepaidTime",
      "outputs": [
        {
          "internalType": "uint256",
          "name": "",
          "type": "uint256"
        }
      ],
      "stateMutability": "view",
      "type": "function"
    },
    {
      "inputs": [
        {
          "internalType": "bytes",
          "name": "rawTx",
          "type": "bytes"
        },
        {
          "internalType": "bytes",
          "name": "signature",
          "type": "bytes"
        }
      ],
      "name": "borrowerSignLockTimeAUnlockTx",
      "outputs": [
        {
          "internalType": "bytes",
          "name": "",
          "type": "bytes"
        }
      ],
      "stateMutability": "view",
      "type": "function"
    },
    {
      "inputs": [],
      "name": "closeOrder",
      "outputs": [],
      "stateMutability": "nonpayable",
      "type": "function"
    },
    {
      "inputs": [],
      "name": "collateralAmount",
      "outputs": [
        {
          "internalType": "uint256",
          "name": "",
          "type": "uint256"
        }
      ],
      "stateMutability": "view",
      "type": "function"
    },
    {
      "inputs": [
        {
          "internalType": "address",
          "name": "_token",
          "type": "address"
        },
        {
          "internalType": "uint256",
          "name": "_amount",
          "type": "uint256"
        },
        {
          "internalType": "uint256",
          "name": "_duration",
          "type": "uint256"
        },
        {
          "internalType": "string",
          "name": "_btcAddress",
          "type": "string"
        },
        {
          "internalType": "bytes",
          "name": "_publicKey",
          "type": "bytes"
        }
      ],
      "name": "createLendOrder",
      "outputs": [],
      "stateMutability": "nonpayable",
      "type": "function"
    },
    {
      "inputs": [],
      "name": "createTime",
      "outputs": [
        {
          "internalType": "uint256",
          "name": "",
          "type": "uint256"
        }
      ],
      "stateMutability": "view",
      "type": "function"
    },
    {
      "inputs": [],
      "name": "currentSelectedArbitrator",
      "outputs": [
        {
          "internalType": "address",
          "name": "",
          "type": "address"
        }
      ],
      "stateMutability": "view",
      "type": "function"
    },
    {
      "inputs": [],
      "name": "deadLinesData",
      "outputs": [
        {
          "internalType": "uint256",
          "name": "orderDeadLine",
          "type": "uint256"
        },
        {
          "internalType": "uint256",
          "name": "submitPledgeProofDeadLine",
          "type": "uint256"
        },
        {
          "internalType": "uint256",
          "name": "borrowDeadLine",
          "type": "uint256"
        },
        {
          "internalType": "uint256",
          "name": "repayDeadLine",
          "type": "uint256"
        },
        {
          "internalType": "uint256",
          "name": "submitRegularProofDeadLine",
          "type": "uint256"
        }
      ],
      "stateMutability": "view",
      "type": "function"
    },
    {
      "inputs": [],
      "name": "getArbiterUnlockTransferZkpStatus",
      "outputs": [
        {
          "internalType": "enum DataTypes.TransactionStatus",
          "name": "",
          "type": "uint8"
        }
      ],
      "stateMutability": "view",
      "type": "function"
    },
    {
      "inputs": [],
      "name": "getArbitrationBtcNoWitnessTx",
      "outputs": [
        {
          "internalType": "bytes",
          "name": "",
          "type": "bytes"
        }
      ],
      "stateMutability": "view",
      "type": "function"
    },
    {
      "inputs": [],
      "name": "getArbitrationBtcTx",
      "outputs": [
        {
          "internalType": "bytes",
          "name": "",
          "type": "bytes"
        }
      ],
      "stateMutability": "view",
      "type": "function"
    },
    {
      "inputs": [],
      "name": "getLockTimeAUnlockTx",
      "outputs": [
        {
          "internalType": "bytes",
          "name": "",
          "type": "bytes"
        }
      ],
      "stateMutability": "view",
      "type": "function"
    },
    {
      "inputs": [],
      "name": "getLockTimeBUnlockTx",
      "outputs": [
        {
          "internalType": "bytes",
          "name": "",
          "type": "bytes"
        }
      ],
      "stateMutability": "view",
      "type": "function"
    },
    {
      "inputs": [],
      "name": "getRenewalCollateralAmount",
      "outputs": [
        {
          "internalType": "uint256",
          "name": "paymentAmount",
          "type": "uint256"
        },
        {
          "internalType": "uint256",
          "name": "collateral",
          "type": "uint256"
        }
      ],
      "stateMutability": "view",
      "type": "function"
    },
    {
      "inputs": [],
      "name": "getRepayBtcNoWitnessTx",
      "outputs": [
        {
          "internalType": "bytes",
          "name": "",
          "type": "bytes"
        }
      ],
      "stateMutability": "view",
      "type": "function"
    },
    {
      "inputs": [
        {
          "internalType": "bytes",
          "name": "lenderSignature",
          "type": "bytes"
        }
      ],
      "name": "getRepayBtcWitnessTx",
      "outputs": [
        {
          "internalType": "bytes",
          "name": "",
          "type": "bytes"
        }
      ],
      "stateMutability": "view",
      "type": "function"
    },
    {
      "inputs": [
        {
          "internalType": "bytes",
          "name": "keeperSignature",
          "type": "bytes"
        }
      ],
      "name": "getRepayBtcWitnessTxV2",
      "outputs": [
        {
          "internalType": "bytes",
          "name": "",
          "type": "bytes"
        }
      ],
      "stateMutability": "view",
      "type": "function"
    },
    {
      "inputs": [
        {
          "internalType": "address",
          "name": "selectedArbitrator",
          "type": "address"
        }
      ],
      "name": "getSelectedArbitratorFees",
      "outputs": [
        {
          "internalType": "uint256",
          "name": "ethFee",
          "type": "uint256"
        },
        {
          "internalType": "uint256",
          "name": "btcFee",
          "type": "uint256"
        }
      ],
      "stateMutability": "view",
      "type": "function"
    },
    {
      "inputs": [],
      "name": "getTimeoutRepayBtcNoWitnessTx",
      "outputs": [
        {
          "internalType": "bytes",
          "name": "",
          "type": "bytes"
        }
      ],
      "stateMutability": "view",
      "type": "function"
    },
    {
      "inputs": [
        {
          "internalType": "bytes",
          "name": "keeperSignature",
          "type": "bytes"
        }
      ],
      "name": "getTimeoutRepayBtcWitnessTxV2",
      "outputs": [
        {
          "internalType": "bytes",
          "name": "",
          "type": "bytes"
        }
      ],
      "stateMutability": "view",
      "type": "function"
    },
    {
      "inputs": [
        {
          "components": [
            {
              "internalType": "address",
              "name": "loanTools",
              "type": "address"
            },
            {
              "internalType": "address",
              "name": "taprootTools",
              "type": "address"
            },
            {
              "internalType": "address",
              "name": "getLoanTools",
              "type": "address"
            },
            {
              "internalType": "address",
              "name": "interestReceiver",
              "type": "address"
            },
            {
              "internalType": "address",
              "name": "optionInterestReceiver",
              "type": "address"
            }
          ],
          "internalType": "struct SetAddress",
          "name": "_setAddress",
          "type": "tuple"
        },
        {
          "components": [
            {
              "internalType": "uint256",
              "name": "takenExpireTime",
              "type": "uint256"
            },
            {
              "internalType": "uint256",
              "name": "submitProofExpireTime",
              "type": "uint256"
            },
            {
              "internalType": "uint256",
              "name": "repaidExpireTime",
              "type": "uint256"
            },
            {
              "internalType": "uint256",
              "name": "borrowExpirationTime",
              "type": "uint256"
            }
          ],
          "internalType": "struct ExpiredTime",
          "name": "_expiredTime",
          "type": "tuple"
        },
        {
          "internalType": "uint256",
          "name": "_proofedDelayBlock",
          "type": "uint256"
        },
        {
          "internalType": "address",
          "name": "_owner",
          "type": "address"
        },
        {
          "components": [
            {
              "internalType": "uint256",
              "name": "lockTime1",
              "type": "uint256"
            },
            {
              "internalType": "uint256",
              "name": "lockTime2",
              "type": "uint256"
            }
          ],
          "internalType": "struct LockTime",
          "name": "_lockTime",
          "type": "tuple"
        },
        {
          "internalType": "address",
          "name": "_lender",
          "type": "address"
        },
        {
          "internalType": "uint8",
          "name": "_orderVersion",
          "type": "uint8"
        }
      ],
      "name": "initialize",
      "outputs": [],
      "stateMutability": "nonpayable",
      "type": "function"
    },
    {
      "inputs": [],
      "name": "interestRate",
      "outputs": [
        {
          "internalType": "uint256",
          "name": "",
          "type": "uint256"
        }
      ],
      "stateMutability": "view",
      "type": "function"
    },
    {
      "inputs": [],
      "name": "interestReceiver",
      "outputs": [
        {
          "internalType": "address",
          "name": "",
          "type": "address"
        }
      ],
      "stateMutability": "view",
      "type": "function"
    },
    {
      "inputs": [],
      "name": "interestValue",
      "outputs": [
        {
          "internalType": "uint256",
          "name": "",
          "type": "uint256"
        }
      ],
      "stateMutability": "view",
      "type": "function"
    },
    {
      "inputs": [],
      "name": "lender",
      "outputs": [
        {
          "internalType": "address",
          "name": "",
          "type": "address"
        }
      ],
      "stateMutability": "view",
      "type": "function"
    },
    {
      "inputs": [],
      "name": "lenderBtcAddress",
      "outputs": [
        {
          "internalType": "string",
          "name": "",
          "type": "string"
        }
      ],
      "stateMutability": "view",
      "type": "function"
    },
    {
      "inputs": [],
      "name": "lenderInterestValue",
      "outputs": [
        {
          "internalType": "uint256",
          "name": "",
          "type": "uint256"
        }
      ],
      "stateMutability": "view",
      "type": "function"
    },
    {
      "inputs": [],
      "name": "lenderPublicKey",
      "outputs": [
        {
          "internalType": "bytes",
          "name": "",
          "type": "bytes"
        }
      ],
      "stateMutability": "view",
      "type": "function"
    },
    {
      "inputs": [],
      "name": "lenderReceiveAddress",
      "outputs": [
        {
          "internalType": "string",
          "name": "",
          "type": "string"
        }
      ],
      "stateMutability": "view",
      "type": "function"
    },
    {
      "inputs": [
        {
          "internalType": "bytes",
          "name": "rawTx",
          "type": "bytes"
        },
        {
          "internalType": "bytes",
          "name": "signature",
          "type": "bytes"
        }
      ],
      "name": "lenderSignLockTimeBUnlockTx",
      "outputs": [
        {
          "internalType": "bytes",
          "name": "",
          "type": "bytes"
        }
      ],
      "stateMutability": "view",
      "type": "function"
    },
    {
      "inputs": [],
      "name": "limitedDays",
      "outputs": [
        {
          "internalType": "uint256",
          "name": "",
          "type": "uint256"
        }
      ],
      "stateMutability": "view",
      "type": "function"
    },
    {
      "inputs": [],
      "name": "loanScript",
      "outputs": [
        {
          "internalType": "bytes",
          "name": "",
          "type": "bytes"
        }
      ],
      "stateMutability": "view",
      "type": "function"
    },
    {
      "inputs": [],
      "name": "lockTime1",
      "outputs": [
        {
          "internalType": "uint256",
          "name": "",
          "type": "uint256"
        }
      ],
      "stateMutability": "view",
      "type": "function"
    },
    {
      "inputs": [],
      "name": "lockTime2",
      "outputs": [
        {
          "internalType": "uint256",
          "name": "",
          "type": "uint256"
        }
      ],
      "stateMutability": "view",
      "type": "function"
    },
    {
      "inputs": [],
      "name": "optionInterestReceiver",
      "outputs": [
        {
          "internalType": "address",
          "name": "",
          "type": "address"
        }
      ],
      "stateMutability": "view",
      "type": "function"
    },
    {
      "inputs": [],
      "name": "orderType",
      "outputs": [
        {
          "internalType": "enum OrderType",
          "name": "",
          "type": "uint8"
        }
      ],
      "stateMutability": "view",
      "type": "function"
    },
    {
      "inputs": [],
      "name": "orderVersion",
      "outputs": [
        {
          "internalType": "uint8",
          "name": "",
          "type": "uint8"
        }
      ],
      "stateMutability": "view",
      "type": "function"
    },
    {
      "inputs": [],
      "name": "owner",
      "outputs": [
        {
          "internalType": "address",
          "name": "",
          "type": "address"
        }
      ],
      "stateMutability": "view",
      "type": "function"
    },
    {
      "inputs": [],
      "name": "preImage",
      "outputs": [
        {
          "internalType": "bytes",
          "name": "",
          "type": "bytes"
        }
      ],
      "stateMutability": "view",
      "type": "function"
    },
    {
      "inputs": [],
      "name": "preImageHash",
      "outputs": [
        {
          "internalType": "bytes32",
          "name": "",
          "type": "bytes32"
        }
      ],
      "stateMutability": "view",
      "type": "function"
    },
    {
      "inputs": [],
      "name": "proofedDelayBlock",
      "outputs": [
        {
          "internalType": "uint256",
          "name": "",
          "type": "uint256"
        }
      ],
      "stateMutability": "view",
      "type": "function"
    },
    {
      "inputs": [],
      "name": "renewalBtcRawData",
      "outputs": [
        {
          "internalType": "bytes",
          "name": "",
          "type": "bytes"
        }
      ],
      "stateMutability": "view",
      "type": "function"
    },
    {
      "inputs": [
        {
          "internalType": "bytes",
          "name": "btcRawData",
          "type": "bytes"
        },
        {
          "internalType": "bytes",
          "name": "signature",
          "type": "bytes"
        }
      ],
      "name": "renewalOrderRequest",
      "outputs": [],
      "stateMutability": "payable",
      "type": "function"
    },
    {
      "inputs": [],
      "name": "renewalSignature",
      "outputs": [
        {
          "internalType": "bytes",
          "name": "",
          "type": "bytes"
        }
      ],
      "stateMutability": "view",
      "type": "function"
    },
    {
      "inputs": [],
      "name": "renounceOwnership",
      "outputs": [],
      "stateMutability": "nonpayable",
      "type": "function"
    },
    {
      "inputs": [],
      "name": "renwalRequestTime",
      "outputs": [
        {
          "internalType": "uint256",
          "name": "",
          "type": "uint256"
        }
      ],
      "stateMutability": "view",
      "type": "function"
    },
    {
      "inputs": [],
      "name": "repaidExpireTime",
      "outputs": [
        {
          "internalType": "uint256",
          "name": "",
          "type": "uint256"
        }
      ],
      "stateMutability": "view",
      "type": "function"
    },
    {
      "inputs": [
        {
          "internalType": "bytes",
          "name": "btcRawData",
          "type": "bytes"
        },
        {
          "internalType": "bytes",
          "name": "signature",
          "type": "bytes"
        }
      ],
      "name": "repay",
      "outputs": [],
      "stateMutability": "nonpayable",
      "type": "function"
    },
    {
      "inputs": [],
      "name": "repayBtcRawData",
      "outputs": [
        {
          "internalType": "bytes",
          "name": "",
          "type": "bytes"
        }
      ],
      "stateMutability": "view",
      "type": "function"
    },
    {
      "inputs": [],
      "name": "repaySignature",
      "outputs": [
        {
          "internalType": "bytes",
          "name": "",
          "type": "bytes"
        }
      ],
      "stateMutability": "view",
      "type": "function"
    },
    {
      "inputs": [
        {
          "internalType": "bytes",
          "name": "unLockSignature",
          "type": "bytes"
        }
      ],
      "name": "requestArbitration",
      "outputs": [],
      "stateMutability": "nonpayable",
      "type": "function"
    },
    {
      "inputs": [],
      "name": "requestArbitrationTxId",
      "outputs": [
        {
          "internalType": "bytes32",
          "name": "",
          "type": "bytes32"
        }
      ],
      "stateMutability": "view",
      "type": "function"
    },
    {
      "inputs": [],
      "name": "status",
      "outputs": [
        {
          "internalType": "enum OrderStatus",
          "name": "",
          "type": "uint8"
        }
      ],
      "stateMutability": "view",
      "type": "function"
    },
    {
      "inputs": [],
      "name": "submitProofExpirationTime",
      "outputs": [
        {
          "internalType": "uint256",
          "name": "",
          "type": "uint256"
        }
      ],
      "stateMutability": "view",
      "type": "function"
    },
    {
      "inputs": [
        {
          "internalType": "bytes",
          "name": "txData",
          "type": "bytes"
        },
        {
          "internalType": "uint32",
          "name": "blockHeight",
          "type": "uint32"
        },
        {
          "components": [
            {
              "internalType": "bytes32[]",
              "name": "proof",
              "type": "bytes32[]"
            },
            {
              "internalType": "bytes32",
              "name": "root",
              "type": "bytes32"
            },
            {
              "internalType": "bytes32",
              "name": "leaf",
              "type": "bytes32"
            },
            {
              "internalType": "bool[]",
              "name": "flags",
              "type": "bool[]"
            }
          ],
          "internalType": "struct MerkleProofData",
          "name": "merkleProof",
          "type": "tuple"
        }
      ],
      "name": "submitRegularUnlockTransferProof",
      "outputs": [],
      "stateMutability": "nonpayable",
      "type": "function"
    },
    {
      "inputs": [
        {
          "internalType": "bytes",
          "name": "rawData",
          "type": "bytes"
        },
        {
          "internalType": "uint32",
          "name": "blockHeight",
          "type": "uint32"
        },
        {
          "components": [
            {
              "internalType": "bytes32[]",
              "name": "proof",
              "type": "bytes32[]"
            },
            {
              "internalType": "bytes32",
              "name": "root",
              "type": "bytes32"
            },
            {
              "internalType": "bytes32",
              "name": "leaf",
              "type": "bytes32"
            },
            {
              "internalType": "bool[]",
              "name": "flags",
              "type": "bool[]"
            }
          ],
          "internalType": "struct MerkleProofData",
          "name": "merkleProof",
          "type": "tuple"
        }
      ],
      "name": "submitRenewalOrderProof",
      "outputs": [],
      "stateMutability": "payable",
      "type": "function"
    },
    {
      "inputs": [
        {
          "internalType": "bytes",
          "name": "rawData",
          "type": "bytes"
        },
        {
          "internalType": "uint32",
          "name": "blockHeight",
          "type": "uint32"
        },
        {
          "components": [
            {
              "internalType": "bytes32[]",
              "name": "proof",
              "type": "bytes32[]"
            },
            {
              "internalType": "bytes32",
              "name": "root",
              "type": "bytes32"
            },
            {
              "internalType": "bytes32",
              "name": "leaf",
              "type": "bytes32"
            },
            {
              "internalType": "bool[]",
              "name": "flags",
              "type": "bool[]"
            }
          ],
          "internalType": "struct MerkleProofData",
          "name": "merkleProof",
          "type": "tuple"
        },
        {
          "internalType": "uint32",
          "name": "txIndex",
          "type": "uint32"
        }
      ],
      "name": "submitToArbitratorTransferProof",
      "outputs": [],
      "stateMutability": "nonpayable",
      "type": "function"
    },
    {
      "inputs": [
        {
          "internalType": "bytes",
          "name": "rawData",
          "type": "bytes"
        },
        {
          "internalType": "uint32",
          "name": "blockHeight",
          "type": "uint32"
        },
        {
          "components": [
            {
              "internalType": "bytes32[]",
              "name": "proof",
              "type": "bytes32[]"
            },
            {
              "internalType": "bytes32",
              "name": "root",
              "type": "bytes32"
            },
            {
              "internalType": "bytes32",
              "name": "leaf",
              "type": "bytes32"
            },
            {
              "internalType": "bool[]",
              "name": "flags",
              "type": "bool[]"
            }
          ],
          "internalType": "struct MerkleProofData",
          "name": "merkleProof",
          "type": "tuple"
        },
        {
          "internalType": "uint32",
          "name": "toLenderTxIndex",
          "type": "uint32"
        }
      ],
      "name": "submitToLenderTransferProof",
      "outputs": [],
      "stateMutability": "nonpayable",
      "type": "function"
    },
    {
      "inputs": [],
      "name": "systemInterestValue",
      "outputs": [
        {
          "internalType": "uint256",
          "name": "",
          "type": "uint256"
        }
      ],
      "stateMutability": "view",
      "type": "function"
    },
    {
      "inputs": [
        {
          "internalType": "string",
          "name": "btcAddress",
          "type": "string"
        },
        {
          "internalType": "bytes",
          "name": "publicKey",
          "type": "bytes"
        },
        {
          "internalType": "bytes32",
          "name": "preimageHash",
          "type": "bytes32"
        },
        {
          "internalType": "address",
          "name": "selectedArbitrator",
          "type": "address"
        },
        {
          "internalType": "string",
          "name": "net",
          "type": "string"
        }
      ],
      "name": "takeOrder",
      "outputs": [],
      "stateMutability": "payable",
      "type": "function"
    },
    {
      "inputs": [],
      "name": "takenExpireTime",
      "outputs": [
        {
          "internalType": "uint256",
          "name": "",
          "type": "uint256"
        }
      ],
      "stateMutability": "view",
      "type": "function"
    },
    {
      "inputs": [],
      "name": "takenTime",
      "outputs": [
        {
          "internalType": "uint256",
          "name": "",
          "type": "uint256"
        }
      ],
      "stateMutability": "view",
      "type": "function"
    },
    {
      "inputs": [
        {
          "internalType": "uint256",
          "name": "",
          "type": "uint256"
        }
      ],
      "name": "taprootLeaves",
      "outputs": [
        {
          "internalType": "bytes",
          "name": "",
          "type": "bytes"
        }
      ],
      "stateMutability": "view",
      "type": "function"
    },
    {
      "inputs": [
        {
          "internalType": "string",
          "name": "payerBtcAddress",
          "type": "string"
        }
      ],
      "name": "timeoutRepay",
      "outputs": [],
      "stateMutability": "nonpayable",
      "type": "function"
    },
    {
      "inputs": [],
      "name": "timeoutRepayTime",
      "outputs": [
        {
          "internalType": "uint256",
          "name": "",
          "type": "uint256"
        }
      ],
      "stateMutability": "view",
      "type": "function"
    },
    {
      "inputs": [],
      "name": "timeoutRepayer",
      "outputs": [
        {
          "internalType": "address",
          "name": "",
          "type": "address"
        }
      ],
      "stateMutability": "view",
      "type": "function"
    },
    {
      "inputs": [],
      "name": "timeoutRepayerBtcAddress",
      "outputs": [
        {
          "internalType": "string",
          "name": "",
          "type": "string"
        }
      ],
      "stateMutability": "view",
      "type": "function"
    },
    {
      "inputs": [],
      "name": "toArbitratorBtcTx",
      "outputs": [
        {
          "internalType": "bytes32",
          "name": "wTxId",
          "type": "bytes32"
        },
        {
          "internalType": "bytes32",
          "name": "txId",
          "type": "bytes32"
        },
        {
          "internalType": "uint32",
          "name": "txIndex",
          "type": "uint32"
        },
        {
          "internalType": "uint256",
          "name": "proofTimestamp",
          "type": "uint256"
        },
        {
          "internalType": "uint256",
          "name": "blockHeight",
          "type": "uint256"
        },
        {
          "internalType": "uint256",
          "name": "amount",
          "type": "uint256"
        }
      ],
      "stateMutability": "view",
      "type": "function"
    },
    {
      "inputs": [],
      "name": "toBorrowerBtcTx",
      "outputs": [
        {
          "internalType": "bytes32",
          "name": "wTxId",
          "type": "bytes32"
        },
        {
          "internalType": "bytes32",
          "name": "txId",
          "type": "bytes32"
        },
        {
          "internalType": "uint32",
          "name": "txIndex",
          "type": "uint32"
        },
        {
          "internalType": "uint256",
          "name": "proofTimestamp",
          "type": "uint256"
        },
        {
          "internalType": "uint256",
          "name": "blockHeight",
          "type": "uint256"
        },
        {
          "internalType": "uint256",
          "name": "amount",
          "type": "uint256"
        }
      ],
      "stateMutability": "view",
      "type": "function"
    },
    {
      "inputs": [],
      "name": "toLenderBtcTx",
      "outputs": [
        {
          "internalType": "bytes32",
          "name": "wTxId",
          "type": "bytes32"
        },
        {
          "internalType": "bytes32",
          "name": "txId",
          "type": "bytes32"
        },
        {
          "internalType": "uint32",
          "name": "txIndex",
          "type": "uint32"
        },
        {
          "internalType": "uint256",
          "name": "proofTimestamp",
          "type": "uint256"
        },
        {
          "internalType": "uint256",
          "name": "blockHeight",
          "type": "uint256"
        },
        {
          "internalType": "uint256",
          "name": "amount",
          "type": "uint256"
        }
      ],
      "stateMutability": "view",
      "type": "function"
    },
    {
      "inputs": [],
      "name": "token",
      "outputs": [
        {
          "internalType": "address",
          "name": "",
          "type": "address"
        }
      ],
      "stateMutability": "view",
      "type": "function"
    },
    {
      "inputs": [],
      "name": "tokenAmount",
      "outputs": [
        {
          "internalType": "uint256",
          "name": "",
          "type": "uint256"
        }
      ],
      "stateMutability": "view",
      "type": "function"
    },
    {
      "inputs": [
        {
          "internalType": "address",
          "name": "newOwner",
          "type": "address"
        }
      ],
      "name": "transferOwnership",
      "outputs": [],
      "stateMutability": "nonpayable",
      "type": "function"
    }
  ],
  "bytecode": "0x60806040523480156200001157600080fd5b507ff0c57e16840df040f15088dc2f81fe391c3923bec73e23a9662efc9c229c6a00805468010000000000000000810460ff1615906001600160401b03166000811580156200005d5750825b90506000826001600160401b031660011480156200007a5750303b155b90508115801562000089575080155b15620000a85760405163f92ee8a960e01b815260040160405180910390fd5b84546001600160401b03191660011785558315620000d757845460ff60401b1916680100000000000000001785555b83156200011e57845460ff60401b19168555604051600181527fc7f505b2f371ae2175ee4913f4499e1f2633a7b5936321eed1cdaeb6115181d29060200160405180910390a15b50505050506156c380620001336000396000f3fe60806040526004361061047e5760003560e01c80637c3a00fd11610255578063c3c6764811610144578063e3baf57c116100c1578063f2fde38b11610085578063f2fde38b14610d24578063f4ce653214610d44578063f8063a9514610d59578063fc0c546a14610d79578063fd7f0e2a14610d99578063fdf0f7ac14610db957600080fd5b8063e3baf57c14610ca4578063eec7faa114610cc4578063f007ca5414610cda578063f0452b7414610cef578063f0d267d314610d0457600080fd5b8063cfe8059211610108578063cfe8059214610c12578063d0b97d4814610c28578063d25c993f14610c48578063db2561d414610c5d578063dd10689014610c7357600080fd5b8063c3c6764814610b62578063c6f6c0b714610b78578063c752c3de14610b8e578063c77cf61514610bdd578063ce7f501814610bfd57600080fd5b8063a6d8e767116101d2578063b2c7f87811610196578063b2c7f87814610ac6578063b4683b8a14610ae6578063bb10b0e714610afc578063bcead63e14610b2d578063c309a53514610b4d57600080fd5b8063a6d8e76714610a31578063aa58f8cf14610a46578063aaccf06e14610a5c578063afacfbdf14610a7c578063b005e27114610aa657600080fd5b80638da5cb5b116102195780638da5cb5b1461099357806392d09ceb146109d057806395aa5581146109e65780639f1b4720146109fc578063a412ad1114610a1c57600080fd5b80637c3a00fd1461091c5780637df1f1b914610932578063838d75131461095257806387a9796b146109675780638b3bf7201461097d57600080fd5b8063572a15a2116103715780636ae5d110116102ee57806370a6ad41116102b257806370a6ad4114610852578063715018a6146108bb5780637243ca8e146108d057806379ddeee1146108f05780637b29dab81461090657600080fd5b80636ae5d110146107b85780636b553eb1146107cd5780636d0392f1146107e25780636f17591f146108045780636f5c9e581461083257600080fd5b80636332c5de116103355780636332c5de1461074557806367125e1c1461075a57806368a8da1c146107705780636985636b146107855780636a467ef61461079857600080fd5b8063572a15a2146106cf5780635e145ca6146106e5578063609d67331461070557806361dcd7ab1461071a57806362b1480e1461073057600080fd5b806327588c82116103ff578063437a265f116103c3578063437a265f1461063757806349bbd6901461066f5780634d43e8c31461068f5780634f35014a146106a4578063554730fd146106b957600080fd5b806327588c82146105bc57806327e11aec146105cf5780632d8dcef1146105ef57806330845bd814610604578063433466ef1461061757600080fd5b8063124520bd11610446578063124520bd1461052657806314719e7b1461054a57806317ff940d1461056a5780631fd47bd414610580578063200d2ed21461059557600080fd5b8063012e204e1461048357806301e2abd5146104ae57806307dbd942146104da57806309a5084b146104fc5780631159042c14610511575b600080fd5b34801561048f57600080fd5b50610498610dcf565b6040516104a591906142e0565b60405180910390f35b3480156104ba57600080fd5b506047546104c89060ff1681565b60405160ff90911681526020016104a5565b3480156104e657600080fd5b506104fa6104f53660046143e7565b610e4b565b005b34801561050857600080fd5b50610498610e84565b34801561051d57600080fd5b50610498610f12565b34801561053257600080fd5b5061053c60085481565b6040519081526020016104a5565b34801561055657600080fd5b506104fa6105653660046144ac565b610f1f565b34801561057657600080fd5b5061053c60125481565b34801561058c57600080fd5b50610498611182565b3480156105a157600080fd5b506033546105af9060ff1681565b6040516104a59190614517565b6104fa6105ca36600461453c565b61118f565b3480156105db57600080fd5b506104986105ea3660046145f2565b611654565b3480156105fb57600080fd5b506104fa61167f565b6104fa61061236600461460b565b6116da565b34801561062357600080fd5b506104fa610632366004614687565b611933565b34801561064357600080fd5b50603854610657906001600160a01b031681565b6040516001600160a01b0390911681526020016104a5565b34801561067b57600080fd5b5061049861068a3660046144ac565b611bf7565b34801561069b57600080fd5b50610498611c7b565b3480156106b057600080fd5b50610498611cb3565b3480156106c557600080fd5b5061053c60155481565b3480156106db57600080fd5b5061053c60165481565b3480156106f157600080fd5b506104fa61070036600461472a565b611cc0565b34801561071157600080fd5b50610498611e57565b34801561072657600080fd5b5061053c60105481565b34801561073c57600080fd5b50610498611e64565b34801561075157600080fd5b50610498611e71565b34801561076657600080fd5b5061053c60345481565b34801561077c57600080fd5b50610498611e7e565b6104fa61079336600461479d565b611e8b565b3480156107a457600080fd5b50603d54610657906001600160a01b031681565b3480156107c457600080fd5b506104986120bc565b3480156107d957600080fd5b506104986120c9565b3480156107ee57600080fd5b506107f76120d3565b6040516104a59190614808565b34801561081057600080fd5b5060025461082590600160a01b900460ff1681565b6040516104a59190614832565b34801561083e57600080fd5b5061049861084d36600461479d565b612145565b34801561085e57600080fd5b50602954602a54602b54602c54602d54602e5461088395949363ffffffff1692919086565b60408051968752602087019590955263ffffffff909316938501939093526060840152608083019190915260a082015260c0016104a5565b3480156108c757600080fd5b506104fa6121ca565b3480156108dc57600080fd5b506104986108eb3660046144ac565b6121dc565b3480156108fc57600080fd5b5061053c600b5481565b34801561091257600080fd5b5061053c60145481565b34801561092857600080fd5b5061053c600a5481565b34801561093e57600080fd5b50600354610657906001600160a01b031681565b34801561095e57600080fd5b50610498612218565b34801561097357600080fd5b5061053c60175481565b34801561098957600080fd5b5061053c602f5481565b34801561099f57600080fd5b507f9016d09d72d40fdae2fd8ceac6b6234c7706214fd39c1cd1e609a0528c199300546001600160a01b0316610657565b3480156109dc57600080fd5b5061053c600f5481565b3480156109f257600080fd5b5061053c60375481565b348015610a0857600080fd5b506104fa610a17366004614840565b612225565b348015610a2857600080fd5b50610498612413565b348015610a3d57600080fd5b5061049861241d565b348015610a5257600080fd5b5061053c60395481565b348015610a6857600080fd5b506104fa610a7736600461487c565b612453565b348015610a8857600080fd5b50610a916126c1565b604080519283526020830191909152016104a5565b348015610ab257600080fd5b50604454610657906001600160a01b031681565b348015610ad257600080fd5b506104fa610ae1366004614840565b61276c565b348015610af257600080fd5b5061053c60425481565b348015610b0857600080fd5b50601d54601e54601f5460205460215460225461088395949363ffffffff1692919086565b348015610b3957600080fd5b50600954610657906001600160a01b031681565b348015610b5957600080fd5b506104986128c3565b348015610b6e57600080fd5b5061053c60435481565b348015610b8457600080fd5b5061053c60465481565b348015610b9a57600080fd5b50601854601954601a54601b54601c54610bb5949392919085565b604080519586526020860194909452928401919091526060830152608082015260a0016104a5565b348015610be957600080fd5b50603c54610657906001600160a01b031681565b348015610c0957600080fd5b5061053c6128d0565b348015610c1e57600080fd5b5061053c60115481565b348015610c3457600080fd5b50610a91610c4336600461490f565b6128e7565b348015610c5457600080fd5b5061053c612904565b348015610c6957600080fd5b5061053c60355481565b348015610c7f57600080fd5b5060235460245460255460265460275460285461088395949363ffffffff1692919086565b348015610cb057600080fd5b506104fa610cbf36600461492a565b612922565b348015610cd057600080fd5b5061053c60075481565b348015610ce657600080fd5b50610498612a91565b348015610cfb57600080fd5b50610498612a9e565b348015610d1057600080fd5b50610498610d1f36600461479d565b612aab565b348015610d3057600080fd5b506104fa610d3f36600461490f565b612ae2565b348015610d5057600080fd5b50610498612b1d565b348015610d6557600080fd5b506104fa610d7436600461479d565b612b53565b348015610d8557600080fd5b50600654610657906001600160a01b031681565b348015610da557600080fd5b50610498610db43660046144ac565b612e01565b348015610dc557600080fd5b5061053c60135481565b600154601e54604051635a26893d60e01b815260048101919091526060916001600160a01b031690635a26893d906024015b600060405180830381865afa158015610e1e573d6000803e3d6000fd5b505050506040513d6000823e601f3d908101601f19168201604052610e4691908101906149fc565b905090565b610e53612e37565b600354610e68906001600160a01b0316612e81565b610e76848484600f54612f31565b610e7e6130ef565b50505050565b600c8054610e9190614a30565b80601f0160208091040260200160405190810160405280929190818152602001828054610ebd90614a30565b8015610f0a5780601f10610edf57610100808354040283529160200191610f0a565b820191906000526020600020905b815481529060010190602001808311610eed57829003601f168201915b505050505081565b600e8054610e9190614a30565b610f27612e37565b6000819003610f49576040516371189f3b60e11b815260040160405180910390fd5b600460335460ff16600c811115610f6257610f626144ed565b14610f8057604051636a36b1a560e01b815260040160405180910390fd5b601b54421015610fc05760405162461bcd60e51b81526020600482015260066024820152652737a7b832b760d11b60448201526064015b60405180910390fd5b600061100583838080601f0160208091040260200160405190810160405280939291908181526020018383808284376000920191909152505060345491506131159050565b600154604051632eda59cb60e01b81529192506001600160a01b031690632eda59cb9061103c908490603e90603090600401614bc5565b600060405180830381600087803b15801561105657600080fd5b505af115801561106a573d6000803e3d6000fd5b50505050611077336131a3565b604480546001600160a01b031916331790556045611096838583614c4c565b50426046556033805460ff1916600a17905560006110b26131c4565b60005460385460405163b60264a560e01b81529293506001600160a01b039182169263b60264a5926110f79230923392909116908a908a906036908a90600401614d34565b600060405180830381600087803b15801561111157600080fd5b505af1158015611125573d6000803e3d6000fd5b50506038546040516001600160a01b0390911692503391507ff51a16e1c5dbce18f7929e2557aa1c5fbbfd99c3c6e7474e896d0acbed9bd8529061116c9088908890614d9d565b60405180910390a3505061117e6130ef565b5050565b60308054610e9190614a30565b611197612e37565b60008790036111b9576040516371189f3b60e11b815260040160405180910390fd5b600060335460ff16600c8111156111d2576111d26144ed565b146111f057604051636a36b1a560e01b815260040160405180910390fd5b33600060028054600160a01b900460ff1690811115611211576112116144ed565b0361126357600754600654611235916001600160a01b0390911690839030906131fa565b600c611242878983614c4c565b50600980546001600160a01b0319166001600160a01b0383161790556112c0565b600160028054600160a01b900460ff1690811115611283576112836144ed565b036112c0576004611295898b83614c4c565b50600380546001600160a01b0319166001600160a01b03831617905560056112be878983614c4c565b505b602f859055603880546001600160a01b0319166001600160a01b0386811691821790925560025460405163338ac66960e11b815260048101929092529091169063fea14dd59060059083906367158cd290602401600060405180830381865afa158015611331573d6000803e3d6000fd5b505050506040513d6000823e601f3d908101601f1916820160405261135991908101906149fc565b603454602f546040518563ffffffff1660e01b815260040161137e9493929190614db1565b600060405180830381865afa15801561139b573d6000803e3d6000fd5b505050506040513d6000823e601f3d908101601f191682016040526113c39190810190614dea565b80516113d791603e916020909101906141d3565b50603e546002146113fb5760405163686c42ff60e01b815260040160405180910390fd5b603e60008154811061140f5761140f614eac565b90600052602060002001603e60018154811061142d5761142d614eac565b90600052602060002001604051602001611448929190614f35565b604051602081830303815290604052603690816114659190614f4a565b50600154604051630532507f60e01b81526001600160a01b0390911690630532507f9061149790603e90600401615009565b606060405180830381865afa1580156114b4573d6000803e3d6000fd5b505050506040513d601f19601f820116820180604052508101906114d8919061502a565b603f8190556002546040516364cd234f60e11b81526001600160a01b03909116935063c99a469e9250611512919087908790600401615063565b600060405180830381865afa15801561152f573d6000803e3d6000fd5b505050506040513d6000823e601f3d908101601f1916820160405261155791908101906149fc565b600e906115649082614f4a565b50426011556033805460ff1916600117905561157e613261565b60185461158a9061328e565b600080546039546040516312a87c6960e01b8152600481019190915282916001600160a01b0316906312a87c69906024016040805180830381865afa1580156115d7573d6000803e3d6000fd5b505050506040513d601f19601f820116820180604052508101906115fb919061507d565b915091507fb91029edb2e47843f9ff141ad9adb1a06a28307cb8d49876a7fced9e24ece38c8b8b603b85856040516116379594939291906150a1565b60405180910390a150505061164a6130ef565b5050505050505050565b603e818154811061166457600080fd5b906000526020600020016000915090508054610e9190614a30565b611687612e37565b601254158061169857506000601354115b156116c8576009546001600160a01b031633146116c857604051633415a7ed60e21b815260040160405180910390fd5b6116d061338f565b6116d86130ef565b565b6116e2612e37565b6003546001600160a01b03163314611787576002546038546040516304a5d7c560e01b81523360048201526001600160a01b0391821660248201529116906304a5d7c590604401602060405180830381865afa158015611746573d6000803e3d6000fd5b505050506040513d601f19601f8201168201806040525081019061176a91906150dc565b61178757604051630955f84760e31b815260040160405180910390fd5b60408101356117a957604051631d08bf9f60e31b815260040160405180910390fd5b600b60335460ff16600c8111156117c2576117c26144ed565b146117e057604051636a36b1a560e01b815260040160405180910390fd5b60118054429091556033805460ff191660011790556117fd613261565b6040805160c08101825260008082526020808301829052828401829052606083018290526080830182905260a0909201819052601d819055601e819055601f805463ffffffff19169055808255602181905560228190558251918201909252908152603a9061186c9082614f4a565b506040805160208101909152600081526031906118899082614f4a565b506040805160208101909152600081526032906118a69082614f4a565b506118ec85858080601f01602080910402602001604051908101604052809392919081815260200183838082843760009201919091525050600f54879250869150612f31565b6040805190830135907fa7ab7cf9b27c0c1d6f3d181a70c03758aef08ba63ce3c83d712185fd6c9b298f90600090a26011556033805460ff19166004179055610e7e6130ef565b7ff0c57e16840df040f15088dc2f81fe391c3923bec73e23a9662efc9c229c6a008054600160401b810460ff1615906001600160401b03166000811580156119785750825b90506000826001600160401b031660011480156119945750303b155b9050811580156119a2575080155b156119c05760405163f92ee8a960e01b815260040160405180910390fd5b845467ffffffffffffffff1916600117855583156119ea57845460ff60401b1916600160401b1785555b8735602089013511611a0f57604051637c68874160e11b815260040160405180910390fd5b6001600160a01b038716611a35576040516221eeab60e81b815260040160405180910390fd5b8560ff16600003611a595760405163a9146eeb60e01b815260040160405180910390fd5b611a62896134a7565b611a6a6134b8565b611a7760208d018d61490f565b600080546001600160a01b0319166001600160a01b0392909216919091179055611aa760408d0160208e0161490f565b600180546001600160a01b0319166001600160a01b0392909216919091179055611ad760608d0160408e0161490f565b600280546001600160a01b0319166001600160a01b0392909216919091179055611b0760808d0160608e0161490f565b603c80546001600160a01b0319166001600160a01b0392909216919091179055611b3760a08d0160808e0161490f565b603d80546001600160a01b03199081166001600160a01b03938416179091558c356015556020808e013560165560408e013560175560608e013560375560148d90558a356034558a0135603555600980549091169189169190911790556047805460ff191660ff88161790558315611be957845460ff60401b19168555604051600181527fc7f505b2f371ae2175ee4913f4499e1f2633a7b5936321eed1cdaeb6115181d29060200160405180910390a15b505050505050505050505050565b60015460405163270a77a360e01b81526060916001600160a01b03169063270a77a390611c2d90603290879087906004016150f9565b600060405180830381865afa158015611c4a573d6000803e3d6000fd5b505050506040513d6000823e601f3d908101601f19168201604052611c7291908101906149fc565b90505b92915050565b600154601e546039546040516383c6ec9f60e01b81526060936001600160a01b0316926383c6ec9f92610e0192603a9060040161511f565b60058054610e9190614a30565b611cc8612e37565b600954611cdd906001600160a01b0316612e81565b600560335460ff16600c811115611cf657611cf66144ed565b1480611d185750600a60335460ff16600c811115611d1657611d166144ed565b145b611d495760405162461bcd60e51b8152602060048201526002602482015261455360f01b6044820152606401610fb7565b6000611d536134c8565b6033805460ff1916600617905560008054601e54604051631e1f6f1b60e11b815293945091926001600160a01b0390911691633c3ede3691611da09189918791908a908a90600401615236565b602060405180830381865afa158015611dbd573d6000803e3d6000fd5b505050506040513d601f19601f82011682018060405250810190611de19190615281565b4260265563ffffffff8516602755602381905560408085013560245560335490519192507f09500c0538cf810aa5932e18765c3383ff1f747afc5c6b72e6ae1bc9737c2db991611e3891849160ff9091169061529a565b60405180910390a1611e4861338f565b5050611e526130ef565b505050565b60328054610e9190614a30565b600d8054610e9190614a30565b603b8054610e9190614a30565b60458054610e9190614a30565b611e93612e37565b6003546001600160a01b03163314611ebe57604051630ac9915d60e01b815260040160405180910390fd5b600460335460ff16600c811115611ed757611ed76144ed565b14611ef557604051636a36b1a560e01b815260040160405180910390fd5b601b544210611f2e57604080518082018252600281526113d560f21b6020820152905162461bcd60e51b8152610fb791906004016142e0565b6000546039546008546040516369cab61760e11b81526001600160a01b039093169263d3956c2e92611f70929091899189916036918a918a91906004016152ae565b600060405180830381600087803b158015611f8a57600080fd5b505af1158015611f9e573d6000803e3d6000fd5b50505050611faa6126c1565b600f55604355611fb8613585565b6033805460ff1916600b179055426042556041611fd6848683614c4c565b506040611fe4828483614c4c565b50600080546039546040516303f0efcd60e11b8152600481019190915260248101929092526001600160a01b0316906307e1df9a90604401600060405180830381600087803b15801561203657600080fd5b505af115801561204a573d6000803e3d6000fd5b5050601180546000909155915061206990506120646136c9565b61328e565b60118190556003546043546040519081526001600160a01b03909116907f961677491955ee3163cc60b7a26aeadb28bfdac6da2db92bce8b05ee866353239060200160405180910390a250610e7e6130ef565b60048054610e9190614a30565b6060610e466131c4565b60025460395460405163d531b60f60e01b815260048101919091526000916001600160a01b03169063d531b60f90602401602060405180830381865afa158015612121573d6000803e3d6000fd5b505050506040513d601f19601f82011682018060405250810190610e469190615304565b6001546040516305c5a52560e31b81526060916001600160a01b031690632e2d29289061217c908890889088908890600401615325565b600060405180830381865afa158015612199573d6000803e3d6000fd5b505050506040513d6000823e601f3d908101601f191682016040526121c191908101906149fc565b95945050505050565b6121d261371c565b6116d86000613777565b6001546060906001600160a01b0316632fe32c086121f86131c4565b85856040518463ffffffff1660e01b8152600401611c2d93929190615357565b60368054610e9190614a30565b61222d612e37565b600080546039546040516312a87c6960e01b81526001600160a01b03909216916312a87c69916122639160040190815260200190565b6040805180830381865afa15801561227f573d6000803e3d6000fd5b505050506040513d601f19601f820116820180604052508101906122a3919061507d565b91505080156122e857600360335460ff16600c8111156122c5576122c56144ed565b146122e357604051636a36b1a560e01b815260040160405180910390fd5b61231f565b600260335460ff16600c811115612301576123016144ed565b1461231f57604051636a36b1a560e01b815260040160405180910390fd5b601a54421061234157604051632eaa785b60e01b815260040160405180910390fd5b6000600283604051612353919061536a565b602060405180830381855afa158015612370573d6000803e3d6000fd5b5050506040513d601f19601f820116820180604052508101906123939190615281565b9050602f5481146123b757604051630cb4548160e11b815260040160405180910390fd5b60306123c38482614f4a565b50426012556033805460ff191660041790556123dd6137e8565b6040517fef5b63c9066d00c840194ed045ca94a0b7f736f9b7439f7eb2d90efe7a482ccc90600090a150506124106130ef565b50565b6060610e4661387a565b600154601e546040516303466e0560e41b815260048101919091526060916001600160a01b031690633466e05090602401610e01565b61245b612e37565b6001600160a01b038716158061246f575085155b80612478575084155b80612481575080155b1561249f57604051630e52390960e41b815260040160405180910390fd5b6006546001600160a01b0316156124c957604051631ac1050b60e21b815260040160405180910390fd5b60008054604051635903513760e11b8152600481018890526001600160a01b038a81166024830152604482018a90528392839291169063b206a26e90606401606060405180830381865afa158015612525573d6000803e3d6000fd5b505050506040513d601f19601f820116820180604052508101906125499190615386565b600054604051630a60aebf60e11b81526004810183905293965091945092506001600160a01b0316906314c15d7e9060240160006040518083038186803b15801561259357600080fd5b505afa1580156125a7573d6000803e3d6000fd5b5050600680546001600160a01b0319166001600160a01b038e1617905550506002805460ff60a01b1916600160a01b1790556125fa33306125e8858d6153ca565b6001600160a01b038e169291906131fa565b60078990556008889055600c612611858783614c4c565b50600d61261f878983614c4c565b50600a839055600b829055600f819055426010556008546126419060006138f6565b60345560085460355461265491906138f6565b6035556033805460ff19169055604080518281526001600160a01b038c1660208201529081018a90526001907f4cca9f8b5bfe3be61cada803dab2ecaf9621004497e0e4f8542fd72332fa148d9060600160405180910390a25050506126b86130ef565b50505050505050565b600f546022546000918291156126d657506022545b600154600754600654604051633a35338b60e11b81526004810185905260248101929092526001600160a01b0390811660448301529091169063746a671690606401602060405180830381865afa158015612735573d6000803e3d6000fd5b505050506040513d601f19601f820116820180604052508101906127599190615281565b925061276583826153ca565b9150509091565b612774612e37565b6003546001600160a01b0316331461279f57604051630ac9915d60e01b815260040160405180910390fd5b6039546127bf57604051634a44555360e11b815260040160405180910390fd5b6000806127ca613959565b91509150816127ec57604051631078179560e21b815260040160405180910390fd5b600054603954604051631c269c0f60e21b81526001600160a01b039092169163709a703c916128229185906036906004016153dd565b600060405180830381600087803b15801561283c57600080fd5b505af1158015612850573d6000803e3d6000fd5b50506033805460ff1916600817905550603a905061286e8482614f4a565b506039546003546040517f6b1ebb326a67837db53283e32a5f1fbc720ceb52a49ebd91118c4bdf5aef6881916128b19187916001600160a01b0316908690615407565b60405180910390a250506124106130ef565b60408054610e9190614a30565b60006128da612904565b600b54610e46919061543a565b6000806128fb6128f56136c9565b84613a13565b91509150915091565b6000806064600b54601e612918919061544d565b611c759190615464565b61292a612e37565b60035461293f906001600160a01b0316612e81565b600260335460ff16600c811115612958576129586144ed565b1461297657604051636a36b1a560e01b815260040160405180910390fd5b601954421061299857604051632eaa785b60e01b815260040160405180910390fd5b600080546039546040516338bcc40760e21b81526001600160a01b039092169163e2f3101c916129d4918a918a918a908a908a90600401615486565b6020604051808303816000875af11580156129f3573d6000803e3d6000fd5b505050506040513d601f19601f82011682018060405250810190612a179190615281565b604084810135602a55602982905542602c5563ffffffff868116602d55602b805491861663ffffffff199092169190911790556033805460ff19166003179055519091507fe8e67090b795872c2f2eb03b7b4d7649ed274119542d217f30abcf95349d693d90600090a150612a8a6130ef565b5050505050565b60318054610e9190614a30565b60418054610e9190614a30565b6001546040516351236d9560e11b81526060916001600160a01b03169063a246db2a9061217c908890889088908890600401615325565b612aea61371c565b6001600160a01b038116612b1457604051631e4fbdf760e01b815260006004820152602401610fb7565b61241081613777565b600154601e54604051633648e0f960e11b815260048101919091526060916001600160a01b031690636c91c1f290602401610e01565b612b5b612e37565b6000839003612b7d576040516392708cd560e01b815260040160405180910390fd5b6000819003612b9f57604051638baa579f60e01b815260040160405180910390fd5b6003546001600160a01b03163314612bca57604051630ac9915d60e01b815260040160405180910390fd5b600460335460ff16600c811115612be357612be36144ed565b14612c0157604051636a36b1a560e01b815260040160405180910390fd5b601b544210612c2357604051632eaa785b60e01b815260040160405180910390fd5b6000612c2d61387a565b9050612c728186868080601f0160208091040260200160405190810160405280939291908181526020018383808284376000920191909152509293925050613ade9050565b612c8f57604051634a44555360e11b815260040160405180910390fd5b426013556033805460ff19166005179055612ca9336131a3565b6001546040516303a61e0160e31b81526001600160a01b0390911690631d30f00890612cdf908890889088908890600401615325565b600060405180830381865afa158015612cfc573d6000803e3d6000fd5b505050506040513d6000823e601f3d908101601f19168201604052612d2491908101906149fc565b603290612d319082614f4a565b506031612d3f838583614c4c565b5060005460385460405163afa2943b60e01b81526001600160a01b039283169263afa2943b92612d82923092909116908a908a906036908b908b906004016154d6565b600060405180830381600087803b158015612d9c57600080fd5b505af1158015612db0573d6000803e3d6000fd5b5050600b546007546040517f6d35bc2de41396ad0cbb7da31c6830eeafb04da7878d362d324c6ba15233ba989450612df09350899089908990899061552a565b60405180910390a150610e7e6130ef565b6001546040516388d4eea960e01b81526060916001600160a01b0316906388d4eea990611c2d90603290879087906004016150f9565b7f9b779b17422d0df92223018b32b4d1fa46e071723d6817e2486d003becc55f00805460011901612e7b57604051633ee5aeb560e01b815260040160405180910390fd5b60029055565b6001600160a01b0381163303612e945750565b600254604051632a49bf6f60e21b81523360048201526001600160a01b039091169063a926fdbc90602401602060405180830381865afa158015612edc573d6000803e3d6000fd5b505050506040513d601f19601f82011682018060405250810190612f0091906150dc565b6124105760405162461bcd60e51b815260206004820152600260248201526104e560f41b6044820152606401610fb7565b600160335460ff16600c811115612f4a57612f4a6144ed565b14612f6857604051636a36b1a560e01b815260040160405180910390fd5b6019544210612f8a57604051632eaa785b60e01b815260040160405180910390fd5b600154603f5460405163ba7ecf9560e01b81526000926001600160a01b03169163ba7ecf9591612fc491899187908a908a9060040161555d565b6040805180830381865afa158015612fe0573d6000803e3d6000fd5b505050506040513d601f19601f82011682018060405250810190613004919061507d565b6022919091556033805460ff191660021790554260205563ffffffff851660215590506130376000604085013583613b08565b600054601e54604051633326ff0d60e11b81523060048201526024810191909152604481018390526001600160a01b039091169063664dfe1a90606401600060405180830381600087803b15801561308e57600080fd5b505af11580156130a2573d6000803e3d6000fd5b50506022546033546040517f5739b04fe1a57fa18d64b66dc2dfeedf3f42e80b1f6513a1abc0254fee2b44d194506130e0935060ff9091169061529a565b60405180910390a15050505050565b60017f9b779b17422d0df92223018b32b4d1fa46e071723d6817e2486d003becc55f0055565b6040805160e081018252606060a08201819052600060c0830152601e548252601f5463ffffffff166020808401919091528284018690526022546001600160401b0316918301919091526038546001600160a01b03166080830152603f5483519182015290910160408051601f1981840301815291905260a082015263ffffffff90911660c0820152919050565b61241081306131b0613d09565b6006546001600160a01b03169291906131fa565b600154601e5460405163afe1549360e01b815260048101919091526060916001600160a01b03169063afe1549390602401610e01565b6040516001600160a01b038481166024830152838116604483015260648201839052610e7e9186918216906323b872dd906084015b604051602081830303815290604052915060e01b6020820180516001600160e01b038381831617835250505050613d1b565b6132696136c9565b6018819055601b8190556019819055601a819055601754613289916153ca565b601c55565b600054603854600f54600954600354604051620b0bbf60ea1b81526001600160a01b039485166004820152602481019390935260448301869052908316606483015282166084820152911690632c2efc0090349060a40160006040518083038185885af1158015613303573d6000803e3d6000fd5b50505050506040513d6000823e601f3d908101601f1916820160405261332c919081019061559a565b60396000603b61333c8482614f4a565b50509190915550603954600354604080516001600160a01b039092168252600060208301527fd0f0ccc77cd8661c1dd0e4ff6204a2741fa3947f600109bd88f777c6c0afeaa7910160405180910390a250565b600960335460ff16600c8111156133a8576133a86144ed565b036133c657604051639008e5eb60e01b815260040160405180910390fd5b6133ce613d7e565b6133ff5760405162461bcd60e51b81526020600482015260026024820152614e4360f01b6044820152606401610fb7565b6000546039546040516355f401af60e01b81526001600160a01b03909216916355f401af916134349160040190815260200190565b600060405180830381600087803b15801561344e57600080fd5b505af1158015613462573d6000803e3d6000fd5b50506033805460ff191660091790555061347c9050613f58565b6040517f2fec94b9646181c186efa814578384c5b668c18e19a11094e5bcf60f7cc75e0190600090a1565b6134af613fef565b61241081614038565b6134c0613fef565b6116d8614040565b6060600a60335460ff16600c8111156134e3576134e36144ed565b0361357857604580546134f590614a30565b80601f016020809104026020016040519081016040528092919081815260200182805461352190614a30565b801561356e5780601f106135435761010080835404028352916020019161356e565b820191906000526020600020905b81548152906001019060200180831161355157829003601f168201915b5050505050905090565b600480546134f590614a30565b600b5460000361359157565b600080600b54826135a291906153ca565b600654604051636eb1769f60e11b81523360048201523060248201529192506000916001600160a01b039091169063dd62ed3e90604401602060405180830381865afa1580156135f6573d6000803e3d6000fd5b505050506040513d601f19601f8201168201806040525081019061361a9190615281565b90508181101561365457604080518082018252600281526104e560f41b6020820152905162461bcd60e51b8152610fb791906004016142e0565b60065461366c906001600160a01b03163330856131fa565b603c54600b5460065461368d926001600160a01b0391821692911690614048565b603d546001600160a01b0316158015906136a75750600083115b15611e5257603d54600654611e52916001600160a01b03918216911685614048565b6011546000908190156136fa576011546136e4603454614079565b6136ee91906153ca565b611c7590610ed86153ca565b42613706603454614079565b61371091906153ca565b611c75906113886153ca565b3361374e7f9016d09d72d40fdae2fd8ceac6b6234c7706214fd39c1cd1e609a0528c199300546001600160a01b031690565b6001600160a01b0316146116d85760405163118cdaa760e01b8152336004820152602401610fb7565b7f9016d09d72d40fdae2fd8ceac6b6234c7706214fd39c1cd1e609a0528c19930080546001600160a01b031981166001600160a01b03848116918217845560405192169182907f8be0079c531659141344cd1fd0a4f28419497f9722a3daafe3b4186f6b6457e090600090a3505050565b603d546000906001600160a01b0316158015906138055750600081115b1561382757603d54600654613827916001600160a01b03918216911683614048565b600354600754613859916001600160a01b03169061384690849061543a565b6006546001600160a01b03169190614048565b603c54600b54600654612410926001600160a01b0391821692911690614048565b604754606090600260ff909116106138c157600154601e546040516317cc08f160e31b81526001600160a01b039092169163be60478891610e019160040190815260200190565b600154601e54604051630f2911d360e31b81526001600160a01b03909216916379488e9891610e019160040190815260200190565b6000806102008361390986610e1061544d565b61391490601861544d565b61391e91906153ca565b6139289190615464565b905062010000811061394d5760405163dbf20b4b60e01b815260040160405180910390fd5b62400000179392505050565b600080600260335460ff16600c811115613975576139756144ed565b03613996575050601a546003544291909111916001600160a01b0390911690565b600360335460ff16600c8111156139af576139af6144ed565b036139d0575050601a546003544291909111916001600160a01b0390911690565b600560335460ff16600c8111156139e9576139e96144ed565b03613a0a575050601c546003544291909111916001600160a01b0390911690565b50600091829150565b603954600090819015613a9e576000546039546040516312a87c6960e01b81526001600160a01b03909216916312a87c6991613a559160040190815260200190565b6040805180830381865afa158015613a71573d6000803e3d6000fd5b505050506040513d601f19601f82011682018060405250810190613a95919061507d565b91509150613ad7565b600254604051630a71571960e41b8152600481018690526001600160a01b0385811660248301529091169063a715719090604401613a55565b9250929050565b60008151835114613af157506000611c75565b508151602091820181902091909201919091201490565b601d839055601e829055601f805463ffffffff191663ffffffff831617905560048054600091613bc191613b3b90614a30565b80601f0160208091040260200160405190810160405280929190818152602001828054613b6790614a30565b8015613bb45780601f10613b8957610100808354040283529160200191613bb4565b820191906000526020600020905b815481529060010190602001808311613b9757829003601f168201915b5050505050603454613115565b83815263ffffffff8316602082015260015460405163f3e13c4560e01b81529192506001600160a01b03169063f3e13c4590613c04908490603e906004016155e0565b600060405180830381600087803b158015613c1e57600080fd5b505af1158015613c32573d6000803e3d6000fd5b5050505060006040518060800160405280601d600101548152602001836020015163ffffffff168152602001603f54604051602001613c7391815260200190565b60408051808303601f1901815291815290825260608501516001600160401b031660209092019190915260005460395491516320fe595760e21b81529293506001600160a01b0316916383f9655c91613cd0918590600401615605565b600060405180830381600087803b158015613cea57600080fd5b505af1158015613cfe573d6000803e3d6000fd5b505050505050505050565b6000600b54600754610e4691906153ca565b6000613d306001600160a01b038416836140cc565b90508051600014158015613d55575080806020019051810190613d5391906150dc565b155b15611e5257604051635274afe760e01b81526001600160a01b0384166004820152602401610fb7565b6000600160335460ff16600c811115613d9957613d996144ed565b03613da75750601954421190565b600260335460ff16600c811115613dc057613dc06144ed565b03613dce5750601a54421190565b600360335460ff16600c811115613de757613de76144ed565b03613df55750601a54421190565b600660335460ff16600c811115613e0e57613e0e6144ed565b03613e195750600190565b600460335460ff16600c811115613e3257613e326144ed565b03613e5557604754600260ff90911610613e4c5750600090565b50601b54421190565b600860335460ff16600c811115613e6e57613e6e6144ed565b03613ee957600254603954604051637eda4dfb60e11b81526001600160a01b039092169163fdb49bf691613ea89160040190815260200190565b602060405180830381865afa158015613ec5573d6000803e3d6000fd5b505050506040513d601f19601f82011682018060405250810190610e4691906150dc565b600060335460ff16600c811115613f0257613f026144ed565b03613f52576002546003546009546040516391516f3b60e01b81526001600160a01b03808516946391516f3b94613ea894600160a01b90920460ff16933393918216929190911690600401615657565b50600090565b6006546040516370a0823160e01b81523060048201526000916001600160a01b0316906370a0823190602401602060405180830381865afa158015613fa1573d6000803e3d6000fd5b505050506040513d601f19601f82011682018060405250810190613fc59190615281565b905080600003613fd25750565b600954600654612410916001600160a01b03918216911683614048565b7ff0c57e16840df040f15088dc2f81fe391c3923bec73e23a9662efc9c229c6a0054600160401b900460ff166116d857604051631afcd79f60e31b815260040160405180910390fd5b612aea613fef565b6130ef613fef565b6040516001600160a01b03838116602483015260448201839052611e5291859182169063a9059cbb9060640161322f565b60006240000082811682036140b55760405162461bcd60e51b8152602060048201526002602482015261495360f01b6044820152606401610fb7565b6140c561ffff841661020061544d565b9392505050565b6060611c728383600084600080856001600160a01b031684866040516140f2919061536a565b60006040518083038185875af1925050503d806000811461412f576040519150601f19603f3d011682016040523d82523d6000602084013e614134565b606091505b509150915061414486838361414e565b9695505050505050565b6060826141635761415e826141aa565b6140c5565b815115801561417a57506001600160a01b0384163b155b156141a357604051639996b31560e01b81526001600160a01b0385166004820152602401610fb7565b50806140c5565b8051156141ba5780518082602001fd5b604051630a12f52160e11b815260040160405180910390fd5b828054828255906000526020600020908101928215614219579160200282015b8281111561421957825182906142099082614f4a565b50916020019190600101906141f3565b50614225929150614229565b5090565b8082111561422557600061423d8282614246565b50600101614229565b50805461425290614a30565b6000825580601f10614262575050565b601f01602090049060005260206000209081019061241091905b80821115614225576000815560010161427c565b60005b838110156142ab578181015183820152602001614293565b50506000910152565b600081518084526142cc816020860160208601614290565b601f01601f19169290920160200192915050565b602081526000611c7260208301846142b4565b634e487b7160e01b600052604160045260246000fd5b604051601f8201601f191681016001600160401b0381118282101715614331576143316142f3565b604052919050565b60006001600160401b03821115614352576143526142f3565b50601f01601f191660200190565b600082601f83011261437157600080fd5b813561438461437f82614339565b614309565b81815284602083860101111561439957600080fd5b816020850160208301376000918101602001919091529392505050565b803563ffffffff811681146143ca57600080fd5b919050565b6000608082840312156143e157600080fd5b50919050565b600080600080608085870312156143fd57600080fd5b84356001600160401b038082111561441457600080fd5b61442088838901614360565b955061442e602088016143b6565b9450604087013591508082111561444457600080fd5b50614451878288016143cf565b925050614460606086016143b6565b905092959194509250565b60008083601f84011261447d57600080fd5b5081356001600160401b0381111561449457600080fd5b602083019150836020828501011115613ad757600080fd5b600080602083850312156144bf57600080fd5b82356001600160401b038111156144d557600080fd5b6144e18582860161446b565b90969095509350505050565b634e487b7160e01b600052602160045260246000fd5b600d8110614513576145136144ed565b9052565b60208101611c758284614503565b80356001600160a01b03811681146143ca57600080fd5b60008060008060008060008060a0898b03121561455857600080fd5b88356001600160401b038082111561456f57600080fd5b61457b8c838d0161446b565b909a50985060208b013591508082111561459457600080fd5b6145a08c838d0161446b565b909850965060408b013595508691506145bb60608c01614525565b945060808b01359150808211156145d157600080fd5b506145de8b828c0161446b565b999c989b5096995094979396929594505050565b60006020828403121561460457600080fd5b5035919050565b6000806000806060858703121561462157600080fd5b84356001600160401b038082111561463857600080fd5b6146448883890161446b565b9096509450849150614658602088016143b6565b9350604087013591508082111561466e57600080fd5b5061467b878288016143cf565b91505092959194509250565b60008060008060008060008789036101e08112156146a457600080fd5b60a08112156146b257600080fd5b8897506146c28a60a08b016143cf565b965061012089013595506146d96101408a01614525565b9450604061015f19820112156146ee57600080fd5b50610160880192506147036101a08901614525565b91506101c088013560ff8116811461471a57600080fd5b8091505092959891949750929550565b60008060006060848603121561473f57600080fd5b83356001600160401b038082111561475657600080fd5b61476287838801614360565b9450614770602087016143b6565b9350604086013591508082111561478657600080fd5b50614793868287016143cf565b9150509250925092565b600080600080604085870312156147b357600080fd5b84356001600160401b03808211156147ca57600080fd5b6147d68883890161446b565b909650945060208701359150808211156147ef57600080fd5b506147fc8782880161446b565b95989497509550505050565b602081016007831061481c5761481c6144ed565b91905290565b60038110614513576145136144ed565b60208101611c758284614822565b60006020828403121561485257600080fd5b81356001600160401b0381111561486857600080fd5b61487484828501614360565b949350505050565b600080600080600080600060a0888a03121561489757600080fd5b6148a088614525565b9650602088013595506040880135945060608801356001600160401b03808211156148ca57600080fd5b6148d68b838c0161446b565b909650945060808a01359150808211156148ef57600080fd5b506148fc8a828b0161446b565b989b979a50959850939692959293505050565b60006020828403121561492157600080fd5b611c7282614525565b60008060008060006080868803121561494257600080fd5b85356001600160401b038082111561495957600080fd5b61496589838a0161446b565b9097509550859150614979602089016143b6565b9450604088013591508082111561498f57600080fd5b5061499c888289016143cf565b9250506149ab606087016143b6565b90509295509295909350565b600082601f8301126149c857600080fd5b81516149d661437f82614339565b8181528460208386010111156149eb57600080fd5b614874826020830160208701614290565b600060208284031215614a0e57600080fd5b81516001600160401b03811115614a2457600080fd5b614874848285016149b7565b600181811c90821680614a4457607f821691505b6020821081036143e157634e487b7160e01b600052602260045260246000fd5b805182526000602082015163ffffffff80821660208601526040840151915060e06040860152614a9760e08601836142b4565b91506001600160401b03606085015116606086015260018060a01b03608085015116608086015260a084015185830360a0870152614ad583826142b4565b9250508060c08501511660c0860152508091505092915050565b60008154614afc81614a30565b808552602060018381168015614b195760018114614b3357614b61565b60ff1985168884015283151560051b880183019550614b61565b866000528260002060005b85811015614b595781548a8201860152908301908401614b3e565b890184019650505b505050505092915050565b600081548084526020808501808196508360051b81019150856000528260002060005b85811015614bb8578284038952614ba68483614aef565b98850198935060019182019101614b8f565b5091979650505050505050565b606081526000614bd86060830186614a64565b8281036020840152614bea8186614b6c565b905082810360408401526141448185614aef565b601f821115611e5257600081815260208120601f850160051c81016020861015614c255750805b601f850160051c820191505b81811015614c4457828155600101614c31565b505050505050565b6001600160401b03831115614c6357614c636142f3565b614c7783614c718354614a30565b83614bfe565b6000601f841160018114614cab5760008515614c935750838201355b600019600387901b1c1916600186901b178355612a8a565b600083815260209020601f19861690835b82811015614cdc5786850135825560209485019460019092019101614cbc565b5086821015614cf95760001960f88860031b161c19848701351681555b505060018560011b0183555050505050565b81835281816020850137506000828201602090810191909152601f909101601f19169091010190565b6001600160a01b03888116825287811660208301528616604082015260c060608201819052600090614d699083018688614d0b565b8281036080840152614d7b8186614aef565b905082810360a0840152614d8f81856142b4565b9a9950505050505050505050565b602081526000614874602083018486614d0b565b608081526000614dc46080830187614aef565b8281036020840152614dd681876142b4565b604084019590955250506060015292915050565b60006020808385031215614dfd57600080fd5b82516001600160401b0380821115614e1457600080fd5b818501915085601f830112614e2857600080fd5b815181811115614e3a57614e3a6142f3565b8060051b614e49858201614309565b9182528381018501918581019089841115614e6357600080fd5b86860192505b83831015614e9f57825185811115614e815760008081fd5b614e8f8b89838a01016149b7565b8352509186019190860190614e69565b9998505050505050505050565b634e487b7160e01b600052603260045260246000fd5b60008154614ecf81614a30565b60018281168015614ee75760018114614efc57614f2b565b60ff1984168752821515830287019450614f2b565b8560005260208060002060005b85811015614f225781548a820152908401908201614f09565b50505082870194505b5050505092915050565b6000614874614f448386614ec2565b84614ec2565b81516001600160401b03811115614f6357614f636142f3565b614f7781614f718454614a30565b84614bfe565b602080601f831160018114614fac5760008415614f945750858301515b600019600386901b1c1916600185901b178555614c44565b600085815260208120601f198616915b82811015614fdb57888601518255948401946001909101908401614fbc565b5085821015614ff95787850151600019600388901b60f8161c191681555b5050505050600190811b01905550565b602081526000611c726020830184614b6c565b801515811461241057600080fd5b60008060006060848603121561503f57600080fd5b8351925060208401516150518161501c565b80925050604084015190509250925092565b8381526040602082015260006121c1604083018486614d0b565b6000806040838503121561509057600080fd5b505080516020909101519092909150565b6080815260006150b5608083018789614d0b565b82810360208401526150c78187614aef565b60408401959095525050606001529392505050565b6000602082840312156150ee57600080fd5b81516140c58161501c565b60408152600061510c6040830186614aef565b8281036020840152614144818587614d0b565b8381528260208201526060604082015260006121c16060830184614aef565b6000808335601e1984360301811261515557600080fd5b83016020810192503590506001600160401b0381111561517457600080fd5b8060051b3603821315613ad757600080fd5b6000615192828361513e565b608080865285018190526001600160fb1b038111156151b057600080fd5b60051b808260a087013780850191505060a0810160208085013581870152604085013560408701526151e5606086018661513e565b87850360a00160608901529283905292600092849160c0015b8185101561522a57853592506152138361501c565b8215158152948301946001949094019383016151fe565b98975050505050505050565b60a08152600061524960a08301886142b4565b828103602084015261525b81886142b4565b905085604084015263ffffffff85166060840152828103608084015261522a8185615186565b60006020828403121561529357600080fd5b5051919050565b828152604081016140c56020830184614503565b87815260a0602082015260006152c860a08301888a614d0b565b82810360408401526152da8188614aef565b905082810360608401526152ef818688614d0b565b91505082608083015298975050505050505050565b60006020828403121561531657600080fd5b8151600781106140c557600080fd5b604081526000615339604083018688614d0b565b828103602084015261534c818587614d0b565b979650505050505050565b60408152600061510c60408301866142b4565b6000825161537c818460208701614290565b9190910192915050565b60008060006060848603121561539b57600080fd5b8351925060208401519150604084015190509250925092565b634e487b7160e01b600052601160045260246000fd5b80820180821115611c7557611c756153b4565b8381526001600160a01b03831660208201526060604082018190526000906121c190830184614aef565b60608152600061541a60608301866142b4565b6001600160a01b0394851660208401529290931660409091015292915050565b81810381811115611c7557611c756153b4565b8082028115828204841417611c7557611c756153b4565b60008261548157634e487b7160e01b600052601260045260246000fd5b500490565b60a08152600061549a60a08301888a614d0b565b86602084015263ffffffff808716604085015283820360608501526154bf8287615186565b925080851660808501525050979650505050505050565b6001600160a01b0388811682528716602082015260a0604082018190526000906155039083018789614d0b565b82810360608401526155158187614aef565b90508281036080840152614d8f818587614d0b565b86815285602082015260806040820152600061554a608083018688614d0b565b8281036060840152614e9f818587614d0b565b60a08152600061557060a08301886142b4565b86602084015285604084015263ffffffff85166060840152828103608084015261522a8185615186565b600080604083850312156155ad57600080fd5b8251915060208301516001600160401b038111156155ca57600080fd5b6155d6858286016149b7565b9150509250929050565b6040815260006155f36040830185614a64565b82810360208401526121c18185614b6c565b828152604060208201528151604082015263ffffffff60208301511660608201526000604083015160808084015261564060c08401826142b4565b9050606084015160a0840152809150509392505050565b608081016156658287614822565b6001600160a01b0394851660208301529284166040820152921660609092019190915291905056fea26469706673582212206e7248b9f31ae220190f68abc9249d0a9a9db999212de36d9b60a92f0db6b9e164736f6c63430008140033",
  "linkReferences": {},
  "deployedLinkReferences": {}
}