{
  "_format": "hh-sol-artifact-1",
  "contractName": "Order",
  "sourceName": "contracts/order/Order.sol",
  "abi": [
    {
      "inputs": [],
      "stateMutability": "nonpayable",
      "type": "constructor"
    },
    {
      "inputs": [
        {
          "internalType": "address",
          "name": "target",
          "type": "address"
        }
      ],
      "name": "AddressEmptyCode",
      "type": "error"
    },
    {
      "inputs": [
        {
          "internalType": "address",
          "name": "account",
          "type": "address"
        }
      ],
      "name": "AddressInsufficientBalance",
      "type": "error"
    },
    {
      "inputs": [],
      "name": "AllowanceTooLow",
      "type": "error"
    },
    {
      "inputs": [],
      "name": "AlreadyCreated",
      "type": "error"
    },
    {
      "inputs": [],
      "name": "ArbitrationUnavailable",
      "type": "error"
    },
    {
      "inputs": [],
      "name": "ArbitratorDeadlineNotPassed",
      "type": "error"
    },
    {
      "inputs": [],
      "name": "ArbitratorOnly",
      "type": "error"
    },
    {
      "inputs": [],
      "name": "EmptyBtcAddress",
      "type": "error"
    },
    {
      "inputs": [],
      "name": "ErrorStatus",
      "type": "error"
    },
    {
      "inputs": [],
      "name": "FailedInnerCall",
      "type": "error"
    },
    {
      "inputs": [],
      "name": "InvalidBtcData",
      "type": "error"
    },
    {
      "inputs": [],
      "name": "InvalidInitialization",
      "type": "error"
    },
    {
      "inputs": [],
      "name": "InvalidLender",
      "type": "error"
    },
    {
      "inputs": [],
      "name": "InvalidParameters",
      "type": "error"
    },
    {
      "inputs": [],
      "name": "InvalidPreimage",
      "type": "error"
    },
    {
      "inputs": [],
      "name": "InvalidProofLeaf",
      "type": "error"
    },
    {
      "inputs": [],
      "name": "InvalidRepaidExpireWindow",
      "type": "error"
    },
    {
      "inputs": [],
      "name": "InvalidScriptTimelock",
      "type": "error"
    },
    {
      "inputs": [],
      "name": "InvalidSignature",
      "type": "error"
    },
    {
      "inputs": [],
      "name": "InvalidTaprootLeaves",
      "type": "error"
    },
    {
      "inputs": [],
      "name": "InvalidTimelock",
      "type": "error"
    },
    {
      "inputs": [],
      "name": "InvalidV2TaprootLeaves",
      "type": "error"
    },
    {
      "inputs": [],
      "name": "InvalidVersion",
      "type": "error"
    },
    {
      "inputs": [],
      "name": "LenderOnly",
      "type": "error"
    },
    {
      "inputs": [],
      "name": "NoOpen",
      "type": "error"
    },
    {
      "inputs": [],
      "name": "NoPermission",
      "type": "error"
    },
    {
      "inputs": [],
      "name": "NoSubmitPledgeProof",
      "type": "error"
    },
    {
      "inputs": [],
      "name": "NotCloseable",
      "type": "error"
    },
    {
      "inputs": [],
      "name": "NotInitializing",
      "type": "error"
    },
    {
      "inputs": [],
      "name": "NotReady",
      "type": "error"
    },
    {
      "inputs": [],
      "name": "OnlyBorrower",
      "type": "error"
    },
    {
      "inputs": [],
      "name": "OnlyV2",
      "type": "error"
    },
    {
      "inputs": [],
      "name": "OrderClosedAlready",
      "type": "error"
    },
    {
      "inputs": [],
      "name": "OrderTimedOut",
      "type": "error"
    },
    {
      "inputs": [
        {
          "internalType": "address",
          "name": "owner",
          "type": "address"
        }
      ],
      "name": "OwnableInvalidOwner",
      "type": "error"
    },
    {
      "inputs": [
        {
          "internalType": "address",
          "name": "account",
          "type": "address"
        }
      ],
      "name": "OwnableUnauthorizedAccount",
      "type": "error"
    },
    {
      "inputs": [],
      "name": "ReentrancyGuardReentrantCall",
      "type": "error"
    },
    {
      "inputs": [
        {
          "internalType": "address",
          "name": "token",
          "type": "address"
        }
      ],
      "name": "SafeERC20FailedOperation",
      "type": "error"
    },
    {
      "inputs": [],
      "name": "TimelockOverflow",
      "type": "error"
    },
    {
      "anonymous": false,
      "inputs": [
        {
          "indexed": true,
          "internalType": "bytes32",
          "name": "txId",
          "type": "bytes32"
        },
        {
          "indexed": false,
          "internalType": "address",
          "name": "compensationReceiver",
          "type": "address"
        },
        {
          "indexed": false,
          "internalType": "address",
          "name": "timeOutCompensationReceiver",
          "type": "address"
        }
      ],
      "name": "ArbitrationRegistered",
      "type": "event"
    },
    {
      "anonymous": false,
      "inputs": [
        {
          "indexed": true,
          "internalType": "bytes32",
          "name": "txId",
          "type": "bytes32"
        },
        {
          "indexed": false,
          "internalType": "bytes",
          "name": "signature",
          "type": "bytes"
        },
        {
          "indexed": false,
          "internalType": "address",
          "name": "compensationReceiver",
          "type": "address"
        },
        {
          "indexed": false,
          "internalType": "address",
          "name": "timeOutCompensationReceiver",
          "type": "address"
        }
      ],
      "name": "ArbitrationRequested",
      "type": "event"
    },
    {
      "anonymous": false,
      "inputs": [],
      "name": "ArbitratorBTCTransferManuallyConfirmed",
      "type": "event"
    },
    {
      "anonymous": false,
      "inputs": [],
      "name": "BorrowSuccessful",
      "type": "event"
    },
    {
      "anonymous": false,
      "inputs": [],
      "name": "BorrowerBTCTransferArbitratorFeeSubmitted",
      "type": "event"
    },
    {
      "anonymous": false,
      "inputs": [
        {
          "indexed": false,
          "internalType": "uint256",
          "name": "acutalAmount",
          "type": "uint256"
        },
        {
          "indexed": false,
          "internalType": "enum OrderStatus",
          "name": "status",
          "type": "uint8"
        }
      ],
      "name": "BorrowerBTCTransferProofSubmitted",
      "type": "event"
    },
    {
      "anonymous": false,
      "inputs": [
        {
          "indexed": false,
          "internalType": "uint64",
          "name": "version",
          "type": "uint64"
        }
      ],
      "name": "Initialized",
      "type": "event"
    },
    {
      "anonymous": false,
      "inputs": [],
      "name": "LenderBTCTransferManuallyConfirmed",
      "type": "event"
    },
    {
      "anonymous": false,
      "inputs": [
        {
          "indexed": false,
          "internalType": "bytes32",
          "name": "zkTxHash",
          "type": "bytes32"
        },
        {
          "indexed": false,
          "internalType": "enum OrderStatus",
          "name": "status",
          "type": "uint8"
        }
      ],
      "name": "LenderBTCTransferProofSubmitted",
      "type": "event"
    },
    {
      "anonymous": false,
      "inputs": [],
      "name": "OrderClosed",
      "type": "event"
    },
    {
      "anonymous": false,
      "inputs": [
        {
          "indexed": true,
          "internalType": "enum OrderType",
          "name": "orderType",
          "type": "uint8"
        },
        {
          "indexed": false,
          "internalType": "uint256",
          "name": "collateral",
          "type": "uint256"
        },
        {
          "indexed": false,
          "internalType": "address",
          "name": "token",
          "type": "address"
        },
        {
          "indexed": false,
          "internalType": "uint256",
          "name": "tokenAmount",
          "type": "uint256"
        }
      ],
      "name": "OrderCreated",
      "type": "event"
    },
    {
      "anonymous": false,
      "inputs": [
        {
          "indexed": true,
          "internalType": "bytes32",
          "name": "newBtcTxId",
          "type": "bytes32"
        }
      ],
      "name": "OrderDelayed",
      "type": "event"
    },
    {
      "anonymous": false,
      "inputs": [
        {
          "indexed": false,
          "internalType": "string",
          "name": "takerBtcAddress",
          "type": "string"
        },
        {
          "indexed": false,
          "internalType": "string",
          "name": "arbitratorFeeBtcAddress",
          "type": "string"
        },
        {
          "indexed": false,
          "internalType": "uint256",
          "name": "ethFee",
          "type": "uint256"
        },
        {
          "indexed": false,
          "internalType": "uint256",
          "name": "btcFee",
          "type": "uint256"
        }
      ],
      "name": "OrderTaken",
      "type": "event"
    },
    {
      "anonymous": false,
      "inputs": [
        {
          "indexed": true,
          "internalType": "address",
          "name": "previousOwner",
          "type": "address"
        },
        {
          "indexed": true,
          "internalType": "address",
          "name": "newOwner",
          "type": "address"
        }
      ],
      "name": "OwnershipTransferred",
      "type": "event"
    },
    {
      "anonymous": false,
      "inputs": [
        {
          "indexed": true,
          "internalType": "address",
          "name": "borrower",
          "type": "address"
        },
        {
          "indexed": false,
          "internalType": "uint256",
          "name": "additionalBTCRequired",
          "type": "uint256"
        }
      ],
      "name": "RenewalOrderRequested",
      "type": "event"
    },
    {
      "anonymous": false,
      "inputs": [
        {
          "indexed": false,
          "internalType": "bytes",
          "name": "btcRawData",
          "type": "bytes"
        },
        {
          "indexed": false,
          "internalType": "bytes",
          "name": "signature",
          "type": "bytes"
        }
      ],
      "name": "RenewalSignatureSubmitted",
      "type": "event"
    },
    {
      "anonymous": false,
      "inputs": [
        {
          "indexed": false,
          "internalType": "uint256",
          "name": "interest",
          "type": "uint256"
        },
        {
          "indexed": false,
          "internalType": "uint256",
          "name": "principal",
          "type": "uint256"
        },
        {
          "indexed": false,
          "internalType": "bytes",
          "name": "btcTxData",
          "type": "bytes"
        },
        {
          "indexed": false,
          "internalType": "bytes",
          "name": "signature",
          "type": "bytes"
        }
      ],
      "name": "RepaymentMade",
      "type": "event"
    },
    {
      "anonymous": false,
      "inputs": [
        {
          "indexed": true,
          "internalType": "address",
          "name": "repayer",
          "type": "address"
        },
        {
          "indexed": false,
          "internalType": "string",
          "name": "repayerBtcAddress",
          "type": "string"
        }
      ],
      "name": "TimeoutRepaymentMade",
      "type": "event"
    },
    {
      "inputs": [],
      "name": "arbitratorBtcFeeAddress",
      "outputs": [
        {
          "internalType": "string",
          "name": "",
          "type": "string"
        }
      ],
      "stateMutability": "view",
      "type": "function"
    },
    {
      "inputs": [],
      "name": "averageDownPayment",
      "outputs": [
        {
          "internalType": "uint256",
          "name": "",
          "type": "uint256"
        }
      ],
      "stateMutability": "view",
      "type": "function"
    },
    {
      "inputs": [
        {
          "internalType": "bytes",
          "name": "preimage",
          "type": "bytes"
        }
      ],
      "name": "borrow",
      "outputs": [],
      "stateMutability": "nonpayable",
      "type": "function"
    },
    {
      "inputs": [],
      "name": "borrowExpirationTime",
      "outputs": [
        {
          "internalType": "uint256",
          "name": "",
          "type": "uint256"
        }
      ],
      "stateMutability": "view",
      "type": "function"
    },
    {
      "inputs": [],
      "name": "borrowedTime",
      "outputs": [
        {
          "internalType": "uint256",
          "name": "",
          "type": "uint256"
        }
      ],
      "stateMutability": "view",
      "type": "function"
    },
    {
      "inputs": [],
      "name": "borrower",
      "outputs": [
        {
          "internalType": "address",
          "name": "",
          "type": "address"
        }
      ],
      "stateMutability": "view",
      "type": "function"
    },
    {
      "inputs": [],
      "name": "borrowerBtcAddress",
      "outputs": [
        {
          "internalType": "string",
          "name": "",
          "type": "string"
        }
      ],
      "stateMutability": "view",
      "type": "function"
    },
    {
      "inputs": [],
      "name": "borrowerPublicKey",
      "outputs": [
        {
          "internalType": "bytes",
          "name": "",
          "type": "bytes"
        }
      ],
      "stateMutability": "view",
      "type": "function"
    },
    {
      "inputs": [],
      "name": "borrowerRepaidTime",
      "outputs": [
        {
          "internalType": "uint256",
          "name": "",
          "type": "uint256"
        }
      ],
      "stateMutability": "view",
      "type": "function"
    },
    {
      "inputs": [
        {
          "internalType": "bytes",
          "name": "rawTx",
          "type": "bytes"
        },
        {
          "internalType": "bytes",
          "name": "signature",
          "type": "bytes"
        }
      ],
      "name": "borrowerSignLockTimeAUnlockTx",
      "outputs": [
        {
          "internalType": "bytes",
          "name": "",
          "type": "bytes"
        }
      ],
      "stateMutability": "view",
      "type": "function"
    },
    {
      "inputs": [],
      "name": "closeOrder",
      "outputs": [],
      "stateMutability": "nonpayable",
      "type": "function"
    },
    {
      "inputs": [],
      "name": "collateralAmount",
      "outputs": [
        {
          "internalType": "uint256",
          "name": "",
          "type": "uint256"
        }
      ],
      "stateMutability": "view",
      "type": "function"
    },
    {
      "inputs": [
        {
          "internalType": "address",
          "name": "_token",
          "type": "address"
        },
        {
          "internalType": "uint256",
          "name": "_amount",
          "type": "uint256"
        },
        {
          "internalType": "uint256",
          "name": "_duration",
          "type": "uint256"
        },
        {
          "internalType": "string",
          "name": "_btcAddress",
          "type": "string"
        },
        {
          "internalType": "bytes",
          "name": "_publicKey",
          "type": "bytes"
        }
      ],
      "name": "createLendOrder",
      "outputs": [],
      "stateMutability": "nonpayable",
      "type": "function"
    },
    {
      "inputs": [],
      "name": "createTime",
      "outputs": [
        {
          "internalType": "uint256",
          "name": "",
          "type": "uint256"
        }
      ],
      "stateMutability": "view",
      "type": "function"
    },
    {
      "inputs": [],
      "name": "currentSelectedArbitrator",
      "outputs": [
        {
          "internalType": "address",
          "name": "",
          "type": "address"
        }
      ],
      "stateMutability": "view",
      "type": "function"
    },
    {
      "inputs": [],
      "name": "deadLinesData",
      "outputs": [
        {
          "internalType": "uint256",
          "name": "orderDeadLine",
          "type": "uint256"
        },
        {
          "internalType": "uint256",
          "name": "submitPledgeProofDeadLine",
          "type": "uint256"
        },
        {
          "internalType": "uint256",
          "name": "borrowDeadLine",
          "type": "uint256"
        },
        {
          "internalType": "uint256",
          "name": "repayDeadLine",
          "type": "uint256"
        },
        {
          "internalType": "uint256",
          "name": "submitRegularProofDeadLine",
          "type": "uint256"
        }
      ],
      "stateMutability": "view",
      "type": "function"
    },
    {
      "inputs": [],
      "name": "getArbiterUnlockTransferZkpStatus",
      "outputs": [
        {
          "internalType": "enum DataTypes.TransactionStatus",
          "name": "",
          "type": "uint8"
        }
      ],
      "stateMutability": "view",
      "type": "function"
    },
    {
      "inputs": [],
      "name": "getArbitrationBtcNoWitnessTx",
      "outputs": [
        {
          "internalType": "bytes",
          "name": "",
          "type": "bytes"
        }
      ],
      "stateMutability": "view",
      "type": "function"
    },
    {
      "inputs": [],
      "name": "getArbitrationBtcTx",
      "outputs": [
        {
          "internalType": "bytes",
          "name": "",
          "type": "bytes"
        }
      ],
      "stateMutability": "view",
      "type": "function"
    },
    {
      "inputs": [],
      "name": "getLockTimeAUnlockTx",
      "outputs": [
        {
          "internalType": "bytes",
          "name": "",
          "type": "bytes"
        }
      ],
      "stateMutability": "view",
      "type": "function"
    },
    {
      "inputs": [],
      "name": "getLockTimeBUnlockTx",
      "outputs": [
        {
          "internalType": "bytes",
          "name": "",
          "type": "bytes"
        }
      ],
      "stateMutability": "view",
      "type": "function"
    },
    {
      "inputs": [],
      "name": "getRepayBtcNoWitnessTx",
      "outputs": [
        {
          "internalType": "bytes",
          "name": "",
          "type": "bytes"
        }
      ],
      "stateMutability": "view",
      "type": "function"
    },
    {
      "inputs": [
        {
          "internalType": "bytes",
          "name": "lenderSignature",
          "type": "bytes"
        }
      ],
      "name": "getRepayBtcWitnessTx",
      "outputs": [
        {
          "internalType": "bytes",
          "name": "",
          "type": "bytes"
        }
      ],
      "stateMutability": "view",
      "type": "function"
    },
    {
      "inputs": [
        {
          "internalType": "bytes",
          "name": "keeperSignature",
          "type": "bytes"
        }
      ],
      "name": "getRepayBtcWitnessTxV2",
      "outputs": [
        {
          "internalType": "bytes",
          "name": "",
          "type": "bytes"
        }
      ],
      "stateMutability": "view",
      "type": "function"
    },
    {
      "inputs": [
        {
          "internalType": "address",
          "name": "selectedArbitrator",
          "type": "address"
        }
      ],
      "name": "getSelectedArbitratorFees",
      "outputs": [
        {
          "internalType": "uint256",
          "name": "ethFee",
          "type": "uint256"
        },
        {
          "internalType": "uint256",
          "name": "btcFee",
          "type": "uint256"
        }
      ],
      "stateMutability": "view",
      "type": "function"
    },
    {
      "inputs": [],
      "name": "getTimeoutRepayBtcNoWitnessTx",
      "outputs": [
        {
          "internalType": "bytes",
          "name": "",
          "type": "bytes"
        }
      ],
      "stateMutability": "view",
      "type": "function"
    },
    {
      "inputs": [
        {
          "internalType": "bytes",
          "name": "keeperSignature",
          "type": "bytes"
        }
      ],
      "name": "getTimeoutRepayBtcWitnessTxV2",
      "outputs": [
        {
          "internalType": "bytes",
          "name": "",
          "type": "bytes"
        }
      ],
      "stateMutability": "view",
      "type": "function"
    },
    {
      "inputs": [
        {
          "components": [
            {
              "internalType": "address",
              "name": "loanTools",
              "type": "address"
            },
            {
              "internalType": "address",
              "name": "taprootTools",
              "type": "address"
            },
            {
              "internalType": "address",
              "name": "getLoanTools",
              "type": "address"
            },
            {
              "internalType": "address",
              "name": "interestReceiver",
              "type": "address"
            },
            {
              "internalType": "address",
              "name": "optionInterestReceiver",
              "type": "address"
            }
          ],
          "internalType": "struct SetAddress",
          "name": "_setAddress",
          "type": "tuple"
        },
        {
          "components": [
            {
              "internalType": "uint256",
              "name": "takenExpireTime",
              "type": "uint256"
            },
            {
              "internalType": "uint256",
              "name": "submitProofExpireTime",
              "type": "uint256"
            },
            {
              "internalType": "uint256",
              "name": "repaidExpireTime",
              "type": "uint256"
            },
            {
              "internalType": "uint256",
              "name": "borrowExpirationTime",
              "type": "uint256"
            }
          ],
          "internalType": "struct ExpiredTime",
          "name": "_expiredTime",
          "type": "tuple"
        },
        {
          "internalType": "uint256",
          "name": "_proofedDelayBlock",
          "type": "uint256"
        },
        {
          "internalType": "address",
          "name": "_owner",
          "type": "address"
        },
        {
          "components": [
            {
              "internalType": "uint256",
              "name": "lockTime1",
              "type": "uint256"
            },
            {
              "internalType": "uint256",
              "name": "lockTime2",
              "type": "uint256"
            }
          ],
          "internalType": "struct LockTime",
          "name": "_lockTime",
          "type": "tuple"
        },
        {
          "internalType": "address",
          "name": "_lender",
          "type": "address"
        },
        {
          "internalType": "uint8",
          "name": "_orderVersion",
          "type": "uint8"
        }
      ],
      "name": "initialize",
      "outputs": [],
      "stateMutability": "nonpayable",
      "type": "function"
    },
    {
      "inputs": [],
      "name": "interestRate",
      "outputs": [
        {
          "internalType": "uint256",
          "name": "",
          "type": "uint256"
        }
      ],
      "stateMutability": "view",
      "type": "function"
    },
    {
      "inputs": [],
      "name": "interestReceiver",
      "outputs": [
        {
          "internalType": "address",
          "name": "",
          "type": "address"
        }
      ],
      "stateMutability": "view",
      "type": "function"
    },
    {
      "inputs": [],
      "name": "interestValue",
      "outputs": [
        {
          "internalType": "uint256",
          "name": "",
          "type": "uint256"
        }
      ],
      "stateMutability": "view",
      "type": "function"
    },
    {
      "inputs": [],
      "name": "lender",
      "outputs": [
        {
          "internalType": "address",
          "name": "",
          "type": "address"
        }
      ],
      "stateMutability": "view",
      "type": "function"
    },
    {
      "inputs": [],
      "name": "lenderBtcAddress",
      "outputs": [
        {
          "internalType": "string",
          "name": "",
          "type": "string"
        }
      ],
      "stateMutability": "view",
      "type": "function"
    },
    {
      "inputs": [],
      "name": "lenderInterestValue",
      "outputs": [
        {
          "internalType": "uint256",
          "name": "",
          "type": "uint256"
        }
      ],
      "stateMutability": "view",
      "type": "function"
    },
    {
      "inputs": [],
      "name": "lenderPublicKey",
      "outputs": [
        {
          "internalType": "bytes",
          "name": "",
          "type": "bytes"
        }
      ],
      "stateMutability": "view",
      "type": "function"
    },
    {
      "inputs": [],
      "name": "lenderReceiveAddress",
      "outputs": [
        {
          "internalType": "string",
          "name": "",
          "type": "string"
        }
      ],
      "stateMutability": "view",
      "type": "function"
    },
    {
      "inputs": [
        {
          "internalType": "bytes",
          "name": "rawTx",
          "type": "bytes"
        },
        {
          "internalType": "bytes",
          "name": "signature",
          "type": "bytes"
        }
      ],
      "name": "lenderSignLockTimeBUnlockTx",
      "outputs": [
        {
          "internalType": "bytes",
          "name": "",
          "type": "bytes"
        }
      ],
      "stateMutability": "view",
      "type": "function"
    },
    {
      "inputs": [],
      "name": "limitedDays",
      "outputs": [
        {
          "internalType": "uint256",
          "name": "",
          "type": "uint256"
        }
      ],
      "stateMutability": "view",
      "type": "function"
    },
    {
      "inputs": [],
      "name": "loanScript",
      "outputs": [
        {
          "internalType": "bytes",
          "name": "",
          "type": "bytes"
        }
      ],
      "stateMutability": "view",
      "type": "function"
    },
    {
      "inputs": [],
      "name": "lockTime1",
      "outputs": [
        {
          "internalType": "uint256",
          "name": "",
          "type": "uint256"
        }
      ],
      "stateMutability": "view",
      "type": "function"
    },
    {
      "inputs": [],
      "name": "lockTime2",
      "outputs": [
        {
          "internalType": "uint256",
          "name": "",
          "type": "uint256"
        }
      ],
      "stateMutability": "view",
      "type": "function"
    },
    {
      "inputs": [],
      "name": "optionInterestReceiver",
      "outputs": [
        {
          "internalType": "address",
          "name": "",
          "type": "address"
        }
      ],
      "stateMutability": "view",
      "type": "function"
    },
    {
      "inputs": [],
      "name": "orderType",
      "outputs": [
        {
          "internalType": "enum OrderType",
          "name": "",
          "type": "uint8"
        }
      ],
      "stateMutability": "view",
      "type": "function"
    },
    {
      "inputs": [],
      "name": "orderVersion",
      "outputs": [
        {
          "internalType": "uint8",
          "name": "",
          "type": "uint8"
        }
      ],
      "stateMutability": "view",
      "type": "function"
    },
    {
      "inputs": [],
      "name": "owner",
      "outputs": [
        {
          "internalType": "address",
          "name": "",
          "type": "address"
        }
      ],
      "stateMutability": "view",
      "type": "function"
    },
    {
      "inputs": [],
      "name": "preImage",
      "outputs": [
        {
          "internalType": "bytes",
          "name": "",
          "type": "bytes"
        }
      ],
      "stateMutability": "view",
      "type": "function"
    },
    {
      "inputs": [],
      "name": "preImageHash",
      "outputs": [
        {
          "internalType": "bytes32",
          "name": "",
          "type": "bytes32"
        }
      ],
      "stateMutability": "view",
      "type": "function"
    },
    {
      "inputs": [],
      "name": "proofedDelayBlock",
      "outputs": [
        {
          "internalType": "uint256",
          "name": "",
          "type": "uint256"
        }
      ],
      "stateMutability": "view",
      "type": "function"
    },
    {
      "inputs": [],
      "name": "renewalBtcRawData",
      "outputs": [
        {
          "internalType": "bytes",
          "name": "",
          "type": "bytes"
        }
      ],
      "stateMutability": "view",
      "type": "function"
    },
    {
      "inputs": [
        {
          "internalType": "bytes",
          "name": "btcRawData",
          "type": "bytes"
        },
        {
          "internalType": "bytes",
          "name": "signature",
          "type": "bytes"
        }
      ],
      "name": "renewalOrderRequest",
      "outputs": [],
      "stateMutability": "nonpayable",
      "type": "function"
    },
    {
      "inputs": [],
      "name": "renewalSignature",
      "outputs": [
        {
          "internalType": "bytes",
          "name": "",
          "type": "bytes"
        }
      ],
      "stateMutability": "view",
      "type": "function"
    },
    {
      "inputs": [],
      "name": "renounceOwnership",
      "outputs": [],
      "stateMutability": "nonpayable",
      "type": "function"
    },
    {
      "inputs": [],
      "name": "renwalRequestTime",
      "outputs": [
        {
          "internalType": "uint256",
          "name": "",
          "type": "uint256"
        }
      ],
      "stateMutability": "view",
      "type": "function"
    },
    {
      "inputs": [],
      "name": "repaidExpireTime",
      "outputs": [
        {
          "internalType": "uint256",
          "name": "",
          "type": "uint256"
        }
      ],
      "stateMutability": "view",
      "type": "function"
    },
    {
      "inputs": [
        {
          "internalType": "bytes",
          "name": "btcRawData",
          "type": "bytes"
        },
        {
          "internalType": "bytes",
          "name": "signature",
          "type": "bytes"
        }
      ],
      "name": "repay",
      "outputs": [],
      "stateMutability": "nonpayable",
      "type": "function"
    },
    {
      "inputs": [],
      "name": "repayBtcRawData",
      "outputs": [
        {
          "internalType": "bytes",
          "name": "",
          "type": "bytes"
        }
      ],
      "stateMutability": "view",
      "type": "function"
    },
    {
      "inputs": [],
      "name": "repaySignature",
      "outputs": [
        {
          "internalType": "bytes",
          "name": "",
          "type": "bytes"
        }
      ],
      "stateMutability": "view",
      "type": "function"
    },
    {
      "inputs": [
        {
          "internalType": "bytes",
          "name": "unLockSignature",
          "type": "bytes"
        }
      ],
      "name": "requestArbitration",
      "outputs": [],
      "stateMutability": "nonpayable",
      "type": "function"
    },
    {
      "inputs": [],
      "name": "requestArbitrationTxId",
      "outputs": [
        {
          "internalType": "bytes32",
          "name": "",
          "type": "bytes32"
        }
      ],
      "stateMutability": "view",
      "type": "function"
    },
    {
      "inputs": [],
      "name": "status",
      "outputs": [
        {
          "internalType": "enum OrderStatus",
          "name": "",
          "type": "uint8"
        }
      ],
      "stateMutability": "view",
      "type": "function"
    },
    {
      "inputs": [],
      "name": "submitProofExpirationTime",
      "outputs": [
        {
          "internalType": "uint256",
          "name": "",
          "type": "uint256"
        }
      ],
      "stateMutability": "view",
      "type": "function"
    },
    {
      "inputs": [
        {
          "internalType": "bytes",
          "name": "txData",
          "type": "bytes"
        },
        {
          "internalType": "uint32",
          "name": "blockHeight",
          "type": "uint32"
        },
        {
          "components": [
            {
              "internalType": "bytes32[]",
              "name": "proof",
              "type": "bytes32[]"
            },
            {
              "internalType": "bytes32",
              "name": "root",
              "type": "bytes32"
            },
            {
              "internalType": "bytes32",
              "name": "leaf",
              "type": "bytes32"
            },
            {
              "internalType": "bool[]",
              "name": "flags",
              "type": "bool[]"
            }
          ],
          "internalType": "struct MerkleProofData",
          "name": "merkleProof",
          "type": "tuple"
        }
      ],
      "name": "submitRegularUnlockTransferProof",
      "outputs": [],
      "stateMutability": "nonpayable",
      "type": "function"
    },
    {
      "inputs": [
        {
          "internalType": "bytes",
          "name": "rawData",
          "type": "bytes"
        },
        {
          "internalType": "uint32",
          "name": "blockHeight",
          "type": "uint32"
        },
        {
          "components": [
            {
              "internalType": "bytes32[]",
              "name": "proof",
              "type": "bytes32[]"
            },
            {
              "internalType": "bytes32",
              "name": "root",
              "type": "bytes32"
            },
            {
              "internalType": "bytes32",
              "name": "leaf",
              "type": "bytes32"
            },
            {
              "internalType": "bool[]",
              "name": "flags",
              "type": "bool[]"
            }
          ],
          "internalType": "struct MerkleProofData",
          "name": "merkleProof",
          "type": "tuple"
        }
      ],
      "name": "submitRenewalOrderProof",
      "outputs": [],
      "stateMutability": "nonpayable",
      "type": "function"
    },
    {
      "inputs": [
        {
          "internalType": "bytes",
          "name": "rawData",
          "type": "bytes"
        },
        {
          "internalType": "uint32",
          "name": "blockHeight",
          "type": "uint32"
        },
        {
          "components": [
            {
              "internalType": "bytes32[]",
              "name": "proof",
              "type": "bytes32[]"
            },
            {
              "internalType": "bytes32",
              "name": "root",
              "type": "bytes32"
            },
            {
              "internalType": "bytes32",
              "name": "leaf",
              "type": "bytes32"
            },
            {
              "internalType": "bool[]",
              "name": "flags",
              "type": "bool[]"
            }
          ],
          "internalType": "struct MerkleProofData",
          "name": "merkleProof",
          "type": "tuple"
        },
        {
          "internalType": "uint32",
          "name": "txIndex",
          "type": "uint32"
        }
      ],
      "name": "submitToArbitratorTransferProof",
      "outputs": [],
      "stateMutability": "nonpayable",
      "type": "function"
    },
    {
      "inputs": [
        {
          "internalType": "bytes",
          "name": "rawData",
          "type": "bytes"
        },
        {
          "internalType": "uint32",
          "name": "blockHeight",
          "type": "uint32"
        },
        {
          "components": [
            {
              "internalType": "bytes32[]",
              "name": "proof",
              "type": "bytes32[]"
            },
            {
              "internalType": "bytes32",
              "name": "root",
              "type": "bytes32"
            },
            {
              "internalType": "bytes32",
              "name": "leaf",
              "type": "bytes32"
            },
            {
              "internalType": "bool[]",
              "name": "flags",
              "type": "bool[]"
            }
          ],
          "internalType": "struct MerkleProofData",
          "name": "merkleProof",
          "type": "tuple"
        },
        {
          "internalType": "uint32",
          "name": "toLenderTxIndex",
          "type": "uint32"
        }
      ],
      "name": "submitToLenderTransferProof",
      "outputs": [],
      "stateMutability": "nonpayable",
      "type": "function"
    },
    {
      "inputs": [],
      "name": "systemInterestValue",
      "outputs": [
        {
          "internalType": "uint256",
          "name": "",
          "type": "uint256"
        }
      ],
      "stateMutability": "view",
      "type": "function"
    },
    {
      "inputs": [
        {
          "internalType": "string",
          "name": "btcAddress",
          "type": "string"
        },
        {
          "internalType": "bytes",
          "name": "publicKey",
          "type": "bytes"
        },
        {
          "internalType": "bytes32",
          "name": "preimageHash",
          "type": "bytes32"
        },
        {
          "internalType": "address",
          "name": "selectedArbitrator",
          "type": "address"
        },
        {
          "internalType": "string",
          "name": "net",
          "type": "string"
        }
      ],
      "name": "takeOrder",
      "outputs": [],
      "stateMutability": "payable",
      "type": "function"
    },
    {
      "inputs": [],
      "name": "takenExpireTime",
      "outputs": [
        {
          "internalType": "uint256",
          "name": "",
          "type": "uint256"
        }
      ],
      "stateMutability": "view",
      "type": "function"
    },
    {
      "inputs": [],
      "name": "takenTime",
      "outputs": [
        {
          "internalType": "uint256",
          "name": "",
          "type": "uint256"
        }
      ],
      "stateMutability": "view",
      "type": "function"
    },
    {
      "inputs": [
        {
          "internalType": "uint256",
          "name": "",
          "type": "uint256"
        }
      ],
      "name": "taprootLeaves",
      "outputs": [
        {
          "internalType": "bytes",
          "name": "",
          "type": "bytes"
        }
      ],
      "stateMutability": "view",
      "type": "function"
    },
    {
      "inputs": [
        {
          "internalType": "string",
          "name": "payerBtcAddress",
          "type": "string"
        }
      ],
      "name": "timeoutRepay",
      "outputs": [],
      "stateMutability": "nonpayable",
      "type": "function"
    },
    {
      "inputs": [],
      "name": "timeoutRepayTime",
      "outputs": [
        {
          "internalType": "uint256",
          "name": "",
          "type": "uint256"
        }
      ],
      "stateMutability": "view",
      "type": "function"
    },
    {
      "inputs": [],
      "name": "timeoutRepayer",
      "outputs": [
        {
          "internalType": "address",
          "name": "",
          "type": "address"
        }
      ],
      "stateMutability": "view",
      "type": "function"
    },
    {
      "inputs": [],
      "name": "timeoutRepayerBtcAddress",
      "outputs": [
        {
          "internalType": "string",
          "name": "",
          "type": "string"
        }
      ],
      "stateMutability": "view",
      "type": "function"
    },
    {
      "inputs": [],
      "name": "toArbitratorBtcTx",
      "outputs": [
        {
          "internalType": "bytes32",
          "name": "wTxId",
          "type": "bytes32"
        },
        {
          "internalType": "bytes32",
          "name": "txId",
          "type": "bytes32"
        },
        {
          "internalType": "uint32",
          "name": "txIndex",
          "type": "uint32"
        },
        {
          "internalType": "uint256",
          "name": "proofTimestamp",
          "type": "uint256"
        },
        {
          "internalType": "uint256",
          "name": "blockHeight",
          "type": "uint256"
        },
        {
          "internalType": "uint256",
          "name": "amount",
          "type": "uint256"
        }
      ],
      "stateMutability": "view",
      "type": "function"
    },
    {
      "inputs": [],
      "name": "toBorrowerBtcTx",
      "outputs": [
        {
          "internalType": "bytes32",
          "name": "wTxId",
          "type": "bytes32"
        },
        {
          "internalType": "bytes32",
          "name": "txId",
          "type": "bytes32"
        },
        {
          "internalType": "uint32",
          "name": "txIndex",
          "type": "uint32"
        },
        {
          "internalType": "uint256",
          "name": "proofTimestamp",
          "type": "uint256"
        },
        {
          "internalType": "uint256",
          "name": "blockHeight",
          "type": "uint256"
        },
        {
          "internalType": "uint256",
          "name": "amount",
          "type": "uint256"
        }
      ],
      "stateMutability": "view",
      "type": "function"
    },
    {
      "inputs": [],
      "name": "toLenderBtcTx",
      "outputs": [
        {
          "internalType": "bytes32",
          "name": "wTxId",
          "type": "bytes32"
        },
        {
          "internalType": "bytes32",
          "name": "txId",
          "type": "bytes32"
        },
        {
          "internalType": "uint32",
          "name": "txIndex",
          "type": "uint32"
        },
        {
          "internalType": "uint256",
          "name": "proofTimestamp",
          "type": "uint256"
        },
        {
          "internalType": "uint256",
          "name": "blockHeight",
          "type": "uint256"
        },
        {
          "internalType": "uint256",
          "name": "amount",
          "type": "uint256"
        }
      ],
      "stateMutability": "view",
      "type": "function"
    },
    {
      "inputs": [],
      "name": "token",
      "outputs": [
        {
          "internalType": "address",
          "name": "",
          "type": "address"
        }
      ],
      "stateMutability": "view",
      "type": "function"
    },
    {
      "inputs": [],
      "name": "tokenAmount",
      "outputs": [
        {
          "internalType": "uint256",
          "name": "",
          "type": "uint256"
        }
      ],
      "stateMutability": "view",
      "type": "function"
    },
    {
      "inputs": [
        {
          "internalType": "address",
          "name": "newOwner",
          "type": "address"
        }
      ],
      "name": "transferOwnership",
      "outputs": [],
      "stateMutability": "nonpayable",
      "type": "function"
    }
  ],
  "bytecode": "0x60806040523480156200001157600080fd5b507ff0c57e16840df040f15088dc2f81fe391c3923bec73e23a9662efc9c229c6a00805468010000000000000000810460ff1615906001600160401b03166000811580156200005d5750825b90506000826001600160401b031660011480156200007a5750303b155b90508115801562000089575080155b15620000a85760405163f92ee8a960e01b815260040160405180910390fd5b84546001600160401b03191660011785558315620000d757845460ff60401b1916680100000000000000001785555b83156200011e57845460ff60401b19168555604051600181527fc7f505b2f371ae2175ee4913f4499e1f2633a7b5936321eed1cdaeb6115181d29060200160405180910390a15b505050505061597380620001336000396000f3fe6080604052600436106104735760003560e01c80637c3a00fd1161024a578063c6f6c0b711610139578063eec7faa1116100b6578063f4ce65321161007a578063f4ce653214610d3e578063f8063a9514610d53578063fc0c546a14610d73578063fd7f0e2a14610d93578063fdf0f7ac14610db357600080fd5b8063eec7faa114610cbe578063f007ca5414610cd4578063f0452b7414610ce9578063f0d267d314610cfe578063f2fde38b14610d1e57600080fd5b8063d0b97d48116100fd578063d0b97d4814610c0d578063d25c993f14610c42578063db2561d414610c57578063dd10689014610c6d578063e3baf57c14610c9e57600080fd5b8063c6f6c0b714610b5d578063c752c3de14610b73578063c77cf61514610bc2578063ce7f501814610be2578063cfe8059214610bf757600080fd5b8063a6d8e767116101c7578063b4683b8a1161018b578063b4683b8a14610acb578063bb10b0e714610ae1578063bcead63e14610b12578063c309a53514610b32578063c3c6764814610b4757600080fd5b8063a6d8e76714610a40578063aa58f8cf14610a55578063aaccf06e14610a6b578063b005e27114610a8b578063b2c7f87814610aab57600080fd5b80638da5cb5b1161020e5780638da5cb5b146109a257806392d09ceb146109df57806395aa5581146109f55780639f1b472014610a0b578063a412ad1114610a2b57600080fd5b80637c3a00fd1461092b5780637df1f1b914610941578063838d75131461096157806387a9796b146109765780638b3bf7201461098c57600080fd5b8063572a15a2116103665780636ae5d110116102e357806370a6ad41116102a757806370a6ad4114610861578063715018a6146108ca5780637243ca8e146108df57806379ddeee1146108ff5780637b29dab81461091557600080fd5b80636ae5d110146107c75780636b553eb1146107dc5780636d0392f1146107f15780636f17591f146108135780636f5c9e581461084157600080fd5b80636332c5de1161032a5780636332c5de1461074757806367125e1c1461075c57806368a8da1c146107725780636985636b146107875780636a467ef6146107a757600080fd5b8063572a15a2146106d15780635e145ca6146106e7578063609d67331461070757806361dcd7ab1461071c57806362b1480e1461073257600080fd5b806327588c82116103f4578063437a265f116103b8578063437a265f1461063957806349bbd690146106715780634d43e8c3146106915780634f35014a146106a6578063554730fd146106bb57600080fd5b806327588c82146105b157806327e11aec146105c45780632d8dcef1146105e457806330845bd8146105f9578063433466ef1461061957600080fd5b8063124520bd1161043b578063124520bd1461051b57806314719e7b1461053f57806317ff940d1461055f5780631fd47bd414610575578063200d2ed21461058a57600080fd5b8063012e204e1461047857806301e2abd5146104a357806307dbd942146104cf57806309a5084b146104f15780631159042c14610506575b600080fd5b34801561048457600080fd5b5061048d610dc9565b60405161049a919061458e565b60405180910390f35b3480156104af57600080fd5b506047546104bd9060ff1681565b60405160ff909116815260200161049a565b3480156104db57600080fd5b506104ef6104ea366004614695565b610e45565b005b3480156104fd57600080fd5b5061048d610e7e565b34801561051257600080fd5b5061048d610f0c565b34801561052757600080fd5b5061053160085481565b60405190815260200161049a565b34801561054b57600080fd5b506104ef61055a36600461475a565b610f19565b34801561056b57600080fd5b5061053160125481565b34801561058157600080fd5b5061048d61116b565b34801561059657600080fd5b506033546105a49060ff1681565b60405161049a91906147c5565b6104ef6105bf3660046147ea565b611178565b3480156105d057600080fd5b5061048d6105df3660046148a0565b611639565b3480156105f057600080fd5b506104ef611664565b34801561060557600080fd5b506104ef6106143660046148b9565b6116bf565b34801561062557600080fd5b506104ef610634366004614935565b61197d565b34801561064557600080fd5b50603854610659906001600160a01b031681565b6040516001600160a01b03909116815260200161049a565b34801561067d57600080fd5b5061048d61068c36600461475a565b611c41565b34801561069d57600080fd5b5061048d611cc5565b3480156106b257600080fd5b5061048d611cfd565b3480156106c757600080fd5b5061053160155481565b3480156106dd57600080fd5b5061053160165481565b3480156106f357600080fd5b506104ef6107023660046149d8565b611d0a565b34801561071357600080fd5b5061048d611e56565b34801561072857600080fd5b5061053160105481565b34801561073e57600080fd5b5061048d611e63565b34801561075357600080fd5b5061048d611e70565b34801561076857600080fd5b5061053160345481565b34801561077e57600080fd5b5061048d611e7d565b34801561079357600080fd5b506104ef6107a2366004614a4b565b611e8a565b3480156107b357600080fd5b50603d54610659906001600160a01b031681565b3480156107d357600080fd5b5061048d612159565b3480156107e857600080fd5b5061048d612166565b3480156107fd57600080fd5b50610806612170565b60405161049a9190614ab6565b34801561081f57600080fd5b5060025461083490600160a01b900460ff1681565b60405161049a9190614ae0565b34801561084d57600080fd5b5061048d61085c366004614a4b565b6121e2565b34801561086d57600080fd5b50602954602a54602b54602c54602d54602e5461089295949363ffffffff1692919086565b60408051968752602087019590955263ffffffff909316938501939093526060840152608083019190915260a082015260c00161049a565b3480156108d657600080fd5b506104ef612267565b3480156108eb57600080fd5b5061048d6108fa36600461475a565b612279565b34801561090b57600080fd5b50610531600b5481565b34801561092157600080fd5b5061053160145481565b34801561093757600080fd5b50610531600a5481565b34801561094d57600080fd5b50600354610659906001600160a01b031681565b34801561096d57600080fd5b5061048d6122b5565b34801561098257600080fd5b5061053160175481565b34801561099857600080fd5b50610531602f5481565b3480156109ae57600080fd5b507f9016d09d72d40fdae2fd8ceac6b6234c7706214fd39c1cd1e609a0528c199300546001600160a01b0316610659565b3480156109eb57600080fd5b50610531600f5481565b348015610a0157600080fd5b5061053160375481565b348015610a1757600080fd5b506104ef610a26366004614aee565b6122c2565b348015610a3757600080fd5b5061048d612629565b348015610a4c57600080fd5b5061048d612633565b348015610a6157600080fd5b5061053160395481565b348015610a7757600080fd5b506104ef610a86366004614b2a565b612669565b348015610a9757600080fd5b50604454610659906001600160a01b031681565b348015610ab757600080fd5b506104ef610ac6366004614aee565b6128c8565b348015610ad757600080fd5b5061053160425481565b348015610aed57600080fd5b50601d54601e54601f5460205460215460225461089295949363ffffffff1692919086565b348015610b1e57600080fd5b50600954610659906001600160a01b031681565b348015610b3e57600080fd5b5061048d612a1f565b348015610b5357600080fd5b5061053160435481565b348015610b6957600080fd5b5061053160465481565b348015610b7f57600080fd5b50601854601954601a54601b54601c54610b9a949392919085565b604080519586526020860194909452928401919091526060830152608082015260a00161049a565b348015610bce57600080fd5b50603c54610659906001600160a01b031681565b348015610bee57600080fd5b50610531612a2c565b348015610c0357600080fd5b5061053160115481565b348015610c1957600080fd5b50610c2d610c28366004614bbd565b612a43565b6040805192835260208301919091520161049a565b348015610c4e57600080fd5b50610531612a60565b348015610c6357600080fd5b5061053160355481565b348015610c7957600080fd5b5060235460245460255460265460275460285461089295949363ffffffff1692919086565b348015610caa57600080fd5b506104ef610cb9366004614bd8565b612a7e565b348015610cca57600080fd5b5061053160075481565b348015610ce057600080fd5b5061048d612bed565b348015610cf557600080fd5b5061048d612bfa565b348015610d0a57600080fd5b5061048d610d19366004614a4b565b612c07565b348015610d2a57600080fd5b506104ef610d39366004614bbd565b612c3e565b348015610d4a57600080fd5b5061048d612c7e565b348015610d5f57600080fd5b506104ef610d6e366004614a4b565b612cb4565b348015610d7f57600080fd5b50600654610659906001600160a01b031681565b348015610d9f57600080fd5b5061048d610dae36600461475a565b612f62565b348015610dbf57600080fd5b5061053160135481565b600154601e54604051635a26893d60e01b815260048101919091526060916001600160a01b031690635a26893d906024015b600060405180830381865afa158015610e18573d6000803e3d6000fd5b505050506040513d6000823e601f3d908101601f19168201604052610e409190810190614caa565b905090565b610e4d612f98565b600354610e62906001600160a01b0316612fe2565b610e70848484600f5461307e565b610e7861323c565b50505050565b600c8054610e8b90614cde565b80601f0160208091040260200160405190810160405280929190818152602001828054610eb790614cde565b8015610f045780601f10610ed957610100808354040283529160200191610f04565b820191906000526020600020905b815481529060010190602001808311610ee757829003601f168201915b505050505081565b600e8054610e8b90614cde565b610f21612f98565b60475460ff16600214610f4757604051633a96f1e960e21b815260040160405180910390fd5b6000819003610f69576040516371189f3b60e11b815260040160405180910390fd5b600460335460ff16600b811115610f8257610f8261479b565b14610fa057604051636a36b1a560e01b815260040160405180910390fd5b610fa8613262565b421015610fc857604051637c18a17760e11b815260040160405180910390fd5b600061100d83838080601f0160208091040260200160405190810160405280939291908181526020018383808284376000920191909152505060345491506132749050565b600154604051632eda59cb60e01b81529192506001600160a01b031690632eda59cb90611044908490603e90603090600401614e76565b600060405180830381600087803b15801561105e57600080fd5b505af1158015611072573d6000803e3d6000fd5b5050505061107f336132fd565b604480546001600160a01b03191633179055604561109e838583614efd565b50426046556033805460ff191660061790556000546040516317bbdccd60e11b81526001600160a01b0390911690632f77b99a906110e9903090339088908890603690600401614fe5565b600060405180830381600087803b15801561110357600080fd5b505af1158015611117573d6000803e3d6000fd5b50505050336001600160a01b03167f72667fe29c40273e410861398f6581f771a1dc5aff40d47addf6db8fcb77617e8484604051611156929190615030565b60405180910390a25061116761323c565b5050565b60308054610e8b90614cde565b611180612f98565b60008790036111a2576040516371189f3b60e11b815260040160405180910390fd5b600060335460ff16600b8111156111bb576111bb61479b565b146111d957604051636a36b1a560e01b815260040160405180910390fd5b336000600254600160a01b900460ff1660018111156111fa576111fa61479b565b0361124c5760075460065461121e916001600160a01b03909116908390309061331a565b600c61122b878983614efd565b50600980546001600160a01b0319166001600160a01b0383161790556112a9565b6001600254600160a01b900460ff16600181111561126c5761126c61479b565b036112a957600461127e898b83614efd565b50600380546001600160a01b0319166001600160a01b03831617905560056112a7878983614efd565b505b602f859055603880546001600160a01b0319166001600160a01b0386811691821790925560025460405163338ac66960e11b815260048101929092529091169063fea14dd59060059083906367158cd290602401600060405180830381865afa15801561131a573d6000803e3d6000fd5b505050506040513d6000823e601f3d908101601f191682016040526113429190810190614caa565b603454602f546040518563ffffffff1660e01b81526004016113679493929190615044565b600060405180830381865afa158015611384573d6000803e3d6000fd5b505050506040513d6000823e601f3d908101601f191682016040526113ac919081019061507d565b80516113c091603e91602090910190614481565b50603e546002146113e45760405163686c42ff60e01b815260040160405180910390fd5b603e6000815481106113f8576113f861513f565b90600052602060002001603e6001815481106114165761141661513f565b906000526020600020016040516020016114319291906151c8565b6040516020818303038152906040526036908161144e91906151dd565b5060015460405163307b52d160e21b81526001600160a01b039091169063c1ed4b449061148090603e9060040161529c565b606060405180830381865afa15801561149d573d6000803e3d6000fd5b505050506040513d601f19601f820116820180604052508101906114c191906152bd565b603f8190556002546040516364cd234f60e11b81526001600160a01b03909116935063c99a469e92506114fb9190879087906004016152f6565b600060405180830381865afa158015611518573d6000803e3d6000fd5b505050506040513d6000823e601f3d908101601f191682016040526115409190810190614caa565b600e9061154d90826151dd565b50426011556033805460ff19166001179055611567613381565b61156f61341b565b600080546039546040516312a87c6960e01b8152600481019190915282916001600160a01b0316906312a87c69906024016040805180830381865afa1580156115bc573d6000803e3d6000fd5b505050506040513d601f19601f820116820180604052508101906115e09190615310565b915091507fb91029edb2e47843f9ff141ad9adb1a06a28307cb8d49876a7fced9e24ece38c8b8b603b858560405161161c959493929190615334565b60405180910390a150505061162f61323c565b5050505050505050565b603e818154811061164957600080fd5b906000526020600020016000915090508054610e8b90614cde565b61166c612f98565b601254158061167d57506000601354115b156116ad576009546001600160a01b031633146116ad57604051633415a7ed60e21b815260040160405180910390fd5b6116b561351e565b6116bd61323c565b565b6116c7612f98565b6002546038546040516304a5d7c560e01b81523360048201526001600160a01b0391821660248201529116906304a5d7c590604401602060405180830381865afa158015611719573d6000803e3d6000fd5b505050506040513d601f19601f8201168201806040525081019061173d919061536f565b61175a57604051630955f84760e31b815260040160405180910390fd5b604081013561177c57604051631d08bf9f60e31b815260040160405180910390fd5b600b60335460ff16600b8111156117955761179561479b565b146117b357604051636a36b1a560e01b815260040160405180910390fd5b60118054429091556033805460ff191660011790556117d0613381565b6040805160c08101825260008082526020808301829052828401829052606083018290526080830182905260a0909201819052601d819055601e819055601f805463ffffffff19169055808255602181905560228190558251918201909252908152603a9061183f90826151dd565b5060408051602081019091526000815260319061185c90826151dd565b5060408051602081019091526000815260329061187990826151dd565b50600080546039546040516303f0efcd60e11b8152600481019190915260248101929092526001600160a01b0316906307e1df9a90604401600060405180830381600087803b1580156118cb57600080fd5b505af11580156118df573d6000803e3d6000fd5b50506000603955506118f1905061341b565b61193685858080601f01602080910402602001604051908101604052809392919081815260200183838082843760009201919091525050600f5487925086915061307e565b6040805190830135907fa7ab7cf9b27c0c1d6f3d181a70c03758aef08ba63ce3c83d712185fd6c9b298f90600090a26011556033805460ff19166004179055610e7861323c565b7ff0c57e16840df040f15088dc2f81fe391c3923bec73e23a9662efc9c229c6a008054600160401b810460ff1615906001600160401b03166000811580156119c25750825b90506000826001600160401b031660011480156119de5750303b155b9050811580156119ec575080155b15611a0a5760405163f92ee8a960e01b815260040160405180910390fd5b845467ffffffffffffffff191660011785558315611a3457845460ff60401b1916600160401b1785555b8735602089013511611a5957604051637c68874160e11b815260040160405180910390fd5b6001600160a01b038716611a7f576040516221eeab60e81b815260040160405180910390fd5b8560ff16600003611aa35760405163a9146eeb60e01b815260040160405180910390fd5b611aac89613622565b611ab4613633565b611ac160208d018d614bbd565b600080546001600160a01b0319166001600160a01b0392909216919091179055611af160408d0160208e01614bbd565b600180546001600160a01b0319166001600160a01b0392909216919091179055611b2160608d0160408e01614bbd565b600280546001600160a01b0319166001600160a01b0392909216919091179055611b5160808d0160608e01614bbd565b603c80546001600160a01b0319166001600160a01b0392909216919091179055611b8160a08d0160808e01614bbd565b603d80546001600160a01b03199081166001600160a01b03938416179091558c356015556020808e013560165560408e013560175560608e013560375560148d90558a356034558a0135603555600980549091169189169190911790556047805460ff191660ff88161790558315611c3357845460ff60401b19168555604051600181527fc7f505b2f371ae2175ee4913f4499e1f2633a7b5936321eed1cdaeb6115181d29060200160405180910390a15b505050505050505050505050565b60015460405163270a77a360e01b81526060916001600160a01b03169063270a77a390611c77906032908790879060040161538c565b600060405180830381865afa158015611c94573d6000803e3d6000fd5b505050506040513d6000823e601f3d908101601f19168201604052611cbc9190810190614caa565b90505b92915050565b600154601e546039546040516383c6ec9f60e01b81526060936001600160a01b0316926383c6ec9f92610dfb92603a906004016153b2565b60058054610e8b90614cde565b611d12612f98565b600954611d27906001600160a01b0316612fe2565b611d2f613643565b4210611d4e57604051632eaa785b60e01b815260040160405180910390fd5b6033805460ff19166007179055600080546001600160a01b0316633c3ede3685611d766136a8565b601e546040516001600160e01b031960e086901b168152611da093929190899089906004016154bd565b602060405180830381865afa158015611dbd573d6000803e3d6000fd5b505050506040513d601f19601f82011682018060405250810190611de19190615508565b4260265563ffffffff8416602755602381905560408084013560245560335490519192507f09500c0538cf810aa5932e18765c3383ff1f747afc5c6b72e6ae1bc9737c2db991611e3891849160ff90911690615521565b60405180910390a1611e4861351e565b50611e5161323c565b505050565b60328054610e8b90614cde565b600d8054610e8b90614cde565b603b8054610e8b90614cde565b60458054610e8b90614cde565b611e92612f98565b6003546001600160a01b03163314611ebd57604051630ac9915d60e01b815260040160405180910390fd5b600460335460ff16600b811115611ed657611ed661479b565b14611ef457604051636a36b1a560e01b815260040160405180910390fd5b601b544210611f1657604051637c18a17760e11b815260040160405180910390fd5b60025460385460085460405163e1dd5f5560e01b81526001600160a01b03928316600482015260248101919091526203f4806044820152600092919091169063e1dd5f5590606401602060405180830381865afa158015611f7b573d6000803e3d6000fd5b505050506040513d601f19601f82011682018060405250810190611f9f919061536f565b905080611fbf5760405163317bb4f360e01b815260040160405180910390fd5b600154600f54600754600654604051633a35338b60e11b8152600481019390935260248301919091526001600160a01b0390811660448301529091169063746a671690606401602060405180830381865afa158015612022573d6000803e3d6000fd5b505050506040513d601f19601f820116820180604052508101906120469190615508565b6043819055612057906103e861554b565b6043819055600f54612069919061554b565b600f55612074613783565b6033805460ff1916600b179055426042556041612092858783614efd565b5060406120a0838583614efd565b506003546043546040519081526001600160a01b03909116907f961677491955ee3163cc60b7a26aeadb28bfdac6da2db92bce8b05ee866353239060200160405180910390a26000546040516307006d5b60e41b81526001600160a01b0390911690637006d5b09061211e903090899089908990899060040161555e565b600060405180830381600087803b15801561213857600080fd5b505af115801561214c573d6000803e3d6000fd5b5050505050610e7861323c565b60048054610e8b90614cde565b6060610e4061390b565b60025460395460405163d531b60f60e01b815260048101919091526000916001600160a01b03169063d531b60f90602401602060405180830381865afa1580156121be573d6000803e3d6000fd5b505050506040513d601f19601f82011682018060405250810190610e409190615596565b6001546040516305c5a52560e31b81526060916001600160a01b031690632e2d2928906122199088908890889088906004016155b7565b600060405180830381865afa158015612236573d6000803e3d6000fd5b505050506040513d6000823e601f3d908101601f1916820160405261225e9190810190614caa565b95945050505050565b61226f613941565b6116bd600061399c565b6001546060906001600160a01b0316632fe32c0861229561390b565b85856040518463ffffffff1660e01b8152600401611c77939291906155e9565b60368054610e8b90614cde565b6122ca612f98565b600080546039546040516312a87c6960e01b81526001600160a01b03909216916312a87c69916123009160040190815260200190565b6040805180830381865afa15801561231c573d6000803e3d6000fd5b505050506040513d601f19601f820116820180604052508101906123409190615310565b915050801561238557600360335460ff16600b8111156123625761236261479b565b1461238057604051636a36b1a560e01b815260040160405180910390fd5b6123bc565b600260335460ff16600b81111561239e5761239e61479b565b146123bc57604051636a36b1a560e01b815260040160405180910390fd5b601a5442106123de57604051632eaa785b60e01b815260040160405180910390fd5b60006002836040516123f091906155fc565b602060405180830381855afa15801561240d573d6000803e3d6000fd5b5050506040513d601f19601f820116820180604052508101906124309190615508565b9050602f54811461245457604051630cb4548160e11b815260040160405180910390fd5b603061246084826151dd565b50426012556033805460ff191660041790556040805160e081018252606091810182905260008282018190526080820181905260a082019290925260c0810191909152601e548152601f5463ffffffff166020820152600d80546124c390614cde565b80601f01602080910402602001604051908101604052809291908181526020018280546124ef90614cde565b801561253c5780601f106125115761010080835404028352916020019161253c565b820191906000526020600020905b81548152906001019060200180831161251f57829003601f168201915b50505050604080840192909252506022546001600160401b031660608301526038546001600160a01b03908116608084015281516020810183526000815260a084015260345463ffffffff1660c08401526001549151639984ffd760e01b8152911690639984ffd7906125b8908490603e908990600401615618565b600060405180830381600087803b1580156125d257600080fd5b505af11580156125e6573d6000803e3d6000fd5b505050506125f2613a0d565b6040517fef5b63c9066d00c840194ed045ca94a0b7f736f9b7439f7eb2d90efe7a482ccc90600090a150505061262661323c565b50565b6060610e40613a7a565b600154601e546040516303466e0560e41b815260048101919091526060916001600160a01b031690633466e05090602401610dfb565b612671612f98565b6001600160a01b0387161580612685575085155b8061268e575084155b80612697575080155b156126b557604051630e52390960e41b815260040160405180910390fd5b6006546001600160a01b0316156126df57604051631ac1050b60e21b815260040160405180910390fd5b60008054604051635903513760e11b8152600481018890526001600160a01b038a81166024830152604482018a90528392839291169063b206a26e90606401606060405180830381865afa15801561273b573d6000803e3d6000fd5b505050506040513d601f19601f8201168201806040525081019061275f9190615651565b600054604051630a60aebf60e11b81526004810183905293965091945092506001600160a01b0316906314c15d7e9060240160006040518083038186803b1580156127a957600080fd5b505afa1580156127bd573d6000803e3d6000fd5b5050600680546001600160a01b0319166001600160a01b038e169081179091556002805460ff60a01b1916600160a01b1790556127ff9250905033308c61331a565b60078990556008889055600c612816858783614efd565b50600d612824878983614efd565b50600a839055600b829055600f819055426010556008546034546128489190613af4565b60345560085460355461285b9190613af4565b6035556033805460ff19169055604080518281526001600160a01b038c1660208201529081018a90526001907f4cca9f8b5bfe3be61cada803dab2ecaf9621004497e0e4f8542fd72332fa148d9060600160405180910390a25050506128bf61323c565b50505050505050565b6128d0612f98565b6003546001600160a01b031633146128fb57604051630ac9915d60e01b815260040160405180910390fd5b60395461291b57604051634a44555360e11b815260040160405180910390fd5b600080612926613b57565b915091508161294857604051631078179560e21b815260040160405180910390fd5b600054603954604051631c269c0f60e21b81526001600160a01b039092169163709a703c9161297e91859060369060040161567f565b600060405180830381600087803b15801561299857600080fd5b505af11580156129ac573d6000803e3d6000fd5b50506033805460ff1916600917905550603a90506129ca84826151dd565b506039546003546040517f6b1ebb326a67837db53283e32a5f1fbc720ceb52a49ebd91118c4bdf5aef688191612a0d9187916001600160a01b03169086906156a9565b60405180910390a2505061262661323c565b60408054610e8b90614cde565b6000612a36612a60565b600b54610e4091906156dc565b600080612a57612a51613c11565b84613c64565b91509150915091565b6000806064600b54601e612a7491906156ef565b611cbf9190615706565b612a86612f98565b600354612a9b906001600160a01b0316612fe2565b600260335460ff16600b811115612ab457612ab461479b565b14612ad257604051636a36b1a560e01b815260040160405180910390fd5b6019544210612af457604051632eaa785b60e01b815260040160405180910390fd5b600080546039546040516338bcc40760e21b81526001600160a01b039092169163e2f3101c91612b30918a918a918a908a908a90600401615728565b6020604051808303816000875af1158015612b4f573d6000803e3d6000fd5b505050506040513d601f19601f82011682018060405250810190612b739190615508565b604084810135602a55602982905542602c5563ffffffff868116602d55602b805491861663ffffffff199092169190911790556033805460ff19166003179055519091507fe8e67090b795872c2f2eb03b7b4d7649ed274119542d217f30abcf95349d693d90600090a150612be661323c565b5050505050565b60318054610e8b90614cde565b60418054610e8b90614cde565b6001546040516351236d9560e11b81526060916001600160a01b03169063a246db2a906122199088908890889088906004016155b7565b612c46613941565b6001600160a01b038116612c7557604051631e4fbdf760e01b8152600060048201526024015b60405180910390fd5b6126268161399c565b600154601e54604051633648e0f960e11b815260048101919091526060916001600160a01b031690636c91c1f290602401610dfb565b612cbc612f98565b6000839003612cde576040516392708cd560e01b815260040160405180910390fd5b6000819003612d0057604051638baa579f60e01b815260040160405180910390fd5b6003546001600160a01b03163314612d2b57604051630ac9915d60e01b815260040160405180910390fd5b600460335460ff16600b811115612d4457612d4461479b565b14612d6257604051636a36b1a560e01b815260040160405180910390fd5b601b544210612d8457604051632eaa785b60e01b815260040160405180910390fd5b6000612d8e613a7a565b9050612dd38186868080601f0160208091040260200160405190810160405280939291908181526020018383808284376000920191909152509293925050613d2f9050565b612df057604051634a44555360e11b815260040160405180910390fd5b426013556033805460ff19166005179055612e0a336132fd565b6001546040516303a61e0160e31b81526001600160a01b0390911690631d30f00890612e409088908890889088906004016155b7565b600060405180830381865afa158015612e5d573d6000803e3d6000fd5b505050506040513d6000823e601f3d908101601f19168201604052612e859190810190614caa565b603290612e9290826151dd565b506031612ea0838583614efd565b5060005460095460405163afa2943b60e01b81526001600160a01b039283169263afa2943b92612ee3923092909116908a908a906036908b908b90600401615778565b600060405180830381600087803b158015612efd57600080fd5b505af1158015612f11573d6000803e3d6000fd5b5050600b546007546040517f6d35bc2de41396ad0cbb7da31c6830eeafb04da7878d362d324c6ba15233ba989450612f51935089908990899089906157da565b60405180910390a150610e7861323c565b6001546040516388d4eea960e01b81526060916001600160a01b0316906388d4eea990611c77906032908790879060040161538c565b7f9b779b17422d0df92223018b32b4d1fa46e071723d6817e2486d003becc55f00805460011901612fdc57604051633ee5aeb560e01b815260040160405180910390fd5b60029055565b6001600160a01b0381163303612ff55750565b600254604051632a49bf6f60e21b81523360048201526001600160a01b039091169063a926fdbc90602401602060405180830381865afa15801561303d573d6000803e3d6000fd5b505050506040513d601f19601f82011682018060405250810190613061919061536f565b61262657604051639d7b369d60e01b815260040160405180910390fd5b600160335460ff16600b8111156130975761309761479b565b146130b557604051636a36b1a560e01b815260040160405180910390fd5b60195442106130d757604051632eaa785b60e01b815260040160405180910390fd5b600154603f5460405163ba7ecf9560e01b81526000926001600160a01b03169163ba7ecf959161311191899187908a908a9060040161580d565b6040805180830381865afa15801561312d573d6000803e3d6000fd5b505050506040513d601f19601f820116820180604052508101906131519190615310565b6022919091556033805460ff191660021790554260205563ffffffff851660215590506131846000604085013583613d59565b600054601e54604051633326ff0d60e11b81523060048201526024810191909152604481018390526001600160a01b039091169063664dfe1a90606401600060405180830381600087803b1580156131db57600080fd5b505af11580156131ef573d6000803e3d6000fd5b50506022546033546040517f5739b04fe1a57fa18d64b66dc2dfeedf3f42e80b1f6513a1abc0254fee2b44d1945061322d935060ff90911690615521565b60405180910390a15050505050565b60017f9b779b17422d0df92223018b32b4d1fa46e071723d6817e2486d003becc55f0055565b601754601b54600091610e409161554b565b6040805160e081018252606060a08201818152600060c08401908152601e548452601f5463ffffffff908116602080870191909152858701989098526022546001600160401b0316938501939093526038546001600160a01b03166080850152603f54855180890191909152855180820390980188528501909452949094529190921690915290565b612626813061330a613f5a565b6006546001600160a01b03169291905b6040516001600160a01b038481166024830152838116604483015260648201839052610e789186918216906323b872dd906084015b604051602081830303815290604052915060e01b6020820180516001600160e01b038381831617835250505050613f6c565b613389613c11565b601890815560115460085490916133a091906156ef565b6133ac90610e106156ef565b6133b6919061554b565b601b8190556019819055601a8190556017546133d19161554b565b601c81905560175460185490916133e7916156dc565b10156116bd5760405162461bcd60e51b815260206004820152600360248201526244617960e81b6044820152606401612c6c565b600054603854600f54601854600954600354604051620b0bbf60ea1b81526001600160a01b039586166004820152602481019490945260448401929092528316606483015282166084820152911690632c2efc0090349060a40160006040518083038185885af1158015613493573d6000803e3d6000fd5b50505050506040513d6000823e601f3d908101601f191682016040526134bc919081019061584a565b60396000603b6134cc84826151dd565b50509190915550603954600354604080516001600160a01b039092168252600060208301527fd0f0ccc77cd8661c1dd0e4ff6204a2741fa3947f600109bd88f777c6c0afeaa7910160405180910390a2565b600a60335460ff16600b8111156135375761353761479b565b0361355557604051639008e5eb60e01b815260040160405180910390fd5b61355d613fcf565b61357a57604051630552dd2d60e21b815260040160405180910390fd5b6000546039546040516355f401af60e01b81526001600160a01b03909216916355f401af916135af9160040190815260200190565b600060405180830381600087803b1580156135c957600080fd5b505af11580156135dd573d6000803e3d6000fd5b50506033805460ff1916600a179055506135f790506141a7565b6040517f2fec94b9646181c186efa814578384c5b668c18e19a11094e5bcf60f7cc75e0190600090a1565b61362a61429b565b612626816142e4565b61363b61429b565b6116bd6142ec565b6000600560335460ff16600b81111561365e5761365e61479b565b0361366a5750601c5490565b600660335460ff16600b8111156136835761368361479b565b0361368f575060001990565b604051636a36b1a560e01b815260040160405180910390fd5b6060600560335460ff16600b8111156136c3576136c361479b565b0361375857600480546136d590614cde565b80601f016020809104026020016040519081016040528092919081815260200182805461370190614cde565b801561374e5780601f106137235761010080835404028352916020019161374e565b820191906000526020600020905b81548152906001019060200180831161373157829003601f168201915b5050505050905090565b600660335460ff16600b8111156137715761377161479b565b0361368f57604580546136d590614cde565b600b5460000361378f57565b60006137996142f4565b90506000600b54826137ab919061554b565b600654604051636eb1769f60e11b81523360048201523060248201529192506000916001600160a01b039091169063dd62ed3e90604401602060405180830381865afa1580156137ff573d6000803e3d6000fd5b505050506040513d601f19601f820116820180604052508101906138239190615508565b9050818110156138465760405163175936bd60e31b815260040160405180910390fd5b60065461385e906001600160a01b031633308561331a565b6000613868612a60565b600b5490915081158015906138875750603c546001600160a01b031615155b156138ba5781600b5461389a91906156dc565b603c546006549192506138ba916001600160a01b0390811691168461430a565b80156138dd576009546006546138dd916001600160a01b0391821691168361430a565b603d546001600160a01b031615612be657603d54600654612be6916001600160a01b0391821691168761430a565b600154601e5460405163afe1549360e01b815260048101919091526060916001600160a01b03169063afe1549390602401610dfb565b336139737f9016d09d72d40fdae2fd8ceac6b6234c7706214fd39c1cd1e609a0528c199300546001600160a01b031690565b6001600160a01b0316146116bd5760405163118cdaa760e01b8152336004820152602401612c6c565b7f9016d09d72d40fdae2fd8ceac6b6234c7706214fd39c1cd1e609a0528c19930080546001600160a01b031981166001600160a01b03848116918217845560405192169182907f8be0079c531659141344cd1fd0a4f28419497f9722a3daafe3b4186f6b6457e090600090a3505050565b6000613a176142f4565b603d549091506001600160a01b031615613a4857603d54600654613a48916001600160a01b0391821691168361430a565b600354600754612626916001600160a01b031690613a679084906156dc565b6006546001600160a01b0316919061430a565b60475460609060ff16600203613abf57600154601e546040516317cc08f160e31b81526001600160a01b039092169163be60478891610dfb9160040190815260200190565b600154601e54604051630f2911d360e31b81526001600160a01b03909216916379488e9891610dfb9160040190815260200190565b60008061020083613b0786610e106156ef565b613b129060186156ef565b613b1c919061554b565b613b269190615706565b9050620100008110613b4b5760405163dbf20b4b60e01b815260040160405180910390fd5b62400000179392505050565b600080600260335460ff16600b811115613b7357613b7361479b565b03613b94575050601a546003544291909111916001600160a01b0390911690565b600360335460ff16600b811115613bad57613bad61479b565b03613bce575050601a546003544291909111916001600160a01b0390911690565b600560335460ff16600b811115613be757613be761479b565b03613c08575050601c546003544291909111916001600160a01b0390911690565b50600091829150565b601154600090819015613c4257601154613c2c60345461433b565b613c36919061554b565b611cbf90610ed861554b565b42613c4e60345461433b565b613c58919061554b565b611cbf9061138861554b565b603954600090819015613cef576000546039546040516312a87c6960e01b81526001600160a01b03909216916312a87c6991613ca69160040190815260200190565b6040805180830381865afa158015613cc2573d6000803e3d6000fd5b505050506040513d601f19601f82011682018060405250810190613ce69190615310565b91509150613d28565b600254604051630a71571960e41b8152600481018690526001600160a01b0385811660248301529091169063a715719090604401613ca6565b9250929050565b60008151835114613d4257506000611cbf565b508151602091820181902091909201919091201490565b601d839055601e829055601f805463ffffffff191663ffffffff831617905560048054600091613e1291613d8c90614cde565b80601f0160208091040260200160405190810160405280929190818152602001828054613db890614cde565b8015613e055780601f10613dda57610100808354040283529160200191613e05565b820191906000526020600020905b815481529060010190602001808311613de857829003601f168201915b5050505050603454613274565b83815263ffffffff8316602082015260015460405163f3e13c4560e01b81529192506001600160a01b03169063f3e13c4590613e55908490603e90600401615890565b600060405180830381600087803b158015613e6f57600080fd5b505af1158015613e83573d6000803e3d6000fd5b5050505060006040518060800160405280601d600101548152602001836020015163ffffffff168152602001603f54604051602001613ec491815260200190565b60408051808303601f1901815291815290825260608501516001600160401b031660209092019190915260005460395491516320fe595760e21b81529293506001600160a01b0316916383f9655c91613f219185906004016158b5565b600060405180830381600087803b158015613f3b57600080fd5b505af1158015613f4f573d6000803e3d6000fd5b505050505050505050565b6000600b54600754610e40919061554b565b6000613f816001600160a01b0384168361437a565b90508051600014158015613fa6575080806020019051810190613fa4919061536f565b155b15611e5157604051635274afe760e01b81526001600160a01b0384166004820152602401612c6c565b6000600160335460ff16600b811115613fea57613fea61479b565b03613ff85750601954421190565b600260335460ff16600b8111156140115761401161479b565b0361401f5750601a54421190565b600360335460ff16600b8111156140385761403861479b565b036140465750601a54421190565b600760335460ff16600b81111561405f5761405f61479b565b0361406a5750600190565b600460335460ff16600b8111156140835761408361479b565b036140a45760475460ff1660020361409b5750600090565b50601b54421190565b600960335460ff16600b8111156140bd576140bd61479b565b0361413857600254603954604051637eda4dfb60e11b81526001600160a01b039092169163fdb49bf6916140f79160040190815260200190565b602060405180830381865afa158015614114573d6000803e3d6000fd5b505050506040513d601f19601f82011682018060405250810190610e40919061536f565b600060335460ff16600b8111156141515761415161479b565b036141a1576002546003546009546040516391516f3b60e01b81526001600160a01b03808516946391516f3b946140f794600160a01b90920460ff16933393918216929190911690600401615907565b50600090565b6006546040516370a0823160e01b81523060048201526000916001600160a01b0316906370a0823190602401602060405180830381865afa1580156141f0573d6000803e3d6000fd5b505050506040513d601f19601f820116820180604052508101906142149190615508565b9050806000036142215750565b6000600b54600754614233919061554b565b821061427e57603c546001600160a01b03161561427e57614252612a60565b905061425e81836156dc565b603c5460065491935061427e916001600160a01b0390811691168361430a565b600954600654611167916001600160a01b0391821691168461430a565b7ff0c57e16840df040f15088dc2f81fe391c3923bec73e23a9662efc9c229c6a0054600160401b900460ff166116bd57604051631afcd79f60e31b815260040160405180910390fd5b612c4661429b565b61323c61429b565b600080618e94600854600754612a7491906156ef565b6040516001600160a01b03838116602483015260448201839052611e5191859182169063a9059cbb9060640161334f565b60006240000082811682036143635760405163029e39eb60e01b815260040160405180910390fd5b61437361ffff84166102006156ef565b9392505050565b6060611cbc8383600084600080856001600160a01b031684866040516143a091906155fc565b60006040518083038185875af1925050503d80600081146143dd576040519150601f19603f3d011682016040523d82523d6000602084013e6143e2565b606091505b50915091506143f28683836143fc565b9695505050505050565b6060826144115761440c82614458565b614373565b815115801561442857506001600160a01b0384163b155b1561445157604051639996b31560e01b81526001600160a01b0385166004820152602401612c6c565b5080614373565b8051156144685780518082602001fd5b604051630a12f52160e11b815260040160405180910390fd5b8280548282559060005260206000209081019282156144c7579160200282015b828111156144c757825182906144b790826151dd565b50916020019190600101906144a1565b506144d39291506144d7565b5090565b808211156144d35760006144eb82826144f4565b506001016144d7565b50805461450090614cde565b6000825580601f10614510575050565b601f01602090049060005260206000209081019061262691905b808211156144d3576000815560010161452a565b60005b83811015614559578181015183820152602001614541565b50506000910152565b6000815180845261457a81602086016020860161453e565b601f01601f19169290920160200192915050565b602081526000611cbc6020830184614562565b634e487b7160e01b600052604160045260246000fd5b604051601f8201601f191681016001600160401b03811182821017156145df576145df6145a1565b604052919050565b60006001600160401b03821115614600576146006145a1565b50601f01601f191660200190565b600082601f83011261461f57600080fd5b813561463261462d826145e7565b6145b7565b81815284602083860101111561464757600080fd5b816020850160208301376000918101602001919091529392505050565b803563ffffffff8116811461467857600080fd5b919050565b60006080828403121561468f57600080fd5b50919050565b600080600080608085870312156146ab57600080fd5b84356001600160401b03808211156146c257600080fd5b6146ce8883890161460e565b95506146dc60208801614664565b945060408701359150808211156146f257600080fd5b506146ff8782880161467d565b92505061470e60608601614664565b905092959194509250565b60008083601f84011261472b57600080fd5b5081356001600160401b0381111561474257600080fd5b602083019150836020828501011115613d2857600080fd5b6000806020838503121561476d57600080fd5b82356001600160401b0381111561478357600080fd5b61478f85828601614719565b90969095509350505050565b634e487b7160e01b600052602160045260246000fd5b600c81106147c1576147c161479b565b9052565b60208101611cbf82846147b1565b80356001600160a01b038116811461467857600080fd5b60008060008060008060008060a0898b03121561480657600080fd5b88356001600160401b038082111561481d57600080fd5b6148298c838d01614719565b909a50985060208b013591508082111561484257600080fd5b61484e8c838d01614719565b909850965060408b0135955086915061486960608c016147d3565b945060808b013591508082111561487f57600080fd5b5061488c8b828c01614719565b999c989b5096995094979396929594505050565b6000602082840312156148b257600080fd5b5035919050565b600080600080606085870312156148cf57600080fd5b84356001600160401b03808211156148e657600080fd5b6148f288838901614719565b909650945084915061490660208801614664565b9350604087013591508082111561491c57600080fd5b506149298782880161467d565b91505092959194509250565b60008060008060008060008789036101e081121561495257600080fd5b60a081121561496057600080fd5b8897506149708a60a08b0161467d565b965061012089013595506149876101408a016147d3565b9450604061015f198201121561499c57600080fd5b50610160880192506149b16101a089016147d3565b91506101c088013560ff811681146149c857600080fd5b8091505092959891949750929550565b6000806000606084860312156149ed57600080fd5b83356001600160401b0380821115614a0457600080fd5b614a108783880161460e565b9450614a1e60208701614664565b93506040860135915080821115614a3457600080fd5b50614a418682870161467d565b9150509250925092565b60008060008060408587031215614a6157600080fd5b84356001600160401b0380821115614a7857600080fd5b614a8488838901614719565b90965094506020870135915080821115614a9d57600080fd5b50614aaa87828801614719565b95989497509550505050565b6020810160078310614aca57614aca61479b565b91905290565b600281106147c1576147c161479b565b60208101611cbf8284614ad0565b600060208284031215614b0057600080fd5b81356001600160401b03811115614b1657600080fd5b614b228482850161460e565b949350505050565b600080600080600080600060a0888a031215614b4557600080fd5b614b4e886147d3565b9650602088013595506040880135945060608801356001600160401b0380821115614b7857600080fd5b614b848b838c01614719565b909650945060808a0135915080821115614b9d57600080fd5b50614baa8a828b01614719565b989b979a50959850939692959293505050565b600060208284031215614bcf57600080fd5b611cbc826147d3565b600080600080600060808688031215614bf057600080fd5b85356001600160401b0380821115614c0757600080fd5b614c1389838a01614719565b9097509550859150614c2760208901614664565b94506040880135915080821115614c3d57600080fd5b50614c4a8882890161467d565b925050614c5960608701614664565b90509295509295909350565b600082601f830112614c7657600080fd5b8151614c8461462d826145e7565b818152846020838601011115614c9957600080fd5b614b2282602083016020870161453e565b600060208284031215614cbc57600080fd5b81516001600160401b03811115614cd257600080fd5b614b2284828501614c65565b600181811c90821680614cf257607f821691505b60208210810361468f57634e487b7160e01b600052602260045260246000fd5b805182526000602082015163ffffffff80821660208601526040840151915060e06040860152614d4560e0860183614562565b91506001600160401b03606085015116606086015260018060a01b03608085015116608086015260a084015185830360a0870152614d838382614562565b9250508060c08501511660c0860152508091505092915050565b60008154614daa81614cde565b808552602060018381168015614dc75760018114614de157614e0f565b60ff1985168884015283151560051b880183019550614e0f565b866000528260002060005b85811015614e075781548a8201860152908301908401614dec565b890184019650505b505050505092915050565b600082825480855260208086019550808260051b840101856000528160002060005b84811015614e6957858303601f19018952614e578383614d9d565b98840198925060019182019101614e3c565b5090979650505050505050565b606081526000614e896060830186614d12565b8281036020840152614e9b8186614e1a565b905082810360408401526143f28185614d9d565b601f821115611e5157600081815260208120601f850160051c81016020861015614ed65750805b601f850160051c820191505b81811015614ef557828155600101614ee2565b505050505050565b6001600160401b03831115614f1457614f146145a1565b614f2883614f228354614cde565b83614eaf565b6000601f841160018114614f5c5760008515614f445750838201355b600019600387901b1c1916600186901b178355612be6565b600083815260209020601f19861690835b82811015614f8d5786850135825560209485019460019092019101614f6d565b5086821015614faa5760001960f88860031b161c19848701351681555b505060018560011b0183555050505050565b81835281816020850137506000828201602090810191909152601f909101601f19169091010190565b6001600160a01b038681168252851660208201526080604082018190526000906150129083018587614fbc565b82810360608401526150248185614d9d565b98975050505050505050565b602081526000614b22602083018486614fbc565b6080815260006150576080830187614d9d565b82810360208401526150698187614562565b604084019590955250506060015292915050565b6000602080838503121561509057600080fd5b82516001600160401b03808211156150a757600080fd5b818501915085601f8301126150bb57600080fd5b8151818111156150cd576150cd6145a1565b8060051b6150dc8582016145b7565b91825283810185019185810190898411156150f657600080fd5b86860192505b83831015615132578251858111156151145760008081fd5b6151228b89838a0101614c65565b83525091860191908601906150fc565b9998505050505050505050565b634e487b7160e01b600052603260045260246000fd5b6000815461516281614cde565b6001828116801561517a576001811461518f576151be565b60ff19841687528215158302870194506151be565b8560005260208060002060005b858110156151b55781548a82015290840190820161519c565b50505082870194505b5050505092915050565b6000614b226151d78386615155565b84615155565b81516001600160401b038111156151f6576151f66145a1565b61520a816152048454614cde565b84614eaf565b602080601f83116001811461523f57600084156152275750858301515b600019600386901b1c1916600185901b178555614ef5565b600085815260208120601f198616915b8281101561526e5788860151825594840194600190910190840161524f565b508582101561528c5787850151600019600388901b60f8161c191681555b5050505050600190811b01905550565b602081526000611cbc6020830184614e1a565b801515811461262657600080fd5b6000806000606084860312156152d257600080fd5b8351925060208401516152e4816152af565b80925050604084015190509250925092565b83815260406020820152600061225e604083018486614fbc565b6000806040838503121561532357600080fd5b505080516020909101519092909150565b608081526000615348608083018789614fbc565b828103602084015261535a8187614d9d565b60408401959095525050606001529392505050565b60006020828403121561538157600080fd5b8151614373816152af565b60408152600061539f6040830186614d9d565b82810360208401526143f2818587614fbc565b83815282602082015260606040820152600061225e6060830184614d9d565b6000808335601e198436030181126153e857600080fd5b83016020810192503590506001600160401b0381111561540757600080fd5b8060051b3603821315613d2857600080fd5b600061542582836153d1565b608080865285018190526001600160fb1b0381111561544357600080fd5b60051b808260a087013780850191505060a08101602080850135818701526040850135604087015261547860608601866153d1565b87850360a00160608901529283905292600092849160c0015b8185101561502457853592506154a6836152af565b821515815294830194600194909401938301615491565b60a0815260006154d060a0830188614562565b82810360208401526154e28188614562565b905085604084015263ffffffff8516606084015282810360808401526150248185615419565b60006020828403121561551a57600080fd5b5051919050565b8281526040810161437360208301846147b1565b634e487b7160e01b600052601160045260246000fd5b80820180821115611cbf57611cbf615535565b6001600160a01b03861681526060602082018190526000906155839083018688614fbc565b8281036040840152615024818587614fbc565b6000602082840312156155a857600080fd5b81516007811061437357600080fd5b6040815260006155cb604083018688614fbc565b82810360208401526155de818587614fbc565b979650505050505050565b60408152600061539f6040830186614562565b6000825161560e81846020870161453e565b9190910192915050565b60608152600061562b6060830186614d12565b828103602084015261563d8186614e1a565b905082810360408401526143f28185614562565b60008060006060848603121561566657600080fd5b8351925060208401519150604084015190509250925092565b8381526001600160a01b038316602082015260606040820181905260009061225e90830184614d9d565b6060815260006156bc6060830186614562565b6001600160a01b0394851660208401529290931660409091015292915050565b81810381811115611cbf57611cbf615535565b8082028115828204841417611cbf57611cbf615535565b60008261572357634e487b7160e01b600052601260045260246000fd5b500490565b60a08152600061573c60a08301888a614fbc565b86602084015263ffffffff808716604085015283820360608501526157618287615419565b925080851660808501525050979650505050505050565b6001600160a01b0388811682528716602082015260a0604082018190526000906157a59083018789614fbc565b82810360608401526157b78187614d9d565b905082810360808401526157cc818587614fbc565b9a9950505050505050505050565b8681528560208201526080604082015260006157fa608083018688614fbc565b8281036060840152615132818587614fbc565b60a08152600061582060a0830188614562565b86602084015285604084015263ffffffff8516606084015282810360808401526150248185615419565b6000806040838503121561585d57600080fd5b8251915060208301516001600160401b0381111561587a57600080fd5b61588685828601614c65565b9150509250929050565b6040815260006158a36040830185614d12565b828103602084015261225e8185614e1a565b828152604060208201528151604082015263ffffffff6020830151166060820152600060408301516080808401526158f060c0840182614562565b9050606084015160a0840152809150509392505050565b608081016159158287614ad0565b6001600160a01b0394851660208301529284166040820152921660609092019190915291905056fea26469706673582212207ed13bbbe656ac35a405dc11673767f155757bcd41bca86f8218f02fa7f7b97364736f6c63430008140033",
  "linkReferences": {},
  "deployedLinkReferences": {}
}