{
  "_format": "hh-sol-artifact-1",
  "contractName": "Order",
  "sourceName": "contracts/order/Order.sol",
  "abi": [
    {
      "inputs": [],
      "stateMutability": "nonpayable",
      "type": "constructor"
    },
    {
      "inputs": [
        {
          "internalType": "address",
          "name": "target",
          "type": "address"
        }
      ],
      "name": "AddressEmptyCode",
      "type": "error"
    },
    {
      "inputs": [
        {
          "internalType": "address",
          "name": "account",
          "type": "address"
        }
      ],
      "name": "AddressInsufficientBalance",
      "type": "error"
    },
    {
      "inputs": [],
      "name": "FailedInnerCall",
      "type": "error"
    },
    {
      "inputs": [],
      "name": "InvalidInitialization",
      "type": "error"
    },
    {
      "inputs": [],
      "name": "NotInitializing",
      "type": "error"
    },
    {
      "inputs": [
        {
          "internalType": "address",
          "name": "owner",
          "type": "address"
        }
      ],
      "name": "OwnableInvalidOwner",
      "type": "error"
    },
    {
      "inputs": [
        {
          "internalType": "address",
          "name": "account",
          "type": "address"
        }
      ],
      "name": "OwnableUnauthorizedAccount",
      "type": "error"
    },
    {
      "inputs": [],
      "name": "ReentrancyGuardReentrantCall",
      "type": "error"
    },
    {
      "inputs": [
        {
          "internalType": "address",
          "name": "token",
          "type": "address"
        }
      ],
      "name": "SafeERC20FailedOperation",
      "type": "error"
    },
    {
      "anonymous": false,
      "inputs": [
        {
          "indexed": true,
          "internalType": "bytes32",
          "name": "txId",
          "type": "bytes32"
        },
        {
          "indexed": false,
          "internalType": "address",
          "name": "compensationReceiver",
          "type": "address"
        },
        {
          "indexed": false,
          "internalType": "address",
          "name": "timeOutCompensationReceiver",
          "type": "address"
        }
      ],
      "name": "ArbitrationRegistered",
      "type": "event"
    },
    {
      "anonymous": false,
      "inputs": [
        {
          "indexed": true,
          "internalType": "bytes32",
          "name": "txId",
          "type": "bytes32"
        },
        {
          "indexed": false,
          "internalType": "bytes",
          "name": "signature",
          "type": "bytes"
        },
        {
          "indexed": false,
          "internalType": "address",
          "name": "compensationReceiver",
          "type": "address"
        },
        {
          "indexed": false,
          "internalType": "address",
          "name": "timeOutCompensationReceiver",
          "type": "address"
        }
      ],
      "name": "ArbitrationRequested",
      "type": "event"
    },
    {
      "anonymous": false,
      "inputs": [],
      "name": "ArbitratorBTCTransferManuallyConfirmed",
      "type": "event"
    },
    {
      "anonymous": false,
      "inputs": [],
      "name": "BorrowSuccessful",
      "type": "event"
    },
    {
      "anonymous": false,
      "inputs": [],
      "name": "BorrowerBTCTransferArbitratorFeeSubmitted",
      "type": "event"
    },
    {
      "anonymous": false,
      "inputs": [
        {
          "indexed": false,
          "internalType": "uint256",
          "name": "acutalAmount",
          "type": "uint256"
        },
        {
          "indexed": false,
          "internalType": "enum OrderStatus",
          "name": "status",
          "type": "uint8"
        }
      ],
      "name": "BorrowerBTCTransferProofSubmitted",
      "type": "event"
    },
    {
      "anonymous": false,
      "inputs": [
        {
          "indexed": false,
          "internalType": "uint64",
          "name": "version",
          "type": "uint64"
        }
      ],
      "name": "Initialized",
      "type": "event"
    },
    {
      "anonymous": false,
      "inputs": [],
      "name": "LenderBTCTransferManuallyConfirmed",
      "type": "event"
    },
    {
      "anonymous": false,
      "inputs": [
        {
          "indexed": false,
          "internalType": "bytes32",
          "name": "zkTxHash",
          "type": "bytes32"
        },
        {
          "indexed": false,
          "internalType": "enum OrderStatus",
          "name": "status",
          "type": "uint8"
        }
      ],
      "name": "LenderBTCTransferProofSubmitted",
      "type": "event"
    },
    {
      "anonymous": false,
      "inputs": [],
      "name": "OrderClosed",
      "type": "event"
    },
    {
      "anonymous": false,
      "inputs": [
        {
          "indexed": true,
          "internalType": "enum OrderType",
          "name": "orderType",
          "type": "uint8"
        },
        {
          "indexed": false,
          "internalType": "uint256",
          "name": "collateral",
          "type": "uint256"
        },
        {
          "indexed": false,
          "internalType": "address",
          "name": "token",
          "type": "address"
        },
        {
          "indexed": false,
          "internalType": "uint256",
          "name": "tokenAmount",
          "type": "uint256"
        }
      ],
      "name": "OrderCreated",
      "type": "event"
    },
    {
      "anonymous": false,
      "inputs": [
        {
          "indexed": false,
          "internalType": "string",
          "name": "takerBtcAddress",
          "type": "string"
        },
        {
          "indexed": false,
          "internalType": "string",
          "name": "arbitratorFeeBtcAddress",
          "type": "string"
        },
        {
          "indexed": false,
          "internalType": "uint256",
          "name": "ethFee",
          "type": "uint256"
        },
        {
          "indexed": false,
          "internalType": "uint256",
          "name": "btcFee",
          "type": "uint256"
        }
      ],
      "name": "OrderTaken",
      "type": "event"
    },
    {
      "anonymous": false,
      "inputs": [
        {
          "indexed": true,
          "internalType": "address",
          "name": "previousOwner",
          "type": "address"
        },
        {
          "indexed": true,
          "internalType": "address",
          "name": "newOwner",
          "type": "address"
        }
      ],
      "name": "OwnershipTransferred",
      "type": "event"
    },
    {
      "anonymous": false,
      "inputs": [
        {
          "indexed": false,
          "internalType": "uint256",
          "name": "interest",
          "type": "uint256"
        },
        {
          "indexed": false,
          "internalType": "uint256",
          "name": "principal",
          "type": "uint256"
        },
        {
          "indexed": false,
          "internalType": "bytes",
          "name": "btcTxData",
          "type": "bytes"
        },
        {
          "indexed": false,
          "internalType": "bytes",
          "name": "signature",
          "type": "bytes"
        }
      ],
      "name": "RepaymentMade",
      "type": "event"
    },
    {
      "inputs": [],
      "name": "arbitratorBtcFeeAddress",
      "outputs": [
        {
          "internalType": "string",
          "name": "",
          "type": "string"
        }
      ],
      "stateMutability": "view",
      "type": "function"
    },
    {
      "inputs": [
        {
          "internalType": "bytes",
          "name": "preimage",
          "type": "bytes"
        }
      ],
      "name": "borrow",
      "outputs": [],
      "stateMutability": "nonpayable",
      "type": "function"
    },
    {
      "inputs": [],
      "name": "borrowExpirationTime",
      "outputs": [
        {
          "internalType": "uint256",
          "name": "",
          "type": "uint256"
        }
      ],
      "stateMutability": "view",
      "type": "function"
    },
    {
      "inputs": [],
      "name": "borrowedTime",
      "outputs": [
        {
          "internalType": "uint256",
          "name": "",
          "type": "uint256"
        }
      ],
      "stateMutability": "view",
      "type": "function"
    },
    {
      "inputs": [],
      "name": "borrower",
      "outputs": [
        {
          "internalType": "address",
          "name": "",
          "type": "address"
        }
      ],
      "stateMutability": "view",
      "type": "function"
    },
    {
      "inputs": [],
      "name": "borrowerBtcAddress",
      "outputs": [
        {
          "internalType": "string",
          "name": "",
          "type": "string"
        }
      ],
      "stateMutability": "view",
      "type": "function"
    },
    {
      "inputs": [],
      "name": "borrowerPublicKey",
      "outputs": [
        {
          "internalType": "bytes",
          "name": "",
          "type": "bytes"
        }
      ],
      "stateMutability": "view",
      "type": "function"
    },
    {
      "inputs": [],
      "name": "borrowerRepaidTime",
      "outputs": [
        {
          "internalType": "uint256",
          "name": "",
          "type": "uint256"
        }
      ],
      "stateMutability": "view",
      "type": "function"
    },
    {
      "inputs": [
        {
          "internalType": "bytes",
          "name": "rawTx",
          "type": "bytes"
        },
        {
          "internalType": "bytes",
          "name": "signature",
          "type": "bytes"
        }
      ],
      "name": "borrowerSignLockTimeAUnlockTx",
      "outputs": [
        {
          "internalType": "bytes",
          "name": "",
          "type": "bytes"
        }
      ],
      "stateMutability": "view",
      "type": "function"
    },
    {
      "inputs": [],
      "name": "closeOrder",
      "outputs": [],
      "stateMutability": "nonpayable",
      "type": "function"
    },
    {
      "inputs": [],
      "name": "collateralAmount",
      "outputs": [
        {
          "internalType": "uint256",
          "name": "",
          "type": "uint256"
        }
      ],
      "stateMutability": "view",
      "type": "function"
    },
    {
      "inputs": [
        {
          "internalType": "address",
          "name": "_token",
          "type": "address"
        },
        {
          "internalType": "uint256",
          "name": "_amount",
          "type": "uint256"
        },
        {
          "internalType": "uint256",
          "name": "_duration",
          "type": "uint256"
        },
        {
          "internalType": "string",
          "name": "_btcAddress",
          "type": "string"
        },
        {
          "internalType": "bytes",
          "name": "_publicKey",
          "type": "bytes"
        }
      ],
      "name": "createLendOrder",
      "outputs": [],
      "stateMutability": "nonpayable",
      "type": "function"
    },
    {
      "inputs": [],
      "name": "createTime",
      "outputs": [
        {
          "internalType": "uint256",
          "name": "",
          "type": "uint256"
        }
      ],
      "stateMutability": "view",
      "type": "function"
    },
    {
      "inputs": [],
      "name": "currentSelectedArbitrator",
      "outputs": [
        {
          "internalType": "address",
          "name": "",
          "type": "address"
        }
      ],
      "stateMutability": "view",
      "type": "function"
    },
    {
      "inputs": [],
      "name": "deadLinesData",
      "outputs": [
        {
          "internalType": "uint256",
          "name": "orderDeadLine",
          "type": "uint256"
        },
        {
          "internalType": "uint256",
          "name": "submitPledgeProofDeadLine",
          "type": "uint256"
        },
        {
          "internalType": "uint256",
          "name": "borrowDeadLine",
          "type": "uint256"
        },
        {
          "internalType": "uint256",
          "name": "repayDeadLine",
          "type": "uint256"
        },
        {
          "internalType": "uint256",
          "name": "submitRegularProofDeadLine",
          "type": "uint256"
        }
      ],
      "stateMutability": "view",
      "type": "function"
    },
    {
      "inputs": [],
      "name": "getArbiterUnlockTransferZkpStatus",
      "outputs": [
        {
          "internalType": "enum DataTypes.TransactionStatus",
          "name": "",
          "type": "uint8"
        }
      ],
      "stateMutability": "view",
      "type": "function"
    },
    {
      "inputs": [],
      "name": "getArbitrationBtcNoWitnessTx",
      "outputs": [
        {
          "internalType": "bytes",
          "name": "",
          "type": "bytes"
        }
      ],
      "stateMutability": "view",
      "type": "function"
    },
    {
      "inputs": [],
      "name": "getArbitrationBtcTx",
      "outputs": [
        {
          "internalType": "bytes",
          "name": "",
          "type": "bytes"
        }
      ],
      "stateMutability": "view",
      "type": "function"
    },
    {
      "inputs": [],
      "name": "getLockTimeAUnlockTx",
      "outputs": [
        {
          "internalType": "bytes",
          "name": "",
          "type": "bytes"
        }
      ],
      "stateMutability": "view",
      "type": "function"
    },
    {
      "inputs": [],
      "name": "getLockTimeBUnlockTx",
      "outputs": [
        {
          "internalType": "bytes",
          "name": "",
          "type": "bytes"
        }
      ],
      "stateMutability": "view",
      "type": "function"
    },
    {
      "inputs": [],
      "name": "getRepayBtcNoWitnessTx",
      "outputs": [
        {
          "internalType": "bytes",
          "name": "",
          "type": "bytes"
        }
      ],
      "stateMutability": "view",
      "type": "function"
    },
    {
      "inputs": [
        {
          "internalType": "bytes",
          "name": "lenderSignature",
          "type": "bytes"
        }
      ],
      "name": "getRepayBtcWitnessTx",
      "outputs": [
        {
          "internalType": "bytes",
          "name": "",
          "type": "bytes"
        }
      ],
      "stateMutability": "view",
      "type": "function"
    },
    {
      "inputs": [
        {
          "internalType": "address",
          "name": "selectedArbitrator",
          "type": "address"
        }
      ],
      "name": "getSelectedArbitratorFees",
      "outputs": [
        {
          "internalType": "uint256",
          "name": "ethFee",
          "type": "uint256"
        },
        {
          "internalType": "uint256",
          "name": "btcFee",
          "type": "uint256"
        }
      ],
      "stateMutability": "view",
      "type": "function"
    },
    {
      "inputs": [
        {
          "components": [
            {
              "internalType": "address",
              "name": "loanTools",
              "type": "address"
            },
            {
              "internalType": "address",
              "name": "getLoanTools",
              "type": "address"
            },
            {
              "internalType": "address",
              "name": "interestReceiver",
              "type": "address"
            },
            {
              "internalType": "address",
              "name": "optionInterestReceiver",
              "type": "address"
            }
          ],
          "internalType": "struct SetAddress",
          "name": "_setAddress",
          "type": "tuple"
        },
        {
          "components": [
            {
              "internalType": "uint256",
              "name": "takenExpireTime",
              "type": "uint256"
            },
            {
              "internalType": "uint256",
              "name": "submitProofExpireTime",
              "type": "uint256"
            },
            {
              "internalType": "uint256",
              "name": "repaidExpireTime",
              "type": "uint256"
            },
            {
              "internalType": "uint256",
              "name": "borrowExpirationTime",
              "type": "uint256"
            }
          ],
          "internalType": "struct ExpiredTime",
          "name": "_expiredTime",
          "type": "tuple"
        },
        {
          "internalType": "uint256",
          "name": "_proofedDelayBlock",
          "type": "uint256"
        },
        {
          "internalType": "address",
          "name": "_owner",
          "type": "address"
        },
        {
          "components": [
            {
              "internalType": "uint256",
              "name": "lockTime1",
              "type": "uint256"
            },
            {
              "internalType": "uint256",
              "name": "lockTime2",
              "type": "uint256"
            }
          ],
          "internalType": "struct LockTime",
          "name": "_lockTime",
          "type": "tuple"
        },
        {
          "internalType": "address",
          "name": "_lender",
          "type": "address"
        }
      ],
      "name": "initialize",
      "outputs": [],
      "stateMutability": "nonpayable",
      "type": "function"
    },
    {
      "inputs": [],
      "name": "interestRate",
      "outputs": [
        {
          "internalType": "uint256",
          "name": "",
          "type": "uint256"
        }
      ],
      "stateMutability": "view",
      "type": "function"
    },
    {
      "inputs": [],
      "name": "interestReceiver",
      "outputs": [
        {
          "internalType": "address",
          "name": "",
          "type": "address"
        }
      ],
      "stateMutability": "view",
      "type": "function"
    },
    {
      "inputs": [],
      "name": "interestValue",
      "outputs": [
        {
          "internalType": "uint256",
          "name": "",
          "type": "uint256"
        }
      ],
      "stateMutability": "view",
      "type": "function"
    },
    {
      "inputs": [],
      "name": "lender",
      "outputs": [
        {
          "internalType": "address",
          "name": "",
          "type": "address"
        }
      ],
      "stateMutability": "view",
      "type": "function"
    },
    {
      "inputs": [],
      "name": "lenderBtcAddress",
      "outputs": [
        {
          "internalType": "string",
          "name": "",
          "type": "string"
        }
      ],
      "stateMutability": "view",
      "type": "function"
    },
    {
      "inputs": [],
      "name": "lenderInterestValue",
      "outputs": [
        {
          "internalType": "uint256",
          "name": "",
          "type": "uint256"
        }
      ],
      "stateMutability": "view",
      "type": "function"
    },
    {
      "inputs": [],
      "name": "lenderPublicKey",
      "outputs": [
        {
          "internalType": "bytes",
          "name": "",
          "type": "bytes"
        }
      ],
      "stateMutability": "view",
      "type": "function"
    },
    {
      "inputs": [],
      "name": "lenderReceiveAddress",
      "outputs": [
        {
          "internalType": "string",
          "name": "",
          "type": "string"
        }
      ],
      "stateMutability": "view",
      "type": "function"
    },
    {
      "inputs": [
        {
          "internalType": "bytes",
          "name": "rawTx",
          "type": "bytes"
        },
        {
          "internalType": "bytes",
          "name": "signature",
          "type": "bytes"
        }
      ],
      "name": "lenderSignLockTimeBUnlockTx",
      "outputs": [
        {
          "internalType": "bytes",
          "name": "",
          "type": "bytes"
        }
      ],
      "stateMutability": "view",
      "type": "function"
    },
    {
      "inputs": [],
      "name": "limitedDays",
      "outputs": [
        {
          "internalType": "uint256",
          "name": "",
          "type": "uint256"
        }
      ],
      "stateMutability": "view",
      "type": "function"
    },
    {
      "inputs": [],
      "name": "loanScript",
      "outputs": [
        {
          "internalType": "bytes",
          "name": "",
          "type": "bytes"
        }
      ],
      "stateMutability": "view",
      "type": "function"
    },
    {
      "inputs": [],
      "name": "lockTime1",
      "outputs": [
        {
          "internalType": "uint256",
          "name": "",
          "type": "uint256"
        }
      ],
      "stateMutability": "view",
      "type": "function"
    },
    {
      "inputs": [],
      "name": "lockTime2",
      "outputs": [
        {
          "internalType": "uint256",
          "name": "",
          "type": "uint256"
        }
      ],
      "stateMutability": "view",
      "type": "function"
    },
    {
      "inputs": [],
      "name": "network",
      "outputs": [
        {
          "internalType": "string",
          "name": "",
          "type": "string"
        }
      ],
      "stateMutability": "view",
      "type": "function"
    },
    {
      "inputs": [],
      "name": "optionInterestReceiver",
      "outputs": [
        {
          "internalType": "address",
          "name": "",
          "type": "address"
        }
      ],
      "stateMutability": "view",
      "type": "function"
    },
    {
      "inputs": [],
      "name": "orderType",
      "outputs": [
        {
          "internalType": "enum OrderType",
          "name": "",
          "type": "uint8"
        }
      ],
      "stateMutability": "view",
      "type": "function"
    },
    {
      "inputs": [],
      "name": "owner",
      "outputs": [
        {
          "internalType": "address",
          "name": "",
          "type": "address"
        }
      ],
      "stateMutability": "view",
      "type": "function"
    },
    {
      "inputs": [],
      "name": "preImage",
      "outputs": [
        {
          "internalType": "bytes",
          "name": "",
          "type": "bytes"
        }
      ],
      "stateMutability": "view",
      "type": "function"
    },
    {
      "inputs": [],
      "name": "preImageHash",
      "outputs": [
        {
          "internalType": "bytes32",
          "name": "",
          "type": "bytes32"
        }
      ],
      "stateMutability": "view",
      "type": "function"
    },
    {
      "inputs": [],
      "name": "proofedDelayBlock",
      "outputs": [
        {
          "internalType": "uint256",
          "name": "",
          "type": "uint256"
        }
      ],
      "stateMutability": "view",
      "type": "function"
    },
    {
      "inputs": [],
      "name": "renounceOwnership",
      "outputs": [],
      "stateMutability": "nonpayable",
      "type": "function"
    },
    {
      "inputs": [],
      "name": "repaidExpireTime",
      "outputs": [
        {
          "internalType": "uint256",
          "name": "",
          "type": "uint256"
        }
      ],
      "stateMutability": "view",
      "type": "function"
    },
    {
      "inputs": [
        {
          "internalType": "bytes",
          "name": "btcRawData",
          "type": "bytes"
        },
        {
          "internalType": "bytes",
          "name": "signature",
          "type": "bytes"
        }
      ],
      "name": "repay",
      "outputs": [],
      "stateMutability": "nonpayable",
      "type": "function"
    },
    {
      "inputs": [],
      "name": "repayBtcRawData",
      "outputs": [
        {
          "internalType": "bytes",
          "name": "",
          "type": "bytes"
        }
      ],
      "stateMutability": "view",
      "type": "function"
    },
    {
      "inputs": [],
      "name": "repaySignature",
      "outputs": [
        {
          "internalType": "bytes",
          "name": "",
          "type": "bytes"
        }
      ],
      "stateMutability": "view",
      "type": "function"
    },
    {
      "inputs": [
        {
          "internalType": "bytes",
          "name": "unLockSignature",
          "type": "bytes"
        }
      ],
      "name": "requestArbitration",
      "outputs": [],
      "stateMutability": "nonpayable",
      "type": "function"
    },
    {
      "inputs": [],
      "name": "requestArbitrationTxId",
      "outputs": [
        {
          "internalType": "bytes32",
          "name": "",
          "type": "bytes32"
        }
      ],
      "stateMutability": "view",
      "type": "function"
    },
    {
      "inputs": [],
      "name": "status",
      "outputs": [
        {
          "internalType": "enum OrderStatus",
          "name": "",
          "type": "uint8"
        }
      ],
      "stateMutability": "view",
      "type": "function"
    },
    {
      "inputs": [],
      "name": "submitProofExpirationTime",
      "outputs": [
        {
          "internalType": "uint256",
          "name": "",
          "type": "uint256"
        }
      ],
      "stateMutability": "view",
      "type": "function"
    },
    {
      "inputs": [
        {
          "internalType": "bytes",
          "name": "txData",
          "type": "bytes"
        },
        {
          "internalType": "uint32",
          "name": "blockHeight",
          "type": "uint32"
        },
        {
          "components": [
            {
              "internalType": "bytes32[]",
              "name": "proof",
              "type": "bytes32[]"
            },
            {
              "internalType": "bytes32",
              "name": "root",
              "type": "bytes32"
            },
            {
              "internalType": "bytes32",
              "name": "leaf",
              "type": "bytes32"
            },
            {
              "internalType": "bool[]",
              "name": "flags",
              "type": "bool[]"
            }
          ],
          "internalType": "struct MerkleProofData",
          "name": "merkleProof",
          "type": "tuple"
        }
      ],
      "name": "submitRegularUnlockTransferProof",
      "outputs": [],
      "stateMutability": "nonpayable",
      "type": "function"
    },
    {
      "inputs": [
        {
          "internalType": "bytes",
          "name": "rawData",
          "type": "bytes"
        },
        {
          "internalType": "uint32",
          "name": "blockHeight",
          "type": "uint32"
        },
        {
          "components": [
            {
              "internalType": "bytes32[]",
              "name": "proof",
              "type": "bytes32[]"
            },
            {
              "internalType": "bytes32",
              "name": "root",
              "type": "bytes32"
            },
            {
              "internalType": "bytes32",
              "name": "leaf",
              "type": "bytes32"
            },
            {
              "internalType": "bool[]",
              "name": "flags",
              "type": "bool[]"
            }
          ],
          "internalType": "struct MerkleProofData",
          "name": "merkleProof",
          "type": "tuple"
        },
        {
          "internalType": "uint32",
          "name": "txIndex",
          "type": "uint32"
        }
      ],
      "name": "submitToArbitratorTransferProof",
      "outputs": [],
      "stateMutability": "nonpayable",
      "type": "function"
    },
    {
      "inputs": [
        {
          "internalType": "bytes",
          "name": "rawData",
          "type": "bytes"
        },
        {
          "internalType": "uint32",
          "name": "blockHeight",
          "type": "uint32"
        },
        {
          "components": [
            {
              "internalType": "bytes32[]",
              "name": "proof",
              "type": "bytes32[]"
            },
            {
              "internalType": "bytes32",
              "name": "root",
              "type": "bytes32"
            },
            {
              "internalType": "bytes32",
              "name": "leaf",
              "type": "bytes32"
            },
            {
              "internalType": "bool[]",
              "name": "flags",
              "type": "bool[]"
            }
          ],
          "internalType": "struct MerkleProofData",
          "name": "merkleProof",
          "type": "tuple"
        },
        {
          "internalType": "uint32",
          "name": "toLenderTxIndex",
          "type": "uint32"
        }
      ],
      "name": "submitToLenderTransferProof",
      "outputs": [],
      "stateMutability": "nonpayable",
      "type": "function"
    },
    {
      "inputs": [],
      "name": "systemInterestValue",
      "outputs": [
        {
          "internalType": "uint256",
          "name": "",
          "type": "uint256"
        }
      ],
      "stateMutability": "view",
      "type": "function"
    },
    {
      "inputs": [
        {
          "internalType": "string",
          "name": "btcAddress",
          "type": "string"
        },
        {
          "internalType": "bytes",
          "name": "publicKey",
          "type": "bytes"
        },
        {
          "internalType": "bytes32",
          "name": "preimageHash",
          "type": "bytes32"
        },
        {
          "internalType": "address",
          "name": "selectedArbitrator",
          "type": "address"
        },
        {
          "internalType": "string",
          "name": "net",
          "type": "string"
        }
      ],
      "name": "takeOrder",
      "outputs": [],
      "stateMutability": "payable",
      "type": "function"
    },
    {
      "inputs": [],
      "name": "takenExpireTime",
      "outputs": [
        {
          "internalType": "uint256",
          "name": "",
          "type": "uint256"
        }
      ],
      "stateMutability": "view",
      "type": "function"
    },
    {
      "inputs": [],
      "name": "takenTime",
      "outputs": [
        {
          "internalType": "uint256",
          "name": "",
          "type": "uint256"
        }
      ],
      "stateMutability": "view",
      "type": "function"
    },
    {
      "inputs": [],
      "name": "toArbitratorBtcTx",
      "outputs": [
        {
          "internalType": "bytes32",
          "name": "wTxId",
          "type": "bytes32"
        },
        {
          "internalType": "bytes32",
          "name": "txId",
          "type": "bytes32"
        },
        {
          "internalType": "uint32",
          "name": "txIndex",
          "type": "uint32"
        },
        {
          "internalType": "uint256",
          "name": "proofTimestamp",
          "type": "uint256"
        },
        {
          "internalType": "uint256",
          "name": "blockHeight",
          "type": "uint256"
        },
        {
          "internalType": "uint256",
          "name": "amount",
          "type": "uint256"
        }
      ],
      "stateMutability": "view",
      "type": "function"
    },
    {
      "inputs": [],
      "name": "toBorrowerBtcTx",
      "outputs": [
        {
          "internalType": "bytes32",
          "name": "wTxId",
          "type": "bytes32"
        },
        {
          "internalType": "bytes32",
          "name": "txId",
          "type": "bytes32"
        },
        {
          "internalType": "uint32",
          "name": "txIndex",
          "type": "uint32"
        },
        {
          "internalType": "uint256",
          "name": "proofTimestamp",
          "type": "uint256"
        },
        {
          "internalType": "uint256",
          "name": "blockHeight",
          "type": "uint256"
        },
        {
          "internalType": "uint256",
          "name": "amount",
          "type": "uint256"
        }
      ],
      "stateMutability": "view",
      "type": "function"
    },
    {
      "inputs": [],
      "name": "toLenderBtcTx",
      "outputs": [
        {
          "internalType": "bytes32",
          "name": "wTxId",
          "type": "bytes32"
        },
        {
          "internalType": "bytes32",
          "name": "txId",
          "type": "bytes32"
        },
        {
          "internalType": "uint32",
          "name": "txIndex",
          "type": "uint32"
        },
        {
          "internalType": "uint256",
          "name": "proofTimestamp",
          "type": "uint256"
        },
        {
          "internalType": "uint256",
          "name": "blockHeight",
          "type": "uint256"
        },
        {
          "internalType": "uint256",
          "name": "amount",
          "type": "uint256"
        }
      ],
      "stateMutability": "view",
      "type": "function"
    },
    {
      "inputs": [],
      "name": "token",
      "outputs": [
        {
          "internalType": "address",
          "name": "",
          "type": "address"
        }
      ],
      "stateMutability": "view",
      "type": "function"
    },
    {
      "inputs": [],
      "name": "tokenAmount",
      "outputs": [
        {
          "internalType": "uint256",
          "name": "",
          "type": "uint256"
        }
      ],
      "stateMutability": "view",
      "type": "function"
    },
    {
      "inputs": [
        {
          "internalType": "address",
          "name": "newOwner",
          "type": "address"
        }
      ],
      "name": "transferOwnership",
      "outputs": [],
      "stateMutability": "nonpayable",
      "type": "function"
    }
  ],
  "bytecode": "0x60806040523480156200001157600080fd5b507ff0c57e16840df040f15088dc2f81fe391c3923bec73e23a9662efc9c229c6a00805468010000000000000000810460ff1615906001600160401b03166000811580156200005d5750825b90506000826001600160401b031660011480156200007a5750303b155b90508115801562000089575080155b15620000a85760405163f92ee8a960e01b815260040160405180910390fd5b84546001600160401b03191660011785558315620000d757845460ff60401b1916680100000000000000001785555b83156200011e57845460ff60401b19168555604051600181527fc7f505b2f371ae2175ee4913f4499e1f2633a7b5936321eed1cdaeb6115181d29060200160405180910390a15b505050505061480880620001336000396000f3fe6080604052600436106103d95760003560e01c80637df1f1b9116101fd578063c752c3de11610118578063e3baf57c116100ab578063f2fde38b1161007a578063f2fde38b14610b17578063f4ce653214610b37578063f8063a9514610b4c578063fc0c546a14610b6c578063fdf0f7ac14610b8c57600080fd5b8063e3baf57c14610aac578063eec7faa114610acc578063f007ca5414610ae2578063f0d267d314610af757600080fd5b8063d0b97d48116100e7578063d0b97d4814610a1b578063d25c993f14610a50578063db2561d414610a65578063dd10689014610a7b57600080fd5b8063c752c3de14610981578063c77cf615146109d0578063ce7f5018146109f0578063cfe8059214610a0557600080fd5b8063a374589b11610190578063aaccf06e1161015f578063aaccf06e146108f0578063b2c7f87814610910578063bb10b0e714610930578063bcead63e1461096157600080fd5b8063a374589b14610890578063a412ad11146108b0578063a6d8e767146108c5578063aa58f8cf146108da57600080fd5b80638da5cb5b116101cc5780638da5cb5b1461080757806392d09ceb1461084457806395aa55811461085a5780639f1b47201461087057600080fd5b80637df1f1b9146107a6578063838d7513146107c657806387a9796b146107db5780638b3bf720146107f157600080fd5b80635e145ca6116102f85780636ae5d1101161028b57806370a6ad411161025a57806370a6ad41146106e6578063715018a61461074f57806379ddeee1146107645780637b29dab81461077a5780637c3a00fd1461079057600080fd5b80636ae5d110146106615780636d0392f1146106765780636f17591f146106985780636f5c9e58146106c657600080fd5b80636332c5de116102c75780636332c5de1461060157806367125e1c146106165780636739afca1461062c5780636a467ef61461064157600080fd5b80635e145ca6146105a1578063609d6733146105c157806361dcd7ab146105d657806362b1480e146105ec57600080fd5b806327588c82116103705780634d43e8c31161033f5780634d43e8c31461054b5780634f35014a14610560578063554730fd14610575578063572a15a21461058b57600080fd5b806327588c82146104cb5780632d8dcef1146104de578063437a265f146104f357806349bbd6901461052b57600080fd5b8063124520bd116103ac578063124520bd1461045557806317ff940d146104795780631fd47bd41461048f578063200d2ed2146104a457600080fd5b8063012e204e146103de57806307dbd9421461040957806309a5084b1461042b5780631159042c14610440575b600080fd5b3480156103ea57600080fd5b506103f3610ba2565b604051610400919061372a565b60405180910390f35b34801561041557600080fd5b50610429610424366004613831565b610c1e565b005b34801561043757600080fd5b506103f3610e09565b34801561044c57600080fd5b506103f3610e97565b34801561046157600080fd5b5061046b60075481565b604051908152602001610400565b34801561048557600080fd5b5061046b60115481565b34801561049b57600080fd5b506103f3610ea4565b3480156104b057600080fd5b506032546104be9060ff1681565b60405161040091906138df565b6104296104d9366004613945565b610eb1565b3480156104ea57600080fd5b50610429611220565b3480156104ff57600080fd5b50603854610513906001600160a01b031681565b6040516001600160a01b039091168152602001610400565b34801561053757600080fd5b506103f36105463660046139fb565b61128f565b34801561055757600080fd5b506103f3611342565b34801561056c57600080fd5b506103f361137a565b34801561058157600080fd5b5061046b60145481565b34801561059757600080fd5b5061046b60155481565b3480156105ad57600080fd5b506104296105bc366004613a3c565b611387565b3480156105cd57600080fd5b506103f36114f9565b3480156105e257600080fd5b5061046b600f5481565b3480156105f857600080fd5b506103f3611506565b34801561060d57600080fd5b506103f3611513565b34801561062257600080fd5b5061046b60345481565b34801561063857600080fd5b506103f3611520565b34801561064d57600080fd5b50603d54610513906001600160a01b031681565b34801561066d57600080fd5b506103f361152d565b34801561068257600080fd5b5061068b61153a565b6040516104009190613aaf565b3480156106a457600080fd5b506001546106b990600160a01b900460ff1681565b6040516104009190613ad9565b3480156106d257600080fd5b506103f36106e1366004613ae7565b6115ac565b3480156106f257600080fd5b50602854602954602a54602b54602c54602d5461071795949363ffffffff1692919086565b60408051968752602087019590955263ffffffff909316938501939093526060840152608083019190915260a082015260c001610400565b34801561075b57600080fd5b50610429611631565b34801561077057600080fd5b5061046b600a5481565b34801561078657600080fd5b5061046b60135481565b34801561079c57600080fd5b5061046b60095481565b3480156107b257600080fd5b50600254610513906001600160a01b031681565b3480156107d257600080fd5b506103f3611643565b3480156107e757600080fd5b5061046b60165481565b3480156107fd57600080fd5b5061046b602e5481565b34801561081357600080fd5b507f9016d09d72d40fdae2fd8ceac6b6234c7706214fd39c1cd1e609a0528c199300546001600160a01b0316610513565b34801561085057600080fd5b5061046b600e5481565b34801561086657600080fd5b5061046b60375481565b34801561087c57600080fd5b5061042961088b366004613b52565b611650565b34801561089c57600080fd5b506104296108ab366004613b8e565b6118fc565b3480156108bc57600080fd5b506103f3611b9f565b3480156108d157600080fd5b506103f3611ba9565b3480156108e657600080fd5b5061046b60395481565b3480156108fc57600080fd5b5061042961090b366004613c0f565b611bdf565b34801561091c57600080fd5b5061042961092b366004613b52565b611e88565b34801561093c57600080fd5b50601c54601d54601e54601f5460205460215461071795949363ffffffff1692919086565b34801561096d57600080fd5b50600854610513906001600160a01b031681565b34801561098d57600080fd5b50601754601854601954601a54601b546109a8949392919085565b604080519586526020860194909452928401919091526060830152608082015260a001610400565b3480156109dc57600080fd5b50603c54610513906001600160a01b031681565b3480156109fc57600080fd5b5061046b612006565b348015610a1157600080fd5b5061046b60105481565b348015610a2757600080fd5b50610a3b610a36366004613ca2565b61201d565b60408051928352602083019190915201610400565b348015610a5c57600080fd5b5061046b61203a565b348015610a7157600080fd5b5061046b60355481565b348015610a8757600080fd5b5060225460235460245460255460265460275461071795949363ffffffff1692919086565b348015610ab857600080fd5b50610429610ac7366004613cbd565b612058565b348015610ad857600080fd5b5061046b60065481565b348015610aee57600080fd5b506103f36121c5565b348015610b0357600080fd5b506103f3610b12366004613ae7565b6121d2565b348015610b2357600080fd5b50610429610b32366004613ca2565b612209565b348015610b4357600080fd5b506103f3612244565b348015610b5857600080fd5b50610429610b67366004613ae7565b61227a565b348015610b7857600080fd5b50600554610513906001600160a01b031681565b348015610b9857600080fd5b5061046b60125481565b600154601d54604051632ac9520d60e11b815260048101919091526060916001600160a01b031690635592a41a906024015b600060405180830381865afa158015610bf1573d6000803e3d6000fd5b505050506040513d6000823e601f3d908101601f19168201604052610c199190810190613d7a565b905090565b610c266125e5565b600254610c3b906001600160a01b031661262f565b600160325460ff166009811115610c5457610c546138b5565b14610c7a5760405162461bcd60e51b8152600401610c7190613dc2565b60405180910390fd5b6018544210610c9b5760405162461bcd60e51b8152600401610c7190613dde565b60008054600e54604051632cfdaaf560e01b81526001600160a01b0390921691632cfdaaf591610cd69189916036918a908a90600401613fb1565b6040805180830381865afa158015610cf2573d6000803e3d6000fd5b505050506040513d601f19601f82011682018060405250810190610d169190613ffc565b6021919091556032805460ff1916600217905542601f5563ffffffff85166020559050610d4960006040850135836126e9565b600054601d54604051633326ff0d60e11b81523060048201526024810191909152604481018390526001600160a01b039091169063664dfe1a90606401600060405180830381600087803b158015610da057600080fd5b505af1158015610db4573d6000803e3d6000fd5b50506021546032546040517f5739b04fe1a57fa18d64b66dc2dfeedf3f42e80b1f6513a1abc0254fee2b44d19450610df2935060ff90911690614020565b60405180910390a150610e03612a31565b50505050565b600b8054610e1690613dfa565b80601f0160208091040260200160405190810160405280929190818152602001828054610e4290613dfa565b8015610e8f5780601f10610e6457610100808354040283529160200191610e8f565b820191906000526020600020905b815481529060010190602001808311610e7257829003601f168201915b505050505081565b600d8054610e1690613dfa565b602f8054610e1690613dfa565b610eb96125e5565b86610eeb5760405162461bcd60e51b815260206004820152600260248201526122a160f11b6044820152606401610c71565b600060325460ff166009811115610f0457610f046138b5565b14610f215760405162461bcd60e51b8152600401610c7190613dc2565b33600060018054600160a01b900460ff1690811115610f4257610f426138b5565b03610f9457600654600554610f66916001600160a01b039091169083903090612a57565b600b610f73878983614082565b50600880546001600160a01b0319166001600160a01b038316179055610ff0565b6001808054600160a01b900460ff1690811115610fb357610fb36138b5565b03610ff0576003610fc5898b83614082565b50600280546001600160a01b0319166001600160a01b0383161790556004610fee878983614082565b505b602e859055603880546001600160a01b0319166001600160a01b038681169182179092556001546034546035546040516309561ef360e41b81529290941693639561ef309361104c939092600492600b928d9291908501614141565b600060405180830381865afa158015611069573d6000803e3d6000fd5b505050506040513d6000823e601f3d908101601f191682016040526110919190810190613d7a565b60369061109e9082614196565b5060336110ac838583614082565b50600154604051634666230560e11b81526001600160a01b0390911690638ccc460a906110e2906036908790879060040161427e565b600060405180830381865afa1580156110ff573d6000803e3d6000fd5b505050506040513d6000823e601f3d908101601f1916820160405261112791908101906142c4565b600d906111349082614196565b50426010556032805460ff1916600117905561114e612abe565b611156612b91565b600080546039546040516312a87c6960e01b8152600481019190915282916001600160a01b0316906312a87c69906024016040805180830381865afa1580156111a3573d6000803e3d6000fd5b505050506040513d601f19601f820116820180604052508101906111c79190613ffc565b915091507fb91029edb2e47843f9ff141ad9adb1a06a28307cb8d49876a7fced9e24ece38c8b8b603b85856040516112039594939291906142f8565b60405180910390a1505050611216612a31565b5050505050505050565b6112286125e5565b601154158061123957506000601254115b1561127d576008546001600160a01b0316331461127d5760405162461bcd60e51b815260206004820152600260248201526113d360f21b6044820152606401610c71565b611285612c94565b61128d612a31565b565b60606030805461129e90613dfa565b90506000036112bf5760405162461bcd60e51b8152600401610c7190614333565b600154604051636c63b6c360e11b81526001600160a01b039091169063d8c76d86906112f4906031908790879060040161427e565b600060405180830381865afa158015611311573d6000803e3d6000fd5b505050506040513d6000823e601f3d908101601f191682016040526113399190810190613d7a565b90505b92915050565b600154601d546039546040516383c6ec9f60e01b81526060936001600160a01b0316926383c6ec9f92610bd492603a9060040161434f565b60048054610e1690613dfa565b61138f6125e5565b6008546113a4906001600160a01b031661262f565b601b5442106113c55760405162461bcd60e51b8152600401610c7190613dde565b600560325460ff1660098111156113de576113de6138b5565b146113fb5760405162461bcd60e51b8152600401610c7190613dc2565b6032805460ff1916600617905560008054601d54604051631e1f6f1b60e11b81526001600160a01b0390921691633c3ede369161144391889160039189908990600401613fb1565b602060405180830381865afa158015611460573d6000803e3d6000fd5b505050506040513d601f19601f82011682018060405250810190611484919061436e565b4260255563ffffffff8416602655602281905560408084013560235560325490519192507f09500c0538cf810aa5932e18765c3383ff1f747afc5c6b72e6ae1bc9737c2db9916114db91849160ff90911690614020565b60405180910390a16114eb612c94565b506114f4612a31565b505050565b60318054610e1690613dfa565b600c8054610e1690613dfa565b603b8054610e1690613dfa565b60338054610e1690613dfa565b60038054610e1690613dfa565b60015460395460405163d531b60f60e01b815260048101919091526000916001600160a01b03169063d531b60f90602401602060405180830381865afa158015611588573d6000803e3d6000fd5b505050506040513d601f19601f82011682018060405250810190610c199190614387565b600154604051630deb93cb60e31b81526060916001600160a01b031690636f5c9e58906115e39088908890889088906004016143a8565b600060405180830381865afa158015611600573d6000803e3d6000fd5b505050506040513d6000823e601f3d908101601f191682016040526116289190810190613d7a565b95945050505050565b611639612dc0565b61128d6000612e1b565b60368054610e1690613dfa565b6116586125e5565b600080546039546040516312a87c6960e01b81526001600160a01b03909216916312a87c699161168e9160040190815260200190565b6040805180830381865afa1580156116aa573d6000803e3d6000fd5b505050506040513d601f19601f820116820180604052508101906116ce9190613ffc565b915050801561172857600360325460ff1660098111156116f0576116f06138b5565b146117235760405162461bcd60e51b815260206004820152600360248201526245533160e81b6044820152606401610c71565b611774565b600260325460ff166009811115611741576117416138b5565b146117745760405162461bcd60e51b815260206004820152600360248201526222a99960e91b6044820152606401610c71565b60195442106117955760405162461bcd60e51b8152600401610c7190613dde565b60006002836040516117a791906143da565b602060405180830381855afa1580156117c4573d6000803e3d6000fd5b5050506040513d601f19601f820116820180604052508101906117e7919061436e565b9050602e54811461181f5760405162461bcd60e51b8152602060048201526002602482015261049560f41b6044820152606401610c71565b602f61182b8482614196565b50426011556032805460ff19166004908117909155600054601d54601e5460215460345460405163720607ad60e01b81526001600160a01b039095169563720607ad9561188c959463ffffffff1693600c93909290918c91603691016143f6565b600060405180830381600087803b1580156118a657600080fd5b505af11580156118ba573d6000803e3d6000fd5b505050506118c6612e8c565b6040517fef5b63c9066d00c840194ed045ca94a0b7f736f9b7439f7eb2d90efe7a482ccc90600090a150506118f9612a31565b50565b7ff0c57e16840df040f15088dc2f81fe391c3923bec73e23a9662efc9c229c6a008054600160401b810460ff1615906001600160401b03166000811580156119415750825b90506000826001600160401b0316600114801561195d5750303b155b90508115801561196b575080155b156119895760405163f92ee8a960e01b815260040160405180910390fd5b845467ffffffffffffffff1916600117855583156119b357845460ff60401b1916600160401b1785555b86356020880135116119fa5760405162461bcd60e51b815260206004820152601060248201526f496e76616c69642074696d656c6f636b60801b6044820152606401610c71565b6001600160a01b038616611a415760405162461bcd60e51b815260206004820152600e60248201526d24b73b30b634b2103632b73232b960911b6044820152606401610c71565b611a4a88612f0e565b611a52612f1f565b611a5f60208c018c613ca2565b600080546001600160a01b0319166001600160a01b0392909216919091179055611a8f60408c0160208d01613ca2565b600180546001600160a01b0319166001600160a01b0392909216919091179055611abf60608c0160408d01613ca2565b603c80546001600160a01b0319166001600160a01b0392909216919091179055611aef60808c0160608d01613ca2565b603d80546001600160a01b03199081166001600160a01b03938416179091558b356014556020808d013560155560408d013560165560608d013560375560138c90558935603455890135603555600880549091169188169190911790558315611b9257845460ff60401b19168555604051600181527fc7f505b2f371ae2175ee4913f4499e1f2633a7b5936321eed1cdaeb6115181d29060200160405180910390a15b5050505050505050505050565b6060610c19612f2f565b600154601d54604051639a88a0e160e01b815260048101919091526060916001600160a01b031690639a88a0e190602401610bd4565b611be76125e5565b6001600160a01b03871615801590611bff5750600086115b8015611c0b5750600085115b8015611c1657508015155b611c575760405162461bcd60e51b8152602060048201526012602482015271496e76616c696420706172616d657465727360701b6044820152606401610c71565b6005546001600160a01b031615611c955760405162461bcd60e51b815260206004820152600260248201526121a960f11b6044820152606401610c71565b60008054604051635903513760e11b8152600481018890526001600160a01b038a81166024830152604482018a90528392839291169063b206a26e90606401606060405180830381865afa158015611cf1573d6000803e3d6000fd5b505050506040513d601f19601f82011682018060405250810190611d159190614468565b600054604051630a60aebf60e11b81526004810183905293965091945092506001600160a01b0316906314c15d7e9060240160006040518083038186803b158015611d5f57600080fd5b505afa158015611d73573d6000803e3d6000fd5b5050600580546001600160a01b0319166001600160a01b038e16179055505060018054819060ff60a01b1916600160a01b820217905550611dbf6001600160a01b038b1633308c612a57565b60068990556007889055600b611dd6858783614082565b50600c611de4878983614082565b506009839055600a829055600e81905542600f55600754603454611e089190612f65565b603455600754603554611e1b9190612f65565b6035556032805460ff19169055604080518281526001600160a01b038c1660208201529081018a90526001907f4cca9f8b5bfe3be61cada803dab2ecaf9621004497e0e4f8542fd72332fa148d9060600160405180910390a2505050611e7f612a31565b50505050505050565b611e906125e5565b6002546001600160a01b03163314611ecf5760405162461bcd60e51b815260206004820152600260248201526127a160f11b6044820152606401610c71565b603954611eee5760405162461bcd60e51b8152600401610c7190614333565b600080611ef9612fea565b9150915081611f2f5760405162461bcd60e51b815260206004820152600260248201526121a960f11b6044820152606401610c71565b60005460395460405163154e28f360e11b81526001600160a01b0390921691632a9c51e691611f65918590603690600401614496565b600060405180830381600087803b158015611f7f57600080fd5b505af1158015611f93573d6000803e3d6000fd5b50506032805460ff1916600817905550603a9050611fb18482614196565b506039546002546040517f6b1ebb326a67837db53283e32a5f1fbc720ceb52a49ebd91118c4bdf5aef688191611ff49187916001600160a01b03169086906144c0565b60405180910390a250506118f9612a31565b600061201061203a565b600a54610c199190614509565b60008061203161202b6130a4565b846130e1565b91509150915091565b6000806064600a54601e61204e919061451c565b61133c9190614533565b6120606125e5565b600254612075906001600160a01b031661262f565b600260325460ff16600981111561208e5761208e6138b5565b146120ab5760405162461bcd60e51b8152600401610c7190613dc2565b60185442106120cc5760405162461bcd60e51b8152600401610c7190613dde565b600080546039546040516338bcc40760e21b81526001600160a01b039092169163e2f3101c91612108918a918a918a908a908a90600401614555565b6020604051808303816000875af1158015612127573d6000803e3d6000fd5b505050506040513d601f19601f8201168201806040525081019061214b919061436e565b604084810135602955602882905542602b5563ffffffff868116602c55602a805491861663ffffffff199092169190911790556032805460ff19166003179055519091507fe8e67090b795872c2f2eb03b7b4d7649ed274119542d217f30abcf95349d693d90600090a1506121be612a31565b5050505050565b60308054610e1690613dfa565b60015460405163f0d267d360e01b81526060916001600160a01b03169063f0d267d3906115e39088908890889088906004016143a8565b612211612dc0565b6001600160a01b03811661223b57604051631e4fbdf760e01b815260006004820152602401610c71565b6118f981612e1b565b600154601d54604051630de9413160e01b815260048101919091526060916001600160a01b031690630de9413190602401610bd4565b6122826125e5565b826122c25760405162461bcd60e51b815260206004820152601060248201526f496e76616c696420425443206461746160801b6044820152606401610c71565b806123035760405162461bcd60e51b8152602060048201526011602482015270496e76616c6964207369676e617475726560781b6044820152606401610c71565b6002546001600160a01b031633146123425760405162461bcd60e51b815260206004820152600260248201526127a160f11b6044820152606401610c71565b600460325460ff16600981111561235b5761235b6138b5565b146123785760405162461bcd60e51b8152600401610c7190613dc2565b601a5442106123995760405162461bcd60e51b8152600401610c7190613dde565b60006123a3612f2f565b90506123e88186868080601f01602080910402602001604051908101604052809392919081815260200183838082843760009201919091525092939250506131ac9050565b6124045760405162461bcd60e51b8152600401610c7190614333565b426012556032805460ff19166005179055600a54600654600091612427916145a5565b90506006548110156124665760405162461bcd60e51b81526020600482015260086024820152674f766572666c6f7760c01b6044820152606401610c71565b60055461247e906001600160a01b0316333084612a57565b60015460085460405163926fedc360e01b81526001600160a01b039283169263926fedc3926124c0923092909116908b908b906036908c908c906004016145b8565b6000604051808303816000875af11580156124df573d6000803e3d6000fd5b505050506040513d6000823e601f3d908101601f191682016040526125079190810190613d7a565b6031906125149082614196565b506030612522848683614082565b5060005460085460405163afa2943b60e01b81526001600160a01b039283169263afa2943b92612565923092909116908b908b906036908c908c906004016145b8565b600060405180830381600087803b15801561257f57600080fd5b505af1158015612593573d6000803e3d6000fd5b5050600a546006546040517f6d35bc2de41396ad0cbb7da31c6830eeafb04da7878d362d324c6ba15233ba9894506125d393508a908a908a908a9061460c565b60405180910390a15050610e03612a31565b7f9b779b17422d0df92223018b32b4d1fa46e071723d6817e2486d003becc55f0080546001190161262957604051633ee5aeb560e01b815260040160405180910390fd5b60029055565b6001600160a01b03811633036126425750565b600154604051632a49bf6f60e21b81523360048201526001600160a01b039091169063a926fdbc90602401602060405180830381865afa15801561268a573d6000803e3d6000fd5b505050506040513d601f19601f820116820180604052508101906126ae919061464c565b6118f95760405162461bcd60e51b815260206004820152600c60248201526b2737a832b936b4b9b9b4b7b760a11b6044820152606401610c71565b601c839055601d829055601e805463ffffffff191663ffffffff83169081179091556040805160e081018252606091810182905260008282018190526080820181905260a082019290925260c081019190915283815260208101919091526003805461275490613dfa565b80601f016020809104026020016040519081016040528092919081815260200182805461278090613dfa565b80156127cd5780601f106127a2576101008083540402835291602001916127cd565b820191906000526020600020905b8154815290600101906020018083116127b057829003601f168201915b505050505060408201526021546001600160401b031660608201526038546001600160a01b031660808201526036805461280690613dfa565b80601f016020809104026020016040519081016040528092919081815260200182805461283290613dfa565b801561287f5780601f106128545761010080835404028352916020019161287f565b820191906000526020600020905b81548152906001019060200180831161286257829003601f168201915b505050505060a082015260355463ffffffff1660c08201526000546040516203fbb760ee1b81526001600160a01b039091169063feedc000906128c6908490600401614669565b600060405180830381600087803b1580156128e057600080fd5b505af11580156128f4573d6000803e3d6000fd5b5050505060006040518060800160405280601c600101548152602001836020015163ffffffff1681526020016036805461292d90613dfa565b80601f016020809104026020016040519081016040528092919081815260200182805461295990613dfa565b80156129a65780601f1061297b576101008083540402835291602001916129a6565b820191906000526020600020905b81548152906001019060200180831161298957829003601f168201915b505050918352505060608401516001600160401b0316602090910152600054603954604051637071634160e01b81529293506001600160a01b03909116916370716341916129f8918590600401614704565b600060405180830381600087803b158015612a1257600080fd5b505af1158015612a26573d6000803e3d6000fd5b505050505050505050565b60017f9b779b17422d0df92223018b32b4d1fa46e071723d6817e2486d003becc55f0055565b6040516001600160a01b038481166024830152838116604483015260648201839052610e039186918216906323b872dd906084015b604051602081830303815290604052915060e01b6020820180516001600160e01b0383818316178352505050506131d6565b601054612acc603454613239565b612ad691906145a5565b601755601054600754612aea90601861451c565b612af690610e1061451c565b612b0091906145a5565b601a81905560188190556019819055601654612b1b916145a5565b601b8190556016546017549091612b3191614509565b101561128d5760405162461bcd60e51b815260206004820152602960248201527f72657061696445787069726554696d65206e656564206c657373207468616e206044820152686c6f636b54696d653160b81b6064820152608401610c71565b600054603854600e54601754600854600254604051620b0bbf60ea1b81526001600160a01b039586166004820152602481019490945260448401929092528316606483015282166084820152911690632c2efc0090349060a40160006040518083038185885af1158015612c09573d6000803e3d6000fd5b50505050506040513d6000823e601f3d908101601f19168201604052612c329190810190614756565b60396000603b612c428482614196565b50509190915550603954600254604080516001600160a01b039092168252600060208301527fd0f0ccc77cd8661c1dd0e4ff6204a2741fa3947f600109bd88f777c6c0afeaa7910160405180910390a2565b600960325460ff166009811115612cad57612cad6138b5565b03612cdf5760405162461bcd60e51b8152602060048201526002602482015261434f60f01b6044820152606401610c71565b612ce761328c565b612d185760405162461bcd60e51b81526020600482015260026024820152614e4360f01b6044820152606401610c71565b6000546039546040516355f401af60e01b81526001600160a01b03909216916355f401af91612d4d9160040190815260200190565b600060405180830381600087803b158015612d6757600080fd5b505af1158015612d7b573d6000803e3d6000fd5b50506032805460ff1916600917905550612d959050613451565b6040517f2fec94b9646181c186efa814578384c5b668c18e19a11094e5bcf60f7cc75e0190600090a1565b33612df27f9016d09d72d40fdae2fd8ceac6b6234c7706214fd39c1cd1e609a0528c199300546001600160a01b031690565b6001600160a01b03161461128d5760405163118cdaa760e01b8152336004820152602401610c71565b7f9016d09d72d40fdae2fd8ceac6b6234c7706214fd39c1cd1e609a0528c19930080546001600160a01b031981166001600160a01b03848116918217845560405192169182907f8be0079c531659141344cd1fd0a4f28419497f9722a3daafe3b4186f6b6457e090600090a3505050565b6000618e94600754600654612ea1919061451c565b612eab9190614533565b603d549091506001600160a01b031615612edc57603d54600554612edc916001600160a01b03918216911683613549565b6002546006546118f9916001600160a01b031690612efb908490614509565b6005546001600160a01b03169190613549565b612f1661357a565b6118f9816135c3565b612f2761357a565b61128d6135cb565b600154601d54604051630f56138960e21b815260048101919091526060916001600160a01b031690633d584e2490602401610bd4565b60008061020083612f7886610e1061451c565b612f8390601861451c565b612f8d91906145a5565b612f979190614533565b9050620100008110612fde5760405162461bcd60e51b815260206004820152601060248201526f696e76616c69642074696d656c6f636b60801b6044820152606401610c71565b62400000179392505050565b600080600260325460ff166009811115613006576130066138b5565b036130275750506019546002544291909111916001600160a01b0390911690565b600360325460ff166009811115613040576130406138b5565b036130615750506019546002544291909111916001600160a01b0390911690565b600560325460ff16600981111561307a5761307a6138b5565b0361309b575050601b546002544291909111916001600160a01b0390911690565b50600091829150565b6010546000908190156130d5576010546130bf603454613239565b6130c991906145a5565b61133c90610e106145a5565b426130bf603454613239565b60395460009081901561316c576000546039546040516312a87c6960e01b81526001600160a01b03909216916312a87c69916131239160040190815260200190565b6040805180830381865afa15801561313f573d6000803e3d6000fd5b505050506040513d601f19601f820116820180604052508101906131639190613ffc565b915091506131a5565b600154604051630a71571960e41b8152600481018690526001600160a01b0385811660248301529091169063a715719090604401613123565b9250929050565b600081518351146131bf5750600061133c565b508151602091820181902091909201919091201490565b60006131eb6001600160a01b038416836135d3565b9050805160001415801561321057508080602001905181019061320e919061464c565b155b156114f457604051635274afe760e01b81526001600160a01b0384166004820152602401610c71565b60006240000082811682036132755760405162461bcd60e51b8152602060048201526002602482015261115560f21b6044820152606401610c71565b61328561ffff841661020061451c565b9392505050565b6000600160325460ff1660098111156132a7576132a76138b5565b036132b55750601854421190565b600260325460ff1660098111156132ce576132ce6138b5565b036132dc5750601954421190565b600360325460ff1660098111156132f5576132f56138b5565b036133035750601954421190565b600660325460ff16600981111561331c5761331c6138b5565b036133275750600190565b600460325460ff166009811115613340576133406138b5565b0361334e5750601a54421190565b600860325460ff166009811115613367576133676138b5565b036133e257600154603954604051637eda4dfb60e11b81526001600160a01b039092169163fdb49bf6916133a19160040190815260200190565b602060405180830381865afa1580156133be573d6000803e3d6000fd5b505050506040513d601f19601f82011682018060405250810190610c19919061464c565b600060325460ff1660098111156133fb576133fb6138b5565b0361344b576001546002546008546040516391516f3b60e01b81526001600160a01b03808516946391516f3b946133a194600160a01b90920460ff1693339391821692919091169060040161479c565b50600090565b6005546040516370a0823160e01b81523060048201526000916001600160a01b0316906370a0823190602401602060405180830381865afa15801561349a573d6000803e3d6000fd5b505050506040513d601f19601f820116820180604052508101906134be919061436e565b9050806000036134cb5750565b6000600a546006546134dd91906145a5565b821061352857603c546001600160a01b031615613528576134fc61203a565b90506135088183614509565b603c54600554919350613528916001600160a01b03908116911683613549565b600854600554613545916001600160a01b03918216911684613549565b5050565b6040516001600160a01b038381166024830152604482018390526114f491859182169063a9059cbb90606401612a8c565b7ff0c57e16840df040f15088dc2f81fe391c3923bec73e23a9662efc9c229c6a0054600160401b900460ff1661128d57604051631afcd79f60e31b815260040160405180910390fd5b61221161357a565b612a3161357a565b60606113398383600084600080856001600160a01b031684866040516135f991906143da565b60006040518083038185875af1925050503d8060008114613636576040519150601f19603f3d011682016040523d82523d6000602084013e61363b565b606091505b509150915061364b868383613655565b9695505050505050565b60608261366a57613665826136b1565b613285565b815115801561368157506001600160a01b0384163b155b156136aa57604051639996b31560e01b81526001600160a01b0385166004820152602401610c71565b5080613285565b8051156136c15780518082602001fd5b604051630a12f52160e11b815260040160405180910390fd5b60005b838110156136f55781810151838201526020016136dd565b50506000910152565b600081518084526137168160208601602086016136da565b601f01601f19169290920160200192915050565b60208152600061133960208301846136fe565b634e487b7160e01b600052604160045260246000fd5b604051601f8201601f191681016001600160401b038111828210171561377b5761377b61373d565b604052919050565b60006001600160401b0382111561379c5761379c61373d565b50601f01601f191660200190565b600082601f8301126137bb57600080fd5b81356137ce6137c982613783565b613753565b8181528460208386010111156137e357600080fd5b816020850160208301376000918101602001919091529392505050565b803563ffffffff8116811461381457600080fd5b919050565b60006080828403121561382b57600080fd5b50919050565b6000806000806080858703121561384757600080fd5b84356001600160401b038082111561385e57600080fd5b61386a888389016137aa565b955061387860208801613800565b9450604087013591508082111561388e57600080fd5b5061389b87828801613819565b9250506138aa60608601613800565b905092959194509250565b634e487b7160e01b600052602160045260246000fd5b600a81106138db576138db6138b5565b9052565b6020810161133c82846138cb565b60008083601f8401126138ff57600080fd5b5081356001600160401b0381111561391657600080fd5b6020830191508360208285010111156131a557600080fd5b80356001600160a01b038116811461381457600080fd5b60008060008060008060008060a0898b03121561396157600080fd5b88356001600160401b038082111561397857600080fd5b6139848c838d016138ed565b909a50985060208b013591508082111561399d57600080fd5b6139a98c838d016138ed565b909850965060408b013595508691506139c460608c0161392e565b945060808b01359150808211156139da57600080fd5b506139e78b828c016138ed565b999c989b5096995094979396929594505050565b60008060208385031215613a0e57600080fd5b82356001600160401b03811115613a2457600080fd5b613a30858286016138ed565b90969095509350505050565b600080600060608486031215613a5157600080fd5b83356001600160401b0380821115613a6857600080fd5b613a74878388016137aa565b9450613a8260208701613800565b93506040860135915080821115613a9857600080fd5b50613aa586828701613819565b9150509250925092565b6020810160078310613ac357613ac36138b5565b91905290565b600281106138db576138db6138b5565b6020810161133c8284613ac9565b60008060008060408587031215613afd57600080fd5b84356001600160401b0380821115613b1457600080fd5b613b20888389016138ed565b90965094506020870135915080821115613b3957600080fd5b50613b46878288016138ed565b95989497509550505050565b600060208284031215613b6457600080fd5b81356001600160401b03811115613b7a57600080fd5b613b86848285016137aa565b949350505050565b6000806000806000808688036101a0811215613ba957600080fd5b613bb38989613819565b9650613bc28960808a01613819565b95506101008801359450613bd9610120890161392e565b9350604061013f1982011215613bee57600080fd5b5061014087019150613c03610180880161392e565b90509295509295509295565b600080600080600080600060a0888a031215613c2a57600080fd5b613c338861392e565b9650602088013595506040880135945060608801356001600160401b0380821115613c5d57600080fd5b613c698b838c016138ed565b909650945060808a0135915080821115613c8257600080fd5b50613c8f8a828b016138ed565b989b979a50959850939692959293505050565b600060208284031215613cb457600080fd5b6113398261392e565b600080600080600060808688031215613cd557600080fd5b85356001600160401b0380821115613cec57600080fd5b613cf889838a016138ed565b9097509550859150613d0c60208901613800565b94506040880135915080821115613d2257600080fd5b50613d2f88828901613819565b925050613d3e60608701613800565b90509295509295909350565b6000613d586137c984613783565b9050828152838383011115613d6c57600080fd5b6132858360208301846136da565b600060208284031215613d8c57600080fd5b81516001600160401b03811115613da257600080fd5b8201601f81018413613db357600080fd5b613b8684825160208401613d4a565b602080825260029082015261455360f01b604082015260600190565b60208082526002908201526113d560f21b604082015260600190565b600181811c90821680613e0e57607f821691505b60208210810361382b57634e487b7160e01b600052602260045260246000fd5b60008154613e3b81613dfa565b808552602060018381168015613e585760018114613e7257613ea0565b60ff1985168884015283151560051b880183019550613ea0565b866000528260002060005b85811015613e985781548a8201860152908301908401613e7d565b890184019650505b505050505092915050565b6000808335601e19843603018112613ec257600080fd5b83016020810192503590506001600160401b03811115613ee157600080fd5b8060051b36038213156131a557600080fd5b80151581146118f957600080fd5b6000613f0d8283613eab565b608080865285018190526001600160fb1b03811115613f2b57600080fd5b60051b808260a087013780850191505060a081016020808501358187015260408501356040870152613f606060860186613eab565b87850360a00160608901529283905292600092849160c0015b81851015613fa55785359250613f8e83613ef3565b821515815294830194600194909401938301613f79565b98975050505050505050565b60a081526000613fc460a08301886136fe565b8281036020840152613fd68188613e2e565b905085604084015263ffffffff851660608401528281036080840152613fa58185613f01565b6000806040838503121561400f57600080fd5b505080516020909101519092909150565b8281526040810161328560208301846138cb565b601f8211156114f457600081815260208120601f850160051c8101602086101561405b5750805b601f850160051c820191505b8181101561407a57828155600101614067565b505050505050565b6001600160401b038311156140995761409961373d565b6140ad836140a78354613dfa565b83614034565b6000601f8411600181146140e157600085156140c95750838201355b600019600387901b1c1916600186901b1783556121be565b600083815260209020601f19861690835b8281101561411257868501358255602094850194600190920191016140f2565b508682101561412f5760001960f88860031b161c19848701351681555b505060018560011b0183555050505050565b6001600160a01b038716815260c06020820181905260009061416590830188613e2e565b82810360408401526141778188613e2e565b60608401969096525050608081019290925260a0909101529392505050565b81516001600160401b038111156141af576141af61373d565b6141c3816141bd8454613dfa565b84614034565b602080601f8311600181146141f857600084156141e05750858301515b600019600386901b1c1916600185901b17855561407a565b600085815260208120601f198616915b8281101561422757888601518255948401946001909101908401614208565b50858210156142455787850151600019600388901b60f8161c191681555b5050505050600190811b01905550565b81835281816020850137506000828201602090810191909152601f909101601f19169091010190565b6040815260006142916040830186613e2e565b828103602084015261364b818587614255565b600082601f8301126142b557600080fd5b61133983835160208501613d4a565b6000602082840312156142d657600080fd5b81516001600160401b038111156142ec57600080fd5b613b86848285016142a4565b60808152600061430c608083018789614255565b828103602084015261431e8187613e2e565b60408401959095525050606001529392505050565b602080825260029082015261272960f11b604082015260600190565b8381528260208201526060604082015260006116286060830184613e2e565b60006020828403121561438057600080fd5b5051919050565b60006020828403121561439957600080fd5b81516007811061328557600080fd5b6040815260006143bc604083018688614255565b82810360208401526143cf818587614255565b979650505050505050565b600082516143ec8184602087016136da565b9190910192915050565b878152600063ffffffff808916602084015260e0604084015261441c60e0840189613e2e565b6001600160401b0388166060850152818716608085015283810360a085015261444581876136fe565b91505082810360c084015261445a8185613e2e565b9a9950505050505050505050565b60008060006060848603121561447d57600080fd5b8351925060208401519150604084015190509250925092565b8381526001600160a01b038316602082015260606040820181905260009061162890830184613e2e565b6060815260006144d360608301866136fe565b6001600160a01b0394851660208401529290931660409091015292915050565b634e487b7160e01b600052601160045260246000fd5b8181038181111561133c5761133c6144f3565b808202811582820484141761133c5761133c6144f3565b60008261455057634e487b7160e01b600052601260045260246000fd5b500490565b60a08152600061456960a08301888a614255565b86602084015263ffffffff8087166040850152838203606085015261458e8287613f01565b925080851660808501525050979650505050505050565b8082018082111561133c5761133c6144f3565b6001600160a01b0388811682528716602082015260a0604082018190526000906145e59083018789614255565b82810360608401526145f78187613e2e565b9050828103608084015261445a818587614255565b86815285602082015260806040820152600061462c608083018688614255565b828103606084015261463f818587614255565b9998505050505050505050565b60006020828403121561465e57600080fd5b815161328581613ef3565b602081528151602082015263ffffffff60208301511660408201526000604083015160e060608401526146a06101008401826136fe565b90506001600160401b03606085015116608084015260018060a01b0360808501511660a084015260a0840151601f198483030160c08501526146e282826136fe565b91505060c08401516146fc60e085018263ffffffff169052565b509392505050565b828152604060208201528151604082015263ffffffff60208301511660608201526000604083015160808084015261473f60c08401826136fe565b9050606084015160a0840152809150509392505050565b6000806040838503121561476957600080fd5b8251915060208301516001600160401b0381111561478657600080fd5b614792858286016142a4565b9150509250929050565b608081016147aa8287613ac9565b6001600160a01b0394851660208301529284166040820152921660609092019190915291905056fea26469706673582212204556025dd476aa30116b0da1254eca66b85f119d7806d4979fec308a0dae6aee64736f6c63430008140033",
  "linkReferences": {},
  "deployedLinkReferences": {}
}