{
  "_format": "hh-sol-artifact-1",
  "contractName": "Staking",
  "sourceName": "contracts/staking/Staking.sol",
  "abi": [
    {
      "inputs": [
        {
          "internalType": "address",
          "name": "_stakingToken1",
          "type": "address"
        },
        {
          "internalType": "address",
          "name": "_stakingToken2",
          "type": "address"
        },
        {
          "internalType": "address",
          "name": "_owner",
          "type": "address"
        },
        {
          "internalType": "uint256",
          "name": "stake_days",
          "type": "uint256"
        }
      ],
      "stateMutability": "nonpayable",
      "type": "constructor"
    },
    {
      "inputs": [
        {
          "internalType": "address",
          "name": "target",
          "type": "address"
        }
      ],
      "name": "AddressEmptyCode",
      "type": "error"
    },
    {
      "inputs": [
        {
          "internalType": "address",
          "name": "account",
          "type": "address"
        }
      ],
      "name": "AddressInsufficientBalance",
      "type": "error"
    },
    {
      "inputs": [],
      "name": "FailedInnerCall",
      "type": "error"
    },
    {
      "inputs": [],
      "name": "ReentrancyGuardReentrantCall",
      "type": "error"
    },
    {
      "inputs": [
        {
          "internalType": "address",
          "name": "token",
          "type": "address"
        }
      ],
      "name": "SafeERC20FailedOperation",
      "type": "error"
    },
    {
      "anonymous": false,
      "inputs": [
        {
          "indexed": true,
          "internalType": "address",
          "name": "user",
          "type": "address"
        },
        {
          "indexed": false,
          "internalType": "uint256",
          "name": "newEndTime",
          "type": "uint256"
        }
      ],
      "name": "StakeExtended",
      "type": "event"
    },
    {
      "anonymous": false,
      "inputs": [
        {
          "indexed": true,
          "internalType": "address",
          "name": "user",
          "type": "address"
        },
        {
          "indexed": true,
          "internalType": "address",
          "name": "orderContract",
          "type": "address"
        },
        {
          "indexed": false,
          "internalType": "uint256",
          "name": "ethAmount",
          "type": "uint256"
        },
        {
          "indexed": false,
          "internalType": "uint256",
          "name": "token1Amount",
          "type": "uint256"
        },
        {
          "indexed": false,
          "internalType": "uint256",
          "name": "token2Amount",
          "type": "uint256"
        }
      ],
      "name": "StakeSeized",
      "type": "event"
    },
    {
      "anonymous": false,
      "inputs": [
        {
          "indexed": true,
          "internalType": "address",
          "name": "user",
          "type": "address"
        },
        {
          "indexed": false,
          "internalType": "uint256",
          "name": "ethAmount",
          "type": "uint256"
        },
        {
          "indexed": false,
          "internalType": "uint256",
          "name": "token1Amount",
          "type": "uint256"
        },
        {
          "indexed": false,
          "internalType": "uint256",
          "name": "token2Amount",
          "type": "uint256"
        },
        {
          "indexed": false,
          "internalType": "uint256",
          "name": "endTime",
          "type": "uint256"
        }
      ],
      "name": "Staked",
      "type": "event"
    },
    {
      "anonymous": false,
      "inputs": [
        {
          "indexed": true,
          "internalType": "address",
          "name": "user",
          "type": "address"
        },
        {
          "indexed": false,
          "internalType": "uint256",
          "name": "ethAmount",
          "type": "uint256"
        },
        {
          "indexed": false,
          "internalType": "uint256",
          "name": "token1Amount",
          "type": "uint256"
        },
        {
          "indexed": false,
          "internalType": "uint256",
          "name": "token2Amount",
          "type": "uint256"
        }
      ],
      "name": "Withdrawn",
      "type": "event"
    },
    {
      "inputs": [],
      "name": "endTime",
      "outputs": [
        {
          "internalType": "uint256",
          "name": "",
          "type": "uint256"
        }
      ],
      "stateMutability": "view",
      "type": "function"
    },
    {
      "inputs": [],
      "name": "ethAmount",
      "outputs": [
        {
          "internalType": "uint256",
          "name": "",
          "type": "uint256"
        }
      ],
      "stateMutability": "view",
      "type": "function"
    },
    {
      "inputs": [],
      "name": "extendStake",
      "outputs": [],
      "stateMutability": "nonpayable",
      "type": "function"
    },
    {
      "inputs": [],
      "name": "getStakeInfo",
      "outputs": [
        {
          "internalType": "uint256",
          "name": "_ethAmount",
          "type": "uint256"
        },
        {
          "internalType": "uint256",
          "name": "_token1Amount",
          "type": "uint256"
        },
        {
          "internalType": "uint256",
          "name": "_token2Amount",
          "type": "uint256"
        },
        {
          "internalType": "uint256",
          "name": "_startTime",
          "type": "uint256"
        },
        {
          "internalType": "uint256",
          "name": "_endTime",
          "type": "uint256"
        },
        {
          "internalType": "bool",
          "name": "_isActive",
          "type": "bool"
        }
      ],
      "stateMutability": "view",
      "type": "function"
    },
    {
      "inputs": [],
      "name": "isActive",
      "outputs": [
        {
          "internalType": "bool",
          "name": "",
          "type": "bool"
        }
      ],
      "stateMutability": "view",
      "type": "function"
    },
    {
      "inputs": [],
      "name": "owner",
      "outputs": [
        {
          "internalType": "address",
          "name": "",
          "type": "address"
        }
      ],
      "stateMutability": "view",
      "type": "function"
    },
    {
      "inputs": [
        {
          "internalType": "address",
          "name": "orderContract",
          "type": "address"
        },
        {
          "internalType": "address",
          "name": "receiver",
          "type": "address"
        }
      ],
      "name": "seizeStake",
      "outputs": [],
      "stateMutability": "pure",
      "type": "function"
    },
    {
      "inputs": [
        {
          "internalType": "address",
          "name": "",
          "type": "address"
        }
      ],
      "name": "seizedOrders",
      "outputs": [
        {
          "internalType": "bool",
          "name": "",
          "type": "bool"
        }
      ],
      "stateMutability": "view",
      "type": "function"
    },
    {
      "inputs": [
        {
          "internalType": "uint256",
          "name": "amount1",
          "type": "uint256"
        },
        {
          "internalType": "uint256",
          "name": "amount2",
          "type": "uint256"
        }
      ],
      "name": "stake",
      "outputs": [],
      "stateMutability": "payable",
      "type": "function"
    },
    {
      "inputs": [],
      "name": "stakeDurationDays",
      "outputs": [
        {
          "internalType": "uint256",
          "name": "",
          "type": "uint256"
        }
      ],
      "stateMutability": "view",
      "type": "function"
    },
    {
      "inputs": [],
      "name": "stakingToken1",
      "outputs": [
        {
          "internalType": "contract IERC20",
          "name": "",
          "type": "address"
        }
      ],
      "stateMutability": "view",
      "type": "function"
    },
    {
      "inputs": [],
      "name": "stakingToken2",
      "outputs": [
        {
          "internalType": "contract IERC20",
          "name": "",
          "type": "address"
        }
      ],
      "stateMutability": "view",
      "type": "function"
    },
    {
      "inputs": [],
      "name": "startTime",
      "outputs": [
        {
          "internalType": "uint256",
          "name": "",
          "type": "uint256"
        }
      ],
      "stateMutability": "view",
      "type": "function"
    },
    {
      "inputs": [],
      "name": "token1Amount",
      "outputs": [
        {
          "internalType": "uint256",
          "name": "",
          "type": "uint256"
        }
      ],
      "stateMutability": "view",
      "type": "function"
    },
    {
      "inputs": [],
      "name": "token2Amount",
      "outputs": [
        {
          "internalType": "uint256",
          "name": "",
          "type": "uint256"
        }
      ],
      "stateMutability": "view",
      "type": "function"
    },
    {
      "inputs": [],
      "name": "withdraw",
      "outputs": [],
      "stateMutability": "nonpayable",
      "type": "function"
    }
  ],
  "bytecode": "0x6101006040523480156200001257600080fd5b506040516200117338038062001173833981016040819052620000359162000145565b60016000556001600160a01b038416158015906200005b57506001600160a01b03831615155b620000ad5760405162461bcd60e51b815260206004820152601760248201527f496e76616c696420746f6b656e2061646472657373657300000000000000000060448201526064015b60405180910390fd5b6001600160a01b038216620001055760405162461bcd60e51b815260206004820152601560248201527f496e76616c6964206f776e6572206164647265737300000000000000000000006044820152606401620000a4565b6001600160a01b0393841660a05291831660c05290911660e05260805262000197565b80516001600160a01b03811681146200014057600080fd5b919050565b600080600080608085870312156200015c57600080fd5b620001678562000128565b9350620001776020860162000128565b9250620001876040860162000128565b6060959095015193969295505050565b60805160a05160c05160e051610f476200022c600039600081816102b80152818161037e015281816104a5015281816104f80152818161053b0152818161071b01528181610792015261087201526000818161015b015281816106400152610a4b01526000818161010a015281816106100152610a110152600081816101dd0152818161067b01526108400152610f476000f3fe6080604052600436106100f35760003560e01c806378e979251161008a578063c35aef7b11610059578063c35aef7b146102f0578063c75a183f14610305578063c98166c014610325578063cfd9ad901461033b57600080fd5b806378e979251461027d5780637b0472f0146102935780638da5cb5b146102a65780639b2bdd4d146102da57600080fd5b8063245acab2116100c6578063245acab2146101cb5780633197cbb6146101ff5780633ccfd60b1461021557806374a4030f1461022c57600080fd5b80630ab8985b146100f857806311dff2591461014957806315d964b71461017d57806322f3e2d4146101a1575b600080fd5b34801561010457600080fd5b5061012c7f000000000000000000000000000000000000000000000000000000000000000081565b6040516001600160a01b0390911681526020015b60405180910390f35b34801561015557600080fd5b5061012c7f000000000000000000000000000000000000000000000000000000000000000081565b34801561018957600080fd5b5061019360025481565b604051908152602001610140565b3480156101ad57600080fd5b506006546101bb9060ff1681565b6040519015158152602001610140565b3480156101d757600080fd5b506101937f000000000000000000000000000000000000000000000000000000000000000081565b34801561020b57600080fd5b5061019360055481565b34801561022157600080fd5b5061022a61036b565b005b34801561023857600080fd5b5060015460025460035460045460055460065460ff166040805196875260208701959095529385019290925260608401526080830152151560a082015260c001610140565b34801561028957600080fd5b5061019360045481565b61022a6102a1366004610dfa565b610528565b3480156102b257600080fd5b5061012c7f000000000000000000000000000000000000000000000000000000000000000081565b3480156102e657600080fd5b5061019360035481565b3480156102fc57600080fd5b5061022a61077f565b34801561031157600080fd5b5061022a610320366004610e38565b6108d2565b34801561033157600080fd5b5061019360015481565b34801561034757600080fd5b506101bb610356366004610e6b565b60076020526000908152604090205460ff1681565b61037361090c565b336001600160a01b037f000000000000000000000000000000000000000000000000000000000000000016146103f05760405162461bcd60e51b815260206004820152601760248201527f4f6e6c79206f776e65722063616e20776974686472617700000000000000000060448201526064015b60405180910390fd5b60065460ff166104345760405162461bcd60e51b815260206004820152600f60248201526e4e6f20616374697665207374616b6560881b60448201526064016103e7565b60055442101561047f5760405162461bcd60e51b815260206004820152601660248201527514dd185ad9481c195c9a5bd9081b9bdd08195b99195960521b60448201526064016103e7565b600154600254600354604080519384526020840192909252908201526001600160a01b037f000000000000000000000000000000000000000000000000000000000000000016907f75e161b3e824b114fc1a33274bd7091918dd4e639cede50b78b15a4eea956a219060600160405180910390a261051c7f0000000000000000000000000000000000000000000000000000000000000000610936565b6105266001600055565b565b61053061090c565b336001600160a01b037f0000000000000000000000000000000000000000000000000000000000000000161461059f5760405162461bcd60e51b81526020600482015260146024820152734f6e6c79206f776e65722063616e207374616b6560601b60448201526064016103e7565b60003411806105ae5750600082115b806105b95750600081115b6106055760405162461bcd60e51b815260206004820152601860248201527f4d757374207374616b6520455448206f7220746f6b656e73000000000000000060448201526064016103e7565b8115610635576106357f000000000000000000000000000000000000000000000000000000000000000083610a78565b8015610665576106657f000000000000000000000000000000000000000000000000000000000000000082610a78565b60065460ff166106b1574260048190556106a0907f000000000000000000000000000000000000000000000000000000000000000090610e86565b6005556006805460ff191660011790555b34600160008282546106c39190610e86565b9250508190555081600260008282546106dc9190610e86565b9250508190555080600360008282546106f59190610e86565b9091555050600554604080513481526020810185905290810183905260608101919091527f00000000000000000000000000000000000000000000000000000000000000006001600160a01b0316907f9cfd25589d1eb8ad71e342a86a8524e83522e3936c0803048c08f6d9ad974f409060800160405180910390a261077b6001600055565b5050565b61078761090c565b336001600160a01b037f000000000000000000000000000000000000000000000000000000000000000016146107f75760405162461bcd60e51b815260206004820152601560248201527413db9b1e481bdddb995c8818d85b88195e1d195b99605a1b60448201526064016103e7565b60065460ff1661083b5760405162461bcd60e51b815260206004820152600f60248201526e4e6f20616374697665207374616b6560881b60448201526064016103e7565b6108657f000000000000000000000000000000000000000000000000000000000000000042610e86565b60058190556040519081527f00000000000000000000000000000000000000000000000000000000000000006001600160a01b0316907f77b82723241f8b64655afe6aad84473df3df901c6aeab3b4bc08e4a6dbb876f29060200160405180910390a26105266001600055565b60405162461bcd60e51b815260206004820152600f60248201526e139bdd081a5b5c1b195b595b9d1959608a1b60448201526064016103e7565b60026000540361092f57604051633ee5aeb560e01b815260040160405180910390fd5b6002600055565b6001805460028054600380546006805460ff19169055600095869055928590559390935590919082156109fe576000846001600160a01b03168460405160006040518083038185875af1925050503d80600081146109b0576040519150601f19603f3d011682016040523d82523d6000602084013e6109b5565b606091505b50509050806109fc5760405162461bcd60e51b8152602060048201526013602482015272115512081d1c985b9cd9995c8819985a5b1959606a1b60448201526064016103e7565b505b8115610a3857610a386001600160a01b037f0000000000000000000000000000000000000000000000000000000000000000168584610bbf565b8015610a7257610a726001600160a01b037f0000000000000000000000000000000000000000000000000000000000000000168583610bbf565b50505050565b6040516370a0823160e01b81523060048201526000906001600160a01b038416906370a0823190602401602060405180830381865afa158015610abf573d6000803e3d6000fd5b505050506040513d601f19601f82011682018060405250810190610ae39190610ea7565b9050610afa6001600160a01b038416333085610c23565b6040516370a0823160e01b81523060048201526000906001600160a01b038516906370a0823190602401602060405180830381865afa158015610b41573d6000803e3d6000fd5b505050506040513d601f19601f82011682018060405250810190610b659190610ea7565b9050610b718383610e86565b8114610a725760405162461bcd60e51b815260206004820152601e60248201527f546f6b656e207472616e7366657220616d6f756e74206d69736d61746368000060448201526064016103e7565b6040516001600160a01b03838116602483015260448201839052610c1e91859182169063a9059cbb906064015b604051602081830303815290604052915060e01b6020820180516001600160e01b038381831617835250505050610c5c565b505050565b6040516001600160a01b038481166024830152838116604483015260648201839052610a729186918216906323b872dd90608401610bec565b6000610c716001600160a01b03841683610cbf565b90508051600014158015610c96575080806020019051810190610c949190610ec0565b155b15610c1e57604051635274afe760e01b81526001600160a01b03841660048201526024016103e7565b6060610ccd83836000610cd6565b90505b92915050565b606081471015610cfb5760405163cd78605960e01b81523060048201526024016103e7565b600080856001600160a01b03168486604051610d179190610ee2565b60006040518083038185875af1925050503d8060008114610d54576040519150601f19603f3d011682016040523d82523d6000602084013e610d59565b606091505b5091509150610d69868383610d75565b925050505b9392505050565b606082610d8a57610d8582610dd1565b610d6e565b8151158015610da157506001600160a01b0384163b155b15610dca57604051639996b31560e01b81526001600160a01b03851660048201526024016103e7565b5080610d6e565b805115610de15780518082602001fd5b604051630a12f52160e11b815260040160405180910390fd5b60008060408385031215610e0d57600080fd5b50508035926020909101359150565b80356001600160a01b0381168114610e3357600080fd5b919050565b60008060408385031215610e4b57600080fd5b610e5483610e1c565b9150610e6260208401610e1c565b90509250929050565b600060208284031215610e7d57600080fd5b610ccd82610e1c565b80820180821115610cd057634e487b7160e01b600052601160045260246000fd5b600060208284031215610eb957600080fd5b5051919050565b600060208284031215610ed257600080fd5b81518015158114610d6e57600080fd5b6000825160005b81811015610f035760208186018101518583015201610ee9565b50600092019182525091905056fea26469706673582212206195c64b61907bae3c64b5d54b792449b77e6d83acae15a39d94db80a89b71ba64736f6c63430008140033",
  "linkReferences": {},
  "deployedLinkReferences": {}
}